:020000040800F2
:10000000E84E0020B102000817600008815A00087D
:10001000156000083F040008217A00080000000075
:10002000000000000000000000000000D76400088D
:100030000109000800000000A9600008D964000858
:10004000CB020008CB020008CB020008CB0200085C
:10005000CB020008CB020008CB020008CB0200084C
:10006000CB020008CB020008CB020008CB0200083C
:10007000CB020008CB020008CB020008CB0200082C
:10008000CB020008CB020008CB020008CB0200081C
:10009000CB020008CB020008CB0200081B090008B5
:1000A000CB020008CB020008CB020008CB020008FC
:1000B000CB020008CB02000895660008CB020008BE
:1000C000CB020008CB020008CB020008CB020008DC
:1000D000CB020008E9790008CB020008CB02000837
:1000E00013090008CB02000800000000CB02000842
:1000F000CB020008CB020008CB020008CB020008AC
:10010000CB020008CB020008CB020008CB0200089B
:10011000CB020008CB020008CB020008B56600083D
:10012000A5040008B1040008CB020008CB020008B7
:10013000CB020008CB020008CB020008CB0200086B
:1001400000000000000000000000000000000000AF
:10015000CB020008BD040008CB020008CB02000857
:10016000CB020008CB020008CB020008CB0200083B
:10017000CB020008CB020008CB020008CB0200082B
:10018000CB020008CB020008456C0008CB02000837
:10019000ED620008CB020008CB020008CB02000889
:1001A000CB020008CB020008CB020008CB020008FB
:1001B000CB020008CB020008CB020008CB020008EB
:1001C000CB020008CB020008CB020008CB020008DB
:1001D000CB020008CB020008CB020008CB020008CB
:1001E000CB020008CB020008CB020008CB020008BB
:1001F000CB020008CB020008CB020008CB020008AB
:10020000CB020008CB020008CB020008CB0200089A
:10021000CB020008CB020008CB020008CB0200088A
:10022000CB020008CB020008CB020008000000004F
:10023000CB020008CB02000800000000CB0200083F
:10024000CB020008CB020008CB020008CB0200085A
:10025000CB020008CB020008CB020008CB0200084A
:10026000CB020008CB020008CB020008CB0200083A
:10027000CB020008CB020008CB02000800000000FF
:10028000CB020008CB020008CB02000800000000EF
:1002900000000000CB020008DFF810D000F08EF85C
:1002A000004800474D8A0008AFF30080E84E002068
:1002B0000648804706480047FEE7FEE7FEE7FEE700
:1002C000FEE7FEE7FEE7FEE7FEE7FEE7B9650008AA
:1002D000990200082DE9F05F0546002092469B46F2
:1002E00088460646814640241BE02846414647464C
:1002F000224600F053F853465A46C01A914110D393
:1003000011461846224600F03AF82D1A67EB01080C
:100310004F4622460120002100F031F817EB00097A
:100320004E41201EA4F10104DFDC484631462A4636
:100330004346BDE8F09F40EA01039B0703D009E074
:1003400008C9121F08C0042AFAD203E011F8013BC1
:1003500000F8013B521EF9D27047D2B201E000F81A
:10036000012B491EFBD270470022F6E710B5134659
:100370000A4604461946FFF7F0FF204610BD202A22
:1003800004DB203A00FA02F1002070479140C2F1EC
:10039000200320FA03F3194390407047202A04DB1E
:1003A000203A21FA02F00021704721FA02F3D040EE
:1003B000C2F120029140084319467047064C074D90
:1003C00006E0E06840F0010394E807009847103425
:1003D000AC42F6D3FFF764FFA0A10008C0A100085B
:1003E00070B58D1810F8014B14F0030201D110F80C
:1003F000012B231106D110F8013B03E010F8016B2B
:1004000001F8016B521EF9D1ABB110F8012B04F0C9
:100410000C048A1A0C2C03D0A2EB84129B1C08E05B
:1004200010F8014BA2EB0422F8E712F8014B01F897
:10043000014B5B1EF9D5A942D4D3002070BDFEE765
:1004400010B5846B204600F017FB0120207110BD11
:1004500010B5846B204600F066FA0120207110BDB3
:1004600010B5846B206940F004002061204600F044
:1004700005FB0120207110BD10B5846B206940F090
:1004800004002061204600F050FA0120207110BDC8
:1004900010B5806B00F0F1FA10BD10B5806B00F064
:1004A00043FA10BD0148C06F00F016BFBC14002015
:1004B0000148806F00F010BFBC140020014800F01C
:1004C0000BBF000070100020294A016891423AD009
:1004D000274A1832914236D0254A3032914232D0E2
:1004E000234A483291422ED0214A603291422AD08A
:1004F0001F4A7832914226D01D4A9032914222D032
:100500001B4AA83291421ED01A4A91421BD0194A66
:100510001832914217D0174A3032914213D0154AFF
:10052000483291420FD0134A603291420BD0114AA7
:100530007832914207D00F4A9032914203D00D4A4F
:10054000A832914211D1CAB21823103AB2FBF3F289
:100550006FF30901032A02F00703074AD25CC26560
:1005600000D9091D81650846704721F0FF01F9E7B0
:100570001000024010040240D49E000830B5224A08
:10058000012301689142CAB21BD01F4C1434A1420E
:1005900017D01D4C2834A14213D01B4C3C34A1422F
:1005A0000FD0194C5034A1420BD0174C6434A142E7
:1005B00007D0154C7834A14203D0134C8C34A1429F
:1005C0000CD11421114C083AB2FBF1F10F4A8032E0
:1005D00001F01F0504EB8101AB4010E00C4D182425
:1005E000103A0D44B2FBF4F1A82D00D80831094AA5
:1005F00001F01F0402EB8101064AA3408032603003
:1006000080E80E0030BD000008540258005802581F
:10061000F0FBFDBF0008024010B50279531E072B06
:100620002DD8174C0168A1421BD0154C1434A1429F
:1006300017D0134C2834A14213D0114C3C34A142A2
:100640000FD00F4C5034A1420BD00D4C6434A1425A
:1006500007D00B4C7834A14203D0094C8C34A14212
:1006600003D10849074C443102E00749064C4431A4
:1006700004EB8202C0E91B2101219940416710BDB2
:1006800008540258FC580258FC08024010B583690F
:100690004FF0C074826A0146002053B1B3F5005F89
:1006A00015D072B1012A0CD0022A0AD0032A09D12E
:1006B00004E01AB1012A06D0022A03D1C96AC9018D
:1006C00000D5012010BDC96AA142FAD010BD002A90
:1006D000F7D0012AF2D0022AF3D0032AF3D010BDBA
:1006E0002DE9F04F804E804FDFF8FC911836DFF88F
:1006F000F8A148370468856D0AF1300ADFF8ECB1DB
:100700004C45DFF8ECC1DFF8ECE16DD0B4426BD0C2
:10071000544569D0BC4267D0DFF8D081A8F11808F1
:10072000444561D05C455FD064455DD074455BD085
:10073000DFF8C481444557D0DFF8BC8108F11808C0
:10074000444551D0DFF8B08108F1300844454BD022
:10075000DFF8A48108F14808444545D0DFF89881C6
:1007600008F1600844453FD0DFF88C8108F1780833
:10077000444539D0DFF8808108F19008444533D0F2
:10078000DFF8748108F1A80844452DD0DFF86C81AA
:10079000444529D0DFF8648108F11408444523D08A
:1007A000DFF8588108F1280844451DD0DFF84C8156
:1007B00008F13C08444517D0DFF8408108F15008A3
:1007C000444511D0DFF8348108F1640844450BD06A
:1007D000DFF8288108F17808444505D0DFF81C814E
:1007E00008F18C08444509D1D0E91948C4F80480BF
:1007F000C46E1CB1D0E91C48C4F8048004684C45A0
:100800002ED0B4422CD054452AD0BC4228D0374EEA
:10081000183EB44224D05C4522D0644520D07445B3
:100820001ED0354EB4421BD0334E1836B44217D0CA
:10083000314E3036B44213D02F4E4836B4420FD02A
:100840002D4E6036B4420BD02B4E7836B44207D0D2
:10085000294E9036B44203D0274EA836B44215D163
:1008600090F85C603F2406F01F06B440AC6004685A
:10087000256825F4802525602EE09A600068C16017
:10088000BDE8F08F99600068C260F9E71B4EB44282
:100890001BD01A4E1436B44217D0184E2836B44224
:1008A00013D0164E3C36B4420FD0144E5036B442DC
:1008B0000BD0124E6436B44207D0104E7836B44294
:1008C00003D00E4E8C36B442DAD190F85C6001242D
:1008D00006F01F06B4406C60046863608368402BB8
:1008E0000368CFD1C9E70000100002408800024031
:1008F000A0000240B8000240100402400854025810
:100900007047012080F310887047002080F3108822
:1009100070474FF4006001F0FFBB4FF4807001F0AE
:10092000FBBB72B6FEE77047704770472DE9F05F7A
:10093000040017460D464FF0000B0FD075B16079DB
:1009400001280ED04FF0010A84F805A00221217180
:10095000286807F01006042805D04BE00120BDE808
:10096000F09F0220FBE701F009FD80464FF00309EC
:100970005FB125E001F002FDA0EB0800012805D9D8
:100980002068406B384201D012E03A4F2068406B3B
:100990003842EFD12168A869086418E001F0EEFC44
:1009A000A0EB080001280BD92068406B002807DA6B
:1009B000216941F00801216184F804900320CEE709
:1009C0002068406B0028E9DB2168A869486440F290
:1009D000FF332168EA69B340886CB2409843104302
:1009E00088642068FF222B6AB240C16CB3409143F7
:1009F0001943C1642869012808D122681F23696945
:100A0000906BB340B1409843014391632368072141
:100A1000E868DA6BB140012822EA010203D002281B
:100A200026D0A86820B30021AF682868384308435F
:100A30004FF48041B0401043D8632068B140026851
:100A40008A4302602268116840F6FE736868B3400A
:100A50009943B04008431060C021B140206802684B
:100A60008A43026084F804A000206071584676E74B
:100A70000121D9E70080002070477047704770B5AA
:100A8000040003D02079002510B105E0012070BDDD
:100A90002046657100F008F80221217101202561CE
:100AA0002071002070BD00002DE9F04186B0804625
:100AB00014216846FFF758FC2149D8F80000884205
:100AC0003AD12048016841F000510160006800F00F
:100AD000005005901B480838016841F00101016091
:100AE00000680025032100F00100059010208DE82A
:100AF00023001548694601F01BFB144C40221448A2
:100B0000432104F1040ED701206003158EE826006E
:100B1000C614900204F11001C4E908054FF4807C6A
:100B2000204681E8C81000F04BFF08B1FFF7F9FE3E
:100B3000C8F80840C4F8388006B0BDE8F08100006D
:100B400000740040E8440258000002587010002071
:100B5000A0040240F0B500B34279012A1FD001225F
:100B6000427102230371066801F0100402FA04F5D1
:100B700037682F4337600029016812D00D68A34001
:100B800005F478149C4203D14B6843F002034B6098
:100B90000021027141710846F0BD0120F0BD022024
:100BA000F0BD0B68C3F34403012BF1D14B6843F054
:100BB0000103ECE72DE9F041040017460D460698C5
:100BC0001BD0617901291BD0012666710221217198
:100BD000C5B1E168294ACA63E26829491164E2683B
:100BE0002849D16421680A6842F080520A6040B303
:100BF0002268042828D01C3227E00120BDE8F081BB
:100C00000220FBE7A168204ACA63A2681F49116459
:100C1000A2681F49D16421680A6842F480520A60C0
:100C200020B12268042804D0103203E02268083280
:100C300000E00C322068016841F400510160A068B6
:100C400009E02268143200E018322068016841F09F
:100C500000510160E068394601F094F800216171AB
:100C600020B1216941F004012161C7E7216805F045
:100C700010030A689E4032430A60BFE7510400082F
:100C80009B0400087904000841040008910400084E
:100C90006104000870B504001FD0226801250029F6
:100CA00001F010004FF48053116803FA00F321EAB9
:100CB0000301116005FA00F32068016821EA0301CD
:100CC00001600CD0E06800F013F82068016821F0A2
:100CD000005101602571002070BD012070BDA06829
:100CE00000F006F82068016821F40051F1E70000E7
:100CF0002DE9F84F044601F041FB00903CB194F817
:100D00003500022806D0802161650020E4E0012042
:100D1000BDE8F88FC74DC74EC64918352068303634
:100D2000DFF81483DFF814938842DFF814A3DFF8A8
:100D300014B32ED0A8422CD0B0422AD0404528D09F
:100D4000484526D0504524D0584522D0BD4A1832B7
:100D500090421ED0BC4A90421BD0BB4A18329042EF
:100D600017D0B94A3032904213D0B74A4832904235
:100D70000FD0B54A603290420BD0B34A78329042DD
:100D800007D0B14A9032904203D0AF4AA832904285
:100D900009D1026822F01E0202602068426922F036
:100DA0008002426103E0026822F00E0202602768BE
:100DB0008F4238464DD0A8424BD0B04249D0404532
:100DC00047D0484545D0504543D0584541D09D4A2D
:100DD000183290423DD09C4A90423AD09A4A1832FA
:100DE000904236D0984A3032904232D0964A4832B9
:100DF00090422ED0944A603290422AD0924A783261
:100E0000904226D0904A9032904222D08E4AA83208
:100E100090421ED08D4A90421BD08C4A1432904290
:100E200017D08A4A2832904213D0884A3C329042E6
:100E30000FD0864A503290420BD0844A643290429E
:100E400007D0824A7832904203D0804A8C3297424F
:100E500004D1206E026822F4807202607549206815
:100E6000884228D0A84226D0B04224D0404522D083
:100E7000484520D050451ED058451CD071491831E6
:100E8000884218D07049884215D06F49183188427D
:100E900011D06D49303188420DD06B4948318842BC
:100EA00009D069496031884205D067497831884264
:100EB00001D065499031016821F0010101600EE027
:100EC00001F05CFA0099401A052808D920226265D1
:100ED0000321002084F8351084F8340017E73868BF
:100EE000C007EDD1534A0121206890422ED0A8427C
:100EF0002CD0B0422AD0404528D0484526D0504575
:100F000024D0584522D04F4B183398421ED04E4B18
:100F100098421BD04C4B1833984217D04A4B303371
:100F2000984213D0484B483398420FD0464B603319
:100F300098420BD0444B7833984207D0424B9033C1
:100F4000984203D0404BA833984208D194F85C7083
:100F50003F23A06D07F01F07BB40836007E094F8B4
:100F60005C30A06D03F01F0301FA03F343602068B7
:100F700090424DD0A8424BD0B04249D0404547D0D6
:100F8000484545D0504543D0584541D02D4A1832A8
:100F900090423DD02C4A90423AD02B4A183290428F
:100FA00036D0294A3032904232D0274A48329042D5
:100FB0002ED0254A603290422AD0234A783290427D
:100FC00026D0214A9032904222D01F4AA832904225
:100FD0001ED01E4A90421BD01C4A1432904217D099
:100FE0001A4A2832904213D0184A3C3290420FD00D
:100FF000164A503290420BD0144A6432904207D0C5
:10100000124A7832904203D0104A8C3290420BD16F
:10101000D4E919024260E06E30B1026822F48072B5
:101020000260D4E91C024260002084F8351084F884
:1010300034006DE61000024058000240700002408B
:1010400088000240A00002401004024008540258E8
:101050002DE9F05F28B190F83510022904D08021E5
:1010600041650120BDE8F09F904C904B0168183C11
:1010700018338E4ADFF83C92A1428D4CDFF838E2FB
:101080008E4FDFF83CB2DFF83CA28F4D8F4E31D04F
:1010900091422FD099422DD0A1422BD0494529D041
:1010A000714527D0B94225D0DFF810C20CF1180CD9
:1010B00061451FD0DFF808C2ACF1600C614519D062
:1010C000DFF8FCC1ACF1480C614513D0DFF8F0C18A
:1010D000ACF1300C61450DD0DFF8E4C1ACF1180C77
:1010E000614507D0594505D0514503D0A94201D0EB
:1010F000B1422CD1DFF8B4C14FF0040880F835803C
:10110000ACF1180C61451DD091421BD0994219D009
:10111000A14217D0494515D0714513D0B94211D01D
:101120006648183081420DD065486038814209D048
:1011300063484838814205D061483038814201D047
:101140005F481838086820F001000860ABE0D1F86B
:1011500000C02CF00E08DFF854C1C1F80080ACF1DB
:10116000180C0168614527D0914225D0994223D0BF
:10117000A14221D049451FD071451DD0B9421BD095
:10118000DFF838C10CF1180C614515D0DFF830C11B
:10119000ACF1600C61450FD0DFF824C1ACF1480C14
:1011A000614509D0DFF818C1ACF1300C614503D0BE
:1011B000DFF80CC1ACF1180CD1F800C02CF0010C18
:1011C000C1F800C0DFF8E4804FF0010C0168A8F11D
:1011D0001808414546D0914244D0994242D0A1429C
:1011E00040D049453ED071453CD0B9423AD0334A0F
:1011F0001832914236D0324A603A914232D0304A67
:10120000483A91422ED02E4A303A91422AD02C4A66
:10121000183A914226D0594524D0514522D0A942AE
:1012200020D0B1421ED02A4A91421BD0284A143203
:10123000914217D0264A2832914213D0244A3C3298
:1012400091420FD0224A503291420BD0204A643250
:10125000914207D01E4A7832914203D01C4A8C3208
:10126000914218D1016E0A6822F480720A6090F8E7
:101270005C20816D02F01F020CFA02F24A60D0E994
:1012800019124A60C16E31B10A6822F480720A6094
:10129000D0E91C124A600022016D80F835C080F848
:1012A000342001B188470020DCE60000280002401D
:1012B000580002407000024088000240A000024036
:1012C0007004024088040240A0040240B8040240B6
:1012D00008540258406D70472DE9FC5F0446F74EF4
:1012E0000020DFF8D88300904FF41652F44808F13C
:1012F0001808A56DDFF8C493DFF8C0A3016809F1F1
:10130000300920680AF1480AB1FBF2F1B0420191BC
:101310002F68D5F800C0DFF8ACB335D0414688421D
:1013200032D0484530D050452ED058452CD0E549D4
:101330001831884228D0E3493031884224D0E1492D
:101340004831884220D0E04988421DD0DE4918311A
:10135000884219D0DC493031884215D0DA49483109
:10136000884211D0DFF860E30EF1600E70450BD0BB
:10137000D54A7832904207D0D34B9033984203D06D
:10138000D149A83188427DD194F85C20082102F02F
:101390001F0201FA02F23A424AD0B04232D040452E
:1013A00030D048452ED050452CD058452AD0C54A7B
:1013B0001832904226D0C34A3032904222D0C14ADD
:1013C000483290421ED0C04A90421BD0BE4A1832CA
:1013D000904217D0BC4A3032904213D0BA4A4832B9
:1013E00090420FD0B84A603290420BD0B64A783261
:1013F000904207D0B44A9032904203D0B24AA83209
:10140000904203D1026802F0040202E0026802F096
:1014100008026AB1026822F00402026094F85C00DB
:1014200000F01F008140A960606D40F00100606520
:1014300094F85C00012100F01F008140394240D047
:101440002068B04234D0404532D0484530D0504575
:101450002ED058452CD09B4A1832904228D0994A19
:101460003032904224D0974A4832904220D0964A57
:1014700090421DD0944A1832904219D0924A30328C
:10148000904200E0AFE113D08F4A483290420FD033
:101490008D4A603290420BD08B4A7832904207D00E
:1014A000894A9032904203D0874AA83290427DD137
:1014B000406910F0800F04D0A960606D40F0020018
:1014C000606594F85C00042100F01F0081403942FF
:1014D0003ED02068B04232D0404530D048452ED072
:1014E00050452CD058452AD0764A1832904226D002
:1014F000744A3032904222D0724A483290421ED012
:10150000714A90421BD0704A1832904217D06E4AEE
:101510003032904213D06C4A483290420FD06A4A1F
:10152000603290420BD0684A7832904207D0664AC7
:101530009032904203D0644AA83290424ED1006863
:1015400010F0020F04D0A960606D40F004006065E7
:1015500094F85C00102100F01F008140394258D0FF
:101560002068B04234D0404532D0484530D0504554
:101570002ED058452CD0534A1832904228D0514A88
:101580003032904224D04F4A4832904220D04E4AC6
:1015900090421DD04C4A1832904219D04A4A3032FB
:1015A000904215D0484A4832904200E014E00FD0F3
:1015B000454A603290420BD0434A7832904207D07D
:1015C000414A9032904203D03F4AA832904207D11C
:1015D000006800F0080006E0006872E70068B7E7FE
:1015E000006800F00400A0B1A96020680168490308
:1015F00004D50068000308D5A16C07E00168C9059F
:1016000003D4016821F008010160216C09B1204672
:10161000884794F85C00202100F01F008140394287
:1016200079D02068B04232D0404530D048452ED0E5
:1016300050452CD058452AD0224A1832904226D004
:10164000204A3032904222D01E4A483290421ED068
:101650001D4A90421BD01C4A1832904217D01A4A99
:101660003032904213D0184A483290420FD0164A76
:10167000603290420BD0144A7832904207D0124A1E
:101680009032904203D0104AA832904203D10068B1
:1016900000F0100002E0006800F00200B0B3A960A2
:1016A00094F835000428206801680FD049037ED5DE
:1016B000006800032BD4616C2AE000001000024097
:1016C000000A0020700002401004024021F01601C0
:1016D00001602068416921F080014161206C08B9F6
:1016E000A06C20B12068016821F00801016094F825
:1016F0005C303F21012003F01F0300229940A960C4
:1017000084F8350084F83420216D65E003E0E16B56
:1017100009B120468847606D00287DD0606DC00704
:1017200059D02068042184F83510B0422BD04045B0
:1017300029D0484527D0504525D0584523D09D492C
:10174000884220D09B49183188421CD099493031B9
:10175000884218D09849884215D097491831884254
:1017600011D09549303188420DD093494831884293
:1017700009D091496031884205D08F49783188423B
:1017800001D08D499031016821F00101016020688C
:101790000099019A491C0091914202D80168C90739
:1017A000F6D10068C00710D003200FE0FFE7016802
:1017B000C905ACD403680121002223F010030360A3
:1017C00084F8351084F83420A1E7012084F835002E
:1017D000002084F83400E16C00291DD002B02046BE
:1017E000BDE8F05F0847754988421DD07349143140
:1017F000884219D071492831884215D06F493C314F
:10180000884211D06D49503188420DD06B49643106
:10181000884209D0694900E084E07831884203D0E9
:1018200066498C3188427DD194F85C800427016838
:1018300008F01F0807FA08F717EA0C0F009746D0C0
:101840004F0744D500980F04686003D5C8033CD403
:10185000A16CC1E7880638D42068B0422DD0554924
:101860006039884229D0484527D0504525D0584571
:1018700023D05049884220D04E49183188421CD08C
:101880004C493031884218D04B49884215D04A49DA
:101890001831884211D04849303188420DD046492C
:1018A0004831884209D0704507D0904205D098420F
:1018B00003D04149A831884203D1016821F00801D1
:1018C00002E0016821F004010160216C84E7022735
:1018D00007FA08F717EA0C0F00974ED08F074CD580
:1018E00000980F04686003D5C80344D4616C73E7A3
:1018F000880640D42068B0422FD02E4960398842F3
:101900002BD0484529D0504527D0584525D02949C6
:10191000884222D02749183188421ED025493031CB
:10192000884200E044E018D02349884215D022497B
:101930001831884211D02049303188420DD01E49DB
:101940004831884209D0704507D0904205D098426E
:1019500003D01949A831884203D1016821F014014C
:1019600002E0016821F00A010160012184F83510CC
:10197000002084F83400E16B2EE7082202FA08F216
:1019800012EA0C0F14D0090712D5016821F00E01DC
:10199000016094F85C100120002201F01F0100FAA0
:1019A00001F16960606584F8350084F8342012E73D
:1019B000BDE8FC9F88000240100402400854025811
:1019C0002DE9F05F044600F0D9FC002C07467DD0DD
:1019D000E34E022120684FF00308DFF888934FF0B0
:1019E0000005DFF884A3B042DFF880B334D0DC4ACE
:1019F0001832904230D048452ED050452CD0584512
:101A00002AD0DA4A1832904226D0D84A3032904250
:101A100022D0D64A483290421ED0D54A90421BD09E
:101A2000D34A1832904217D0D14A3032904213D064
:101A3000CF4A483290420FD0CD4A603290420BD00C
:101A4000CB4A7832904207D0C94A9032904203D0B4
:101A5000C74AA83290427DD184F83510B04284F84C
:101A600034502ED0BE49183188422AD0484528D05B
:101A7000504526D0584524D0BC491831884220D042
:101A8000BA49303188421CD0B8494831884218D010
:101A9000B749884215D0B6491831884211D0B449A7
:101AA000303188420DD0B2494831884209D0B0491E
:101AB0006031884205D0AE497831884201D0AC49C6
:101AC0009031016821F00101016008E027E100BFC9
:101AD00000F054FCC01B052801D920211CE120681E
:101AE0000068C007F4D104F108002168D4E9053C7E
:101AF0008E4685C809681043D4E907281F43636AE6
:101B000038439C4F40EA0C001043394040EA08003B
:101B1000042B40EA010003D1D4E90B12114308431E
:101B2000954909686FF30F01B1F1005F0FD3616848
:101B3000A1F12902052A08D9163A032A05D9083A3B
:101B4000012A02D94F39032901D840F48010CEF878
:101B5000000000E023E02068676A4069042F20F05D
:101B6000070047EA00070DD1D4E90A01074349B14C
:101B70002046FEF78BFD28B140206065012184F8E6
:101B80003510CCE0206847612046FEF79DFC94F8B4
:101B90005C203F2102F01F029140816054E0774AAF
:101BA00090421BD0754B1433984217D0734B283397
:101BB000984213D0714B3C3398420FD06F4B503347
:101BC00098420BD06D4B6433984207D06B4B7833FF
:101BD000984203D0694B8C3398427DD184F83510FC
:101BE00084F83450664B0168A26801EA030E402A6B
:101BF00073D0802A72D00022D4E90378D4E9053169
:101C000042EAD70242EAD8085C4AD4E9077C48EAAB
:101C1000D30848EAD10141EAD701524241EA1C11F6
:101C2000142341EA0E01016020681044B0FBF3F078
:101C30008000E0652046FEF747FC94F85C20012117
:101C400002F01F02914041602068B04257D04449E1
:101C50001831884253D0484551D050454FD058454F
:101C60004DD042491831884249D0404930318842EC
:101C700045D03E494831884241D03D4988423ED016
:101C80003B49183188423AD039493031884236D000
:101C900037494831884232D03549603188422ED0A8
:101CA0003349783188422AD031499031884226D050
:101CB0002F49A831884222D0304988421FD02F496D
:101CC000143188421BD02D492831884217D02B4926
:101CD0003C31884213D002E01DE017E018E02749AC
:101CE000503188420BD025496431884207D02349BE
:101CF0007831884203D021498C31884229D120464D
:101D0000FEF73CFCA06880280CD00CE0102273E7A2
:101D10004FF4804270E74021616584F835800120EE
:101D2000BDE8F09F6560216E20790860D4E9190153
:101D300041606068401E072808D82046FEF76CFC0A
:101D4000E06E0560D4E91C01416002E0E5662567AC
:101D500065670120656584F835000020E0E7000034
:101D60001000024040000240580002407000024053
:101D7000100402403F8010FE0010005C085402581E
:101D80000F00FEFF2DE9F84F04008C464FF00000D5
:101D9000009014D094F83400012812D094F83550F3
:101DA0000120002184F83400012D0CD0C0026065B0
:101DB0000120009084F834100098BDE8F88F0120CD
:101DC000FBE70220F9E78C4D0226206884F8356095
:101DD000A8428A4D61658A4E8A4FDFF82C82DFF86F
:101DE0002C92DFF82CA2DFF82CB226D0A84224D007
:101DF000B04222D0B84220D040451ED048451CD029
:101E000050451AD0584518D08349884215D0824988
:101E10001831884211D08049303188420DD07E4936
:101E20004831884209D07C496031884205D07A49DE
:101E30007831884201D078499031016821F0010160
:101E4000016061462046FEF74BFC6B4920688842E2
:101E50002CD0A8422AD0B04228D0B84226D0404543
:101E600024D0484522D0504520D058451ED06A4A3B
:101E700090421BD0684A1832904217D0664A3032DE
:101E8000904213D0644A483290420FD0624A603286
:101E900090420BD0604A7832904207D05E4A90322E
:101EA000904203D05C4AA83290420CD1026822F0E2
:101EB0001E0242F016020260206C88B1206802689F
:101EC00042F008020BE0026822F00E0242F00A0221
:101ED0000260206C20B12068026842F004020260B7
:101EE000206888424BD0A84249D0B04247D0B8427F
:101EF00045D0404543D0484541D050453FD0584556
:101F00003DD0454A90423AD0434A1832904236D0AA
:101F1000414A3032904232D03F4A483290422ED02D
:101F20003D4A603290422AD03B4A7832904226D0D5
:101F3000394A9032904222D0374AA83290421ED07D
:101F4000364A90421BD0354A1432904217D0334A59
:101F50002832904213D0314A3C3290420FD02F4A5F
:101F6000503290420BD02D4A6432904207D02B4A17
:101F70007832904203D0294A8C3290420DD1206EA3
:101F80000268D20303D5026842F480720260E06EF8
:101F900018B1026842F4807202602068884226D03C
:101FA000A84224D0B04222D0B84220D040451ED012
:101FB00048451CD050451AD0584518D0164988427B
:101FC00015D015491831884211D013493031884253
:101FD0000DD011494831884209D00F4960318842FB
:101FE00005D00D497831884201D00B499031016804
:101FF00041F001010160DFE61000024028000240CC
:102000004000024058000240700002408800024038
:10201000A0000240B80002401004024008540258D8
:1020200070B5044600F0AAF90546601C02D00448C9
:102030000078044400F0A2F9401BA042FAD370BD1E
:10204000F409002010B517202DED028B00F04EFA98
:102050002C484FF480735900024607F0D4FA07F079
:10206000E5FB07F065FE2849F1EE040A274881EDFB
:10207000000A70EE201A91ED011AB4EEE11AF1EEA9
:1020800010FA02DBC0ED071A0BE070EE600AB4EE46
:10209000E01AF1EE10FA02D8C0ED070A01E080ED77
:1020A000071A1A4803F0CAFFB5EEC00A184CF1EE41
:1020B00010FA1BD20120B1EE408A07F079FE18EE2B
:1020C000100A1CE0FA2004E0BCEEC80A10EE100A68
:1020D00080B207F0BDFE0F480178491C017017203F
:1020E000BDEC028BBDE8104000F011BA0220B0EE4A
:1020F000408A07F05DFEB0EE480A10EE100AA042DA
:10210000E2DDDFE7001C025818100020F40F002069
:1021100000007A43000000204FF0B04110B5D1F824
:102120008820024203D0C1F88800FFF78BFF10BD62
:102130002DE9F84F03247D4D00234FF001094FF0A6
:10214000B04B4FF00F0AE9E009FA03F73A4076D0B6
:102150000E7906F00306012E01D0022E18D1D0F818
:1021600008C04FEA430ECE6804FA0EF82CEA080CB9
:1021700006FA0EF646EA0C068660D0F804C00E7920
:102180002CEA070CC6F300169E4046EA0C06466091
:102190000E79F643B6070BD0C6684FEA43088F683E
:1021A00004FA08FC26EA0C0607FA08F73743C7606A
:1021B0000E7906F00306022E12D1DE080F694FEAEF
:1021C000437C00EB8606B646366A4FEADC6C0AFAB8
:1021D0000CF807FA0CF726EA08063743CEF8207009
:1021E0000F7906684FEA430807F0030704FA08FC72
:1021F00007FA08F726EA0C06374307604E6816F41C
:10220000403F1CD04A4E376847F0020737603668B7
:102210009F0706F00206009623F0030606F1B0467B
:10222000B6463F0FD6F80864DFF808810AFA07FCC3
:10223000404526EA0C0603D14FF0000C41E06CE06B
:10224000DFF8F4C0604502D14FF0010C39E0DFF84F
:10225000ECC0604502D14FF0020C32E0DFF8E0C084
:10226000604502D14FF0030C2BE0DFF8D8C0604589
:1022700002D14FF0040C24E0DFF8CCC0604502D15D
:102280004FF0050C1DE0DFF8C4C0604502D14FF0EF
:10229000060C16E0DFF8B8C0604502D14FF0070C1D
:1022A0000FE0DFF8B0C0604502D14FF0080C08E045
:1022B000DFF8A4C0604502D14FF0090C01E04FF0F7
:1022C0000A0C0CFA07FC4CEA060CCEF808C44F685E
:1022D000DBF80060FF0226EA020600D516435F46DF
:1022E000CBF80060D1F804C0DBF804605FEA8C2C06
:1022F00026EA020600D516437E606E684F6826EA1D
:102300000206BF0300D516436E602E684F6826EAAA
:102310000206FF0300D516432E605B1C0A6832FAE2
:1023200003F67FF411AFBDE8F88F0000800000587D
:10233000F4440258000002580004025800080258F1
:10234000000C0258001002580014025800180258DD
:10235000001C02580020025800240258006908405E
:1023600000D0012070470AB1816170470904FBE782
:1023700001480068000C70470010005C014880684C
:1023800070470000F4090020024881680278114477
:1023900081607047F4090020032010B500F0E4F8D4
:1023A00001F0BEF80F4A104914681368C4F3032201
:1023B00003F00F038A5CC95C02F01F0201F01F01E9
:1023C000D0400A4A20FA01F11160094908600F2043
:1023D00000F010F808B1012010BD00F079F80020DD
:1023E00010BD000018440258F49E0008040A0020A2
:1023F000000A002070B50D4D04462878A0B14FF4B6
:102400007A71B1FBF0F00A490968B1FBF0F002F013
:10241000D0FA48B9102C07D200222146501E00F0F5
:1024200083F800206C6070BD012070BDF4090020AD
:10243000000A0020154BF0B5083B427813491A609A
:102440000B680A1F23F001030B6043681360057BD0
:10245000C67A827A437B2D07847B45EA0665C77B73
:1024600090F809C0067A90F800E045EAC24040EAD8
:10247000834040EA444040EA074040EA0C2040EAFA
:10248000460040EA0E000860F0BD0000A0ED00E04C
:10249000BFF35F8F044800210368034A23F48033AD
:1024A000036070321160704724ED00E0074A40F08D
:1024B0000100064970321060086840F480300860FE
:1024C000BFF34F8FBFF36F8F7047000024ED00E024
:1024D000054808B5016841F002010160006800F09C
:1024E0000200009008BD0000F444025800280DDBF3
:1024F000410900F01F028900012001F1E021904014
:10250000C1F88001BFF34F8FBFF36F8F7047002872
:1025100009DB410900F01F028900012001F1E021DF
:102520009040C1F8000170470E4BF0B41B680D4697
:10253000C3F30223C3F10706042E00D90426191D94
:10254000072901D2002300E0DB1E012404FA06F172
:102550009C40491E2940641E994014402143F0BC10
:1025600005F080BA0CED00E0064900F0070210B556
:102570004FF6FF040868044B204040EA022018434D
:10258000086010BD0CED00E00000FA05134970B5BD
:102590000A68D243520705D5096801F00701814254
:1025A00013D118E00A6822F0070202430A60FFF71D
:1025B000E5FE0A4D4FF47A760446083D07E000BF79
:1025C000FFF7DCFE001BB04201D9012070BD286876
:1025D000C0438004F4D4002070BD00000C480258B1
:1025E00010B500F057FF05490968054AC1F302110B
:1025F000515C01F01F01C84010BD0000204402588A
:10260000F49E0008494930B5484C0B1D0A68143443
:1026100009681D68246802F00303C5F30012C1F3C2
:102620000531C4F3CC04002914FB02F200EE102A99
:10263000F8EE400A75D03F4A9FED3D1AB7EE000A0A
:102640006BB1DFED3D1A012B01D0022B64D002EEFD
:10265000101A1168F8EE422A81EEA22A21E0334CCA
:10266000283C23689B0612D5344B246801EE901A4F
:102670001168C4F3C104F8EE612AE34001EE903A18
:10268000C1F30801F8EE611A81EEA22A0BE001EE17
:10269000901ADFED2B2A00BFF8EE611A116882EE66
:1026A000A12AC1F3080101EE901A1168F8EE611A2F
:1026B00040EE811A71EE800A62EE200AC1F34621D3
:1026C00001EE101AB8EE411A31EE001AC0EE811A6E
:1026D000BCEEE11A80ED001A1168C1F3064101EE6B
:1026E000101AB8EE411A31EE001AC0EE811ABCEE93
:1026F000E11A80ED011A1168C1F3066101EE101AAA
:10270000B8EE411A31EE000A80EE801ABCEEC10A22
:1027100080ED020A30BD04E001EE901ADFED092AD7
:10272000BAE70021016041608160F3E72844025864
:1027300000000039384402580024744A0090D00345
:102740000024744C20BCBE4B494930B5484C0B1D8D
:102750000A681C3409681D68246802F00303C5F385
:102760000022C1F30551C4F3CC04002914FB02F28A
:1027700000EE102AF8EE400A75D03F4A9FED3D1A50
:10278000B7EE000A6BB1DFED3D1A012B01D0022B31
:1027900064D002EE101A1168F8EE422A81EEA22AE5
:1027A00021E0334C283C23689B0612D5344B246827
:1027B00001EE901A1168C4F3C104F8EE612AE340F7
:1027C00001EE903AC1F30801F8EE611A81EEA22AF7
:1027D0000BE001EE901ADFED2B2A00BFF8EE611A34
:1027E000116882EEA12AC1F3080101EE901A116866
:1027F000F8EE611A40EE811A71EE800A62EE200A4C
:10280000C1F3462101EE101AB8EE411A31EE001A5A
:10281000C0EE811ABCEEE11A80ED001A1168C1F316
:10282000064101EE101AB8EE411A31EE001AC0EE60
:10283000811ABCEEE11A80ED011A1168C1F306613C
:1028400001EE101AB8EE411A31EE000A80EE801A3D
:10285000BCEEC10A80ED020A30BD04E001EE901A20
:10286000DFED092ABAE70021016041608160F3E7EA
:102870002844025800000039404402580024744A99
:102880000090D0030024744C20BCBE4B2DE9FE4FB9
:102890000546DFF8E48350F8081B0024F64FC943CF
:1028A000019005F12800264608F12408009008014F
:1028B0001DD4A86E50B1B0F5801F0CD0B0F5001F2C
:1028C0000ED0B0F5401F1ED001240FE0386840F450
:1028D0000030386017E00198022103F0E7FB03E0C5
:1028E0000098022103F072FC04000CD026462888D0
:1028F000C043C00523D4A86D05281ED2DFE800F030
:102900000C11161B1B00AA6ED8F8001021F4401100
:102910001143C8F80010EAE7386840F40030386026
:1029200009E00198002103F0C1FB03E000980021B9
:1029300003F04CFC044674B100E0012426462888CC
:10294000C043800528D4E86D80281ED00CDC90B1EF
:1029500040280ED114E0AA6DD8F8001021F007012C
:102960001143C8F80010EAE7C02813D0B0F5807F03
:1029700010D001240FE0386840F40030386009E0DE
:102980000198002103F092FB03E00098002103F07E
:102990001DFC04469CB126462888DFF8DC92C04323
:1029A00009F12C0940052CD4D5F8A800B0F5800F0A
:1029B00020D00DDCA0B1B0F5001F0FD115E0EA6DFD
:1029C000D8F8001021F4E0711143C8F80010E3E7D3
:1029D000B0F5C00F13D0B0F5000F10D001240FE0F8
:1029E000386840F40030386009E00198002103F0B5
:1029F0005DFB03E00098002103F0E8FB04467CB196
:102A000026462888C04300052DD4D5F8AC00B0F187
:102A1000007F21D00EDCA8B1B0F1807F10D116E08C
:102A2000D5F8A820D9F8001021F460011143C9F8A5
:102A30000010E6E7B0F1407F13D0B0F1806F10D006
:102A400001240FE0386840F40030386009E0019854
:102A5000002103F02BFB03E00098002103F0B6FBFC
:102A6000044674B126462868C04380011FD4E86C30
:102A7000D8B110280FD0202812D0302815D001242A
:102A800014E0D5F8AC20D9F8001021F0E061114332
:102A9000C9F80010E7E7386840F40030386004E017
:102AA0000198022103F002FB044674B126462888EF
:102AB000C043C0042BD4286EB0F5005F20D00DDCDD
:102AC000A0B1B0F5805F0FD115E06B48EA6C203003
:102AD000016821F0300111430160E8E7B0F5405F83
:102AE00013D0B0F5804F10D001240FE0386840F4C7
:102AF0000030386009E00198002103F0D7FA03E0C4
:102B00000098002103F062FB04468CB12646288819
:102B1000C043800429D4686EB0F5403F23D010DC58
:102B200008B3B0F5803F14D0B0F5003F0FD115E0E9
:102B30002A6ED8F8001021F4E0411143C8F80010C3
:102B4000E5E7B0F5802F0ED0B0F5A02F0BD0012413
:102B50000AE00198012103F0A9FA03E0009801219D
:102B600003F034FB044694B126462888C043400451
:102B70002AD4D5F8B000B0F1405F23D010DC08B300
:102B8000B0F1805F14D0B0F1005F0FD115E06A6E34
:102B9000D8F8001021F4E0211143C8F80010E4E750
:102BA000B0F1804F0ED0B0F1A04F0BD001240AE05D
:102BB0000198012103F07AFA03E00098012103F063
:102BC00005FB044674B126462888C04300041FD480
:102BD000286FD8B1B0F1805F0ED0B0F1005F10D097
:102BE000012414E0D5F8B020D9F8001021F0E0411C
:102BF0001143C9F80010E7E7386840F40030386046
:102C000004E00198012103F051FA044674B126460C
:102C10002868C043C0011ED4A86CD0B101280ED0D2
:102C2000022811D0032814D0012413E02A6FD8F809
:102C3000001021F040511143C8F80010E8E738684F
:102C400040F40030386004E00198022103F02EFACD
:102C50000446ACB126462868DFF81CB0C043ABF18F
:102C60001C0B400252D40548016841F48071016098
:102C7000FFF784FB824611E02C44025800480258BA
:102C8000FA48AA6C016821F0030111430160E2E7F0
:102C9000FFF774FBA0EB0A00642835D8F4480068FD
:102CA000C005F5D58CBBDFF8C4A3B5F8B4100AF1A4
:102CB000240ADAF8000001F4407100F44070884200
:102CC00011D0DAF80010DAF8002021F4407142F453
:102CD0008032CAF80020DAF8002022F48032CAF8E4
:102CE0000020CAF80010D5F8B400B0F5807F1AD1E2
:102CF000FFF744FB029012E0FFF740FB0299411AF4
:102D000041F2883081420AD9032426462878DFF828
:102D10005CA3C0430AF1080AC00721D03CE0DAF8FE
:102D200000008007E8D5D5F8B410C1F301200328CE
:102D300058460DD0016821F47C510160B5F8B420EB
:102D4000DAF80010C2F30B021143CAF80010DDE7F5
:102D5000C84A036802EA111223F47C511143ECE7DC
:102D6000E86F182816D005DCA0B1082808D0102874
:102D700004D10AE020280DD028280BD001240AE035
:102D80000198012103F092F903E00098012103F07A
:102D90001DFA044664B126462878C04380071ED435
:102DA000A86F062819D2DFE800F0160C11161616C7
:102DB000EA6FDAF8001021F038011143CAF8001068
:102DC000EAE70198012103F071F903E0009801217D
:102DD00003F0FCF904467CB100E001242646287883
:102DE000C04340071FD4D5F89400062819D2DFE865
:102DF00000F0160C11161616AA6FDAF8001021F062
:102E000007011143CAF80010E9E70198012103F016
:102E10004DF903E00098012103F0D8F90446A4B16C
:102E200000E0012426462878C04380062BD4D5F83C
:102E30009000B0F1405F24D011DC10B3B0F1805F9E
:102E400015D0B0F1005F10D116E0D5F89420D9F874
:102E5000001021F007011143C9F80010E3E7B0F1B9
:102E6000804F0ED0B0F1A04F0BD001240AE00198A2
:102E7000002103F01BF903E00098022103F0A6F9FA
:102E8000044694B126462878C04340062BD4D5F892
:102E90009C00B0F5406F24D011DC10B3B0F5806F0A
:102EA00015D0B0F5006F10D116E0D5F89020DAF803
:102EB000001021F0E0411143CAF80010E3E7B0F53B
:102EC000805F0ED0B0F5A05F0BD001240AE001981E
:102ED000002103F0EBF803E00098022103F076F9FB
:102EE000044694B126462878C04300062BD4D5F872
:102EF000A000B0F5C04F24D011DC10B3B0F5005FD6
:102F000015D0B0F5804F10D116E0D5F89C20D9F837
:102F1000001021F4E0511143C9F80010E3E7B0F5C7
:102F2000004F0ED0B0F5204F0BD001240AE00198DD
:102F3000002103F0BBF803E00098022103F046F9FA
:102F4000044654B126462878C04300071ED4D5F85D
:102F50008400B0F5805F0AD00FE0D5F8A020D9F842
:102F6000001021F460411143C9F80010EBE700980C
:102F7000022103F02BF900B10126D5F88420DAF8FC
:102F8000001021F440511143CAF800102878C043C2
:102F9000C00613D4D5F89800B0F5807F05D100980D
:102FA000022103F013F900B10126D5F89820D9F8D1
:102FB000001021F440711143C9F800102868C04383
:102FC000000316D4D5F8A40038B1B0F5803F09D07D
:102FD000B0F5003F0BD001240AE00198002103F076
:102FE00065F803E00098022103F0F0F804468CB184
:102FF00026462868C043400322D4D5F88800B0F59F
:10300000801F11D0B0F5001F13D0B0F5401F15D0B0
:10301000012414E0D5F8A420D9F8001021F440319F
:103020001143C9F80010E4E7386840F40030386014
:1030300004E00098012103F0C9F804465CB126467B
:103040002868C043C00323D4286DA8B1B0F5803FE1
:1030500017D001241BE0D5F88820DAF8001021F4FD
:1030600040111143CAF80010EAE700004C4402582E
:1030700000480258CFFFFF00386840F40030386045
:1030800004E00198022103F011F80446E4B1264659
:103090002868C043800005D40098022103F096F808
:1030A00000B101262868C04380031BD4D5F88000F6
:1030B000B0B1B0F5807F0FD0B0F5007F10D0B0F583
:1030C000407F0DD001240CE05A482A6D016821F49C
:1030D000803111430160DBE7386840F4003038602C
:1030E000ECB326462868C043C00207D46A6FD8F8FC
:1030F000001021F000411143C8F800102868C043B7
:10310000C00008D4D5F8B820DBF8001021F48041C5
:103110001143CBF800102868C043800207D4EA6E40
:10312000D8F8001021F080711143C8F80010286809
:10313000C04340000CD4DBF8001021F40041CBF870
:103140000010DBF80010D5F8BC201143CBF80010BC
:103150002868C04308D437486A6D016800E018E069
:1031600021F04051114301602868C043000208D497
:10317000D5F88C20DAF8001021F440011143CAF888
:10318000001028790024C04300F0010020430AD039
:103190000FE0D5F88020DAF8001021F440711143D7
:1031A000CAF800109EE70198002102F07FFF00B1ED
:1031B00006462879C04300F00200204305D101985B
:1031C000012102F073FF00B106462879C04300F0E8
:1031D0000400204305D10198022102F067FF00B1ED
:1031E00006462879C04300F00800204305D1009826
:1031F000002102F0EBFF00B106462879C04300F041
:103200001000204305D10098012102F0DFFF00B13A
:1032100006462879C04300F02000044304D10098FA
:10322000022102F0D3FF00B916B10120BDE8FE8FE4
:103230000020FBE74C4402582DE9F05F04000F46E4
:103240007ED0DFF83882D8F8000000F00F00B842D6
:103250000CD2D8F8001021F00F013943C8F8001043
:10326000D8F8000000F00F00B84269D12078844DF2
:1032700040070AD52069296801F07001884204D905
:10328000296821F070010143296020787C4E361DA9
:1032900000070AD56069316801F07001884204D9DD
:1032A000316821F07001014331602078C0060AD5F1
:1032B000A069316801F4E061884204D9316821F4E1
:1032C000E061014331602078DFF8B4B180060BF192
:1032D000080B0CD5E1695846DBF8002002F07002BB
:1032E000914204D9026822F070020A4302602078F9
:1032F00080070AD5E068296801F00F01884204D9E7
:10330000296821F00F01014329602078C0073ED0D1
:103310005B49A2682868183920F47060104328605F
:103320006068022818D0032819D00968012819D02C
:10333000490700294ADADFF848A1AAF1080A00E0A3
:1033400044E0DAF8002022F007020243CAF8002025
:10335000FFF714F8814612E009688903E9E7096874
:103360008901E6E7C905E4E7FFF708F8A0EB0901E2
:1033700041F28830814202D90320BDE8F09F6168A4
:10338000DAF8000000F03800B0EBC10FECD1207883
:1033900080070AD5E068296801F00F01884204D24D
:1033A000296821F00F0101432960D8F80010404638
:1033B00001F00F01B9420BD9016821F00F01394327
:1033C0000160006800F00F00B84201D00120D4E78E
:1033D000207840070AD52069296801F070018842E9
:1033E00004D2296821F07001014329602078000788
:1033F0000AD56069316801F07001884204D23168F1
:1034000021F07001014331602078C0060AD5A0691F
:10341000316801F4E061884204D2316821F4E0614E
:1034200001433160207880060CD5E1695846DBF80D
:10343000002002F07002914204D2026822F0700271
:103440000A43026000F06CF80E492A682B68C2F348
:10345000032203F00F038A5CC95C02F01F0201F033
:103460001F01D040084A20FA01F1116007490860A5
:1034700007480068BDE8F05FFEF7BCBF00200052BF
:1034800018440258F49E0008040A0020000A002094
:10349000F809002030B500F043F80B4A0B490C4BFB
:1034A00015681468C5F3032204F00F048A5C095DF3
:1034B00002F01F0201F01F01D040064A20FA01F17C
:1034C00019601060084630BD18440258F49E000888
:1034D000040A0020000A002000B5FFF7DBFF0549C1
:1034E0000968054AC1F30211515C01F01F01C8408F
:1034F00000BD00001C440258F49E000800B5FFF710
:10350000C9FF05490968054AC1F30221515C01F070
:103510001F01C84000BD00001C440258F49E000872
:10352000454970B545480968434B103B11F03802D6
:1035300008D00111082A03D0102A0BD0182A0BD06A
:10354000084670BD19688906FBD51968C1F3C10129
:10355000C84070BD3A4870BD3749374D18310C1D11
:1035600024350A68096826682D6802F0030406F00D
:103570000102C1F30511C5F3CC0515FB02F200EE03
:10358000102AB8EE400AE9B32F4ADFED2E0AB7EE53
:10359000001A6CB1DFED2D1A012C01D0022C43D0A2
:1035A00002EE101A1068F8EE422A81EEA22A1EE0FE
:1035B0001C68A40611D51B6801EE901A1168C3F3AC
:1035C000C103F8EE612AD84001EE900AC1F3080069
:1035D000F8EE611A81EEA22A0BE001EE901ADFEDFF
:1035E0001C2A00BFF8EE611A106882EEA12AC0F30F
:1035F000080001EE900AF8EE611A40EE201A31EE52
:10360000810A00E015E022EE000A1068C0F34620AF
:10361000401C00EE900AF8EE600A80EE201ABCEE24
:10362000C10A10EE100A70BD01EE901ADFED092AF2
:10363000D8E7002070BD0000104402580090D0036D
:1036400040787D0100000039304402580024744A5B
:103650000024744C20BCBE4B2DE9F05F04007DD0EB
:10366000FF4F2078FE4D1837DFF8F493103DC00768
:1036700048D0D9F80000396800F03800102815D07B
:10368000182803D101F0030002280FD06068B0F5BC
:10369000803F12D010B1B0F5A02F18D0286820F4C8
:1036A00080302860286820F4802009E028688003A2
:1036B00028D560680028D2D024E0286840F4803003
:1036C0002860606888B1FEF759FE064609E0286860
:1036D00040F480202860F0E7FEF750FE801B64284D
:1036E0006FD828688003F7D50CE0FEF747FE064642
:1036F00005E000BFFEF742FE801B6428F0D8286872
:103700008003F7D4207841F20308D54E0C3E8007A1
:1037100069D5D9F80000396810F038000ED01828A3
:1037200001D188070AD0E06890B3296821F0190117
:1037300001432960FEF722FE824631E028684007F7
:1037400002D5E06800288AD0E168286820F01900D6
:1037500008432860FEF712FE824607E0DFE000BF64
:10376000FEF70CFEA0EB0A000228B9D82868400733
:10377000F6D500BFFEF7FCFD40451BD82069402868
:1037800012D0316821F47C3141EA003030602AE007
:1037900018E000BFFEF7F2FDA0EB0A0002289FD858
:1037A00028684007F6D5E5E7306820F47C3040F41F
:1037B0000030EBE7207C316821F0FE4141EA0060F7
:1037C000E4E70DE1286820F001002860FEF7D6FD4F
:1037D000824605E0FEF7D2FDA0EB0A0002288DD854
:1037E00028684007F6D42078C0065DD5D9F80000D7
:1037F000DFF86CB2396800F03800ABF1040B082830
:1038000010D0182803D101F0030001280AD0E06984
:103810000028286838D040F080002860FEF7AEFD10
:10382000824623E02868C00523D5E069802876D148
:103830001FE0206A202821D0316821F0F84141EAB8
:103840008060306030E000BF94F82010DBF800208A
:1038500022F07C5242EA0161CBF8001024E000BF64
:10386000FEF78CFDA0EB0A00022898D82868C00556
:10387000F6D5FEF77DFD4045E6D8DAE7306820F062
:10388000F84040F08040DCE720F080002860FEF740
:1038900075FD064605E000BFFEF770FD801B02289F
:1038A0009DD82868C005F7D42078000729D56C4832
:1038B0006169643000298046016811D041F001013E
:1038C0000160FEF75BFD064605E000BFFEF756FD12
:1038D000801B0228C9D8D8F800008007F6D510E070
:1038E00021F001010160FEF749FD064605E000BF39
:1038F000FEF744FD801B022872D8D8F8000080072C
:10390000F6D42078800623D5A0690028286810D036
:1039100040F480502860FEF731FD064605E036E1B0
:10392000FEF72CFD801B02285AD828688004F7D5A2
:103930000EE020F480502860FEF720FD064604E0EB
:10394000FEF71CFD801B02284AD828688004F7D4A3
:10395000207840074FD5DFF80C81D8F8001041F4EB
:103960008071C8F80010FEF709FD064605E000BFAB
:10397000FEF704FD801B642832D8D8F80000C0058B
:10398000F6D5374EA068603601280AD008B1052860
:1039900013D0306820F001003060306820F004005F
:1039A00002E0306840F001003060A06841F2883ADF
:1039B00090B1FEF7E3FC80460AE0306840F0040076
:1039C0003060EEE7FEF7DAFCA0EB0801514507D8BE
:1039D00030688007F6D50EE0FEF7D0FC804607E0A1
:1039E00084E000BFFEF7CAFCA0EB080151457DD87A
:1039F00030688007F6D4606AB0B3DFF86480D9F825
:103A0000001008F120084FF6F87B08F10409C1F313
:103A1000C2010329A8F1040A69D00228286820F00D
:103A20008070286003D0FEF7A9FC044684E0FEF70E
:103A3000A5FC064605E000BFFEF7A0FC801B02289F
:103A400077D828688001F7D4E26A40F2F331386809
:103A500054F8283F884340EA02101843386004E0D5
:103A60001044025800480258B5E0217B43462289A1
:103A70004FF4FE0C208A4FF0FE474902267D521E6D
:103A8000401EA1F50071C2F308088AB2761E0CEA46
:103A9000004042EA08020243504607EA06610A4330
:103AA0001A60DAF8002022F00102CAF80020D9F8E2
:103AB0000020266A22EA0B0242EAC602C9F8002068
:103AC000DAF80010A26921F00C011143CAF80010C5
:103AD0000168E26921F0020111430160016841F4CB
:103AE00080310160016841F4003101E021E027E00C
:103AF0000160016841F480210160016841F0010129
:103B00000160286840F080702860FEF737FC0446AA
:103B100005E000BFFEF732FC001B022809D8286828
:103B20008001F7D557E000BFFEF728FC001B0228F4
:103B300002D90320BDE8F09F28688001F4D44AE050
:103B400039680128D8F8000021D0A26A01F00303E7
:103B500093421CD1E26AC1F305118A4217D1216B4D
:103B6000C0F30802491E8A4211D1616BC0F346229C
:103B7000491E91420BD1A16BC0F30642491E9142EE
:103B800005D1E16BC0F30660491E814201D00120DE
:103B9000D0E7A16C4E46D9F80000C0F3CC008142BA
:103BA00019D0DAF80000554620F00100CAF80000EC
:103BB000FEF7E4FB4FEA0007FEF7E0FBB842FBD05C
:103BC000A26C306820EA0B0040EAC200306028682E
:103BD00040F0010028600020ACE700000548022208
:103BE0000021426001700423034A0449044800F0A4
:103BF000CFBC000020000020000000300001003099
:103C0000BC1400202DE9F047044600680021036938
:103C10004269876894F8816000F130095FEA025CCC
:103C200003EA02050AD51A0708D5816941F4006143
:103C30008161204600F089FBBDE8F08715F0600F38
:103C400008D1680706D5616F20468847216F204656
:103C50008847012105F04100012805D1680703D4F8
:103C6000216F20468847012105F02200022806D155
:103C7000680704D4616F2046BDE8F0470847002973
:103C8000DAD128074FF001085BD52068816941F03F
:103C9000080181612068816941F01001816120681B
:103CA000816941F4006181612068016921F00801A6
:103CB00001612068806810F4404F20D023E0E06864
:103CC0000F2806D92068616E006B0860606E001DC9
:103CD0000FE0072806D9B9F80000616E0880606E11
:103CE000801C06E02068616E90F830000870606EFD
:103CF000401C6066B4F86A00401EA4F86A00B4F87C
:103D00006A000028DBD1204602F0F6FA84F88180B0
:103D1000D4F8840018B12046FFF760FF8CE7052E29
:103D200007D0042E09D0032E86D1204600F0E0FDF6
:103D300082E7204600F0F4FD7EE7204600F0F6FA28
:103D40007AE715F4587FE9D068060AD5D4F88400DC
:103D500040F00400C4F884002068816941F040010B
:103D60008161A8050AD5D4F8840040F00100C4F8A8
:103D700084002068816941F400718161E8050AD5F9
:103D8000D4F8840040F00800C4F8840020688169F9
:103D900041F480718161A8060AD5D4F8840040F00E
:103DA0008000C4F884002068816941F020018161AD
:103DB000D4F884000028B1D0206840F26B32C7F3F9
:103DC00081310368032923F0010101602068016942
:103DD00021EA0201016102D084F881809BE720681A
:103DE000104D816821F440418160E06F50B105655C
:103DF000E06FFDF72DF928B1D4F8840040F04000C1
:103E0000C4F88400A06F002888D00565A06FFDF776
:103E10001FF900288CD0D4F8840040F04000C4F88A
:103E2000840009E7B56300082DE9F047040029D0B4
:103E3000594A4FF000092068584B594D9042C4F838
:103E4000289006D0984204D0A84202D0E1680F29F9
:103E500018D8E1684FF0010AE76B0831C9080AEB8E
:103E600057167143904205D0984203D0A84201D022
:103E7000082907D8904203D0984201D0A84204D123
:103E8000102902D90120BDE8F08794F8810020B9FB
:103E9000204684F8809000F085F8022084F88100A4
:103EA0002068016821F0010101602068A169826831
:103EB000B1F1806F02F4F81110D16268B2F5800F91
:103EC00001D01AB10AE0A26B22B107E0A26BB2F1F5
:103ED000805F03D1026842F4805202606068400251
:103EE00009D5E068072806D32068236D026822F40C
:103EF00080721A4303E02068026822F48072026034
:103F0000A66AE069E26B25683043E3680A43104320
:103F10001843A860D4E90D02D4E90581636A2569D4
:103F20001843D4F820C00A43266810432843A56DDF
:103F3000D4E90172D4E9123140EA080040EA0C00E9
:103F400038430843104318432843F060606868B959
:103F50002068816821F4C05141F4006181602068CB
:103F6000816821F4C06141F4806181602068016D45
:103F700021F0010101656068400206D52068626D8C
:103F8000C16821F000411143C160C4F8849084F8F5
:103F900081A0002077E70000003001400038004099
:103FA000003C00402DE9F04FB7B00746142130A87F
:103FB000FCF7DAF9C0216846FCF7D6F9734D002406
:103FC00071494FF4806B3868103D704E4FF0020914
:103FD00088424FF005084FF0010A36D14114199478
:103FE0000020CDE900106846FEF750FC08B1FCF750
:103FF00098FC306840F480103060306800F4801025
:104000003590286840F400702860286800F400703B
:104010003590286840F480602860286830A9CDF881
:10402000C0B000F48060CDE931943394CDE93480A0
:104030005748FEF77DF8CDF8C0A030A9CDE93194FE
:104040005448CDE93348FEF773F85349386888423D
:104050007ED1286840F010002860286800F0100029
:104060003590306840F400503060306800F4005003
:10407000359046481838016841F002010160006837
:104080004646DFF8188130A900F0020035904FF461
:104090008050CDF8C890CDE93009CDE933964D4632
:1040A0004046FEF745F84FF40050349630A9309062
:1040B0004046FEF73DF84FF48040349630A93090EA
:1040C0004046FEF735F830A834964FF4006180E89A
:1040D000220430A94046FEF72BF8324D4FF0030A78
:1040E0002F4954202B1DD946402229604FF4001639
:1040F000C5E9094A83E815026C614FF40008AC6118
:104100002846EC612C62C5E90B86FDF759FC324666
:10411000DFF88CC005F17806BD67AF63ACF1180C11
:104120005320C6F800C04FF40031C6E9094AC6E979
:104130000104C6E9034974613046B461C6E9074128
:10414000C6E90B82FDF73CFC0122FE67114600E048
:1041500016E03920B763FEF7E7F93920FEF7D7F903
:10416000002201213820FEF7DFF93820FEF7CFF9D1
:10417000002201215420FEF7D7F95420FEF7C7F999
:1041800037B0BDE8F08F000000500140F044025805
:104190000024025800280258003401400010025840
:1041A00028040240701100202DE9F041044690F8E7
:1041B000810016460025012802D084F880502FE0A7
:1041C00059B356B394F88000012829D0A26801277A
:1041D00084F88070042084F88100C4F88450256736
:1041E00065676166A4F860502C34B2F5C02FA687CD
:1041F000E687E58654F82C0D15D0C16821F4C0215E
:1042000041F48021C0F80C10E0684FF480410F2881
:104210000ED9E26F92698A420AD084F8805055E044
:104220000220BDE8F081016821F400610160EBE744
:1042300007284FF4005205D9E06F8069904201D001
:104240008842EAD12068836823F480438360E06871
:10425000072811D8E06F8369934205D1B4F86A202A
:10426000521C5208A4F86A208069884210D1B4F820
:104270006A00C01C800809E00F2809D8E06F806937
:10428000884205D1B4F86A00401C4008A4F86A00CE
:10429000E06F23490164E16F2248C863E16F22485F
:1042A000C864E06F0565B4F86A302168626EE06F3B
:1042B0003031FDF767FD58B1D4F8840084F88050A0
:1042C00040F01000C4F8840084F881700120A8E751
:1042D000E06FC069B0F5807F206841686FF30F011F
:1042E00000D0314341602068816841F480418160A1
:1042F0002068016941F4507101612068016841F052
:10430000010101606068B0F5800F04D12068016888
:1043100041F400710160002084F8805081E70000C2
:10432000FB63000819640008CF63000803490120FB
:10433000486010220249034800F01EBA2000002005
:1043400000010030BC140020704770472DE9F84F81
:10435000044600689946174600F1200B8A46FEF78E
:104360000DF8064694F88100012839D1BAF1000F02
:104370007ED0002FFCD094F88000012830D0A268B5
:1043800000254FF0010884F88080032184F8811013
:10439000C4F88450C4F85CA06566A4F868506567EA
:1043A00025672C34B2F5C02FA786E786E58754F839
:1043B0002C0D18D0C16821F4C02141F40031C16036
:1043C000206841686FF30F0139434160206801683C
:1043D00041F0010101606068B0F5800F08D00CE089
:1043E0000220BDE8F88F016841F400610160E7E751
:1043F0002068016841F400710160E0680F281CD852
:1044000020E02068416989070BD5E16D09680162E8
:10441000E06D001DE065B4F86200401EA4F8620083
:104420000BE0FDF7ABFF811B494503D3B9F1FF3F1B
:1044300003D09DE0B9F1000F32D0B4F8620000283B
:10444000DFD179E007282FD872E020684169890719
:104450001ED5B4F8621001290DD9E16B59B1E16D97
:1044600009680162E06D001DE065B4F8620000E0DB
:104470007CE0801E09E0E06D0188ABF80010E06D83
:10448000801CE065B4F86200401EA4F862000BE0F6
:10449000FDF774FF811B494503D3B9F1FF3F03D0FA
:1044A00066E0B9F1000F63D0B4F862000028CCD107
:1044B00042E02068416989072ED5B4F862100329CB
:1044C0000CD9E16B402909D9E16D09680162E06D01
:1044D000001DE065B4F86200001F1AE0B4F8621035
:1044E00001290CD9E16B51B1E06D0188ABF80010E6
:1044F000E06D801CE065B4F86200801E09E0E16DAB
:10450000097880F82010E06D401CE065B4F8620086
:10451000401EA4F862000BE0FDF730FF811B494507
:1045200003D3B9F1FF3F03D022E0B9F1000F1FD050
:10453000B4F862000028BCD100224B460821204676
:10454000009601F0A5FF28B1D4F8840040F02000C7
:10455000C4F88400204601F0CFFE84F88180D4F8AE
:10456000840084F8805000283FF43BAF012038E7F6
:10457000204601F0C1FED4F8841084F8805041F444
:104580008071C4F8841084F88180032029E700003A
:104590002DE9F041044690F881001E4601283DD1E6
:1045A00000293AD0002AFCD0002EFAD094F88000DE
:1045B000012833D0012784F880700025052084F875
:1045C0008100C4F88450E165A4F86060A4F86260DA
:1045D0006266A4F86860A4F86A6025676567206869
:1045E000C16821F4C021C1602068816821F4404184
:1045F0008160E068B9030F2803D9E26F92698A42AB
:1046000009D107284FF4005C0BD9E36F9A69624522
:104610002CD08A422AD084F880507EE00220BDE867
:10462000F081A06F8269624505D1B4F86220521C06
:104630005208A4F862208069884205D1B4F862006B
:10464000C01C8008A4F86200E06F8269624505D151
:10465000B4F86A20521C5208A4F86A208069884283
:1046600019D1B4F86A00C01C800812E00F2812D8D3
:10467000A06F8069884205D1B4F86200401C4008F0
:10468000A4F862009869884205D1B4F86A00401C19
:104690004008A4F86A00E06F3549DFF8D080016473
:1046A000E16F3448C863E16FC1F84C80E06F056585
:1046B000B4F86A302168626EE06F3031FDF762FB5A
:1046C00050B1D4F8840084F8805040F01000C4F851
:1046D000840084F8817020E02068816841F4804182
:1046E0008160A06F0564A06FC563A06F0565A16FB1
:1046F000C1F84C80B4F862302268E16DA06F2032BE
:10470000FDF740FB58B154F87C0FFCF7F1FAA068B4
:10471000257140F01000A060677101207FE7A06F55
:10472000C069B0F5807F206841686FF30F0100D049
:10473000314341602068816841F400418160206814
:10474000016941F4587101612068016841F001017B
:1047500001606068B0F5800F04D12068016841F401
:1047600000710160002084F8805058E7CF63000892
:104770000F640008696400082DE9F041044690F8D0
:104780008100164601283DD100293AD0002E7FD065
:1047900094F88000012835D0A2680025012784F80C
:1047A0008070032084F88100C4F8845065666567D2
:1047B0002567E165A4F868502C34B2F5C02FA686B1
:1047C000E686E58754F82C0D1FD0C16821F4C0217E
:1047D00041F40031C0F80C10E1684FF480420F2919
:1047E00003D9A06F8069904209D1A06F07294FF4C7
:1047F00000530FD9806998421DD090421BD084F895
:10480000805045E00220BDE8F081016841F400617C
:104810000160E1E78169994205D1B4F86210491C51
:104820004908A4F86210806990420ED1B4F8620081
:10483000C01C800807E00F2907D8904205D1B4F8C2
:104840006200401C4008A4F86200A06F2549016482
:10485000A16F2548C863A16F2448C864A06F05658F
:104860002068816821F400418160B4F862302268D8
:10487000E16DA06F2032FDF785FA58B1D4F88400BD
:1048800084F8805040F01000C4F8840084F88170EF
:104890000120B8E7A06FC069B0F5807F206841684B
:1048A0006FF30F0100D0314341602068816841F40B
:1048B000004181602068016941F44871016120680C
:1048C000016841F0010101606068B0F5800F04D11A
:1048D0002068016841F400710160002084F8805074
:1048E00091E700000564000841640008CF630008F8
:1048F0000749012010B5486010210648FBF734FD38
:10490000BDE81040034910220348FFF74DBC0000EA
:104910002000002000000030BC1400207047000080
:1049200070B51C4C1C4925780878A5B1217801295F
:1049300025D14FF0000118B3012820D121700423A4
:10494000154A16491648FFF723FEBDE870400021BE
:10495000084603F08FBE10B1012807D00DE00D48C6
:104960001049083000EBC200426803E048880E4A54
:104970000E4943BA0A48FFF70BFE0120207070BDB4
:1049800021700423BDE87040034A04490448FFF73E
:10499000FFBD0000200000200000003000010030BA
:1049A000BC1400200068003000C00030001000304F
:1049B0007047401EB0F1807F10B501D3012010BDBB
:1049C0004FF0E02460610F21601703F04BF80020E6
:1049D000A0610721216110BD2DE9F04390F83C2032
:1049E000012A42D0012280F83C2051F80C4BDFF81C
:1049F00080804FF0000991E8680051E9022723F414
:104A00004073B1F80CC03B43CF6923F48063134378
:104A1000026823F40063234323F4805343EA05032D
:104A200023F4005343EA060323F4804343EA0703D5
:104A30000C3923F47023424543EA0C4302D00D4C59
:104A4000A2420CD18D8C23F47006D1E9073446EADA
:104A5000055121F08071194321F000732343536401
:104A600080F83C900020BDE8F0830220FBE70000C6
:104A70000000014000040140F0B590F83C20012AFC
:104A80003BD01F4E012480F83C40022280F83D209C
:104A900002681C4D5368B242D2F808C001D0AA4245
:104AA00003D14F6823F470033B430F6823F0700376
:104AB0001F4357600268B24213D0B2F1804F10D04A
:104AC000114B9A420DD0114B9A420AD0104B9A4288
:104AD00007D0AA4205D00F4B9A4202D00E4B9A4201
:104AE00004D189682CF0800319439160002180F87B
:104AF0003D4080F83C100846F0BD0220F0BD0000AB
:104B00000000014000040140000400400008004093
:104B1000000C0040001800400040014010B50400A7
:104B200003D094F83D0010B107E0012010BD002033
:104B300084F83C00204600F023F8022084F83D0071
:104B40002068211D01F0C8FD012084F8480084F888
:104B50003E0084F83F0084F8400084F8410084F867
:104B6000420084F8430084F8440084F8450084F847
:104B7000460084F8470084F83D00002010BD000086
:104B800008B5184A01681848914207D1016841F0F8
:104B900001010160006800F0010009E0134A914240
:104BA00008D1016841F480310160006800F4803070
:104BB000009008BD0E488142FBD10B4808380168BF
:104BC00041F00401016000680022114600F0040079
:104BD00000901E20FDF7A8FCBDE808401E20FDF750
:104BE00096BC000000000140F04402580040014023
:104BF0000008004090F83D10012901D001207047C5
:104C0000144B0222016880F83D20994214D0B1F182
:104C1000804F11D0104881420ED0104881420BD0F5
:104C20000F48814208D00F48814205D00E4881428A
:104C300002D00E48814207D188680D4A10400628EC
:104C400006D0B0F5803F03D0086840F0010008604E
:104C500000207047000001400004004000080040B0
:104C6000000C0040000401400018004000400140DA
:104C70000700010090F83D10012901D00120704784
:104C8000174A022180F83D100168CB6843F0010308
:104C9000CB600068904214D0B0F1804F11D0114920
:104CA00088420ED0104988420BD01049884208D063
:104CB0000F49884205D00F49884202D00E498842E8
:104CC00007D181680D4A1140062906D0B1F5803F11
:104CD00003D0016841F0010101600020704700002D
:104CE000000001400004004000080040000C0040AB
:104CF000000401400018004000400140070001008E
:104D0000016841F211130A6A1A4207D10A6A9B101C
:104D10001A4203D10A6822F001020A60012180F8D8
:104D20003D1000207047016841F21113CA6822F05B
:104D30000102CA6001680A6A1A4207D10A6A9B1016
:104D40001A4203D10A6822F001020A60012180F8A8
:104D50003D1000207047000070B5044690F83C00FC
:104D60000025012814D03A4B012684F83C6002202B
:104D700084F83D0022689068184020F47F409060DD
:104D8000086870282FD010DC10F00F0F03D022E03D
:104D90004FF0020070BD4FEA2012072A1BD2DFE855
:104DA00002F0535353534B394100B0F1101F4BD015
:104DB00009DCB0F5805F0FD0B0F5005F1ED0B0F514
:104DC000801F08D140E0A0F5801120393CD0102987
:104DD0003AD0202938D0012584F83D60002084F89D
:104DE0003C00284670BD4A682068D1E9021301F0F2
:104DF000E8FC2068816841F0770109E04A68206892
:104E0000D1E9021301F0DDFC2068816841F48041A2
:104E10008160E1E7CA684968206801F0EFFE206818
:104E2000502106E0CA684968206801F0F8FE206851
:104E3000602101F0CFFCCFE7CA684968206801F023
:104E4000DDFE20684021F4E7226801461046F0E7C5
:104E500088FFCEFF10B586B0044614216846FBF7E4
:104E600083FA2C4A002123682B4893424FF0020218
:104E700010D1036843F004030360006800F00400ED
:104E8000059010020090CDE90121CDE903122348DD
:104E9000694612E0224CA34213D1036843F0800319
:104EA0000360006800F08000059020150090CDE9B7
:104EB0000121CDE903121B486946FDF739F906B017
:104EC00010BD194CA34210D1036843F002030360E4
:104ED000006800F002000590E0000090CDE901219B
:104EE000CDE9031211486946E7E7114CA342E6D128
:104EF000036843F010030360006800F010000590A1
:104F00006020009004230B48CDE90121CDE9031373
:104F10006946D2E700040040E04402580008025805
:104F2000000C0040001C0258001800400004025809
:104F3000004001400010025870B5044690F83C0053
:104F400000260D4601280BD0012084F83C000C2AD5
:104F50004AD007DC82B1042A20D0082A06D131E0E9
:104F6000022070BD102A53D0142A63D001260020DD
:104F700084F83C00304670BD206801F035FC2068A4
:104F8000816941F0080181612068816921F0040193
:104F9000816120682A698169114311E0206801F06C
:104FA00075FC2068816941F4006181612068816934
:104FB00021F48061816120682969826942EA0121C6
:104FC0008161D4E7206801F0ADFC2068C16941F03F
:104FD0000801C1612068C16921F00401C161206834
:104FE0002A69C169114311E0206801F0E7FC2068DB
:104FF000C16941F40061C1612068C16921F4806127
:10500000C16120682969C26942EA0121C161AEE734
:10501000206801F00FFD2068416D41F008014165F5
:105020002068416D21F00401416520682A69416DC5
:10503000114311E0206801F037FD2068416D41F413
:10504000006141652068416D21F4806141652068FF
:105050002969426D42EA0121416588E710B50400E3
:1050600003D094F83D0010B107E0012010BD0020EE
:1050700084F83C00204600F023F8022084F83D002C
:105080002068211D01F028FB012084F8480084F8E5
:105090003E0084F83F0084F8400084F8410084F822
:1050A000420084F8430084F8440084F8450084F802
:1050B000460084F8470084F83D00002010BD000041
:1050C00008B5124A01681248914207D1016841F0BF
:1050D00002010160006800F0020009E00D4A9142FF
:1050E00008D1016841F008010160006800F0080083
:1050F000009008BD084A9142FBD1016841F040018F
:105100000160006800F04000F2E700000004004089
:10511000E8440258000C00400018004030B5044636
:105120004FF0020269B1042912D0082917D00C29C6
:105130001CD0102921D094F84300012824D001204C
:1051400030BD94F83E000128F9D184F83E201DE0DE
:1051500094F83F000128F2D184F83F2016E094F83B
:1051600040000128EBD184F840200FE094F8410082
:105170000128E4D184F8412008E094F84200012895
:10518000DDD184F8422001E084F843200122206828
:1051900001F00AFB1B4B20681B491C4A984209D0AE
:1051A000884207D0904205D0194DA84202D0194D2F
:1051B000A84203D1456C45F40045456420689842F7
:1051C00012D0B0F1804F0FD0134B98420CD0134B3C
:1051D000984209D0124B984206D0884204D0114917
:1051E000884201D0904207D181680F4A11400629B8
:1051F00006D0B1F5803F03D0016841F001010160A4
:10520000002030BD0000014000040140004001408A
:1052100000440140004801400004004000080040F4
:10522000000C0040001800400700010030B50022CB
:10523000044600680D4601F0B7FA41F21111224B05
:1052400020688A1098420BD0204B984208D0204BFF
:10525000984205D01F4B984202D01F4B984209D16B
:10526000036A0B4206D1036A134203D1436C23F451
:10527000004343642068036A0B4206D1016A11426D
:1052800003D1016821F0010101604FF001005DB11F
:10529000042D0CD0082D0DD00C2D0ED0102D0FD0BC
:1052A00084F84300002030BD84F83E00FAE784F81B
:1052B0003F00F7E784F84000F4E784F84100F1E7A5
:1052C00084F84200EEE700000000014000040140C5
:1052D00000400140004401400048014070B50446D0
:1052E00090F83C00012812D0012584F83C5002209F
:1052F00084F83D00204601F011FC00284FF000002A
:1053000007D084F83D5084F83C00012070BD022095
:1053100070BD2168CA6822F04002CA602168CA686C
:1053200022F48042CA6084F83D5084F83C0000209A
:1053300070BD704770477047704770472DE9F04166
:1053400007680025044640F60F030226F86939680D
:10535000BA6818420AD183067ED501F0200302F014
:10536000805C53EA0C0377D0616F74E1CF4BDFF8B8
:1053700040C3134001EA0C0C53EA0C0C6CD05FEAFA
:10538000C07C0CD05FEAC15C09D54FF0010CC7F8B6
:1053900020C0D4F8907047F00107C4F890708707D8
:1053A00009D5D70707D027683E62D4F8906046F049
:1053B0000406C4F8906046070AD5D60708D02768C7
:1053C00004263E62D4F8906046F00206C4F890606D
:1053D00006070CD501F020061E4308D026680823D6
:1053E0003362D4F8903043F00803C4F890300305DA
:1053F0000BD54B0109D526684FF400633362D4F80E
:10540000903043F02003C4F89030D4F89030002B53
:105410003DD0800609D501F0200002F080510843FC
:1054200003D0616F09B1204688472168D4F8900005
:105430008968490602D410F0280F2AD0204601F0CE
:10544000DFFC2068806840061ED52068083050E8E0
:10545000001F21F0400100E021E040E80012002A96
:10546000F3D1D4F8800078B192490165D4F8800076
:10547000FBF7EEFD00280AD0D4F88000016D00E0B3
:105480002046BDE8F04108472046FFF756FFBDE83B
:10549000F0812046FFF751FFC4F89050F7E7D4F8A9
:1054A0006CC02023BCF1010F7ED15FEAC06C7BD5BC
:1054B0005FEAC16C78D510203862206880684006A9
:1054C00073D5D4F880107C4A0868904234D07A4A68
:1054D0001832904230D0784A303290422CD0764AFE
:1054E0004832904228D0744A6032904224D0724AA6
:1054F0007832904220D0704A903290421CD06E4A4E
:10550000A832904218D06D4A904215D06B4A18329A
:10551000904211D0694A303290420DD0674A4832E9
:10552000904209D0654A6032904205D0634A783291
:10553000904201D0614A903240680004000CA6D02D
:10554000B4F85C208242A2D9A4F85E00C869B0F524
:10555000807F2FD0216851E8000F20F4807041E84F
:105560000002002AF6D12068083050E8001F21F020
:10557000010140E80012002AF5D12068083050E807
:10558000001F21F0400140E80012002AF5D1C4F8C4
:105590008C30E566216851E8000F20F0100041E8EA
:1055A0000002002AF6D101E040E00BE0D4F88000D0
:1055B000FBF79EFB2667B4F85C00B4F85E10401A57
:1055C00081B22FE0B4F85C00B4F85E10B4F85E204D
:1055D000401A81B2002AB2D00029B0D0226852E825
:1055E000000F20F4907042E80007002FF6D1344FEE
:1055F000206800F1080050E8002F02EA070240E8A6
:10560000002CBCF1000FF3D1C4F88C30E56665675F
:10561000206850E8002F22F0100240E80023002B01
:10562000F6D126672046FFF784FE30E7C60209D58B
:10563000560207D54FF4801038622046BDE8F0418D
:10564000FFF77ABE06060AD501F0800602F40002D2
:10565000164304D0A16F00297FF412AF17E742066A
:1056600011D54A060FD52046026852E8001F21F0E6
:10567000400142E80014002CF6D1C0F8883085675C
:1056800000F0FCF903E7020206D54A0004D52046E3
:10569000BDE8F041FFF74FBEC001C6D50029C4DA0E
:1056A0002046BDE8F041FFF745BE000001000010B4
:1056B00020010004EB6D00081000024010040240BD
:1056C000FEFFFFEF10B5040003D0D4F8880010B13E
:1056D00007E0012010BD002084F88400204600F07F
:1056E00027F82420C4F888002068016821F001010F
:1056F0000160A06A10B1204601F0BEFA204601F018
:1057000011FE0128E6D02068416821F490414160F3
:105710002068816821F02A0181602068016841F0D9
:10572000010101602046BDE8104001F009BB000006
:1057300010B5B6B00446142130A8FAF715FEC02102
:105740006846FAF711FE1D492068884233D10020CF
:105750001F9001210446CDE900106846FDF796F838
:1057600008B1FBF7DEF81648016841F0100101604E
:10577000006800F01000359011481038016841F0C1
:1057800001010160006830AB022100F0010035909A
:105790004FF4C060072283E813000A4830A9CDE91E
:1057A0003342FCF7C5FC002201212520FCF7BCFE9A
:1057B0002520FCF7ACFE36B010BD00000010014003
:1057C000F0440258000002582DE9F84F0446D0F882
:1057D0008C009B4616460D46202802D00220BDE8CC
:1057E000F88FC5B1BEB10027C4F890702220C4F86C
:1057F0008C00E7662034FCF7C1FD824654F8180C93
:10580000A6874FF48053E687FF21203C984207D1BA
:10581000226912B119E00120E1E740F2FF1114E022
:105820004FF07F0278B1B0F1805F11D0A4F86070C2
:105830009842B4F860704FF0200801D1206970B12F
:105840002E4600250CE0266936B9A4F86010EFE773
:10585000216909B13F21F8E7A4F86020E8E70026B4
:1058600007F0FF09B4F85E00F0B100225346202192
:105870002046CDF800B002F06CF818B1C4F88C8066
:105880000320ACE72068406A56B100EA090006F838
:10589000010B00BFB4F85E00401EA4F85E00E1E713
:1058A000384025F8020BF5E7C4F88C80002096E715
:1058B00030B4D0F88C30202B02D0022030BC70479E
:1058C000A9B1A2B10B4D00240368C466AB420BD052
:1058D0005B681B0208D5046854E8003F43F080630E
:1058E00044E80035002DF6D130BC01F0F1BE0120B6
:1058F000E4E70000000C005830B40B4A0168914204
:105900000FD10A494A88202A09D24A880C78084DC2
:10591000531C4B80AC5430BC0122FFF7C9BF0020A0
:10592000488030BC70470000001001400C0000208F
:105930003C1000202DE9F8430446D0F88800984632
:1059400016460D46202802D00220BDE8F883A5B1F6
:105950009EB10021C4F890102120C4F888001834AA
:10596000FCF70CFD814654F8100CA687E68720272B
:10597000183CB0F5805F02D003E00120E5E7206924
:1059800010B12E46002510E000260EE080212046B2
:1059900001F0DFFFC0B9DEB116F8010B21688862A3
:1059A000B4F85600401EA4F85600B4F856004B4612
:1059B0004FF00002CDF800800028E7D14FF0400101
:1059C000204601F0C6FF48B1C4F888700320BCE748
:1059D00035F8020B2168C0F30800E0E7C4F88870CE
:1059E0000020B2E710B5D0F88830202B01D002207B
:1059F00010BD21B31AB3A0F854200023A0F85620FC
:105A00004FF48054426E016521218367C0F89030C5
:105A1000C0F88810B2F1005F816812D0A14201D1B4
:105A2000016909B311498167026852E8001F41F01A
:105A3000800142E80013002BF6D1002010BD0120A8
:105A400010BDA14201D1016961B1094981670168B5
:105A5000083151E8002F42F4000241E80023002BF6
:105A6000F5D1EAE70349F1E70349DCE79F7800084D
:105A7000ED78000835780008E177000800F002B8FA
:105A8000FEE700000349884202D10348006800474E
:105A900070470000642C0020300A002000B589B057
:105AA00024216846FAF760FC10490F480860084650
:105AB000FAF7E5FF08B1FAF734FF00200490062159
:105AC0000122CDE90001CDE90202024607486946FC
:105AD000FAF72CFF08B1FAF724FF04480021FBF77E
:105AE00039F809B000BD0000007400405C100020CF
:105AF000054808B5016841F002010160006800F046
:105B00000200009008BD0000D84402582DE9F04F73
:105B100087B014216846FAF727FC4F48016841F026
:105B200010010160016801F010010591016841F068
:105B300080010160016801F080010591016841F078
:105B400001010160016801F001010591016841F066
:105B500002010160016801F002010591016841F054
:105B600008010160016801F008010591016841F434
:105B700000710160016801F400710591016841F450
:105B800080610160016801F480610591016841F064
:105B90000401016000684FF40077DFF8C080002244
:105BA00000F00400394605904046FCF7DCFBDFF8C6
:105BB000B0904FF44076002231464846FCF7D3FBC4
:105BC000DFF8A0A07D10002229465046FCF7CBFB51
:105BD000012239465046FCF7C6FBDFF88CB00122A3
:105BE00002215846FCF7BFFB002400954FF4041037
:105BF0006946CDE901044046FCF79AFA0125009771
:105C0000CDE90154694640460394FCF791FA0096A9
:105C10006946CDE9015448460394FCF789FA009699
:105C20006946CDE9015450460394FCF781FA0220FD
:105C30006946CDE90005CDE902405846FCF778FAFF
:105C4000012217201146FCF76FFC1720FCF75FFCC0
:105C500007B0BDE8F08F0000E0440258001C025875
:105C6000000C025800240258002802582DE9F04187
:105C70004FF4800715480021134EBD000722AC00E9
:105C8000C0E90321E300C0E9073141625A008162A3
:105C90004FF4003CC162C0E90D21C163016441645D
:105CA0008164C164016541658165C0E9055480E88E
:105CB000C010FEF7B9F8002803D0BDE8F041FAF7AC
:105CC00030BEBDE8F081000000500140E810002027
:105CD00010B58AB0002468461C21079408940994E2
:105CE000FAF742FB194840F21F31174AC0E9002475
:105CF000C0E9024104618461FFF7B0F908B1FAF725
:105D000010FE124807A907940994FEF7B5FE08B1E2
:105D1000FAF707FE602009218DE813000B480022E6
:105D200069460494FFF708F908B1FAF7FAFD074845
:105D300004226946FFF700F908B1FAF7F2FD0348BB
:105D4000FFF788F80AB010BD001800404413002087
:105D500010B59AB0142112A8FAF706FB0024684681
:105D60001C21179418941994FAF7FEFA2C2107A80D
:105D7000FAF7FAFA2D481D222B4940F2E73380E862
:105D80001600C0E9033444618461FEF7C7FE08B120
:105D9000FAF7C7FD2548FFF761F908B1FAF7C1FD29
:105DA0000620CDE91204214812A9FFF797FA08B19D
:105DB000FAF7B7FD802019901C4817A91794FEF731
:105DC0005BFE08B1FAF7ADFD702063218DE813008A
:105DD0001648002269460394049405940694FFF73C
:105DE000ABF808B1FAF79DFDC72001900F480422D7
:105DF0006946FFF7A1F808B1FAF793FD4FF4005098
:105E00000794089407A909940A94CDE90B40074820
:105E10000D941194FEF7E0FD08B1FAF782FD0348F6
:105E2000FFF718F81AB010BD004001409013002091
:105E300010B588B01948002417492F2200948023F8
:105E4000019402940394049405940694C0E9001408
:105E5000C0E902420461C0E90543FEF75FFE08B1F4
:105E6000FAF75FFD4FF4805000900C486946FEF74A
:105E700073FF08B1FAF755FD202004AA010482E857
:105E80001300064804A9FEF7F7FD002801D0FAF731
:105E900048FD08B010BD0000000001406012002065
:105EA00030B58BB000241C2104A801940294039403
:105EB000FAF75AFA204845F6BF519FED201B214AB8
:105EC00090ED070A2048B7EEC00AC0E9002181EE34
:105ED000002BBCEEC20B10EE101A8DB2691EC0E989
:105EE000024104618461FFF7B9F808B1FAF719FDBE
:105EF000154801A901940394FEF7BEFD08B1FAF715
:105F000010FD04AA4FF0FF3000EB5501602082E83D
:105F100013000D480C2204A90894FFF70DF808B1EE
:105F2000FAF7FFFC0848FEF795FF07480C21FFF73A
:105F3000F5F80BB030BD0000181000200000000084
:105F40000088C34000040040AC12002010B58AB0A5
:105F5000002468461C21079408940994FAF704FA6F
:105F600015480F21134AC0E90024C0E90241046129
:105F70008461FFF773F808B1FAF7D3FC0E4807A95C
:105F800007940994FEF778FD08B1FAF7CAFC60207F
:105F900007218DE813000848002269460494FEF7A3
:105FA000CBFF08B1FAF7BDFC0348FEF753FF0AB078
:105FB00010BD0000000C0040F812002010B5134C7A
:105FC000002011490C234FF47A322160C4E90120EA
:105FD000E060C4E90403A061E0612046FFF772FBC2
:105FE0002168102008622068016841F010010160FA
:105FF0002068016841F02001016020460449BDE8A5
:1060000010400122FFF754BC00100140DC130020B7
:106010000C000020FEE7FEE79FED072A80ED070A4F
:10602000C0EC040A80ED042A80ED062A80ED052AE2
:1060300080ED082A70470000000000001CB5D0ED7C
:10604000071AD0ED040A90ED001A31EEC00AF0EE06
:10605000003AD0ED012A90ED063A30EE604AF0EEBB
:10606000401A90ED022A40EEE31A24EE011A80ED68
:10607000030A02EEA01A71EE831A02EE211AB7EE9D
:10608000C11A8DED001BC0ED060A80ED040A90EDEB
:10609000080A9DED001BB7EEC00A30EE010BB7EE0B
:1060A000C00B80ED080A1CBD704700002DE9F047C9
:1060B000454D044689464FF0000A2868C0438007D2
:1060C0000AD0414E283E306820F080603060FCF7F6
:1060D00055F90746B04608E00120BDE8F08700BF4B
:1060E000FCF74CF9C01B022867D8D8F80000000163
:1060F000F6D4206829684FF4FE0721F47C313E0273
:1061000041EA00302860207AA389B4F804C0400234
:106110002D4D2D495B1E227CACF1010C1035091D63
:10612000A0F5007080B2521ECCF3080C07EA0343BE
:1061300040EA0C00184306EA02621043286008682F
:10614000626920F0C000104308600A68A06922F06C
:10615000200202430A60281D0A6822F010020A6029
:1061600002684FF6F873E4699A4342EAC402026097
:106170000868B9F1000F40F010020A6011D00868F9
:10618000B9F1010F11D040F400100860D8F80000F8
:10619000444640F08060C8F80000FCF7EFF8054680
:1061A0000DE0086840F40020EFE740F48010ECE7D1
:1061B000FCF7E4F8401B022801D903208DE7206892
:1061C0000001F5D5504688E7284402582DE9F047EC
:1061D000454D044689464FF0000A2868C0438007B1
:1061E0000AD0414E283E306820F080503060FCF7E5
:1061F000C5F80746B04608E00120BDE8F08700BFBB
:10620000FCF7BCF8C01B022867D8D8F80000800053
:10621000F6D4208829684FF4FE0721F07C713E02F5
:1062200041EA00502860207AA389B4F804C04002F3
:106230002D4D2D495B1E227CACF1010C1835091D3A
:10624000A0F5007080B2521ECCF3080C07EA03439D
:1062500040EA0C00184306EA02621043286008680E
:10626000626920F44060104308600A68A06922F463
:10627000007202430A60281D0A6822F480720A60D4
:1062800002684FF6F873E4699A4342EAC402026076
:106290000868B9F1000F40F480720A6011D00868F4
:1062A000B9F1010F11D040F080700860D8F80000FB
:1062B000444640F08050C8F80000FCF75FF80546FF
:1062C0000DE0086840F48000EFE740F40000ECE7E0
:1062D000FCF754F8401B022801D903208DE7206801
:1062E0008000F5D5504688E7284402580148FDF75C
:1062F00089BC0000BC14002010B5026840F26F3366
:106300005169946944F0080494610268946944F006
:10631000100494610268146824F001041460026897
:1063200014699C4314610268936823F440439360AA
:1063300090F88120042A0CD08A060AD5D0F884204F
:1063400042F08002C0F884200268936943F0200381
:10635000936190F88120032A0CD04A060AD5D0F820
:10636000842042F00402C0F884200268936943F05C
:10637000400393618A050AD5D0F8842042F00102D7
:10638000C0F884200268936943F400739361C905DF
:106390000AD5D0F8841041F00801C0F884100168D3
:1063A0008A6942F480728A610021A0F86210A0F824
:1063B0006A1010BD10B5806B00210122A0F86A1090
:1063C000A0F8621080F88120FDF708FC10BD10B520
:1063D000846BFAF77FFF02280ED02046FFF78CFF70
:1063E000D4F88410012041F01001C4F8841084F81E
:1063F00081002046FDF7F2FB10BD10B5806BFDF764
:10640000A3FF10BD10B5806BFEF788FA10BD10B564
:10641000806BFEF7CDFA10BD10B5806B90F881103F
:10642000072909D0C16FC969B1F5807F05D000681F
:10643000016941F00801016110BDFDF777FF10BD52
:1064400010B5806B90F88110072909D0816FC96958
:10645000B1F5807F05D00068016941F00801016154
:1064600010BDFEF745FA10BD10B5806B90F8811095
:10647000072909D0816FC969B1F5807F05D000680F
:10648000016941F00801016110BDFEF749FA10BD34
:106490002DE9F0411C4616460D460746DDF81880EA
:1064A0000AE000BFFBF76AFFA0EB0800A04202D39E
:1064B000601C01D00BE054B13868406935EA000037
:1064C00007D00020B042EDD00020BDE8F0810320CD
:1064D000FBE70120F6E77047FBF756BF70B59CB0AD
:1064E0004C216846F9F740FF202113A8F9F73CFF3B
:1064F0000220FCF74BF82D4900242D480A6822F0B1
:1065000001020A600A68026842F4404202600268BE
:1065100002F440421B9202689204FCD5254A13689B
:1065200043F002031360126802F002021B92026839
:1065300042F44042026002680A6842F001020A60C6
:10654000096801F001011B9101688904FCD50DF176
:10655000280C022009900521C0228CE80700C30303
:106560000F9008250D9001260E90CDE91054CDE92D
:10657000006368461294FDF76FF808B172B6FEE743
:1065800040201A903F210301CDE916500322CDE9A6
:10659000180313AB13A883E816000421FCF74CFE84
:1065A000002801D072B6FEE71CB070BD2C04005864
:1065B00018480258F44402582C48F0B52C4A016897
:1065C00041F470010160106800F00F00072804D248
:1065D000106820F00F00C01D106026490020254CD7
:1065E00010340B68244D43F001030B6020600B68EE
:1065F0002B400B60136803F00F03072B04D91368BB
:1066000023F00F03DB1D13601A4C1C4A18341C4B7B
:10661000261D371D2060174C1A4D28343060261D6A
:106620003860371D23603B1D35601C1D3A60251DF9
:106630002E1D1860331D22602860326018600A68C1
:106640000C4B114C22F4802260330A6018602068E1
:106650006FF30F00B0F1005F03D20C490120C1F8C5
:10666000080143F2D2000A490860F0BD88ED00E05D
:1066700000200052004402587FEDF6EA800201013A
:10668000000202020000FF010010005C00800051C7
:1066900000400052054800680169C943C90704D198
:1066A000034B0122891E1A7001617047701400208B
:1066B0001800002010B5064C2068C00702D005481D
:1066C00000688047206820F00100206010BD0000B5
:1066D00010140040340A00202DE9F0472A4B4FF0F7
:1066E000804A2A4D02689842294E2A4F2A4C09D0E6
:1066F000504507D0A84205D0B04203D0B84201D0DF
:10670000A04205D1D1F804C022F070024CEA020286
:10671000DFF888C0DFF888809842DFF888900FD0D3
:1067200050450DD0A8420BD0B04209D0B84207D096
:10673000A04205D0604503D0404501D0484503D173
:10674000CD6822F440722A434D6922F080022A4328
:10675000026098428A68C2620A68826207D0A042D8
:1067600005D0604503D0404501D0484501D10969B5
:106770000163012141610169C90703D0016921F069
:1067800001010161BDE8F087000001400004004004
:1067900000080040000C004000040140004001409F
:1067A000004401400048014010B5046A012301F093
:1067B0001F018B409C4304628A40016A11430162BD
:1067C00010BD42EA032283680A4323F47F410A434F
:1067D00082607047034B82681A400A4342F0070107
:1067E000816070478FFFCFFF2DE9F04FDFF8848085
:1067F000214EDFF88890DFF888B0026A036AB04261
:10680000DFF880A022F0020C1F4F23F00102026289
:10681000426885698B680C6805EA080525F0030560
:1068200043EA0C0344EA050407D0484505D058451F
:1068300003D0504501D0B84205D1CD6823F00803FC
:106840001D4325F00403B04207D0484505D0584504
:1068500003D0504501D0B84205D122F44076D1E9A9
:10686000055235432A4342608461496841630362AB
:10687000BDE8F08F8FFFFEFF0000014000040140E3
:10688000004001400044014000480140F0B5DFF8FD
:106890007CE01F4C1F4D026A036AA04222F02006D2
:1068A00023F01003036242688369D1F808C00F68BF
:1068B00003EA0E0323F4407E46EA0C134EEA072651
:1068C00001D0A84206D1CF6823F0800343EA071322
:1068D00023F04003A0420AD0A84208D00E4CA042A8
:1068E00005D00E4CA04202D00D4CA04207D1D1E9F8
:1068F000054522F4406242EA840242EA850242608F
:106900008661496881630362F0BD0000FF8FFFFE6E
:1069100000000140000401400040014000440140EB
:1069200000480140F0B5DFF87CE01F4D1F4E026AC1
:10693000036AA84222F4007723F480730362436859
:10694000C269D1F808C002EA0E020C6822F0030EF8
:1069500047EA0C2244EA0E0401D0B04206D1CF68C7
:1069600022F4006242EA072222F48062A8420AD09E
:10697000B04208D00E4DA84205D00E4DA84202D01C
:106980000D4DA84207D1D1E9055623F4405343EAFF
:10699000051343EA06134360C4614968C163026298
:1069A000F0BD00008FFFFEFF000001400004014029
:1069B000004001400044014000480140F0B5046A35
:1069C000026A22F4805202624268C36924F40054CD
:1069D000DFF848C08E680D6803EA0C03104F23F4FB
:1069E000407344EA0634B84243EA05230BD00D4D08
:1069F000A84208D00C4DA84205D00C4DA84202D0A8
:106A00000B4DA84204D14D6922F4804242EA85121E
:106A10004260C361496801640462F0BDFF8FFFFEFC
:106A200000000140000401400040014000440140DA
:106A300000480140F0B5164F164B026A046A9842AE
:106A400022F4003524F4803303624268436D0E89DA
:106A50000C6803EA070344EA030445EA06430BD043
:106A60000D4DA84208D00D4DA84205D00C4DA842AE
:106A700002D00C4DA84204D14D6922F4803242EA82
:106A8000052242604465496881650362F0BD0000EB
:106A90008FFFFEFF00000140000401400040014064
:106AA0000044014000480140F0B5164F164B026A01
:106AB000046A984224F48013036222F400144268AA
:106AC000436D0E890D6803EA070344EA065443EA5E
:106AD00005230BD00D4DA84208D00D4DA84205D07E
:106AE0000C4DA84202D00C4DA84204D14D6922F4AD
:106AF000802242EA8522426043654968C16504629A
:106B0000F0BD0000FF8FFFFE0000014000040140C7
:106B10000040014000440140004801402DE9F0419F
:106B2000D1E9002306680024DFF8C0C0304FB56803
:106B300005EA0C052B433B401A43B2604A68B2F1A8
:106B4000101F27D014DC402A2ED007DC12B3102AE5
:106B500020D0202A1ED0302A1BD11BE0502A39D049
:106B6000602A3DD0702A18D0B2F5801F11D111E0F3
:106B70002049501A8A420DD004DCA2F58012A2F1FD
:106B80002002E3E7102805D01B49401802D0102846
:106B900000D001242046BDE8F0818A680068D1E970
:106BA0000313FFF70EFEF5E70A68052A10D0026806
:106BB000136A156A25F00105156202680D6991696D
:106BC00021F0F00141EA0511916100680362E1E7FB
:106BD0000120E0E70A690068896800F00FF8D9E74A
:106BE0000A690068896800F01AF8D3E78FFFCFFFC1
:106BF000F8FFFEFF600010006000F0FF10B5036AB0
:106C0000046A23F00A0324F00104046284690B433C
:106C100024F0F00141EA02118161036210BD10B558
:106C2000036A046A23F0A00324F010040462846958
:106C300043EA011124F4704343EA023282610162A3
:106C400010BD000010B50A4C2068C169C90702D008
:106C500001F018FA05E0C069800602D50548006811
:106C600080470348FEF76AFB21680820086210BDD0
:106C7000642C00202C0A002090F82810090706D563
:106C80000168836B4A6822F400421A434A6090F814
:106C90002810C90706D00168C36A4A6822F4003286
:106CA0001A434A6090F82810890706D50168036BDB
:106CB0004A6822F480321A434A6090F82810490743
:106CC00006D50168436B4A6822F480221A434A6061
:106CD00090F82810C90606D50168C36B8A6822F4AB
:106CE00080521A438A6090F82810890606D50168F8
:106CF000036C8A6822F400521A438A6090F82810C4
:106D0000490611D50168436C4A6822F480121A437F
:106D10004A60416CB1F5801F06D10168836C4A68F6
:106D200022F4C0021A434A6090F82810090606D5DA
:106D30000168C26C486820F4002010434860704726
:106D40002DE9F84300250446C0F89050FBF716FBE8
:106D50008046206820266FF07E470068000713D524
:106D60000022434631042046009700F0F2FD58B15E
:106D7000216851E8000F20F0800041E80002002A5D
:106D8000F6D1C4F8886021E020680068400722D569
:106D9000002243464FF480012046009700F0D9FDC1
:106DA000C8B1206850E8001F21F4907140E800123B
:106DB000002AF6D12068083050E8001F21F00101B8
:106DC00040E80012002AF5D1C4F88C60032084F852
:106DD0008450BDE8F883C4F88860C4F88C60E56628
:106DE0002567002084F88450F3E710B5806B0021FC
:106DF000A0F85E10A0F85610FEF79FFA10BD000034
:106E000010B5026852E8001F21F4907142E80013A7
:106E1000002BF6D10E4B0268083252E8001F1940D1
:106E200042E80014002CF6D1C16E012908D1026895
:106E300052E8001F21F0100142E80013002BF6D1A8
:106E400000212022C0F88C20C166416710BD0000DF
:106E5000FEFFFFEF10B5D0F88C10B0F860202229AB
:106E6000016804D0886940F00800886110BD496A53
:106E7000836D11401980816D891C8165B0F85E10A9
:106E8000491EA0F85E10B0F85E100029EED101682E
:106E900051E8002F22F4907241E80023002BF6D134
:106EA0000168083151E8002F22F0010241E8002377
:106EB000002BF5D1184B002102682024C0F88C402B
:106EC000416701679A420BD05268120208D50368E5
:106ED00053E8002F22F0806243E80024002CF6D112
:106EE000C26E012A02D0FEF707FD10BDC16602681E
:106EF00052E8001F21F0100142E80013002BF6D1E8
:106F00000168CA69D243D20601D410220A62B0F8DD
:106F10005C10FEF70EFA10BD000C00582DE9F0478A
:106F200004460068C569D0F800A0D0F80880D4F8FD
:106F30008C10B4F86060222905D0816941F0080105
:106F40008161BDE8F087B4F868704FF0000975E022
:106F50002068A16D406A30400880A06D801CA0654B
:106F6000B4F85E00401EA4F85E002068C569690799
:106F700030D0E9070AD05FEACA5107D50121016282
:106F8000D4F8900040F00100C4F89000A8070BD599
:106F90005FEAC87008D0216802200862D4F8900027
:106FA00040F00400C4F8900068070BD55FEAC87091
:106FB00008D0216804200862D4F8900040F0020054
:106FC000C4F89000D4F8900020B12046FEF7B5F93F
:106FD000C4F89090B4F85E0080BB216851E8000FBF
:106FE00020F4807041E80002002AF6D1304A20687F
:106FF000083050E8001F114040E80013002BF6D184
:107000002C4B202120684A46C4F88C10C4F8749098
:10701000C4F8709098420BD04068000208D52168EF
:1070200051E8000F20F0806041E80003002BF6D10A
:10703000E06E012825D02046FEF75EFC0FB1A806C1
:1070400086D4B4F85E0000283FF47BAFB4F8681033
:1070500081427FF676AF2068083050E8001F21F0AB
:10706000805140E80012002AF5D11348606720687B
:1070700050E8001F41F0200140E80012002AF6D13C
:107080005FE7E266206850E8001F21F0100140E849
:107090000012002AF6D12068C169C943C90601D48B
:1070A00010210162B4F85C102046FEF742F9C5E7F2
:1070B000FEFFFFEF000C0058556E000810B5D0F829
:1070C0008C10B0F860202229016804D0886940F053
:1070D0000800886110BD496A836D11401970816D87
:1070E000491C8165B0F85E10491EA0F85E10B0F82A
:1070F0005E100029EED1026852E8001F21F4907161
:1071000042E80013002BF6D10168083151E8002F46
:1071100022F0010241E80023002BF5D1184B002199
:1071200002682024C0F88C40416701679A420BD066
:107130005268120208D5026852E8003F23F08063CB
:1071400042E80034002CF6D1C26E012A02D0FEF7CC
:10715000D3FB10BDC166026852E8001F21F0100188
:1071600042E80013002BF6D10168CA69D243D20667
:1071700001D410220A62B0F85C10FEF7DAF810BDF4
:10718000000C00582DE9F04704460068C569D0F8A6
:1071900000A0D0F80880D4F88C10B4F860602229E0
:1071A00005D0816941F008018161BDE8F087B4F83C
:1071B00068704FF0000975E02068A16D406A3040AA
:1071C0000870A06D401CA065B4F85E00401EA4F8D5
:1071D0005E002068C569690730D0E9070AD05FEA18
:1071E000CA5107D501210162D4F8900040F0010096
:1071F000C4F89000A8070BD55FEAC87008D02168D2
:1072000002200862D4F8900040F00400C4F8900016
:1072100068070BD55FEAC87008D0216804200862AF
:10722000D4F8900040F00200C4F89000D4F8900028
:1072300020B12046FEF781F8C4F89090B4F85E00C3
:1072400080BB216851E8000F20F4807041E8000203
:10725000002AF6D1304A2068083050E8001F11405B
:1072600040E80013002BF6D12C49202320684A4621
:10727000C4F88C30C4F87490C4F8709088420BD075
:107280004068000208D5216851E8000F20F08060B6
:1072900041E80003002BF6D1E06E012825D02046FE
:1072A000FEF72AFB0FB1A80686D4B4F85E000028CA
:1072B0003FF47BAFB4F8681081427FF676AF206868
:1072C000083050E8001F21F0805140E80012002AE9
:1072D000F5D113486067206850E8001F41F0200195
:1072E00040E80012002AF6D15FE7E266206850E825
:1072F000001F21F0100140E80012002AF6D120689A
:10730000C169C943C90601D410210162B4F85C10F7
:107310002046FEF70EF8C5E7FEFFFFEF000C005811
:10732000BD7000082DE9F04304468068D84E87B050
:10733000D84B2168D4E90427D4F81CC010430A684C
:10734000002547EA0C073843324002430A602068B0
:10735000E268416821F44051114341602268A1690B
:107360009A4201D0206A01439768DFF82CC3CB4EC4
:10737000CB4807EA0C070F4397602168676ACA6A1F
:1073800022F00F023A43CA622268B2420ED100686C
:1073900000F03800182873D047DCB8B3082879D03B
:1073A00010286FD178E028287ED17BE0BD498A4241
:1073B00009D1006800F00700062875D2DFE800F068
:1073C000546A6C6E7072B8498A4209D1006800F044
:1073D0000700062868D2DFE800F0475D5F6163655B
:1073E000B2498A4209D1006800F0070006285BD242
:1073F000DFE800F03A5052545658AD498A420BD15A
:10740000006800F0070006284ED200E010E0DFE838
:1074100000F02B4143454749A6498A420AD10068FA
:1074200000F03800182839D0B7DD2028BBD13CE067
:1074300001203AE0A0498A4209D1006800F0070023
:10744000062831D2DFE800F01026282A2C2E9B498E
:107450008A420BD1006800F00700062824D2DFE83A
:1074600000F003191B1D1F2100201EE09A421BD1B2
:107470008B48001D006800F00700062814D202E0C7
:107480000CE007E010E0DFE800F0030507090B0D52
:1074900002200AE0042008E0082006E0102004E0B2
:1074A000202002E0402000E080208549DFF814829F
:1074B0009A42854A4FF400434FEA21174FF00006E5
:1074C0004ED110281AD006DC022809D004280BD08F
:1074D00008287CD10DE020283ED0402877D13DE01F
:1074E000FBF77EF8014610E06846FBF78BF8019940
:1074F0000BE003A8FBF728F9049906E01068800662
:1075000005D51068C0F3C100C140002970D0606A81
:10751000676838F8102007EB4703B1FBF2F08342AD
:1075200055D8B0EB073F52D8002308461946F8F764
:10753000D1FE02467808130E120243EA0121101808
:107540003A4671410023F8F7C5FE604AA0F5407144
:1075500091423CD821688FE03946D8E71946D6E7F2
:10756000D4F81CC04FF6EF799C4546D1082819D0B5
:1075700005DC58B101280CD0042875D10DE0102885
:1075800015D0202835D040286ED134E0FBF7A4FF79
:1075900001E0FBF7B3FF014610E06846FBF732F865
:1075A00001990BE003A8FBF7CFF8049906E01068F7
:1075B000800604D51068C0F3C100C140C1B1636A40
:1075C000606838F81330B1FBF3F1490000E04BE09C
:1075D00001EB5001B1FBF0F0A0F11001494543D897
:1075E0004FF6F0732168C0F342021840104343E0A5
:1075F00043E03946E3E71946E1E7082819D005DCFE
:1076000058B101280CD004282ED10DE0102815D037
:1076100020282BD0402827D12AE0FBF75DFF01E08E
:10762000FBF76CFF014610E06846FAF7EBFF0199A3
:107630000BE003A8FBF788F8049906E010688006C1
:1076400004D51068C0F3C100C140B1B1636A60687D
:1076500038F81330B1FBF3F101EB5001B1FBF0F05E
:10766000A0F11001494505D9012506E03946EDE7AD
:107670001946EBE7216880B2C8600120A4F86A00CF
:10768000A4F8680028466667A66707B0BDE8F083DF
:10769000F369FFCF000C0058FFF4FF110010014008
:1076A000544402580044004000480040004C004050
:1076B000005000400014014000780040007C004071
:1076C0000090D003DC9E000800440258FFFC0F002D
:1076D00070B58368002481654FF48056A0F85C2063
:1076E000B342A0F85E204FF0FF01446704D1036964
:1076F00003BB40F2FF111DE04FF07F05C3B1B3F1B2
:10770000805F1AD0A0F860402221C0F89040C0F8F5
:107710008C100168083151E8003F43F0010341E853
:107720000034002CF5D1416EB1F1005F0CD02FE098
:10773000036933B9A0F86010E6E7016909B13F2198
:10774000F8E7A0F86050DFE7B0F8681091421FD862
:107750008168B14201D10169B9B11D49026941672E
:1077600042B1026852E8001F41F4807142E8001300
:10777000002BF6D10168083151E8002F42F0805209
:1077800041E80023002BF5D120E012494167F1E7E1
:107790008168B14201D1016969B10F49026941674C
:1077A0005AB1016851E8002F42F4907241E8002379
:1077B000002BF6D10AE009494167026852E8001F30
:1077C00041F0200142E80013002BF6D1002070BDEB
:1077D000857100081D6F0008BD700008556E000817
:1077E000D0F88810212910D1B0F8561071B1016D70
:1077F00002680988C1F308019162016D891C016565
:10780000B0F85610491EA0F856107047026852E8AA
:10781000001F21F0800142E80013002BF6D102681E
:1078200052E8001F41F0400142E80013002BF6D15E
:1078300070470000D0F8881021291BD1B0F86A10D9
:1078400016E000BFB0F85620AAB10268D3691B0643
:107850000CD5036D1B88C3F308039362026D921C61
:107860000265B0F85620521EA0F85620491E89B273
:107870000029E7D170470168083151E8002F22F450
:10788000000241E80023002BF5D1026852E8001FF6
:1078900041F0400142E80013002BF6D17047D0F8C8
:1078A000881021290ED1B0F8561061B1016D02681F
:1078B00009789162016D491C0165B0F85610491EA6
:1078C000A0F856107047026852E8001F21F08001AE
:1078D00042E80013002BF6D1026852E8001F41F085
:1078E000400142E80013002BF6D17047D0F8881011
:1078F000212919D1B0F86A1014E000BFB0F8562061
:107900009AB10268D3691B060AD5036D1B7893628E
:10791000026D521C0265B0F85620521EA0F8562087
:10792000491E89B20029E9D170470168083151E840
:10793000002F22F4000241E80023002BF5D1026859
:1079400052E8001F41F0400142E80013002BF6D13D
:1079500070472DE9F047994617460D460446089EA4
:107960004FF0000833E0701C31D0FAF707FDA0EBB0
:107970000900B04218D8BEB120680168490726D571
:10798000802D24D0402D22D0C169C94309070DD4D0
:10799000082505622046FFF733FAC4F8905001200D
:1079A00084F88480BDE8F0870320FBE7C069C0430A
:1079B00000050CD421684FF4006008622046FFF7F0
:1079C0001FFA2021C4F8901084F88480ECE7206826
:1079D000C06935EA000004D00020B842C3D00020BE
:1079E000E0E70120F9E700000A4810B5FDF7A6FC22
:1079F00008480168C869C0060AD5074810220A620B
:107A00004188002904D000224280012103480170EE
:107A100010BD0000DC1300200C000020010000203D
:107A2000FEE70000014A024900F008BB358A000861
:107A3000E00A002003B401984100009850EAC120F8
:107A400018BF04204A0D18BF40F0010040F2FF7239
:107A5000B2EB515F08BF40F00200012808BF0520CB
:107A600002B07047090700284FEA116104DB00F1FA
:107A7000E02080F80014704700F00F0000F1E020D3
:107A800080F8141D7047000010B5794A2DED020BE7
:107A90002DED088B82B00B99C80F21F00041914267
:107AA00042D3744A8A4219D80A9AC1F31301114386
:107AB00009D09DED0A0B02B0BDEC088B02B0BDE809
:107AC000104000F07DBA002814BF9FED6B0B9DEDB8
:107AD0000A0B02B0BDEC088B02B010BD9DED0A0B85
:107AE0009FED671BB4EEC10BF1EE10FA0ADD022028
:107AF00000F09EFA02B0BDEC088B02B0BDE8104069
:107B000000F06EBA9FED601BB4EEC10BF1EE10FAFF
:107B10000AD2022000F08CFA02B0BDEC088B02B051
:107B2000BDE8104000F068BA594A9FED5B9B8A425D
:107B300039D25B4A914213D25A49794401EBC001D0
:107B40009DED0A1B91ED000B574931EE408B7944B6
:107B500001EBC00191ED00ABC0F101010C1A1DE079
:107B60005249794401EBC0009DED0A1B90ED000BDA
:107B70009FED4F2B9DED0A8B01EE020BBDEEC00B6E
:107B800010EE104A00EE104AB8EEC00B9FED4A1BF3
:107B900000EE418B9FED4A1B20EE01AB38EE4A0B05
:107BA0008DED0A0B15E0484888420FD99DED0A0B70
:107BB0009FED471B30EE010BB4EEC90BF1EE10FA4E
:107BC000C4BF9DED0A0B30EE090B82DC9DED0A0B64
:107BD00000244148052120EE00BBB0EE4B0B784459
:107BE00000F0A4F99DED0A1B9DED0A2B0BEE401B46
:107BF0009FED3B0B22EE012BBCB130EE411B6FF42D
:107C00007F70844282EE010B3AEE400B30EE480B5F
:107C100039EE400B10EE900A8DED000B10DB00EBFF
:107C2000045001909DED000B53E731EE401B82EEB6
:107C3000010B9DED0A1B30EE410B39EE400B48E77E
:107C40004FF07A5101EB0451084401909DED001B67
:107C50009FED250B21EE008B51EC180BFFF7EAFE90
:107C6000042808BF00F0C8F9B0EE480B31E7000067
:107C7000422E86400000F07F00000000000000005F
:107C8000EF39FAFE422E864051302DD5104987C07B
:107C9000422ED63F00000000000000000000F03F30
:107CA000B2A2F03FDA250000D6250000A225000090
:107CB000FE822B654715F73F0000E0FE422EE63FAF
:107CC000763C7935EF39EA3D0000303E0000000097
:107CD0009C7500883CE4377E5625000000000000BB
:107CE00000000000000000400000000000007001E3
:107CF00070B5DFF8DCC100222DED020B2DED108BED
:107D0000DDE91010604505DA20F00043634501D835
:107D100009D141B19DED100BBDEC108B02B0BDE857
:107D2000704000F04DB9B0F5801F24DA19430BD034
:107D3000002814DA012000F07BF9BDEC108B02B0B2
:107D4000BDE8704000F040B9022000F071F900F089
:107D500027F9B1EE400BBDEC108B02B070BD9DED6C
:107D6000100B6FF035029FED5C1B20EE010B10EE47
:107D7000900A8DED100B02EB2051A1F2FF32584911
:107D8000C0F31300014401F4801181F07F6383F09C
:107D90004053034311939DED100B02EB21549FEDD3
:107DA000521B811CC1F3130130EE418B9FED50BB80
:107DB0009FED51CB032931D25148784490ED000B0F
:107DC000B4EE408BF1EE10FA0ED1002C02BFBDECE8
:107DD000108B02B070BD00EE104AB8EEC01B21EE51
:107DE0000B0B01EE0C0BB6E728EE081B9FED462BA4
:107DF0009FED470B002C08EE420B21EE000B08BF55
:107E000038EE400BA7D001EE104AB8EEC11B01EED0
:107E10004C0B30EE480B11EE0B0B9CE79FED3E0B2D
:107E20003F49C0F1510638EE000B45183D4806F5B4
:107E3000D726032188EE009B00EE104AB8EEC0ABB7
:107E400029EE09DB2DEE0DEBB0EE4E0B784400F081
:107E50006DF820EE0EFB3448B0EE4E0B0421784452
:107E600000F064F820EE0D0B45EA0600002830EE25
:107E70000F1B1ADD002C9FED260B28EE000B20EEC9
:107E8000080B30EE011B04BF09EE410B38EE400B2E
:107E90003FF461AF21EE091B0AEE0C1B30EE410BE3
:107EA00030EE480B1AEE0B0B55E754B138EE410B90
:107EB00020EE090B0AEE4C0B30EE480B1AEE0B0BC2
:107EC00049E738EE411BB0EE480B09EE410B42E7A3
:107ED0000000F07F000000000000000000005043A0
:107EE000645F090000000000000000000000F03F97
:107EF0000000E0FE422EE63F763C7935EF39EA3D60
:107F0000DA23000000000000555555555555D53F62
:107F1000000000000000E03F000000000000004002
:107F200086EBF9FF1023000016230000491E00EB2A
:107F3000C102B0EE401B92ED000B31F006020DD0F5
:107F4000491E00EBC102B0EE403B92ED002B31F038
:107F50000602B0EE420B03EE010BF1D1022914D060
:107F600004290AD0062918BF704790ED0A2B00EEAD
:107F7000012B90ED080B02EE010B90ED062B00EEAD
:107F8000012B90ED040B02EE010B90ED022B00EEA5
:107F9000012B90ED000B02EE010B7047000000007A
:107FA0009FED031B9FED042B81EE020B7047000039
:107FB000000000000000F03F000000000000000092
:107FC00030EE000B704700009FED031B81EE010BAC
:107FD00070470000000000000000000000000000EA
:107FE0009FED030B20EE000B704700000000000027
:107FF00000000000000000709FED030B20EE000B5E
:1080000070470000000000000000000000000010A9
:1080100002E008C8121F08C1002AFAD17047704751
:10802000002001E001C1121F002AFBD170470000AF
:108030000149086070470000E40A00202DE9F04182
:1080400016460F460446002503E03946B047641C37
:108050006D1C20780028F8D12846BDE8F08100008A
:1080600070B5064C401C0D4605492288F8F763F9A7
:108070002088401C2880002070BD0000B80A002025
:108080004415002070B5064D00246878012802D000
:108090000624204670BD6869804700206870F8E7B4
:1080A000080A00200C4870B5007800280BD10B4C52
:1080B00000256068012803D1608808B9607818B18C
:1080C00000F06CFF657070BD0021012000F084FCA1
:1080D00065600120607070BD0F0A00201000002054
:1080E00070B500240D4601F071FA60B9288848B1D6
:1080F00006494888401C80B24880C82803D3002025
:10810000488000E00324204670BD000010000020DD
:10811000F8B500240E46054601F058FA30BB308809
:10812000022824D3684600F0E9FF00994B7888784C
:10813000CE780A7940EA032000F1010042EA0622E3
:1081400081B2530704D0012000EBD200C0B201E09D
:10815000C2F3C7005AB16B78834208D10023A81C30
:1081600000F032FB10B100F0A3FE044600E003244F
:108170002046F8BDF8B500240E46054601F026FA63
:1081800028BB3088022823D3684600F0B7FF009947
:108190004B788878CE780A7940EA032000F1010014
:1081A00042EA062281B2530704D0012000EBD2003C
:1081B000C0B201E0C2F3C70052B16B78834207D16D
:1081C000A81C00F03FFB10B100F072FE044600E076
:1081D00003242046F8BDF8B500240E46054601F0FC
:1081E000F5F900BB308802281CD3684600F086FFF2
:1081F00000994E788878CB780A7940EA062000F119
:10820000010081B252EA03220CD06878B0EB420F31
:1082100008D10023A81C00F053FB20B100F048FE59
:10822000044600E003242046F8BDF8B500240E46BD
:10823000054601F0CBF9F8B9308802281BD368460F
:1082400000F05CFF00994E788878CB780A7940EA94
:10825000062000F1010081B252EA03220BD06878B7
:10826000B0EB420F07D1A81C00F05EFB20B100F07C
:108270001FFE044600E003242046F8BD2DE9F0412E
:1082800000260C46054601F0A1F9F8B92088002720
:10829000114C02281DD369782078814219D1C0EB96
:1082A000C0000E494FF4A85200EB400001EB002043
:1082B000A91CA0F5A850F8F73EF82078042804D2AD
:1082C0000021012000F088FB00E027703046BDE867
:1082D000F0810326F9E700001000002000100030B4
:1082E0002DE9F8430C4681464FF0000801F06EF985
:1082F00080BB2088022830D3684600F0FFFE00983B
:1083000099F801604579427883798178C77843EAA2
:108310000523047941EA022190F807C0491C3D0277
:10832000027A2C435B1C8DB299B2B6EB440F42EA41
:108330000C2210D101230A3000F0C2FA38B9002310
:10834000224609F10200294600F0BAFA10B100F005
:10835000AFFD804601E04FF003084046BDE8F883DA
:1083600038B50988002405290CD142788178037931
:1083700041EA022101F1010189B21BB9C278FF2A49
:1083800003D012B10324204638BD00228DF801200D
:10839000C078FF280CD08DF8002001231A466846CB
:1083A00000F012FA0028EED000F082FD0446EAE761
:1083B00001208DF80000F0E710B509880024052998
:1083C00002D00324204610BD427801238178C01CCE
:1083D00041EA02211A46491C89B200F071FA0028CC
:1083E000F0D000F065FD0446ECE738B50546088896
:1083F0000024052802D001F0E9F820B3684600F017
:108400007DFE6878EB78A9782A79050200982943DF
:1084100042EA032201F1010189B24579530704D0F0
:10842000012303EBD203DBB201E0C2F3C70352B175
:10843000AB4208D10123801D00F0C6F920B100F045
:1084400037FD044600E00324204638BDF8B508880F
:108450000024052802D001F0B9F8D0B1684600F038
:108460004DFE009846788178C578027941EA062168
:108470004379491C42EA052289B2B3EB420F08D185
:108480000123801D00F01CFA20B100F011FD04460C
:1084900000E003242046F8BD70B515460E4608B12D
:1084A00002251FE0114C002011491A466161114953
:1084B000A161114921611149C4E9071010482946F9
:1084C00060621048A0621048E062304600F0D8F8C0
:1084D000050007D100F0D2FE30B1012084F8010080
:1084E00000F012FE284670BD0325F9E7080A0020B7
:1084F00089870008AD87000815870008CD86000829
:108500005994000861950008FD9400082DE9F8438E
:10851000574C607820B1032802D00620BDE8F883CC
:10852000684600F09BFE012826D1BDF80000002718
:108530000125042821D004DC012807D002281BD102
:1085400007E0082861D0102816D16AE00320607087
:1085500059E0474AE3690832111D901F984728B92E
:10856000A0786179884201D1042002E00120A07145
:10857000102000F08BFEE57178E0E168A9460878EC
:10858000E0702571C30902D0487820712DE0DFF832
:10859000E080002608F1300818F8361009B381424F
:1085A00020D10120207001F011F880B100F050FDC1
:1085B0000125208108EBC6062D4965710831E06868
:1085C000726890476D1C2071102DF5DD07E008EBF7
:1085D000C600274908314268E068904720710020B2
:1085E000207002E0761C102ED6DB207938B10220F4
:1085F000A071102000F04AFE84F8079036E000F0E9
:108600002DFD00F011FEE77130E019480C3000F04C
:1086100075FD00F01DFDD4E903130246607998470B
:10862000A9E71348A5790C3000F068FD25B1012DAC
:108630000AD0022D18D10FE000F00AFDE1680246D1
:10864000607900F03FFD0FE000F002FDE1680246B6
:10865000607900F021FD06E000F0FAFCE1680246D6
:10866000607900F001FDE77100F0DEFD002055E7C4
:10867000080A0020014901204860704710000020CE
:108680002DE9F041002416460D460746F8F739F962
:10869000082233462946384600F00CFE01280DD149
:1086A000B5F5964F01D9232003E007496800B1FBD7
:1086B000F0F080B200F0A0FE012800D00324F8F70B
:1086C00024F92046BDE8F081A07F17002DE9F04194
:1086D000002516468846074672B60C4C20890428A9
:1086E00004D321890A4800F09DFC20B1052562B61B
:1086F0002846BDE8F0810648007805493870208991
:10870000491CC01E3080C8F80010F0E7BC0A0020E9
:10871000611600202DE9F04710289146884606464C
:108720004FF0000502D90220BDE8F087F8F7E9F81C
:10873000134CA078012805D05FF00505F8F7E5F89F
:108740002846F1E7A8F10100E0600127E780067004
:10875000E28802EB0901E180E18800F063FC094A4C
:10876000E1884B1CE3805054030AE088411CE180FF
:10877000135467700121002000F0C8FCDEE7000000
:10878000BC0A00206415002010B5F8F7BAF80649B5
:10879000002088700146012000F0B8FC00F028FDA0
:1087A000BDE81040F8F7B1B8BC0A002010B5F8F7E2
:1087B000A8F80021084600F0A9FC00F0F3FCBDE891
:1087C0001040F8F7A2B800002DE9F04790460C469B
:1087D0000121064601EBD8054FF0000900F01CFC12
:1087E0001649641E01EBC0071549A0B2083F00EB13
:1087F00008024988402A1BD8401A00F0070AC0F333
:10880000CC040AE0611C38198CB2514616F8013BC1
:10881000082200F0E3FE6D1EADB2012DF2D818F073
:10882000070207D033783819514600F0D7FE01E02F
:108830004FF001094846BDE8F0870000642D002094
:10884000D60A00202DE9F04790460C460121064645
:1088500001EBD8054FF0000900F0DEFB1649641E5D
:1088600001EB40071549A0B2BF1E00EB08020988C2
:10887000102A1BD8401A00F0070AC0F3CC040AE003
:10888000611C38198CB2514616F8013B082200F0E1
:10889000A5FE6D1EADB2012DF2D818F0070207D06B
:1088A00033783819514600F099FE01E04FF0010984
:1088B0004846BDE8F0870000442D0020D60A00207D
:1088C0002DE9F041002615460F46044600F0A4FBB2
:1088D00000EBC001124A7F1E01EB0011B8B2114F2C
:1088E000D288431907EBC101C839642B13D8801A09
:1088F00080B20DE014F8012B431C120221F8102065
:1089000014F8017B6D1E3A4321F81020ADB298B2E5
:10891000002DEFD100E001263046BDE8F0810000D7
:10892000D60A0020643A00202DE9F04100261546C1
:108930000F46044600F070FB00EBC001124A7F1E98
:1089400001EB0011B8B2114F9288431907EBC10136
:10895000C839642B13D8801A80B20DE014F8012BAB
:10896000431C120221F8102014F8017B6D1E3A43BB
:1089700021F81020ADB298B2002DEFD100E0012611
:108980003046BDE8F0810000D60A0020E42D00202A
:1089900038B51028044601D9022038BD084600F039
:1089A0001BFEA0B1684600F0A9FB204600F044FC85
:1089B000009923200870012000F04AFC082000F0F4
:1089C00065FC00F035F8034A0121117038BD05201F
:1089D00038BD0000CC0A002038B51028054601D962
:1089E000022038BD084600F0F7FDE0B10F4C2078BA
:1089F000401CC0B22070042801D3042020706846B7
:108A000000F07CFB284600F017FC00982221017042
:108A100021784170022000F01BFC082000F036FC99
:108A200000F006F838BD052038BD00001000002019
:108A30000020704713B5044801224FF6FF736946C2
:108A4000FCF778FF00981CBDDC1300202DED048B93
:108A5000ADF6D81D00240094019402940394F9F714
:108A600017FD4FF0010B8DF80CB01F218DF8081089
:108A700087228DF809208DF80DB068468DF800B07A
:108A80008DF80A408DF80E408DF8014001948DF864
:108A90000B408DF80F40F9F7CDFC0420F9F706FDE7
:108AA000F9F77AFCFDF71AFD00F0DCF9DFF85893CE
:108AB000A9F5A1604D4699ED050A00F0EDFF2D1DC9
:108AC000A9F1240095EC040AFDF7A6FAFDF71EF8BB
:108AD000FDF7AEF9FDF70CF8FDF770FAFDF7E0F9D8
:108AE000FDF734FAFDF7F4F8FDF732F9FDF7BEF8BB
:108AF000FCF7D4FF002001F05BF99FEDC49A002041
:108B0000B0EE498AB0EE480A00F018FF0120B0EE3E
:108B1000480A00F013FFBE480021FCF7FFFABC48EA
:108B20000421FCF7FBFABB48FCF764F8DFEDBA0A56
:108B30009FEDBA0A00F044FF002001F003F8B8A04E
:108B4000FEF770FF00F008FA00F03EFA0023012162
:108B500018464FF47A32FFF79FFCFFF793FA00F0C4
:108B6000BBF900F0E7F9B24DDFEDB28A9FEDB28AB2
:108B700009F1240A2878012877D12C7050469AF8F8
:108B80000010A52902D0452970D032E141783C2956
:108B9000FBD1047083888279C17858BA9AF807604B
:108BA000000440EA022030431129EED2DFE801F050
:108BB00009163643505F68758FBBC315151515151B
:108BC000D00099ED000A9A4820EE080A401CBCEE3D
:108BD000C00A10EE102A01F061F90AE100EE100A55
:108BE000964A4846F8EEC00A80EE880A10EE101A3F
:108BF00089ED010A914203DB9FED910A80ED010AA4
:108C0000B5EEC00AF1EE10FA01D880ED019A7E4867
:108C100099ED010A243880ED070AEAE000EE100A17
:108C20007948F8EE400A243880EEA80A89ED020A55
:108C300080ED000ADDE000EE100A7348F8EE400A0D
:108C4000243880EEA80A89ED030A80ED010AD0E0FD
:108C500000EE100A6C48F8EE400A243880EEA80AAC
:108C600089ED040A80ED020AC3E0C7E075E000EE7A
:108C7000100AB8EE400AC0EE080AC9ED050AB8E0CD
:108C800000EE100AB8EE400AC0EE080AC9ED060A66
:108C900099ED050A00F094FEABE099F822104E46DB
:108CA00000290BD10128674809D0FCF7BFFA002042
:108CB00001F07EF81720F9F719FC348499E0FCF7ED
:108CC0002DFA1720F9F723FCA6F820B091E001282F
:108CD00011D04F48002189F82240FCF7A7FA4C48F0
:108CE0000421FCF7A3FA4B48FCF70AF8484800684F
:108CF0004462002211E0B9F82010012979D14548D9
:108D000089F822B0FBF776FF41480021FCF706FA0C
:108D10003F480421FCF702FA01224B484FF48071CE
:108D2000F9F721FB65E0012802D0022800D00020DD
:108D300000F008FF5DE000EE100AF2EE040AB8EE63
:108D4000400A80EE201A89ED071AFDF7A9F850E0D5
:108D500000210120FFF740FE4BE09AF80100432874
:108D600047D13AA20DF6C4133AA0D2E9001206C3C5
:108D7000D0E90010CDF8CC19CDF8D0092520F9F7AD
:108D8000B5FB364B00204FF41C786A4603EB80019C
:108D900002EB8006471C91F803C002F820C091F84E
:108DA00002C086F801C04978B17013F82010B8B23B
:108DB0004045F170EAD94FF6FF762948082233463C
:108DC0000DF6C411FCF7B6FD2548334640F6C41233
:108DD0006946FCF7AFFD224808220DF6CC11334658
:108DE000FCF7A8FD2520F9F792FB00210846FFF7C4
:108DF00041FC054820212430F7F7B6FAFFF752F975
:108E0000FFF784FBB6E60000181000200000000009
:108E10009013002060120020CDCC4C3D0AD7A33C1B
:108E2000706F776572206F6E2E2E2E0A0000000084
:108E3000010000200000C84200401C4600004842DB
:108E400000004842F81200200024025800000000F0
:108E5000A0A1A2A300000000FCFDFEFF0010003056
:108E6000DC1300200C4800219FED0C1ADFED0C1ADA
:108E70009FED0C2ADFED0C2A021DB3EE090AF2EE7B
:108E80000E0A82EC060A9FED093A018480F822104E
:108E900080ED073A70470000181000209A99193E9B
:108EA000CDCC4C3E0AD7A33B0AD7233C33331B41DE
:108EB000002804D0012803D0072803D004207047DD
:108EC00002207047062070474FF480710246014827
:108ED000F9F749BA001402581348002170B5114B34
:108EE0000722C0E90031816000F1280641611304C6
:108EF000C0E903210162D50741624FF0804486E852
:108F00000E00456544638161FAF78EFF08B1F7F7FB
:108F100008FDBDE87040054940F6C4120448F7F763
:108F20000ABA000000340140BC14002030000020C8
:108F3000001000300449002008700423034A04494B
:108F40000448FBF725BB0000200000200000003093
:108F500000010030BC1400200E4810B586B0016836
:108F600041F002010160006803210B4C00F0020097
:108F700005900120019002900391694600902046DF
:108F8000F9F7D6F8012220461146F9F7ECF906B0B8
:108F900010BD0000E04402580004025810B5084C0F
:108FA000207801280BD107480078002807D12070CD
:108FB00001460220FFF7ECFC6068401C606010BDB9
:108FC000180000200F0A00201048C7230E4910B5D2
:108FD0000F4A01600021C3600E4B1B680161B3FBA7
:108FE000F2F2521EC0E901214161FBF797FD08B181
:108FF000F7F797FC0548FBF73DFE002803D0BDE8D6
:109000001040F7F78EBC10BD00080040701400201F
:10901000400D0300000A002001484079704700001D
:10902000080A002070B5094DFF231A4605F5807621
:1090300006E000BF10F8014B54402A5D5A40335DF2
:109040004C1EA1B2F6D242EA032070BD049F000874
:109050000148808870470000BC0A002001490020B8
:1090600088807047CE0A002002490020888002A034
:10907000FEF7D8BCCE0A00206D6F64627573206560
:109080007865637574652066756E6374696F6E20AC
:109090006572726F72210A0002490020888002A066
:1090A000FEF7C0BCCE0A00206D6F6462757320723B
:1090B0006563696576652064617461206572726FAD
:1090C00072210A000A498888401C80B2888000F01A
:1090D0000F02032A02D2082000F0D8B8054B002264
:1090E00020F00F0010301A70034B1A708880704700
:1090F000CE0A00200F0A0020100000200149016064
:1091000070470000651500207047000070B5164CD0
:1091100001280D4617D00120FFF7D6FE2068016810
:1091200021F020010160012D15D00020FFF7CCFEB9
:109130002068016821F0400101602068016821F089
:109140008001016070BD0020FFF7BEFE206801684D
:1091500041F02001E6E70120FFF7B6FE2068016834
:1091600041F04001EDE70000642C002010B50B4CED
:109170004FF47A502080002000F058F82088084CE6
:10918000E0602046FBF7CAFC21686FF0010008612F
:109190002046BDE81040FBF76DBD0000D40A00205A
:1091A000F82C0020034801686FF0010008610148B5
:1091B000FBF7B9BDF82C002010B50B4C4FF47A50DA
:1091C0002080002000F032F82088084CE060204623
:1091D000FBF7A4FC21686FF0010008612046BDE8A0
:1091E0001040FBF747BD0000D40A0020F82C0020F7
:1091F00010B50B4C23202080002000F017F82088A9
:10920000084CB330E0602046FBF788FC21686FF023
:10921000010008612046BDE81040FBF72BBD0000AF
:10922000D40A0020F82C0020704700000149C870C3
:1092300070470000BC0A00200149487170470000D7
:10924000080A00200149887170470000080A0020C0
:109250000149888070470000BC0A00200649024688
:1092600010B500200B78002B04D04C88002314800C
:1092700001200B7010BD0000CE0A00200249002022
:109280000870012070470000CE0A00200249012228
:109290000A70488010467047CE0A0020012201461D
:1092A00003484FF47A7310B5FCF78EFA012010BD15
:1092B000642C002045482DE9F0438946016887B0B9
:1092C000984641F020010160016801F020010591FC
:1092D000016841F020010160006800F02000059065
:1092E0003A480830016841F080410160006801247B
:1092F0000325374F00F0804005900726802002218B
:109300008DE8730069463846F8F712FF4020694639
:10931000049600903846F8F70BFF20026946CDE925
:109320000004CDE902453846F8F702FF294C002138
:109330000C2329485FEA0802E160C4E90531E161D4
:10934000C4E9000906D08114012A09D0B8F1020F3E
:109350000AD132E02161A160016821F4807102E04C
:109360004FF4C0622BE001601A48FCF7ABF9002211
:1093700052201146F9F7D8F85220F9F7C8F82068BA
:10938000016841F0200101602068016841F040015E
:1093900001602068016841F0800101600120FFF751
:1093A00093FD0C4805220DA1FCF71CFB0020FFF7E4
:1093B0008BFD07B00120BDE8F0834FF4806222618D
:1093C000A160016841F48071CDE70000E0440258DB
:1093D00000140258642C00200078004031323334ED
:1093E0003500000001B5034801226946FCF7FAFA8E
:1093F000012008BD642C0020144938B50A6842F0E9
:1094000020020A600968B330124C40F2AF4201F00A
:109410002001009100210E4BC4E902102161204679
:10942000C4E90032FBF77AFB002204213720F9F768
:109430007BF83720F9F76BF821686FF001000861BD
:109440002046FBF770FC012038BD0000E8440258BC
:1094500000140040F82C00202DE9F8434FF00008DC
:109460006846FFF71BFF214C0227A178FA0320482A
:109470000025204B0529204E34D2DFE801F00306F9
:1094800019032700FFF7B4FE2CE09DF80010022915
:1094900002D1006845621A60FFF784FE657025817D
:1094A00020899DF80020411C21813254A770E9E7F2
:1094B0002089B0F5B05F06D29DF800202089411CBC
:1094C00021813254DEE70320A070DBE79DF8001015
:1094D000012902D1006845621A602089421C22815C
:1094E0003154A7704046BDE8F8830000BC0A002054
:1094F00090130020180402586116002070B5174D13
:10950000A878002420B1022803D0032804D109E060
:109510000120FFF7BBFE04460120A87068780228EE
:109520000ED104E00120FFF78DFE1020F1E728782E
:1095300030B90020FFF786FE1020FFF7A7FE044693
:1095400000206870FFF72EFEE878022803D104207F
:10955000FFF79CFE0446204670BD0000BC0A0020B8
:1095600070B5184C6078002510B1012822D104E0B4
:1095700000210120FFF7CAFD1CE0E08850B1E0683F
:109580000078FFF72FFFE068401CE060E088401E95
:10959000E0800FE00C48007870B1002020700021BE
:1095A0000120FFF7B3FD022060702078012805D06C
:1095B000FFF702FE284670BD0120EFE7FFF7D6FD5A
:1095C000F8E70000BC0A002064150020014800787C
:1095D00070470000BC0A002001207047F0B501244C
:1095E0009440CA0856428518641E01EBC601865C89
:1095F0006F788C408B4046EA0721A1431943815480
:109600000B0A6B70F0BD2DE9F04700251E4617468A
:10961000894682462C4600BF00BF00BF00BF00BF86
:1096200000BF00BF00BF00BF00BF00BF00BF00BF42
:1096300000BF00BF00BF00BF00BF00BF00BF00BF32
:1096400000BF00BF00BF00BF00BF00BF00BF00BF22
:1096500000BF00BF00BF00BF00BF00BF00BF00BF12
:1096600000BF00BF00BF00BF00BF00BF00BF00BF02
:1096700000BF00BF00BF00BF00BF00BF00BF00BFF2
:1096800000BF00BF00BF00BF00BF00BF00BF01227E
:1096900049465046F8F767FE00BF00BF00BF00BF55
:1096A00000BF00BF00BF00BF00BF00BF00BF00BFC2
:1096B00000BF00BF00BF00BF00BF00BF00BF00BFB2
:1096C00000BF00BF00BF00BF00BF00BF00BF00BFA2
:1096D00000BF00BF00BF00BF00BF00BF00BF00BF92
:1096E00000BF00BF00BF00BF00BF00BF00BF00BF82
:1096F00000BF00BF00BF00BF00BF00BF00BF00BF72
:1097000000BF00BF00BF00BF00BF00BF00BF00BF61
:109710004FEA450831463846F8F720FE40EA08058A
:1097200000BF00BF00BF00BF00BF00BF00BF00BF41
:1097300000BF00BF00BF00BF00BF00BF00BF00BF31
:1097400000BF00BF00BF00BF00BF00BF00BF00BF21
:1097500000BF00BF00BF00BF00BF00BF00BF00BF11
:1097600000BF00BF00BF00BF00BF00BF00BF00BF01
:1097700000BF00BF00BF00BF00BF00BF00BF00BFF1
:1097800000BF00BF00BF00BF00BF00BF00BF00BFE1
:1097900000BF00BF00BF00BF002249465046F8F797
:1097A000E2FD00BF00BF00BF00BF00BF00BF00BFA1
:1097B00000BF00BF00BF00BF00BF00BF00BF00BFB1
:1097C00000BF00BF00BF00BF00BF00BF00BF00BFA1
:1097D00000BF00BF00BF00BF00BF00BF00BF00BF91
:1097E00000BF00BF00BF00BF00BF00BF00BF00BF81
:1097F00000BF00BF00BF00BF00BF00BF00BF00BF71
:1098000000BF00BF00BF00BF00BF00BF00BF00BF60
:1098100000BF00BF00BF00BF00BF641CE4B2182C33
:10982000FFF4F9AE2846BDE8F08700009FED2A1A44
:109830009FED2A0ADFED2A1A9FED2A2A0102FAEE8D
:10984000042A10B516D5401E6FF07F41814300EE0B
:10985000901AB8EE603AF8EE603A63EE010A23EE31
:10986000811A80EE803AC1EE000A33EE610A70EE92
:10987000820A11E000EE900AB8EE603AF8EE600A53
:1098800023EE013A20EE811AC3EE000A81EE003A7F
:1098900030EEA10A73EE420A80EE201AF2EE040ABC
:1098A00021EE220A80EE201AB7EEC10AFEF720FA56
:1098B0009FED0D1B9FED0E5BB7EE002B80EE014B75
:1098C0009FED0D3B34EE050B82EE001B31EE430B9A
:1098D000B7EEC00B10BD000000009343FEFFFF4A2F
:1098E0000080AD4300809A430000000000B4AE4009
:1098F00083DBB5DCE1796B3F6666666666127140B4
:10990000F0B506464FF6FF70002348F20505044601
:1099100010E0F25C80EA02200022070403D585EA09
:10992000400080B201E004EA4000521CD2B2082A92
:10993000F3D35B1C8B42ECD3F0BD0000B7EEC00A42
:109940009FED1B1BF8B5002820EE010BBCEEC00BF1
:1099500010EE100A8DF802004FEA10218DF8011068
:1099600023D02420144D00228DF800000221284627
:10997000F8F7F9FC4FF47A7610480122334669462D
:10998000FAF7E4FC6C460D4801223346611CFAF7F5
:10999000DDFC0A480122A11C3346FAF7D7FC01225C
:1099A00028460221F8F7DFFCF8BD1020DAE70000B6
:1099B000ABB2EF8AE0FF2F4000280258E8100020E9
:1099C00070B5294D4FF480740022214628462DEDB4
:1099D000028BB0EE608AF0EE408AF8F7C4FC2348B0
:1099E000B0EE680A00F058F818EE102A20488242BB
:1099F00028DCB7EEE83A9FED1F4B9FED201B9FED53
:109A0000212BB7EEC80A83EE045BB7EEC58BB7EE29
:109A1000C83A13EE010B80EE021BB7EEC10BB5EE98
:109A2000C00AF1EE10FA01D29FED180ADFED188A94
:109A3000012020EE280AFFF781FF002028EE280AE7
:109A4000FFF77CFF134890F82200012808D1BDECF5
:109A5000028B214628460122BDE87040F8F783BCFE
:109A6000BDEC028B70BD000000240258100B0020DA
:109A700000001643C7C07439A9589E3F6D6515781C
:109A80001FEED33F997552A1B248D43F00000000A9
:109A900000007A4418100020B7EEC00A9FED234B57
:109AA0009FED243B70B59FED252B0024054680EEED
:109AB000041B2DED0A8BBEEE00BBB3EE089BB6EE89
:109AC00000CB4FF41C7621EE030BB7EEC00BB7EEC4
:109AD000C08A28EE02AB00BFA4F5967100EE101A02
:109AE000B8EEC01BB8EEC00B21EE0B1B21EE000B35
:109AF00080EE091B81EE090BB7EEC00BB7EEC00A72
:109B0000FDF7C2FFB0EE481B611C0AEE401B31EEB0
:109B10000C0BBCEEC00B10EE100A25F814000CB2B2
:109B2000B442D9DDBDEC0A8B70BD00002DFC2A0AC1
:109B300005B6A43F4F3BFC35D96493407B14AE4738
:109B4000E17A843F2DE9F047DFF8CCA14FF480792A
:109B50000022074688B049465046F8F704FC1C210D
:109B600001A8F6F701FC00244FF063057020019076
:109B700008214FF0C706CDE903144FF40071059496
:109B800006940794F7B3012F4FF47A7868D0022F28
:109B90007ED000225046F8F7E6FB6420F8F740FA42
:109BA0005E480021F7F776F85D480295FBF7A8F8C4
:109BB000FCF73EF9FCF7CCF85A48002201A9FBF764
:109BC000BBF908B1F6F7ADFE5648042201A902968A
:109BD000FBF7B2F908B1F6F7A4FE52480021FBF7F3
:109BE0009DFA50480421FBF799FA4F4890F822005B
:109BF000012804D1012249465046F8F7B4FB08B0C9
:109C0000BDE8F087FFE700225046F8F7ACFB642080
:109C1000F8F706FA41480021F7F73CF8404802956A
:109C2000FBF76EF8FCF704F9FCF792F83D480022C8
:109C300001A9FBF781F908B1F6F773FE3948042250
:109C400001A90296FBF778F908B1F6F76AFE3548E4
:109C50000021FBF763FA33480421FBF75FFA56E073
:109C600000225046F8F77FFB6420F8F7D9F92B481B
:109C70000021F7F70FF82B48002201A90294FBF707
:109C80005BF908B1F6F74DFE2648042201A900E071
:109C900008E0CDF80880FBF74FF90028A5D0F6F7CB
:109CA00040FEA2E701225046F8F75DFB6420F8F77A
:109CB000B7F91A480021F6F7EDFF1948FBF720F82D
:109CC000FCF7B6F8FCF744F816480021FBF726FA33
:109CD00014480421FBF722FA1248002201A9029538
:109CE000FBF72AF908B1F6F71CFE0E48042201A979
:109CF000CDF80880FBF720F908B1F6F712FE0B4A01
:109D00000021064840F271230094F6F753FF0448FF
:109D1000FAF770FF69E70000002402585C10002089
:109D2000601200209013002018100020100B00205B
:109D300070B51C4C1C49DFED1D0A20780A2801EB88
:109D4000800316D2002283ED000A07E001EB8203B4
:109D5000521C93ED000AD2B270EE200A82420346F2
:109D6000F4D9581C00EE100AB8EE401A80EE810AB1
:109D700070BD0022561C01EB8205F2B295ED011A6E
:109D8000092A85ED001A71EE200AF3D3B2EE041A07
:109D900070EE800A03ED010A401E207080EE810AF9
:109DA00070BD000000000020E80A00200000000054
:109DB0002DE9F047234D0128234C4FF400464FF482
:109DC00080784FF4007924D077104FF000010228FA
:109DD0001E480CD0FBF72AFA1C480421FBF726FA90
:109DE000002239462846F8F7BEFA00221AE0FBF7AF
:109DF0001DFA16480421FBF791F90022394628463E
:109E0000F8F7B1FA002241462046F8F7ACFA0122F1
:109E100012E00E480421FBF709FA0C480021FBF779
:109E20007DF9012241462046F8F79DFA002231468D
:109E30002846F8F798FA002249462046BDE8F04740
:109E4000F8F791BA00040258000C0258441300209D
:109E500010B588B004461C216846F6F785FA002143
:109E600005916022069108200491CDE90201CDE917
:109E7000002409480A466946FBF75EF808B1F6F780
:109E800050FD054804226946FBF756F8002801D02A
:109E9000F6F747FD08B010BD4413002070B5044626
:109EA000100E130CE170150A207108216371204611
:109EB000A571E271FFF724FD010A2172607221464B
:109EC000BDE8704002480A224FF6FF73FBF732BD2F
:109ED000DC13002000061016000610160100020018
:109EE0000400060008000A000C00100020004000DA
:109EF00080000001000000000102030401020304CD
:109F00000607080900C1814001C0804101C08041AD
:109F100000C1814001C0804100C1814000C1814039
:109F200001C0804101C0804100C1814000C1814029
:109F300001C0804100C1814001C0804101C0804119
:109F400000C1814001C0804100C1814000C1814009
:109F500001C0804100C1814001C0804101C08041F9
:109F600000C1814000C1814001C0804101C08041E9
:109F700000C1814001C0804100C1814000C18140D9
:109F800001C0804101C0804100C1814000C18140C9
:109F900001C0804100C1814001C0804101C08041B9
:109FA00000C1814000C1814001C0804101C08041A9
:109FB00000C1814001C0804100C1814000C1814099
:109FC00001C0804100C1814001C0804101C0804189
:109FD00000C1814001C0804100C1814000C1814079
:109FE00001C0804101C0804100C1814000C1814069
:109FF00001C0804100C1814001C0804101C0804159
:10A0000000C1814000C0C101C30302C2C60607C728
:10A0100005C5C404CC0C0DCD0FCFCE0E0ACACB0B98
:10A02000C90908C8D81819D91BDBDA1A1EDEDF1FC8
:10A03000DD1D1CDC14D4D515D71716D6D21213D3B8
:10A0400011D1D010F03031F133F3F23236F6F73768
:10A05000F53534F43CFCFD3DFF3F3EFEFA3A3BFB58
:10A0600039F9F83828E8E929EB2B2AEAEE2E2FEF08
:10A070002DEDEC2CE42425E527E7E62622E2E32378
:10A08000E12120E0A06061A163A3A26266A6A767A8
:10A09000A56564A46CACAD6DAF6F6EAEAA6A6BAB18
:10A0A00069A9A86878B8B979BB7B7ABABE7E7FBF48
:10A0B0007DBDBC7CB47475B577B7B67672B2B37338
:10A0C000B17170B0509091519353529296565797E8
:10A0D000559594549C5C5D9D5F9F9E5E5A9A9B5BD8
:10A0E00099595898884849894B8B8A4A4E8E8F4F88
:10A0F0008D4D4C8C448485458747468682424383F8
:10A100004181804000000000000000000000E03FAE
:10A11000000000000000E0BF0000E0FE422EE63F2D
:10A120000000E0FE422EE6BF763C7935EF39EA3D8D
:10A13000763C7935EF39EABD3E5555555555C53F05
:10A1400093BDBE166CC166BF2CDE25AF6A56113FAB
:10A15000F16BD2C541BDBBBED0A4BE726937663EAD
:10A1600004FA97999999D93FAF788E1DC571CC3F64
:10A170009FC678D0099AC33F935555555555E53F2D
:10A18000599322942449D23FDE03CB966446C73FBD
:10A1900044523EDF12F1C23F000000000000000008
:10A1A000C0A1000800000020E80A0000E003000849
:10A1B000FCAB0008E80A00200044000020800008F2
:10A1C0000008220000A53CFF010001308954001066
:10A1D0000030D2E53F402FA83B40B9352E405AF021
:10A1E0001840E124FF3F2FFAC83F7994923FE3C320
:10A1F0003C3F8CD6C93E3F1A2E3EFAED6B3D50A631
:10A20000513C94DA8B3A3CBCE7B96281AF3A7CB8F6
:10A21000643B64903B3B7E8A633BFE45503BE65A81
:10A22000B43A69AB923ABA4B623BFB73513B1101B2
:10A23000873A6C40843AEA758B3A4F3DD2B9193D62
:10A2400037BA118A2DBA0CE6AF3A3BAA9AB9131065
:10A25000933A6825AD042005110107BA5C2045B783
:10A260000D23BA9F7161BA5C548BBA64CDC8B92B07
:10A27000C1623A121354BA16316CBA6C09F9B9DBDF
:10A280008992BA57B08DBA5E6317BBD14197BA7144
:10A29000218FB9804A95BA795DBFB90EF53BBAD026
:10A2A00044583A14211C108E78D418BBD97A86BA37
:10A2B000FF420FBB1CD228BA03CED23C84D7AE3D9E
:10A2C0002CF3163EEEB23F3E1FF6523E4EB75C3EBA
:10A2D0009F935E3EFED65E3E22385E3EE10C5E3EC1
:10A2E00010215E3EDA725E3EDC115E3E84655C3EAD
:10A2F000ACA95C3E35D05C3ECFBC5C3E64AE5C3EFF
:10A30000514C5E3E71CA5C3E40865E3EA27D5C3E24
:10A31000433A5C3EF10F5B3EAE485C3EA0DE5C3EE5
:10A3200042EC5C3E29085E3E8A92603EB08F5E3E03
:10A3300063635E3EF2102120401799475E3E180984
:10A340005D3EFF5A5E3EF6435C3E45815E3E4C1BE1
:10A350000410237AE15E3E0AD85E3E61525C3EE321
:10A36000A85C3E802A5E3EE0BE5E3E75B05E3ECC9E
:10A370000B603E75E64C3027995E3E7B2F5E3EF1CA
:10A38000BA5E3E2B4F603EB475603E31D1603E1CDC
:10A39000EF5E3EAF7A603EBB0F603E3AB2621000A5
:10A3A000FF0046D25E3ED7D9603E4B02643E5CAFB2
:10A3B000693ED0D06F3E1F4D753EC8D17C3EC05E19
:10A3C000813EA437843ED714883E3D0B8A3E9BCB0A
:10A3D0008D3E45D58F3E44DE923EE19B963E36ACA7
:10A3E000993EFA469C3EAF419F3EC231A33E5BEE92
:10A3F000A43E0ADBA73E6EDCAA3E74B5AD3EAAD3EE
:10A40000B13E0C56B43EA050B73E643CBA3E810407
:10A41000BD3E3A40C03ED7DFC23EA60AC63E76C128
:10A42000C83EAA9ECC3E26AACF3E7B13D33E5857A9
:10A43000D53E371AD83E433CDA3EB3F0DD3E569E59
:10A44000E03E74B2E43ED34CE73E4434EA3E153974
:10A45000EC3E0A2CF03EAED9F23E3D0CF53E6DA826
:10A46000F83EDBA7FB3E1688FE3E0744003F5248FD
:10A47000023F2194033F9300053F9A98063F4B0605
:10A48000083F6682093FA6EE0A3FF8520C3F5AD6B3
:10A490000D3F9D130F3FA394103FFF75123FFA0825
:10A4A00010D6143F1173153F5EF7163F5E30183F0C
:10A4B0006E4E193F60211B3FC8B61C3F70771E3F90
:10A4C00016871F3F9B57213FA5F6223FA1F6233F4A
:10A4D000D849253F59C2263F97AE283FA5122A3FAB
:10A4E00020792B3FDAFF2C3FD47F2E3FE23C303FD8
:10A4F0005F5D313F96B0323F064C343FA7AD353FEC
:10A50000F4A5373FD120393F118D3A3FE4D73B3F87
:10A51000AA633D3FB5C03E3FF720403FEFAC413F0F
:10A52000772B433F5DF9443F4562463F64E5473F33
:10A53000BC7A493F4AEC4A3FB7464C3F9FAF4D3F3C
:10A540002D064F3F6B99503FC4E8513F3484533F31
:10A55000514D553F02BB563FB134583F4DBE593F58
:10A56000C8245B3F728C5C3F001D5E3F1C995F3FBF
:10A57000CAFB603F826F628014CA643FF5BA653FD0
:10A58000A2D0663FE38D683F8197693F338C6B3F74
:10A59000ACFE6C3F637E6E3F14EC6F3F215C713FFD
:10A5A00013D2723F2D94743F9A95753F821D773F69
:10A5B0000989783FAEF1793FB54F7B3FBFEE7C3FD5
:10A5C00016BE7E3F8928803F55A4803FAD87813FDE
:10A5D000D13C823F49F4823F2FC3833FF33E843F07
:10A5E0008526853F2BD9853F1DE3863F5F99873FB1
:10A5F0002315883F90BD883FD87F893F4B3A8A3FDB
:10A600004FE98A3FAAD58B3F0F9B8C3F2F518D3F3F
:10A610003A068E3F5BD38E3FAA808F3F6534903FD2
:10A620007BF8903FB29F913F5858923FAE64933F62
:10A63000E605943FAED7943F9F8E953F342C963FCE
:10A640004AF0964400FF00973FF434983F492C9914
:10A650003F77A1993FA0899A3FDE3C9B3FEF039C47
:10A660003F66C19C3F22719D3FF31B9E3FD9EA9EEE
:10A670003FD4619F3FC45CA03F0210A13F6DCAA1BF
:10A680003FC87EA23F8E3DA33F56BCA33FBB5EA406
:10A690003FC91CA53FA3CDA53F50C4A63F2D5BA736
:10A6A0003FB550A83F280BA93FF0A6A93F376FAA96
:10A6B0003F56EFAA3F9F94AB3F7A54AC3F9221ADF7
:10A6C0003F6AFBAD3F20CFAE3F338AAF3F2E01B094
:10A6D0003FAAF3B03F315CB13F5229B23FD8D7B265
:10A6E0003F2386B33F3944B43F9E09B53F3603B696
:10A6F0003F37A9B63F4661B73F71E2B73F75AEB885
:10A700003F018AB93F0E16BA3F2103BB3FC3B8BB16
:10A710003F9F72BC3F6F29BD3FA1A1BD3F5AA1BE63
:10A720003F5512BF3F06DABF3FADBEC03F6878C19C
:10A730003F3334C23F6ABEC23FF1B9C33F992EC412
:10A740003FE4D6C43F00FF003599C53FD34BC63F19
:10A750006612C73F4AD2C73F508AC83F9643C93F97
:10A76000ACE4C93F22A8CA3F4354CB3FBE14CC3F00
:10A77000FED6CC3FA88CCD3FA435CE3FCFF4CE3F04
:10A780009AB6CF3F4D6AD03F8334D13FECD9D13F09
:10A79000588ED23FB342D33FD6FDD33FDB89D43F5F
:10A7A0004F3ED53FC904D63FE4F7D63F8DB3D73FE0
:10A7B000CF69D83F6D1CD93F6893D93FC652DA3F65
:10A7C000D410DB3F4FAEDB3FF86FDC3FE15EDD3F97
:10A7D0002827DE3F5299DE3F9758DF3F7841E03F20
:10A7E000FE9AE03FCF4BE13FDC2CE23FC3F5E23F76
:10A7F000C075E33F1B62E43FE31AE53F23D7E53F23
:10A800007382E63F3D44E73F3ECDE73FB58AE83FF0
:10A810007F2FE93F6F2AEA3FD5AFEA3F158FEB3F25
:10A820001E18EC3F86C9EC3F2979ED3F3048EE3FDA
:10A830004209EF3F32E7EF3FDBA2F03F7D58F13FA7
:10A84000581EF23F8B8A00FF00F23F2540F33F691C
:10A85000FFF33F01BDF43F0169F53FF626F63FCB1C
:10A86000F7F63FE198F73F4967F83FE10DF93F54AC
:10A87000C8F93F8446FA3FD237FB3F69ACFB3FE65D
:10A8800075FC3F925DFD3FE9EDFD3F42D1FE3F8902
:10A8900023FF3F7EFEFF3F3546004059A70040C2E0
:10A8A000F900407E710140FFAF0140D41002401E0C
:10A8B0006E0240E2CB0240F92D0340FD860340309A
:10A8C000D803409B200440087604409CDC044012DE
:10A8D0003105403B89054095EE0540E94706408437
:10A8E0009E0640EBE006402D5D0740569C0740C7A2
:10A8F000F3074011510840BDA90840DA040940722D
:10A900006B0940C1A80940FA080A405B5F0A40D0C1
:10A91000B90A40C7100B4008770B401CB30B400B23
:10A92000260C40406A0C4065DE0C407E1D0D40E464
:10A93000820D40CFD90D40A1310E403E780E405AD5
:10A94000D60E40122F0F4010C4FD850F40C9E70FEF
:10A9500040B74410409D8510407EE01040BD361148
:10A9600040739C1140E2EA1140403112409BAC120E
:10A9700040E6E912400F641340529B13401100144B
:10A9800040533E1440F6B31440C3EF1440624C15DC
:10A990004021B115401B0E16405E6716406EA7168B
:10A9A00040C11917407060174041BB1740AD1618E1
:10A9B00040B66818409ECF18403D291940DF8819DD
:10A9C000408CBC1940E6241A40E0811A407FDE1A10
:10A9D0004083311B40D9961B4024D41B40A2251C28
:10A9E00040809F1C40ABE71C40FB3D1D40E2941D96
:10A9F00040F5DA1D40342E1E40FF921E4042E91EF3
:10AA000040BB441F40BA841F406500205414C62038
:10AA100040459B2040AEF32040B43C2140AF9921FB
:10AA200040C4E821405A4522406685224070EA220F
:10AA3000406B44234044A5234055DB23402233246C
:10AA400040BC932440F1D7244044312540658F25F4
:10AA50004019E22540F73C26407C812640ACE526A3
:10AA600040E2392740147827401BD727403C322842
:10AA7000409B8E284076E22840062A29408C812976
:10AA8000402BDB2940821B2A40A3732A4055D92A38
:10AA900040E42F2B405D8B2B4039D02B4014242CCD
:10AAA00040C7832C402BC32C40971B2D40A7772DEC
:10AAB00040CFDB2D404C1A2E40336B2E40D5CD2E8F
:10AAC00040B30C2F40546F2F407EC42F40BC243025
:10AAD0004078613014105230409C15314053583149
:10AAE00040BFB63140EC1432405264324051A4327F
:10AAF00040F30333405760334070B53340D8F433EC
:10AB0000409F563440F3AF344089ED34403F5335D5
:10AB100040BDA73540D0ED35406F473640739D3678
:10AB200040C1E03640213A37E81C213740F5D7379D
:10AB300040282938403F8B3840A4E0384039253937
:10AB4000405567394040C13940761B2E072C487B61
:10AB50003A4099BA3A4048193B406E6B3B408AB044
:10AB60003B40E9F03B4039603C406EA13C408603ED
:10AB70003D4085433D40D5AF3D4034F33D409832A4
:10AB80003E407D933E4000E53E402B303F40F98102
:10AB90003F40B5E03F40EF096E10D609300490D039
:10ABA0000304032B02000112113B1C066180000804
:10ABB00004190A10062B820008034B2005D78100D8
:10ABC000085810064D84000806101006B9830008C6
:10ABD000171812E1202174121120220538111812C1
:10ABE0000F1812EB08217712753812228B127D484C
:0CABF0002223301158024D00010000002B
:020000043000CA
:1001000068656C6C6F2C206D6173746572210000E2
:020000043000CA
:101000000005FF111213000101FF0101FF0101FFA3
:101010000101FF0101FF0101FF0101FF0101FF01CA
:1010200001FF0101FF0101FF0101FF0101FF0101BA
:10103000FF0101FF0101FF0101FF0101FF0101FFAC
:101040000101FF0101FF0101FF0101FF0101FF019A
:1010500001FF0101FF0101FF0101FF0101FF01018A
:10106000FF0101FF0101FF0101FF0101FF0101FF7C
:101070000101FF0101FF0101FF0101FF0101FF016A
:1010800001FF0101FF0101FF0101FF0101FF01015A
:10109000FF0101FF0101FF0101FF0101FF0101FF4C
:1010A0000101FF0101FF0101FF0101FF0101FF013A
:1010B00001FF0101FF0101FF0101FF0101FF01012A
:1010C000FF0101FF0101FF0101FF0101FF0101FF1C
:1010D0000101FF0101FF0101FF0101FF0101FF010A
:1010E00001FF0101FF0101FF0101FF0101FF0101FA
:1010F000FF0101FF0101FF0101FF0101FF0101A744
:0411000001000000EA
:040000050800029954
:00000001FF
