Component: ARM Compiler 5.06 update 7 (build 960) Tool: armlink [4d3601]

==============================================================================

Section Cross References

    startup_stm32h753xx.o(RESET) refers to startup_stm32h753xx.o(STACK) for __initial_sp
    startup_stm32h753xx.o(RESET) refers to startup_stm32h753xx.o(.text) for Reset_Handler
    startup_stm32h753xx.o(RESET) refers to stm32h7xx_it.o(i.NMI_Handler) for NMI_Handler
    startup_stm32h753xx.o(RESET) refers to stm32h7xx_it.o(i.HardFault_Handler) for HardFault_Handler
    startup_stm32h753xx.o(RESET) refers to stm32h7xx_it.o(i.MemManage_Handler) for MemManage_Handler
    startup_stm32h753xx.o(RESET) refers to stm32h7xx_it.o(i.BusFault_Handler) for BusFault_Handler
    startup_stm32h753xx.o(RESET) refers to stm32h7xx_it.o(i.UsageFault_Handler) for UsageFault_Handler
    startup_stm32h753xx.o(RESET) refers to stm32h7xx_it.o(i.SVC_Handler) for SVC_Handler
    startup_stm32h753xx.o(RESET) refers to stm32h7xx_it.o(i.DebugMon_Handler) for DebugMon_Handler
    startup_stm32h753xx.o(RESET) refers to stm32h7xx_it.o(i.PendSV_Handler) for PendSV_Handler
    startup_stm32h753xx.o(RESET) refers to stm32h7xx_it.o(i.SysTick_Handler) for SysTick_Handler
    startup_stm32h753xx.o(RESET) refers to stm32h7xx_it.o(i.EXTI9_5_IRQHandler) for EXTI9_5_IRQHandler
    startup_stm32h753xx.o(RESET) refers to acq_sync.o(i.TIM4_IRQHandler) for TIM4_IRQHandler
    startup_stm32h753xx.o(RESET) refers to usart.o(i.USART1_IRQHandler) for USART1_IRQHandler
    startup_stm32h753xx.o(RESET) refers to stm32h7xx_it.o(i.EXTI15_10_IRQHandler) for EXTI15_10_IRQHandler
    startup_stm32h753xx.o(RESET) refers to porttimer_m.o(i.TIM7_IRQHandler) for TIM7_IRQHandler
    startup_stm32h753xx.o(RESET) refers to stm32h7xx_it.o(i.DMA2_Stream0_IRQHandler) for DMA2_Stream0_IRQHandler
    startup_stm32h753xx.o(RESET) refers to stm32h7xx_it.o(i.DMA2_Stream1_IRQHandler) for DMA2_Stream1_IRQHandler
==============================================================================

Removing Unused input sections from the image.

    Removing startup_stm32h753xx.o(HEAP), (1024 bytes).
    Removing ads1245.o(.rev16_text), (4 bytes).
    Removing ads1245.o(.revsh_text), (4 bytes).
    Removing ads1245.o(.rrx_text), (6 bytes).
    Removing dac8552.o(.rev16_text), (4 bytes).
    Removing dac8552.o(.revsh_text), (4 bytes).
    Removing dac8552.o(.rrx_text), (6 bytes).
    Removing pid.o(.rev16_text), (4 bytes).
    Removing pid.o(.revsh_text), (4 bytes).
    Removing pid.o(.rrx_text), (6 bytes).
    Removing public.o(.rev16_text), (4 bytes).
    Removing public.o(.revsh_text), (4 bytes).
    Removing public.o(.rrx_text), (6 bytes).
    Removing public.o(i.x_LaserPWMChangeFrequency), (64 bytes).
    Removing public.o(i.x_TecPWMChangeFrequency), (64 bytes).
    Removing main.o(.rev16_text), (4 bytes).
    Removing main.o(.revsh_text), (4 bytes).
    Removing main.o(.rrx_text), (6 bytes).
==============================================================================

Image Symbol Table

    Local Symbols

    Symbol Name                              Value     Ov Type        Size  Object(Section)

    ../Core/Src/dac.c                        0x00000000   Number         0  dac.o ABSOLUTE
    ../Core/Src/dma.c                        0x00000000   Number         0  dma.o ABSOLUTE
    ../Core/Src/gpio.c                       0x00000000   Number         0  gpio.o ABSOLUTE
    ../Core/Src/main.c                       0x00000000   Number         0  main.o ABSOLUTE
    ../Core/Src/memorymap.c                  0x00000000   Number         0  memorymap.o ABSOLUTE
    ../Core/Src/spi.c                        0x00000000   Number         0  spi.o ABSOLUTE
    ../Core/Src/stm32h7xx_hal_msp.c          0x00000000   Number         0  stm32h7xx_hal_msp.o ABSOLUTE
    ../Core/Src/stm32h7xx_it.c               0x00000000   Number         0  stm32h7xx_it.o ABSOLUTE
    ../Core/Src/tim.c                        0x00000000   Number         0  tim.o ABSOLUTE
    ../Core/Src/usart.c                      0x00000000   Number         0  usart.o ABSOLUTE
    ../Drivers/STM32H7xx_HAL_Driver/Src/stm32h7xx_hal.c 0x00000000   Number         0  stm32h7xx_hal.o ABSOLUTE
    ../Drivers/STM32H7xx_HAL_Driver/Src/stm32h7xx_hal_cortex.c 0x00000000   Number         0  stm32h7xx_hal_cortex.o ABSOLUTE
    ../Drivers/STM32H7xx_HAL_Driver/Src/stm32h7xx_hal_dac.c 0x00000000   Number         0  stm32h7xx_hal_dac.o ABSOLUTE
    ../Drivers/STM32H7xx_HAL_Driver/Src/stm32h7xx_hal_dac_ex.c 0x00000000   Number         0  stm32h7xx_hal_dac_ex.o ABSOLUTE
    ../Drivers/STM32H7xx_HAL_Driver/Src/stm32h7xx_hal_dma.c 0x00000000   Number         0  stm32h7xx_hal_dma.o ABSOLUTE
    ../Drivers/STM32H7xx_HAL_Driver/Src/stm32h7xx_hal_dma_ex.c 0x00000000   Number         0  stm32h7xx_hal_dma_ex.o ABSOLUTE
    ../Drivers/STM32H7xx_HAL_Driver/Src/stm32h7xx_hal_exti.c 0x00000000   Number         0  stm32h7xx_hal_exti.o ABSOLUTE
    ../Drivers/STM32H7xx_HAL_Driver/Src/stm32h7xx_hal_flash.c 0x00000000   Number         0  stm32h7xx_hal_flash.o ABSOLUTE
    ../Drivers/STM32H7xx_HAL_Driver/Src/stm32h7xx_hal_flash_ex.c 0x00000000   Number         0  stm32h7xx_hal_flash_ex.o ABSOLUTE
    ../Drivers/STM32H7xx_HAL_Driver/Src/stm32h7xx_hal_gpio.c 0x00000000   Number         0  stm32h7xx_hal_gpio.o ABSOLUTE
    ../Drivers/STM32H7xx_HAL_Driver/Src/stm32h7xx_hal_hsem.c 0x00000000   Number         0  stm32h7xx_hal_hsem.o ABSOLUTE
    ../Drivers/STM32H7xx_HAL_Driver/Src/stm32h7xx_hal_i2c.c 0x00000000   Number         0  stm32h7xx_hal_i2c.o ABSOLUTE
    ../Drivers/STM32H7xx_HAL_Driver/Src/stm32h7xx_hal_i2c_ex.c 0x00000000   Number         0  stm32h7xx_hal_i2c_ex.o ABSOLUTE
    ../Drivers/STM32H7xx_HAL_Driver/Src/stm32h7xx_hal_mdma.c 0x00000000   Number         0  stm32h7xx_hal_mdma.o ABSOLUTE
    ../Drivers/STM32H7xx_HAL_Driver/Src/stm32h7xx_hal_pwr.c 0x00000000   Number         0  stm32h7xx_hal_pwr.o ABSOLUTE
    ../Drivers/STM32H7xx_HAL_Driver/Src/stm32h7xx_hal_pwr_ex.c 0x00000000   Number         0  stm32h7xx_hal_pwr_ex.o ABSOLUTE
    ../Drivers/STM32H7xx_HAL_Driver/Src/stm32h7xx_hal_rcc.c 0x00000000   Number         0  stm32h7xx_hal_rcc.o ABSOLUTE
    ../Drivers/STM32H7xx_HAL_Driver/Src/stm32h7xx_hal_rcc_ex.c 0x00000000   Number         0  stm32h7xx_hal_rcc_ex.o ABSOLUTE
    ../Drivers/STM32H7xx_HAL_Driver/Src/stm32h7xx_hal_spi.c 0x00000000   Number         0  stm32h7xx_hal_spi.o ABSOLUTE
    ../Drivers/STM32H7xx_HAL_Driver/Src/stm32h7xx_hal_spi_ex.c 0x00000000   Number         0  stm32h7xx_hal_spi_ex.o ABSOLUTE
    ../Drivers/STM32H7xx_HAL_Driver/Src/stm32h7xx_hal_tim.c 0x00000000   Number         0  stm32h7xx_hal_tim.o ABSOLUTE
    ../Drivers/STM32H7xx_HAL_Driver/Src/stm32h7xx_hal_tim_ex.c 0x00000000   Number         0  stm32h7xx_hal_tim_ex.o ABSOLUTE
    ../Drivers/STM32H7xx_HAL_Driver/Src/stm32h7xx_hal_uart.c 0x00000000   Number         0  stm32h7xx_hal_uart.o ABSOLUTE
    ../Drivers/STM32H7xx_HAL_Driver/Src/stm32h7xx_hal_uart_ex.c 0x00000000   Number         0  stm32h7xx_hal_uart_ex.o ABSOLUTE
    ../clib/../cmprslib/lz77c.c              0x00000000   Number         0  __dclz77c.o ABSOLUTE
    ../clib/microlib/division.c              0x00000000   Number         0  uldiv.o ABSOLUTE
    ../clib/microlib/division.c              0x00000000   Number         0  uidiv.o ABSOLUTE
    ../clib/microlib/errno.c                 0x00000000   Number         0  errno.o ABSOLUTE
    ../clib/microlib/init/entry.s            0x00000000   Number         0  entry10a.o ABSOLUTE
    ../clib/microlib/init/entry.s            0x00000000   Number         0  entry12b.o ABSOLUTE
    ../clib/microlib/init/entry.s            0x00000000   Number         0  entry12a.o ABSOLUTE
    ../clib/microlib/init/entry.s            0x00000000   Number         0  entry11b.o ABSOLUTE
    ../clib/microlib/init/entry.s            0x00000000   Number         0  entry11a.o ABSOLUTE
    ../clib/microlib/init/entry.s            0x00000000   Number         0  entry10b.o ABSOLUTE
    ../clib/microlib/init/entry.s            0x00000000   Number         0  entry.o ABSOLUTE
    ../clib/microlib/init/entry.s            0x00000000   Number         0  entry9b.o ABSOLUTE
    ../clib/microlib/init/entry.s            0x00000000   Number         0  entry5.o ABSOLUTE
    ../clib/microlib/init/entry.s            0x00000000   Number         0  entry9a.o ABSOLUTE
    ../clib/microlib/init/entry.s            0x00000000   Number         0  entry8b.o ABSOLUTE
    ../clib/microlib/init/entry.s            0x00000000   Number         0  entry8a.o ABSOLUTE
    ../clib/microlib/init/entry.s            0x00000000   Number         0  entry7b.o ABSOLUTE
    ../clib/microlib/init/entry.s            0x00000000   Number         0  entry7a.o ABSOLUTE
    ../clib/microlib/init/entry.s            0x00000000   Number         0  entry2.o ABSOLUTE
    ../clib/microlib/longlong.c              0x00000000   Number         0  llshl.o ABSOLUTE
    ../clib/microlib/longlong.c              0x00000000   Number         0  llsshr.o ABSOLUTE
    ../clib/microlib/longlong.c              0x00000000   Number         0  llushr.o ABSOLUTE
    ../clib/microlib/printf/printf.c         0x00000000   Number         0  printf7.o ABSOLUTE
    ../clib/microlib/printf/printf.c         0x00000000   Number         0  printfb.o ABSOLUTE
    ../clib/microlib/printf/printf.c         0x00000000   Number         0  printf0.o ABSOLUTE
    ../clib/microlib/printf/printf.c         0x00000000   Number         0  printf2.o ABSOLUTE
    ../clib/microlib/printf/printf.c         0x00000000   Number         0  printfa.o ABSOLUTE
    ../clib/microlib/printf/printf.c         0x00000000   Number         0  printf8.o ABSOLUTE
    ../clib/microlib/printf/printf.c         0x00000000   Number         0  printf6.o ABSOLUTE
    ../clib/microlib/printf/printf.c         0x00000000   Number         0  printf5.o ABSOLUTE
    ../clib/microlib/printf/printf.c         0x00000000   Number         0  printf4.o ABSOLUTE
    ../clib/microlib/printf/printf.c         0x00000000   Number         0  printf3.o ABSOLUTE
    ../clib/microlib/printf/printf.c         0x00000000   Number         0  printf1.o ABSOLUTE
    ../clib/microlib/stdio/streams.c         0x00000000   Number         0  stdout.o ABSOLUTE
    ../clib/microlib/string/memcpy.c         0x00000000   Number         0  memcpyb.o ABSOLUTE
    ../clib/microlib/string/memcpy.c         0x00000000   Number         0  memcpya.o ABSOLUTE
    ../clib/microlib/string/memset.c         0x00000000   Number         0  memseta.o ABSOLUTE
    ../clib/microlib/stubs.s                 0x00000000   Number         0  iusefp.o ABSOLUTE
    ../fplib/microlib/fpadd.c                0x00000000   Number         0  dadd.o ABSOLUTE
    ../fplib/microlib/fpdiv.c                0x00000000   Number         0  ddiv.o ABSOLUTE
    ../fplib/microlib/fpepilogue.c           0x00000000   Number         0  depilogue.o ABSOLUTE
    ../fplib/microlib/fpfix.c                0x00000000   Number         0  dfixul.o ABSOLUTE
    ../fplib/microlib/fpmul.c                0x00000000   Number         0  dmul.o ABSOLUTE
    ../mathlib/dunder.c                      0x00000000   Number         0  dunder.o ABSOLUTE
    ../mathlib/exp.c                         0x00000000   Number         0  exp_x.o ABSOLUTE
    ../mathlib/exp.c                         0x00000000   Number         0  exp.o ABSOLUTE
    ../mathlib/fpclassify.c                  0x00000000   Number         0  fpclassify.o ABSOLUTE
    ../mathlib/log.c                         0x00000000   Number         0  log.o ABSOLUTE
    ../mathlib/log.c                         0x00000000   Number         0  log_x.o ABSOLUTE
    ../mathlib/poly.c                        0x00000000   Number         0  poly.o ABSOLUTE
    ../mathlib/qnan.c                        0x00000000   Number         0  qnan.o ABSOLUTE
    ..\Core\Src\ads1245.c                    0x00000000   Number         0  ads1245.o ABSOLUTE
    ..\Core\Src\dac.c                        0x00000000   Number         0  dac.o ABSOLUTE
    ..\Core\Src\dac8552.c                    0x00000000   Number         0  dac8552.o ABSOLUTE
    ..\Core\Src\dma.c                        0x00000000   Number         0  dma.o ABSOLUTE
    ..\Core\Src\gpio.c                       0x00000000   Number         0  gpio.o ABSOLUTE
    ..\Core\Src\main.c                       0x00000000   Number         0  main.o ABSOLUTE
    ..\Core\Src\mbcustomfunctioncode.c       0x00000000   Number         0  mbcustomfunctioncode.o ABSOLUTE
    ..\Core\Src\memorymap.c                  0x00000000   Number         0  memorymap.o ABSOLUTE
    ..\Core\Src\pid.c                        0x00000000   Number         0  pid.o ABSOLUTE
    ..\Core\Src\public.c                     0x00000000   Number         0  public.o ABSOLUTE
    ..\Core\Src\spi.c                        0x00000000   Number         0  spi.o ABSOLUTE
    ..\Core\Src\spi_protocol.c               0x00000000   Number         0  spi_protocol.o ABSOLUTE
    ..\Core\Src\stm32h7xx_hal_msp.c          0x00000000   Number         0  stm32h7xx_hal_msp.o ABSOLUTE
    ..\Core\Src\stm32h7xx_it.c               0x00000000   Number         0  stm32h7xx_it.o ABSOLUTE
    ..\Core\Src\system_stm32h7xx.c           0x00000000   Number         0  system_stm32h7xx.o ABSOLUTE
    ..\Core\Src\tim.c                        0x00000000   Number         0  tim.o ABSOLUTE
    ..\Core\Src\usart.c                      0x00000000   Number         0  usart.o ABSOLUTE
    ..\Drivers\STM32H7xx_HAL_Driver\Src\stm32h7xx_hal.c 0x00000000   Number         0  stm32h7xx_hal.o ABSOLUTE
    ..\Drivers\STM32H7xx_HAL_Driver\Src\stm32h7xx_hal_cortex.c 0x00000000   Number         0  stm32h7xx_hal_cortex.o ABSOLUTE
    ..\Drivers\STM32H7xx_HAL_Driver\Src\stm32h7xx_hal_dac.c 0x00000000   Number         0  stm32h7xx_hal_dac.o ABSOLUTE
    ..\Drivers\STM32H7xx_HAL_Driver\Src\stm32h7xx_hal_dac_ex.c 0x00000000   Number         0  stm32h7xx_hal_dac_ex.o ABSOLUTE
    ..\Drivers\STM32H7xx_HAL_Driver\Src\stm32h7xx_hal_dma.c 0x00000000   Number         0  stm32h7xx_hal_dma.o ABSOLUTE
    ..\Drivers\STM32H7xx_HAL_Driver\Src\stm32h7xx_hal_dma_ex.c 0x00000000   Number         0  stm32h7xx_hal_dma_ex.o ABSOLUTE
    ..\Drivers\STM32H7xx_HAL_Driver\Src\stm32h7xx_hal_exti.c 0x00000000   Number         0  stm32h7xx_hal_exti.o ABSOLUTE
    ..\Drivers\STM32H7xx_HAL_Driver\Src\stm32h7xx_hal_flash.c 0x00000000   Number         0  stm32h7xx_hal_flash.o ABSOLUTE
    ..\Drivers\STM32H7xx_HAL_Driver\Src\stm32h7xx_hal_flash_ex.c 0x00000000   Number         0  stm32h7xx_hal_flash_ex.o ABSOLUTE
    ..\Drivers\STM32H7xx_HAL_Driver\Src\stm32h7xx_hal_gpio.c 0x00000000   Number         0  stm32h7xx_hal_gpio.o ABSOLUTE
    ..\Drivers\STM32H7xx_HAL_Driver\Src\stm32h7xx_hal_hsem.c 0x00000000   Number         0  stm32h7xx_hal_hsem.o ABSOLUTE
    ..\Drivers\STM32H7xx_HAL_Driver\Src\stm32h7xx_hal_i2c.c 0x00000000   Number         0  stm32h7xx_hal_i2c.o ABSOLUTE
    ..\Drivers\STM32H7xx_HAL_Driver\Src\stm32h7xx_hal_i2c_ex.c 0x00000000   Number         0  stm32h7xx_hal_i2c_ex.o ABSOLUTE
    ..\Drivers\STM32H7xx_HAL_Driver\Src\stm32h7xx_hal_mdma.c 0x00000000   Number         0  stm32h7xx_hal_mdma.o ABSOLUTE
    ..\Drivers\STM32H7xx_HAL_Driver\Src\stm32h7xx_hal_pwr.c 0x00000000   Number         0  stm32h7xx_hal_pwr.o ABSOLUTE
    ..\Drivers\STM32H7xx_HAL_Driver\Src\stm32h7xx_hal_pwr_ex.c 0x00000000   Number         0  stm32h7xx_hal_pwr_ex.o ABSOLUTE
    ..\Drivers\STM32H7xx_HAL_Driver\Src\stm32h7xx_hal_rcc.c 0x00000000   Number         0  stm32h7xx_hal_rcc.o ABSOLUTE
    ..\Drivers\STM32H7xx_HAL_Driver\Src\stm32h7xx_hal_rcc_ex.c 0x00000000   Number         0  stm32h7xx_hal_rcc_ex.o ABSOLUTE
    ..\Drivers\STM32H7xx_HAL_Driver\Src\stm32h7xx_hal_spi.c 0x00000000   Number         0  stm32h7xx_hal_spi.o ABSOLUTE
    ..\Drivers\STM32H7xx_HAL_Driver\Src\stm32h7xx_hal_spi_ex.c 0x00000000   Number         0  stm32h7xx_hal_spi_ex.o ABSOLUTE
    ..\Drivers\STM32H7xx_HAL_Driver\Src\stm32h7xx_hal_tim.c 0x00000000   Number         0  stm32h7xx_hal_tim.o ABSOLUTE
    ..\Drivers\STM32H7xx_HAL_Driver\Src\stm32h7xx_hal_tim_ex.c 0x00000000   Number         0  stm32h7xx_hal_tim_ex.o ABSOLUTE
    ..\Drivers\STM32H7xx_HAL_Driver\Src\stm32h7xx_hal_uart.c 0x00000000   Number         0  stm32h7xx_hal_uart.o ABSOLUTE
    ..\Drivers\STM32H7xx_HAL_Driver\Src\stm32h7xx_hal_uart_ex.c 0x00000000   Number         0  stm32h7xx_hal_uart_ex.o ABSOLUTE
    ..\Modbus\source\mb_m.c                  0x00000000   Number         0  mb_m.o ABSOLUTE
    ..\Modbus\source\mbcrc.c                 0x00000000   Number         0  mbcrc.o ABSOLUTE
    ..\Modbus\source\mbfunccoils_m.c         0x00000000   Number         0  mbfunccoils_m.o ABSOLUTE
    ..\Modbus\source\mbfuncdisc_m.c          0x00000000   Number         0  mbfuncdisc_m.o ABSOLUTE
    ..\Modbus\source\mbfuncholding_m.c       0x00000000   Number         0  mbfuncholding_m.o ABSOLUTE
    ..\Modbus\source\mbfuncinput_m.c         0x00000000   Number         0  mbfuncinput_m.o ABSOLUTE
    ..\Modbus\source\mbfuncother.c           0x00000000   Number         0  mbfuncother.o ABSOLUTE
    ..\Modbus\source\mbrtu_m.c               0x00000000   Number         0  mbrtu_m.o ABSOLUTE
    ..\Modbus\source\mbutils.c               0x00000000   Number         0  mbutils.o ABSOLUTE
    ..\Modbus\source\port.c                  0x00000000   Number         0  port.o ABSOLUTE
    ..\Modbus\source\portevent_m.c           0x00000000   Number         0  portevent_m.o ABSOLUTE
    ..\Modbus\source\portserial_m.c          0x00000000   Number         0  portserial_m.o ABSOLUTE
    ..\Modbus\source\porttimer_m.c           0x00000000   Number         0  porttimer_m.o ABSOLUTE
    ..\Modbus\source\user_mb_app_m.c         0x00000000   Number         0  user_mb_app_m.o ABSOLUTE
    ..\\Core\\Src\\ads1245.c                 0x00000000   Number         0  ads1245.o ABSOLUTE
    ..\\Core\\Src\\dac8552.c                 0x00000000   Number         0  dac8552.o ABSOLUTE
    ..\\Core\\Src\\mbcustomfunctioncode.c    0x00000000   Number         0  mbcustomfunctioncode.o ABSOLUTE
    ..\\Core\\Src\\pid.c                     0x00000000   Number         0  pid.o ABSOLUTE
    ..\\Core\\Src\\public.c                  0x00000000   Number         0  public.o ABSOLUTE
    ..\\Core\\Src\\spi_protocol.c            0x00000000   Number         0  spi_protocol.o ABSOLUTE
    ..\\Core\\Src\\system_stm32h7xx.c        0x00000000   Number         0  system_stm32h7xx.o ABSOLUTE
    ..\\Modbus\\source\\mb_m.c               0x00000000   Number         0  mb_m.o ABSOLUTE
    ..\\Modbus\\source\\mbcrc.c              0x00000000   Number         0  mbcrc.o ABSOLUTE
    ..\\Modbus\\source\\mbfunccoils_m.c      0x00000000   Number         0  mbfunccoils_m.o ABSOLUTE
    ..\\Modbus\\source\\mbfuncdisc_m.c       0x00000000   Number         0  mbfuncdisc_m.o ABSOLUTE
    ..\\Modbus\\source\\mbfuncholding_m.c    0x00000000   Number         0  mbfuncholding_m.o ABSOLUTE
    ..\\Modbus\\source\\mbfuncinput_m.c      0x00000000   Number         0  mbfuncinput_m.o ABSOLUTE
    ..\\Modbus\\source\\mbfuncother.c        0x00000000   Number         0  mbfuncother.o ABSOLUTE
    ..\\Modbus\\source\\mbrtu_m.c            0x00000000   Number         0  mbrtu_m.o ABSOLUTE
    ..\\Modbus\\source\\mbutils.c            0x00000000   Number         0  mbutils.o ABSOLUTE
    ..\\Modbus\\source\\port.c               0x00000000   Number         0  port.o ABSOLUTE
    ..\\Modbus\\source\\portevent_m.c        0x00000000   Number         0  portevent_m.o ABSOLUTE
    ..\\Modbus\\source\\portserial_m.c       0x00000000   Number         0  portserial_m.o ABSOLUTE
    ..\\Modbus\\source\\porttimer_m.c        0x00000000   Number         0  porttimer_m.o ABSOLUTE
    ..\\Modbus\\source\\user_mb_app_m.c      0x00000000   Number         0  user_mb_app_m.o ABSOLUTE
    E:\\test\\753test2\\753test\\Core\\Src\\acq_sync.c 0x00000000   Number         0  acq_sync.o ABSOLUTE
    E:\test\753test2\753test\Core\Src\acq_sync.c 0x00000000   Number         0  acq_sync.o ABSOLUTE
    cdrcmple.s                               0x00000000   Number         0  cdrcmple.o ABSOLUTE
    dc.s                                     0x00000000   Number         0  dc.o ABSOLUTE
    handlers.s                               0x00000000   Number         0  handlers.o ABSOLUTE
    init.s                                   0x00000000   Number         0  init.o ABSOLUTE
    startup_stm32h753xx.s                    0x00000000   Number         0  startup_stm32h753xx.o ABSOLUTE
    RESET                                    0x08000000   Section      664  startup_stm32h753xx.o(RESET)
    .ARM.Collect$$$$00000000                 0x08000298   Section        0  entry.o(.ARM.Collect$$$$00000000)
    .ARM.Collect$$$$00000001                 0x08000298   Section        4  entry2.o(.ARM.Collect$$$$00000001)
    .ARM.Collect$$$$00000004                 0x0800029c   Section        4  entry5.o(.ARM.Collect$$$$00000004)
    .ARM.Collect$$$$00000008                 0x080002a0   Section        0  entry7b.o(.ARM.Collect$$$$00000008)
    .ARM.Collect$$$$0000000A                 0x080002a0   Section        0  entry8b.o(.ARM.Collect$$$$0000000A)
    .ARM.Collect$$$$0000000B                 0x080002a0   Section        8  entry9a.o(.ARM.Collect$$$$0000000B)
    .ARM.Collect$$$$0000000E                 0x080002a8   Section        4  entry12b.o(.ARM.Collect$$$$0000000E)
    .ARM.Collect$$$$0000000F                 0x080002ac   Section        0  entry10a.o(.ARM.Collect$$$$0000000F)
    .ARM.Collect$$$$00000011                 0x080002ac   Section        0  entry11a.o(.ARM.Collect$$$$00000011)
    .ARM.Collect$$$$00002712                 0x080002ac   Section        4  entry2.o(.ARM.Collect$$$$00002712)
    __lit__00000000                          0x080002ac   Data           4  entry2.o(.ARM.Collect$$$$00002712)
    .text                                    0x080002b0   Section       36  startup_stm32h753xx.o(.text)
    $v0                                      0x080002b0   Number         0  startup_stm32h753xx.o(.text)
    .text                                    0x080002d4   Section        0  uldiv.o(.text)
    .text                                    0x08000336   Section        0  memcpya.o(.text)
    .text                                    0x0800035a   Section        0  memseta.o(.text)
    .text                                    0x0800037e   Section        0  llshl.o(.text)
    .text                                    0x0800039c   Section        0  llushr.o(.text)
    .text                                    0x080003bc   Section        0  iusefp.o(.text)
    .text                                    0x080003bc   Section       36  init.o(.text)
    .text                                    0x080003e0   Section        0  __dclz77c.o(.text)
    i.BusFault_Handler                       0x0800043e   Section        0  stm32h7xx_it.o(i.BusFault_Handler)
    i.DAC_DMAConvCpltCh1                     0x08000440   Section        0  stm32h7xx_hal_dac.o(i.DAC_DMAConvCpltCh1)
    i.DAC_DMAConvCpltCh2                     0x08000450   Section        0  stm32h7xx_hal_dac_ex.o(i.DAC_DMAConvCpltCh2)
    i.DAC_DMAErrorCh1                        0x08000460   Section        0  stm32h7xx_hal_dac.o(i.DAC_DMAErrorCh1)
    i.DAC_DMAErrorCh2                        0x08000478   Section        0  stm32h7xx_hal_dac_ex.o(i.DAC_DMAErrorCh2)
    i.DAC_DMAHalfConvCpltCh1                 0x08000490   Section        0  stm32h7xx_hal_dac.o(i.DAC_DMAHalfConvCpltCh1)
    i.DAC_DMAHalfConvCpltCh2                 0x0800049a   Section        0  stm32h7xx_hal_dac_ex.o(i.DAC_DMAHalfConvCpltCh2)
    i.DMA2_Stream0_IRQHandler                0x080004a4   Section        0  stm32h7xx_it.o(i.DMA2_Stream0_IRQHandler)
    i.DMA2_Stream1_IRQHandler                0x080004b0   Section        0  stm32h7xx_it.o(i.DMA2_Stream1_IRQHandler)
    i.DMA2_Stream6_IRQHandler                0x080004bc   Section        0  stm32h7xx_it.o(i.DMA2_Stream6_IRQHandler)
    i.DMA_CalcBaseAndBitshift                0x080004c8   Section        0  stm32h7xx_hal_dma.o(i.DMA_CalcBaseAndBitshift)
    DMA_CalcBaseAndBitshift                  0x080004c9   Thumb Code   168  stm32h7xx_hal_dma.o(i.DMA_CalcBaseAndBitshift)
    i.DMA_CalcDMAMUXChannelBaseAndMask       0x0800057c   Section        0  stm32h7xx_hal_dma.o(i.DMA_CalcDMAMUXChannelBaseAndMask)
    DMA_CalcDMAMUXChannelBaseAndMask         0x0800057d   Thumb Code   138  stm32h7xx_hal_dma.o(i.DMA_CalcDMAMUXChannelBaseAndMask)
    i.DMA_CalcDMAMUXRequestGenBaseAndMask    0x08000618   Section        0  stm32h7xx_hal_dma.o(i.DMA_CalcDMAMUXRequestGenBaseAndMask)
    DMA_CalcDMAMUXRequestGenBaseAndMask      0x08000619   Thumb Code   104  stm32h7xx_hal_dma.o(i.DMA_CalcDMAMUXRequestGenBaseAndMask)
    i.DMA_CheckFifoParam                     0x0800068c   Section        0  stm32h7xx_hal_dma.o(i.DMA_CheckFifoParam)
    DMA_CheckFifoParam                       0x0800068d   Thumb Code    84  stm32h7xx_hal_dma.o(i.DMA_CheckFifoParam)
    i.DMA_SetConfig                          0x080006e0   Section        0  stm32h7xx_hal_dma.o(i.DMA_SetConfig)
    DMA_SetConfig                            0x080006e1   Thumb Code   518  stm32h7xx_hal_dma.o(i.DMA_SetConfig)
    i.DebugMon_Handler                       0x08000900   Section        0  stm32h7xx_it.o(i.DebugMon_Handler)
    i.ENTER_CRITICAL_SECTION                 0x08000902   Section        0  port.o(i.ENTER_CRITICAL_SECTION)
    i.EXIT_CRITICAL_SECTION                  0x0800090a   Section        0  port.o(i.EXIT_CRITICAL_SECTION)
    i.EXTI15_10_IRQHandler                   0x08000912   Section        0  stm32h7xx_it.o(i.EXTI15_10_IRQHandler)
    i.EXTI9_5_IRQHandler                     0x0800091a   Section        0  stm32h7xx_it.o(i.EXTI9_5_IRQHandler)
    i.Error_Handler                          0x08000922   Section        0  main.o(i.Error_Handler)
    i.HAL_DACEx_ConvCpltCallbackCh2          0x08000926   Section        0  stm32h7xx_hal_dac_ex.o(i.HAL_DACEx_ConvCpltCallbackCh2)
    i.HAL_DACEx_ConvHalfCpltCallbackCh2      0x08000928   Section        0  stm32h7xx_hal_dac_ex.o(i.HAL_DACEx_ConvHalfCpltCallbackCh2)
    i.HAL_DACEx_ErrorCallbackCh2             0x0800092a   Section        0  stm32h7xx_hal_dac_ex.o(i.HAL_DACEx_ErrorCallbackCh2)
    i.HAL_DAC_ConfigChannel                  0x0800092c   Section        0  stm32h7xx_hal_dac.o(i.HAL_DAC_ConfigChannel)
    i.HAL_DAC_ConvCpltCallbackCh1            0x08000a78   Section        0  stm32h7xx_hal_dac.o(i.HAL_DAC_ConvCpltCallbackCh1)
    i.HAL_DAC_ConvHalfCpltCallbackCh1        0x08000a7a   Section        0  stm32h7xx_hal_dac.o(i.HAL_DAC_ConvHalfCpltCallbackCh1)
    i.HAL_DAC_ErrorCallbackCh1               0x08000a7c   Section        0  stm32h7xx_hal_dac.o(i.HAL_DAC_ErrorCallbackCh1)
    i.HAL_DAC_Init                           0x08000a7e   Section        0  stm32h7xx_hal_dac.o(i.HAL_DAC_Init)
    i.HAL_DAC_MspInit                        0x08000aa8   Section        0  dac.o(i.HAL_DAC_MspInit)
    i.HAL_DAC_Start                          0x08000b54   Section        0  stm32h7xx_hal_dac.o(i.HAL_DAC_Start)
    i.HAL_DAC_Start_DMA                      0x08000bb4   Section        0  stm32h7xx_hal_dac.o(i.HAL_DAC_Start_DMA)
    i.HAL_DAC_Stop_DMA                       0x08000c94   Section        0  stm32h7xx_hal_dac.o(i.HAL_DAC_Stop_DMA)
    i.HAL_DMA_Abort                          0x08000cf0   Section        0  stm32h7xx_hal_dma.o(i.HAL_DMA_Abort)
    i.HAL_DMA_Abort_IT                       0x08001050   Section        0  stm32h7xx_hal_dma.o(i.HAL_DMA_Abort_IT)
    i.HAL_DMA_GetError                       0x080012d4   Section        0  stm32h7xx_hal_dma.o(i.HAL_DMA_GetError)
    i.HAL_DMA_IRQHandler                     0x080012d8   Section        0  stm32h7xx_hal_dma.o(i.HAL_DMA_IRQHandler)
    i.HAL_DMA_Init                           0x080019c0   Section        0  stm32h7xx_hal_dma.o(i.HAL_DMA_Init)
    i.HAL_DMA_Start_IT                       0x08001d84   Section        0  stm32h7xx_hal_dma.o(i.HAL_DMA_Start_IT)
    i.HAL_Delay                              0x08002020   Section        0  stm32h7xx_hal.o(i.HAL_Delay)
    i.HAL_GPIO_EXTI_Callback                 0x08002044   Section        0  public.o(i.HAL_GPIO_EXTI_Callback)
    i.HAL_GPIO_EXTI_IRQHandler               0x08002118   Section        0  stm32h7xx_hal_gpio.o(i.HAL_GPIO_EXTI_IRQHandler)
    i.HAL_GPIO_Init                          0x08002130   Section        0  stm32h7xx_hal_gpio.o(i.HAL_GPIO_Init)
    i.HAL_GPIO_ReadPin                       0x0800235c   Section        0  stm32h7xx_hal_gpio.o(i.HAL_GPIO_ReadPin)
    i.HAL_GPIO_WritePin                      0x08002366   Section        0  stm32h7xx_hal_gpio.o(i.HAL_GPIO_WritePin)
    i.HAL_GetREVID                           0x08002370   Section        0  stm32h7xx_hal.o(i.HAL_GetREVID)
    i.HAL_GetTick                            0x0800237c   Section        0  stm32h7xx_hal.o(i.HAL_GetTick)
    i.HAL_IncTick                            0x08002388   Section        0  stm32h7xx_hal.o(i.HAL_IncTick)
    i.HAL_Init                               0x08002398   Section        0  stm32h7xx_hal.o(i.HAL_Init)
    i.HAL_InitTick                           0x080023f4   Section        0  stm32h7xx_hal.o(i.HAL_InitTick)
    i.HAL_MPU_ConfigRegion                   0x08002434   Section        0  stm32h7xx_hal_cortex.o(i.HAL_MPU_ConfigRegion)
    i.HAL_MPU_Disable                        0x08002490   Section        0  stm32h7xx_hal_cortex.o(i.HAL_MPU_Disable)
    i.HAL_MPU_Enable                         0x080024ac   Section        0  stm32h7xx_hal_cortex.o(i.HAL_MPU_Enable)
    i.HAL_MspInit                            0x080024d0   Section        0  stm32h7xx_hal_msp.o(i.HAL_MspInit)
    i.HAL_NVIC_DisableIRQ                    0x080024ec   Section        0  stm32h7xx_hal_cortex.o(i.HAL_NVIC_DisableIRQ)
    i.HAL_NVIC_EnableIRQ                     0x0800250e   Section        0  stm32h7xx_hal_cortex.o(i.HAL_NVIC_EnableIRQ)
    i.HAL_NVIC_SetPriority                   0x08002528   Section        0  stm32h7xx_hal_cortex.o(i.HAL_NVIC_SetPriority)
    i.HAL_NVIC_SetPriorityGrouping           0x08002568   Section        0  stm32h7xx_hal_cortex.o(i.HAL_NVIC_SetPriorityGrouping)
    i.HAL_PWREx_ConfigSupply                 0x0800258c   Section        0  stm32h7xx_hal_pwr_ex.o(i.HAL_PWREx_ConfigSupply)
    i.HAL_RCCEx_GetD3PCLK1Freq               0x080025e0   Section        0  stm32h7xx_hal_rcc_ex.o(i.HAL_RCCEx_GetD3PCLK1Freq)
    i.HAL_RCCEx_GetPLL2ClockFreq             0x08002604   Section        0  stm32h7xx_hal_rcc_ex.o(i.HAL_RCCEx_GetPLL2ClockFreq)
    i.HAL_RCCEx_GetPLL3ClockFreq             0x08002748   Section        0  stm32h7xx_hal_rcc_ex.o(i.HAL_RCCEx_GetPLL3ClockFreq)
    i.HAL_RCCEx_PeriphCLKConfig              0x0800288c   Section        0  stm32h7xx_hal_rcc_ex.o(i.HAL_RCCEx_PeriphCLKConfig)
    i.HAL_RCC_ClockConfig                    0x08003238   Section        0  stm32h7xx_hal_rcc.o(i.HAL_RCC_ClockConfig)
    i.HAL_RCC_GetHCLKFreq                    0x08003494   Section        0  stm32h7xx_hal_rcc.o(i.HAL_RCC_GetHCLKFreq)
    i.HAL_RCC_GetPCLK1Freq                   0x080034d8   Section        0  stm32h7xx_hal_rcc.o(i.HAL_RCC_GetPCLK1Freq)
    i.HAL_RCC_GetPCLK2Freq                   0x080034fc   Section        0  stm32h7xx_hal_rcc.o(i.HAL_RCC_GetPCLK2Freq)
    i.HAL_RCC_GetSysClockFreq                0x08003520   Section        0  stm32h7xx_hal_rcc.o(i.HAL_RCC_GetSysClockFreq)
    i.HAL_RCC_OscConfig                      0x08003658   Section        0  stm32h7xx_hal_rcc.o(i.HAL_RCC_OscConfig)
    i.HAL_SPI_ErrorCallback                  0x08003bdc   Section        0  spi_protocol.o(i.HAL_SPI_ErrorCallback)
    i.HAL_SPI_IRQHandler                     0x08003c04   Section        0  stm32h7xx_hal_spi.o(i.HAL_SPI_IRQHandler)
    i.HAL_SPI_Init                           0x08003e28   Section        0  stm32h7xx_hal_spi.o(i.HAL_SPI_Init)
    i.HAL_SPI_MspInit                        0x08003fa4   Section        0  spi.o(i.HAL_SPI_MspInit)
    i.HAL_SPI_Receive_DMA                    0x080041a8   Section        0  stm32h7xx_hal_spi.o(i.HAL_SPI_Receive_DMA)
    i.HAL_SPI_RxCpltCallback                 0x0800432c   Section        0  spi_protocol.o(i.HAL_SPI_RxCpltCallback)
    i.HAL_SPI_RxHalfCpltCallback             0x08004348   Section        0  stm32h7xx_hal_spi.o(i.HAL_SPI_RxHalfCpltCallback)
    i.HAL_SPI_SuspendCallback                0x0800434a   Section        0  stm32h7xx_hal_spi.o(i.HAL_SPI_SuspendCallback)
    i.HAL_SPI_Transmit                       0x0800434c   Section        0  stm32h7xx_hal_spi.o(i.HAL_SPI_Transmit)
    i.HAL_SPI_TransmitReceive_DMA            0x08004590   Section        0  stm32h7xx_hal_spi.o(i.HAL_SPI_TransmitReceive_DMA)
    i.HAL_SPI_Transmit_DMA                   0x08004778   Section        0  stm32h7xx_hal_spi.o(i.HAL_SPI_Transmit_DMA)
    i.HAL_SPI_TxCpltCallback                 0x080048f0   Section        0  spi_protocol.o(i.HAL_SPI_TxCpltCallback)
    i.HAL_SPI_TxHalfCpltCallback             0x0800491c   Section        0  stm32h7xx_hal_spi.o(i.HAL_SPI_TxHalfCpltCallback)
    i.HAL_SPI_TxRxCpltCallback               0x08004920   Section        0  spi_protocol.o(i.HAL_SPI_TxRxCpltCallback)
    i.HAL_SPI_TxRxHalfCpltCallback           0x080049b0   Section        0  stm32h7xx_hal_spi.o(i.HAL_SPI_TxRxHalfCpltCallback)
    i.HAL_SYSTICK_Config                     0x080049b2   Section        0  stm32h7xx_hal_cortex.o(i.HAL_SYSTICK_Config)
    i.HAL_TIMEx_ConfigBreakDeadTime          0x080049d8   Section        0  stm32h7xx_hal_tim_ex.o(i.HAL_TIMEx_ConfigBreakDeadTime)
    i.HAL_TIMEx_MasterConfigSynchronization  0x08004a78   Section        0  stm32h7xx_hal_tim_ex.o(i.HAL_TIMEx_MasterConfigSynchronization)
    i.HAL_TIM_Base_Init                      0x08004b1c   Section        0  stm32h7xx_hal_tim.o(i.HAL_TIM_Base_Init)
    i.HAL_TIM_Base_MspInit                   0x08004b80   Section        0  tim.o(i.HAL_TIM_Base_MspInit)
    i.HAL_TIM_Base_Start                     0x08004bf4   Section        0  stm32h7xx_hal_tim.o(i.HAL_TIM_Base_Start)
    i.HAL_TIM_Base_Start_IT                  0x08004c74   Section        0  stm32h7xx_hal_tim.o(i.HAL_TIM_Base_Start_IT)
    i.HAL_TIM_Base_Stop                      0x08004d00   Section        0  stm32h7xx_hal_tim.o(i.HAL_TIM_Base_Stop)
    i.HAL_TIM_Base_Stop_IT                   0x08004d26   Section        0  stm32h7xx_hal_tim.o(i.HAL_TIM_Base_Stop_IT)
    i.HAL_TIM_ConfigClockSource              0x08004d58   Section        0  stm32h7xx_hal_tim.o(i.HAL_TIM_ConfigClockSource)
    i.HAL_TIM_MspPostInit                    0x08004e54   Section        0  tim.o(i.HAL_TIM_MspPostInit)
    i.HAL_TIM_PWM_ConfigChannel              0x08004f38   Section        0  stm32h7xx_hal_tim.o(i.HAL_TIM_PWM_ConfigChannel)
    i.HAL_TIM_PWM_Init                       0x0800505c   Section        0  stm32h7xx_hal_tim.o(i.HAL_TIM_PWM_Init)
    i.HAL_TIM_PWM_MspInit                    0x080050c0   Section        0  tim.o(i.HAL_TIM_PWM_MspInit)
    i.HAL_TIM_PWM_Start                      0x0800511c   Section        0  stm32h7xx_hal_tim.o(i.HAL_TIM_PWM_Start)
    i.HAL_TIM_PWM_Stop                       0x0800522c   Section        0  stm32h7xx_hal_tim.o(i.HAL_TIM_PWM_Stop)
    i.HAL_TIM_SlaveConfigSynchro             0x080052dc   Section        0  stm32h7xx_hal_tim.o(i.HAL_TIM_SlaveConfigSynchro)
    i.HAL_UARTEx_RxEventCallback             0x08005332   Section        0  stm32h7xx_hal_uart.o(i.HAL_UARTEx_RxEventCallback)
    i.HAL_UARTEx_RxFifoFullCallback          0x08005334   Section        0  stm32h7xx_hal_uart_ex.o(i.HAL_UARTEx_RxFifoFullCallback)
    i.HAL_UARTEx_TxFifoEmptyCallback         0x08005336   Section        0  stm32h7xx_hal_uart_ex.o(i.HAL_UARTEx_TxFifoEmptyCallback)
    i.HAL_UARTEx_WakeupCallback              0x08005338   Section        0  stm32h7xx_hal_uart_ex.o(i.HAL_UARTEx_WakeupCallback)
    i.HAL_UART_ErrorCallback                 0x0800533a   Section        0  stm32h7xx_hal_uart.o(i.HAL_UART_ErrorCallback)
    i.HAL_UART_IRQHandler                    0x0800533c   Section        0  stm32h7xx_hal_uart.o(i.HAL_UART_IRQHandler)
    i.HAL_UART_Init                          0x080056c4   Section        0  stm32h7xx_hal_uart.o(i.HAL_UART_Init)
    i.HAL_UART_MspInit                       0x08005730   Section        0  usart.o(i.HAL_UART_MspInit)
    i.HAL_UART_Receive                       0x080057c8   Section        0  stm32h7xx_hal_uart.o(i.HAL_UART_Receive)
    i.HAL_UART_Receive_IT                    0x080058b0   Section        0  stm32h7xx_hal_uart.o(i.HAL_UART_Receive_IT)
    i.HAL_UART_RxCpltCallback                0x080058f8   Section        0  usart.o(i.HAL_UART_RxCpltCallback)
    i.HAL_UART_Transmit                      0x08005934   Section        0  stm32h7xx_hal_uart.o(i.HAL_UART_Transmit)
    i.HAL_UART_Transmit_IT                   0x080059e4   Section        0  stm32h7xx_hal_uart.o(i.HAL_UART_Transmit_IT)
    i.HAL_UART_TxCpltCallback                0x08005a7c   Section        0  portserial_m.o(i.HAL_UART_TxCpltCallback)
    i.HardFault_Handler                      0x08005a80   Section        0  stm32h7xx_it.o(i.HardFault_Handler)
    i.MB_TxCpltCallback                      0x08005a84   Section        0  portserial_m.o(i.MB_TxCpltCallback)
    i.MX_DAC1_Init                           0x08005a9c   Section        0  dac.o(i.MX_DAC1_Init)
    i.MX_DMA_Init                            0x08005af0   Section        0  dma.o(i.MX_DMA_Init)
    i.MX_GPIO_Init                           0x08005b0c   Section        0  gpio.o(i.MX_GPIO_Init)
    i.MX_SPI5_Init                           0x08005c6c   Section        0  spi.o(i.MX_SPI5_Init)
    i.MX_TIM12_Init                          0x08005cd0   Section        0  tim.o(i.MX_TIM12_Init)
    i.MX_TIM15_Init                          0x08005d50   Section        0  tim.o(i.MX_TIM15_Init)
    i.MX_TIM1_Init                           0x08005e30   Section        0  tim.o(i.MX_TIM1_Init)
    i.MX_TIM3_Init                           0x08005ea0   Section        0  tim.o(i.MX_TIM3_Init)
    i.MX_TIM5_Init                           0x08005f4c   Section        0  tim.o(i.MX_TIM5_Init)
    i.MX_USART1_UART_Init                    0x08005fbc   Section        0  usart.o(i.MX_USART1_UART_Init)
    i.MemManage_Handler                      0x08006014   Section        0  stm32h7xx_it.o(i.MemManage_Handler)
    i.NMI_Handler                            0x08006016   Section        0  stm32h7xx_it.o(i.NMI_Handler)
    i.PIDStructInit                          0x08006018   Section        0  pid.o(i.PIDStructInit)
    i.PID_Incremental                        0x0800603c   Section        0  pid.o(i.PID_Incremental)
    i.PendSV_Handler                         0x080060a8   Section        0  stm32h7xx_it.o(i.PendSV_Handler)
    i.RCCEx_PLL2_Config                      0x080060ac   Section        0  stm32h7xx_hal_rcc_ex.o(i.RCCEx_PLL2_Config)
    RCCEx_PLL2_Config                        0x080060ad   Thumb Code   284  stm32h7xx_hal_rcc_ex.o(i.RCCEx_PLL2_Config)
    i.RCCEx_PLL3_Config                      0x080061cc   Section        0  stm32h7xx_hal_rcc_ex.o(i.RCCEx_PLL3_Config)
    RCCEx_PLL3_Config                        0x080061cd   Thumb Code   284  stm32h7xx_hal_rcc_ex.o(i.RCCEx_PLL3_Config)
    i.SPI4_IRQHandler                        0x080062ec   Section        0  stm32h7xx_it.o(i.SPI4_IRQHandler)
    i.SPI_CloseTransfer                      0x080062f8   Section        0  stm32h7xx_hal_spi.o(i.SPI_CloseTransfer)
    SPI_CloseTransfer                        0x080062f9   Thumb Code   188  stm32h7xx_hal_spi.o(i.SPI_CloseTransfer)
    i.SPI_DMAAbortOnError                    0x080063b4   Section        0  stm32h7xx_hal_spi.o(i.SPI_DMAAbortOnError)
    SPI_DMAAbortOnError                      0x080063b5   Thumb Code    26  stm32h7xx_hal_spi.o(i.SPI_DMAAbortOnError)
    i.SPI_DMAError                           0x080063ce   Section        0  stm32h7xx_hal_spi.o(i.SPI_DMAError)
    SPI_DMAError                             0x080063cf   Thumb Code    44  stm32h7xx_hal_spi.o(i.SPI_DMAError)
    i.SPI_DMAHalfReceiveCplt                 0x080063fa   Section        0  stm32h7xx_hal_spi.o(i.SPI_DMAHalfReceiveCplt)
    SPI_DMAHalfReceiveCplt                   0x080063fb   Thumb Code    10  stm32h7xx_hal_spi.o(i.SPI_DMAHalfReceiveCplt)
    i.SPI_DMAHalfTransmitCplt                0x08006404   Section        0  stm32h7xx_hal_spi.o(i.SPI_DMAHalfTransmitCplt)
    SPI_DMAHalfTransmitCplt                  0x08006405   Thumb Code    10  stm32h7xx_hal_spi.o(i.SPI_DMAHalfTransmitCplt)
    i.SPI_DMAHalfTransmitReceiveCplt         0x0800640e   Section        0  stm32h7xx_hal_spi.o(i.SPI_DMAHalfTransmitReceiveCplt)
    SPI_DMAHalfTransmitReceiveCplt           0x0800640f   Thumb Code    10  stm32h7xx_hal_spi.o(i.SPI_DMAHalfTransmitReceiveCplt)
    i.SPI_DMAReceiveCplt                     0x08006418   Section        0  stm32h7xx_hal_spi.o(i.SPI_DMAReceiveCplt)
    SPI_DMAReceiveCplt                       0x08006419   Thumb Code    40  stm32h7xx_hal_spi.o(i.SPI_DMAReceiveCplt)
    i.SPI_DMATransmitCplt                    0x08006440   Section        0  stm32h7xx_hal_spi.o(i.SPI_DMATransmitCplt)
    SPI_DMATransmitCplt                      0x08006441   Thumb Code    40  stm32h7xx_hal_spi.o(i.SPI_DMATransmitCplt)
    i.SPI_DMATransmitReceiveCplt             0x08006468   Section        0  stm32h7xx_hal_spi.o(i.SPI_DMATransmitReceiveCplt)
    SPI_DMATransmitReceiveCplt               0x08006469   Thumb Code    40  stm32h7xx_hal_spi.o(i.SPI_DMATransmitReceiveCplt)
    i.SPI_WaitOnFlagUntilTimeout             0x08006490   Section        0  stm32h7xx_hal_spi.o(i.SPI_WaitOnFlagUntilTimeout)
    SPI_WaitOnFlagUntilTimeout               0x08006491   Thumb Code    70  stm32h7xx_hal_spi.o(i.SPI_WaitOnFlagUntilTimeout)
    i.SVC_Handler                            0x080064d6   Section        0  stm32h7xx_it.o(i.SVC_Handler)
    i.SysTick_Handler                        0x080064d8   Section        0  stm32h7xx_it.o(i.SysTick_Handler)
    i.SystemClock_Config                     0x080064dc   Section        0  main.o(i.SystemClock_Config)
    i.SystemInit                             0x080065b8   Section        0  system_stm32h7xx.o(i.SystemInit)
    i.TIM4_IRQHandler                        0x08006694   Section        0  acq_sync.o(i.TIM4_IRQHandler)
    i.TIM7_IRQHandler                        0x080066b4   Section        0  porttimer_m.o(i.TIM7_IRQHandler)
    i.TIM_Base_SetConfig                     0x080066d8   Section        0  stm32h7xx_hal_tim.o(i.TIM_Base_SetConfig)
    i.TIM_CCxChannelCmd                      0x080067a8   Section        0  stm32h7xx_hal_tim.o(i.TIM_CCxChannelCmd)
    i.TIM_ETR_SetConfig                      0x080067c2   Section        0  stm32h7xx_hal_tim.o(i.TIM_ETR_SetConfig)
    i.TIM_ITRx_SetConfig                     0x080067d4   Section        0  stm32h7xx_hal_tim.o(i.TIM_ITRx_SetConfig)
    TIM_ITRx_SetConfig                       0x080067d5   Thumb Code    16  stm32h7xx_hal_tim.o(i.TIM_ITRx_SetConfig)
    i.TIM_OC1_SetConfig                      0x080067e8   Section        0  stm32h7xx_hal_tim.o(i.TIM_OC1_SetConfig)
    TIM_OC1_SetConfig                        0x080067e9   Thumb Code   140  stm32h7xx_hal_tim.o(i.TIM_OC1_SetConfig)
    i.TIM_OC2_SetConfig                      0x0800688c   Section        0  stm32h7xx_hal_tim.o(i.TIM_OC2_SetConfig)
    i.TIM_OC3_SetConfig                      0x08006924   Section        0  stm32h7xx_hal_tim.o(i.TIM_OC3_SetConfig)
    TIM_OC3_SetConfig                        0x08006925   Thumb Code   126  stm32h7xx_hal_tim.o(i.TIM_OC3_SetConfig)
    i.TIM_OC4_SetConfig                      0x080069bc   Section        0  stm32h7xx_hal_tim.o(i.TIM_OC4_SetConfig)
    TIM_OC4_SetConfig                        0x080069bd   Thumb Code    96  stm32h7xx_hal_tim.o(i.TIM_OC4_SetConfig)
    i.TIM_OC5_SetConfig                      0x08006a34   Section        0  stm32h7xx_hal_tim.o(i.TIM_OC5_SetConfig)
    TIM_OC5_SetConfig                        0x08006a35   Thumb Code    90  stm32h7xx_hal_tim.o(i.TIM_OC5_SetConfig)
    i.TIM_OC6_SetConfig                      0x08006aa8   Section        0  stm32h7xx_hal_tim.o(i.TIM_OC6_SetConfig)
    TIM_OC6_SetConfig                        0x08006aa9   Thumb Code    90  stm32h7xx_hal_tim.o(i.TIM_OC6_SetConfig)
    i.TIM_SlaveTimer_SetConfig               0x08006b1c   Section        0  stm32h7xx_hal_tim.o(i.TIM_SlaveTimer_SetConfig)
    TIM_SlaveTimer_SetConfig                 0x08006b1d   Thumb Code   208  stm32h7xx_hal_tim.o(i.TIM_SlaveTimer_SetConfig)
    i.TIM_TI1_ConfigInputStage               0x08006bfc   Section        0  stm32h7xx_hal_tim.o(i.TIM_TI1_ConfigInputStage)
    TIM_TI1_ConfigInputStage                 0x08006bfd   Thumb Code    34  stm32h7xx_hal_tim.o(i.TIM_TI1_ConfigInputStage)
    i.TIM_TI2_ConfigInputStage               0x08006c1e   Section        0  stm32h7xx_hal_tim.o(i.TIM_TI2_ConfigInputStage)
    TIM_TI2_ConfigInputStage                 0x08006c1f   Thumb Code    36  stm32h7xx_hal_tim.o(i.TIM_TI2_ConfigInputStage)
    i.UART7_IRQHandler                       0x08006c44   Section        0  portserial_m.o(i.UART7_IRQHandler)
    i.UART_AdvFeatureConfig                  0x08006c78   Section        0  stm32h7xx_hal_uart.o(i.UART_AdvFeatureConfig)
    i.UART_CheckIdleState                    0x08006d40   Section        0  stm32h7xx_hal_uart.o(i.UART_CheckIdleState)
    i.UART_DMAAbortOnError                   0x08006dea   Section        0  stm32h7xx_hal_uart.o(i.UART_DMAAbortOnError)
    UART_DMAAbortOnError                     0x08006deb   Thumb Code    20  stm32h7xx_hal_uart.o(i.UART_DMAAbortOnError)
    i.UART_EndRxTransfer                     0x08006e00   Section        0  stm32h7xx_hal_uart.o(i.UART_EndRxTransfer)
    UART_EndRxTransfer                       0x08006e01   Thumb Code    78  stm32h7xx_hal_uart.o(i.UART_EndRxTransfer)
    i.UART_RxISR_16BIT                       0x08006e54   Section        0  stm32h7xx_hal_uart.o(i.UART_RxISR_16BIT)
    UART_RxISR_16BIT                         0x08006e55   Thumb Code   196  stm32h7xx_hal_uart.o(i.UART_RxISR_16BIT)
    i.UART_RxISR_16BIT_FIFOEN                0x08006f1c   Section        0  stm32h7xx_hal_uart.o(i.UART_RxISR_16BIT_FIFOEN)
    UART_RxISR_16BIT_FIFOEN                  0x08006f1d   Thumb Code   404  stm32h7xx_hal_uart.o(i.UART_RxISR_16BIT_FIFOEN)
    i.UART_RxISR_8BIT                        0x080070bc   Section        0  stm32h7xx_hal_uart.o(i.UART_RxISR_8BIT)
    UART_RxISR_8BIT                          0x080070bd   Thumb Code   196  stm32h7xx_hal_uart.o(i.UART_RxISR_8BIT)
    i.UART_RxISR_8BIT_FIFOEN                 0x08007184   Section        0  stm32h7xx_hal_uart.o(i.UART_RxISR_8BIT_FIFOEN)
    UART_RxISR_8BIT_FIFOEN                   0x08007185   Thumb Code   404  stm32h7xx_hal_uart.o(i.UART_RxISR_8BIT_FIFOEN)
    i.UART_SetConfig                         0x08007324   Section        0  stm32h7xx_hal_uart.o(i.UART_SetConfig)
    i.UART_Start_Receive_IT                  0x080076d0   Section        0  stm32h7xx_hal_uart.o(i.UART_Start_Receive_IT)
    i.UART_TxISR_16BIT                       0x080077e0   Section        0  stm32h7xx_hal_uart.o(i.UART_TxISR_16BIT)
    UART_TxISR_16BIT                         0x080077e1   Thumb Code    82  stm32h7xx_hal_uart.o(i.UART_TxISR_16BIT)
    i.UART_TxISR_16BIT_FIFOEN                0x08007834   Section        0  stm32h7xx_hal_uart.o(i.UART_TxISR_16BIT_FIFOEN)
    UART_TxISR_16BIT_FIFOEN                  0x08007835   Thumb Code   106  stm32h7xx_hal_uart.o(i.UART_TxISR_16BIT_FIFOEN)
    i.UART_TxISR_8BIT                        0x0800789e   Section        0  stm32h7xx_hal_uart.o(i.UART_TxISR_8BIT)
    UART_TxISR_8BIT                          0x0800789f   Thumb Code    78  stm32h7xx_hal_uart.o(i.UART_TxISR_8BIT)
    i.UART_TxISR_8BIT_FIFOEN                 0x080078ec   Section        0  stm32h7xx_hal_uart.o(i.UART_TxISR_8BIT_FIFOEN)
    UART_TxISR_8BIT_FIFOEN                   0x080078ed   Thumb Code   102  stm32h7xx_hal_uart.o(i.UART_TxISR_8BIT_FIFOEN)
    i.UART_WaitOnFlagUntilTimeout            0x08007952   Section        0  stm32h7xx_hal_uart.o(i.UART_WaitOnFlagUntilTimeout)
    i.USART1_IRQHandler                      0x080079e8   Section        0  usart.o(i.USART1_IRQHandler)
    i.UsageFault_Handler                     0x08007a20   Section        0  stm32h7xx_it.o(i.UsageFault_Handler)
    i.__0printf$bare                         0x08007a24   Section        0  printfb.o(i.__0printf$bare)
    i.__ARM_fpclassify                       0x08007a34   Section        0  fpclassify.o(i.__ARM_fpclassify)
    i.__NVIC_SetPriority                     0x08007a64   Section        0  stm32h7xx_hal_cortex.o(i.__NVIC_SetPriority)
    __NVIC_SetPriority                       0x08007a65   Thumb Code    34  stm32h7xx_hal_cortex.o(i.__NVIC_SetPriority)
    i.__hardfp_exp                           0x08007a88   Section        0  exp.o(i.__hardfp_exp)
    i.__hardfp_log                           0x08007cf0   Section        0  log.o(i.__hardfp_log)
    i.__kernel_poly                          0x08007f2c   Section        0  poly.o(i.__kernel_poly)
    i.__mathlib_dbl_divzero                  0x08007fa0   Section        0  dunder.o(i.__mathlib_dbl_divzero)
    i.__mathlib_dbl_infnan                   0x08007fc0   Section        0  dunder.o(i.__mathlib_dbl_infnan)
    i.__mathlib_dbl_invalid                  0x08007fc8   Section        0  dunder.o(i.__mathlib_dbl_invalid)
    i.__mathlib_dbl_overflow                 0x08007fe0   Section        0  dunder.o(i.__mathlib_dbl_overflow)
    i.__mathlib_dbl_underflow                0x08007ff8   Section        0  dunder.o(i.__mathlib_dbl_underflow)
    i.__scatterload_copy                     0x08008010   Section       14  handlers.o(i.__scatterload_copy)
    i.__scatterload_null                     0x0800801e   Section        2  handlers.o(i.__scatterload_null)
    i.__scatterload_zeroinit                 0x08008020   Section       14  handlers.o(i.__scatterload_zeroinit)
    i.__set_errno                            0x08008030   Section        0  errno.o(i.__set_errno)
    i._printf_core                           0x0800803c   Section        0  printfb.o(i._printf_core)
    _printf_core                             0x0800803d   Thumb Code    34  printfb.o(i._printf_core)
    i.eMBFuncReportSlaveID                   0x08008060   Section        0  mbfuncother.o(i.eMBFuncReportSlaveID)
    i.eMBMasterEnable                        0x08008084   Section        0  mb_m.o(i.eMBMasterEnable)
    i.eMBMasterExecuteRequest                0x080080a4   Section        0  mbcustomfunctioncode.o(i.eMBMasterExecuteRequest)
    i.eMBMasterFuncAcqSync                   0x080080e0   Section        0  mbcustomfunctioncode.o(i.eMBMasterFuncAcqSync)
    i.eMBMasterFuncReadCoils                 0x08008110   Section        0  mbfunccoils_m.o(i.eMBMasterFuncReadCoils)
    i.eMBMasterFuncReadDiscreteInputs        0x08008174   Section        0  mbfuncdisc_m.o(i.eMBMasterFuncReadDiscreteInputs)
    i.eMBMasterFuncReadHoldingRegister       0x080081d6   Section        0  mbfuncholding_m.o(i.eMBMasterFuncReadHoldingRegister)
    i.eMBMasterFuncReadInputRegister         0x0800822a   Section        0  mbfuncinput_m.o(i.eMBMasterFuncReadInputRegister)
    i.eMBMasterFuncReadSpectrum              0x0800827c   Section        0  mbcustomfunctioncode.o(i.eMBMasterFuncReadSpectrum)
    i.eMBMasterFuncReadWriteMultipleHoldingRegister 0x080082e0   Section        0  mbfuncholding_m.o(i.eMBMasterFuncReadWriteMultipleHoldingRegister)
    i.eMBMasterFuncWriteCoil                 0x08008360   Section        0  mbfunccoils_m.o(i.eMBMasterFuncWriteCoil)
    i.eMBMasterFuncWriteHoldingRegister      0x080083b8   Section        0  mbfuncholding_m.o(i.eMBMasterFuncWriteHoldingRegister)
    i.eMBMasterFuncWriteMultipleCoils        0x080083ea   Section        0  mbfunccoils_m.o(i.eMBMasterFuncWriteMultipleCoils)
    i.eMBMasterFuncWriteMultipleHoldingRegister 0x0800844c   Section        0  mbfuncholding_m.o(i.eMBMasterFuncWriteMultipleHoldingRegister)
    i.eMBMasterInit                          0x08008498   Section        0  mb_m.o(i.eMBMasterInit)
    i.eMBMasterPoll                          0x0800850c   Section        0  mb_m.o(i.eMBMasterPoll)
    i.eMBMasterPostRequest                   0x08008674   Section        0  mbcustomfunctioncode.o(i.eMBMasterPostRequest)
    i.eMBMasterRTUInit                       0x08008680   Section        0  mbrtu_m.o(i.eMBMasterRTUInit)
    i.eMBMasterRTUReceive                    0x080086cc   Section        0  mbrtu_m.o(i.eMBMasterRTUReceive)
    i.eMBMasterRTUSend                       0x08008714   Section        0  mbrtu_m.o(i.eMBMasterRTUSend)
    i.eMBMasterRTUStart                      0x08008788   Section        0  mbrtu_m.o(i.eMBMasterRTUStart)
    i.eMBMasterRTUStop                       0x080087ac   Section        0  mbrtu_m.o(i.eMBMasterRTUStop)
    i.eMBMasterRegCoilsCB                    0x080087c8   Section        0  user_mb_app_m.o(i.eMBMasterRegCoilsCB)
    i.eMBMasterRegDiscreteCB                 0x08008844   Section        0  user_mb_app_m.o(i.eMBMasterRegDiscreteCB)
    i.eMBMasterRegHoldingCB                  0x080088c0   Section        0  user_mb_app_m.o(i.eMBMasterRegHoldingCB)
    i.eMBMasterRegInputCB                    0x08008928   Section        0  user_mb_app_m.o(i.eMBMasterRegInputCB)
    i.eMBMasterReqAcqSync                    0x08008990   Section        0  mbcustomfunctioncode.o(i.eMBMasterReqAcqSync)
    i.eMBMasterReqReadSpectrum               0x080089d8   Section        0  mbcustomfunctioncode.o(i.eMBMasterReqReadSpectrum)
    i.eMBMasterWaitRequestFinish             0x08008a30   Section        0  portevent_m.o(i.eMBMasterWaitRequestFinish)
    i.fputc                                  0x08008a34   Section        0  usart.o(i.fputc)
    i.main                                   0x08008a4c   Section        0  main.o(i.main)
    i.n_SystemDataStructInit                 0x08008e64   Section        0  main.o(i.n_SystemDataStructInit)
    i.prveMBError2Exception                  0x08008eb0   Section        0  mbutils.o(i.prveMBError2Exception)
    i.rs485_tx_set                           0x08008ec8   Section        0  portserial_m.o(i.rs485_tx_set)
    i.spi_protocol_init                      0x08008ed8   Section        0  spi_protocol.o(i.spi_protocol_init)
    i.spi_start_receive_data                 0x08008f34   Section        0  spi_protocol.o(i.spi_start_receive_data)
    i.sync_io_init                           0x08008f58   Section        0  acq_sync.o(i.sync_io_init)
    i.sync_start                             0x08008f9c   Section        0  acq_sync.o(i.sync_start)
    i.sync_timer_init                        0x08008fc8   Section        0  acq_sync.o(i.sync_timer_init)
    i.ucMBMasterGetDestAddress               0x08009018   Section        0  mb_m.o(i.ucMBMasterGetDestAddress)
    i.usMBCRC16                              0x08009024   Section        0  mbcrc.o(i.usMBCRC16)
    i.usMBMasterGetPDUSndLength              0x08009050   Section        0  mbrtu_m.o(i.usMBMasterGetPDUSndLength)
    i.vMBMasterCBRequestScuuess              0x0800905c   Section        0  portevent_m.o(i.vMBMasterCBRequestScuuess)
    i.vMBMasterErrorCBExecuteFunction        0x08009068   Section        0  portevent_m.o(i.vMBMasterErrorCBExecuteFunction)
    i.vMBMasterErrorCBReceiveData            0x08009098   Section        0  portevent_m.o(i.vMBMasterErrorCBReceiveData)
    i.vMBMasterErrorCBRespondTimeout         0x080090c4   Section        0  portevent_m.o(i.vMBMasterErrorCBRespondTimeout)
    i.vMBMasterGetPDUSndBuf                  0x080090fc   Section        0  mbrtu_m.o(i.vMBMasterGetPDUSndBuf)
    i.vMBMasterOsResInit                     0x08009108   Section        0  portevent_m.o(i.vMBMasterOsResInit)
    i.vMBMasterPortSerialEnable              0x0800910c   Section        0  portserial_m.o(i.vMBMasterPortSerialEnable)
    i.vMBMasterPortTimersConvertDelayEnable  0x0800916c   Section        0  porttimer_m.o(i.vMBMasterPortTimersConvertDelayEnable)
    i.vMBMasterPortTimersDisable             0x080091a4   Section        0  porttimer_m.o(i.vMBMasterPortTimersDisable)
    i.vMBMasterPortTimersRespondTimeoutEnable 0x080091b8   Section        0  porttimer_m.o(i.vMBMasterPortTimersRespondTimeoutEnable)
    i.vMBMasterPortTimersT35Enable           0x080091f0   Section        0  porttimer_m.o(i.vMBMasterPortTimersT35Enable)
    i.vMBMasterRunResRelease                 0x08009228   Section        0  portevent_m.o(i.vMBMasterRunResRelease)
    i.vMBMasterSetCurTimerMode               0x0800922c   Section        0  mbrtu_m.o(i.vMBMasterSetCurTimerMode)
    i.vMBMasterSetDestAddress                0x08009238   Section        0  mb_m.o(i.vMBMasterSetDestAddress)
    i.vMBMasterSetErrorType                  0x08009244   Section        0  mb_m.o(i.vMBMasterSetErrorType)
    i.vMBMasterSetPDUSndLength               0x08009250   Section        0  mbrtu_m.o(i.vMBMasterSetPDUSndLength)
    i.xMBMasterPortEventGet                  0x0800925c   Section        0  portevent_m.o(i.xMBMasterPortEventGet)
    i.xMBMasterPortEventInit                 0x0800927c   Section        0  portevent_m.o(i.xMBMasterPortEventInit)
    i.xMBMasterPortEventPost                 0x0800928c   Section        0  portevent_m.o(i.xMBMasterPortEventPost)
    i.xMBMasterPortSerialGetByte             0x0800929c   Section        0  portserial_m.o(i.xMBMasterPortSerialGetByte)
    i.xMBMasterPortSerialInit                0x080092b4   Section        0  portserial_m.o(i.xMBMasterPortSerialInit)
    i.xMBMasterPortSerialPutByte             0x080093e4   Section        0  portserial_m.o(i.xMBMasterPortSerialPutByte)
    i.xMBMasterPortTimersInit                0x080093f8   Section        0  porttimer_m.o(i.xMBMasterPortTimersInit)
    i.xMBMasterRTUReceiveFSM                 0x08009458   Section        0  mbrtu_m.o(i.xMBMasterRTUReceiveFSM)
    i.xMBMasterRTUTimerExpired               0x080094fc   Section        0  mbrtu_m.o(i.xMBMasterRTUTimerExpired)
    i.xMBMasterRTUTransmitFSM                0x08009560   Section        0  mbrtu_m.o(i.xMBMasterRTUTransmitFSM)
    i.xMBMasterRequestIsBroadcast            0x080095cc   Section        0  mbrtu_m.o(i.xMBMasterRequestIsBroadcast)
    i.xMBMasterRunResTake                    0x080095d8   Section        0  portevent_m.o(i.xMBMasterRunResTake)
    i.xMBUtilSetBits                         0x080095dc   Section        0  mbutils.o(i.xMBUtilSetBits)
    i.x_Ads1245Read                          0x08009606   Section        0  ads1245.o(i.x_Ads1245Read)
    i.x_Ads1245TemperatureConversion         0x0800982c   Section        0  public.o(i.x_Ads1245TemperatureConversion)
    i.x_CRC16                                0x08009900   Section        0  public.o(i.x_CRC16)
    i.x_DAC8552Write                         0x0800993c   Section        0  dac8552.o(i.x_DAC8552Write)
    i.x_LaserCurrentSet                      0x080099c0   Section        0  public.o(i.x_LaserCurrentSet)
    i.x_LaserFalseSignalCalculation          0x08009a98   Section        0  public.o(i.x_LaserFalseSignalCalculation)
    i.x_LaserModeSwitching                   0x08009b44   Section        0  public.o(i.x_LaserModeSwitching)
    i.x_MovingFilm                           0x08009d30   Section        0  public.o(i.x_MovingFilm)
    i.x_TecMode                              0x08009db0   Section        0  public.o(i.x_TecMode)
    i.x_TecPWMChangeDutyCycle                0x08009e50   Section        0  public.o(i.x_TecPWMChangeDutyCycle)
    i.x_UsartReply                           0x08009e9c   Section        0  public.o(i.x_UsartReply)
    .constdata                               0x08009ed4   Section        8  stm32h7xx_hal_dma.o(.constdata)
    flagBitshiftOffset                       0x08009ed4   Data           8  stm32h7xx_hal_dma.o(.constdata)
    .constdata                               0x08009edc   Section       24  stm32h7xx_hal_uart.o(.constdata)
    .constdata                               0x08009ef4   Section       16  system_stm32h7xx.o(.constdata)
    .constdata                               0x08009f04   Section      512  mbcrc.o(.constdata)
    aucCRCHi                                 0x08009f04   Data         256  mbcrc.o(.constdata)
    aucCRCLo                                 0x0800a004   Data         256  mbcrc.o(.constdata)
    .constdata                               0x0800a108   Section       88  exp.o(.constdata)
    halF                                     0x0800a108   Data          16  exp.o(.constdata)
    ln2HI                                    0x0800a118   Data          16  exp.o(.constdata)
    ln2LO                                    0x0800a128   Data          16  exp.o(.constdata)
    P                                        0x0800a138   Data          40  exp.o(.constdata)
    .constdata                               0x0800a160   Section       56  log.o(.constdata)
    Lg2                                      0x0800a160   Data          24  log.o(.constdata)
    Lg                                       0x0800a178   Data          32  log.o(.constdata)
    .constdata                               0x0800a198   Section        8  qnan.o(.constdata)
    .data                                    0x20000000   Section        1  public.o(.data)
    .data                                    0x20000001   Section       11  main.o(.data)
    .data                                    0x2000000c   Section        4  usart.o(.data)
    .data                                    0x20000010   Section        8  mbcustomfunctioncode.o(.data)
    alternative                              0x20000011   Data           1  mbcustomfunctioncode.o(.data)
    .data                                    0x20000018   Section        8  acq_sync.o(.data)
    counter                                  0x2000001c   Data           4  acq_sync.o(.data)
    .data                                    0x20000020   Section     2516  spi_protocol.o(.data)
    spi_recv_status                          0x20000020   Data           1  spi_protocol.o(.data)
    .data                                    0x200009f4   Section       12  stm32h7xx_hal.o(.data)
    .data                                    0x20000a00   Section        8  system_stm32h7xx.o(.data)
    .data                                    0x20000a08   Section      176  mb_m.o(.data)
    xMBRunInMasterMode                       0x20000a08   Data           1  mb_m.o(.data)
    eMBState                                 0x20000a09   Data           1  mb_m.o(.data)
    ucRcvAddress                             0x20000a0a   Data           1  mb_m.o(.data)
    ucFunctionCode                           0x20000a0b   Data           1  mb_m.o(.data)
    eException                               0x20000a0c   Data           1  mb_m.o(.data)
    ucMBMasterDestAddress                    0x20000a0d   Data           1  mb_m.o(.data)
    eMBMasterCurErrorType                    0x20000a0e   Data           1  mb_m.o(.data)
    usLength                                 0x20000a10   Data           2  mb_m.o(.data)
    ucMBFrame                                0x20000a14   Data           4  mb_m.o(.data)
    peMBMasterFrameSendCur                   0x20000a18   Data           4  mb_m.o(.data)
    pvMBMasterFrameStartCur                  0x20000a1c   Data           4  mb_m.o(.data)
    pvMBMasterFrameStopCur                   0x20000a20   Data           4  mb_m.o(.data)
    peMBMasterFrameReceiveCur                0x20000a24   Data           4  mb_m.o(.data)
    pvMBMasterFrameCloseCur                  0x20000a28   Data           4  mb_m.o(.data)
    xMasterFuncHandlers                      0x20000a38   Data         128  mb_m.o(.data)
    .data                                    0x20000ab8   Section        2  mbfuncother.o(.data)
    usMBSlaveIDLen                           0x20000ab8   Data           2  mbfuncother.o(.data)
    .data                                    0x20000abc   Section       16  mbrtu_m.o(.data)
    xFrameIsBroadcast                        0x20000abc   Data           1  mbrtu_m.o(.data)
    eSndState                                0x20000abd   Data           1  mbrtu_m.o(.data)
    eRcvState                                0x20000abe   Data           1  mbrtu_m.o(.data)
    eMasterCurTimerMode                      0x20000abf   Data           1  mbrtu_m.o(.data)
    usMasterSendPDULength                    0x20000ac0   Data           2  mbrtu_m.o(.data)
    usMasterSndBufferCount                   0x20000ac2   Data           2  mbrtu_m.o(.data)
    usMasterRcvBufferPos                     0x20000ac4   Data           2  mbrtu_m.o(.data)
    pucMasterSndBufferCur                    0x20000ac8   Data           4  mbrtu_m.o(.data)
    .data                                    0x20000acc   Section        1  mbrtu_m.o(.data)
    .data                                    0x20000ace   Section        6  portevent_m.o(.data)
    xEventInQueue                            0x20000ace   Data           1  portevent_m.o(.data)
    eQueuedEvent                             0x20000ad0   Data           2  portevent_m.o(.data)
    ucReqTimeoutCounter                      0x20000ad2   Data           2  portevent_m.o(.data)
    .data                                    0x20000ad4   Section        2  porttimer_m.o(.data)
    usT35TimeOut50us                         0x20000ad4   Data           2  porttimer_m.o(.data)
    .data                                    0x20000ad6   Section        8  user_mb_app_m.o(.data)
    .data                                    0x20000ae0   Section        4  stdout.o(.data)
    .data                                    0x20000ae4   Section        4  errno.o(.data)
    _errno                                   0x20000ae4   Data           4  errno.o(.data)
    .bss                                     0x20000ae8   Section       40  public.o(.bss)
    .bss                                     0x20000b10   Section     1356  main.o(.bss)
    .bss                                     0x2000105c   Section      140  dac.o(.bss)
    .bss                                     0x200010e8   Section      376  spi.o(.bss)
    hdma_tx                                  0x20001170   Data         120  spi.o(.bss)
    hdma_rx                                  0x200011e8   Data         120  spi.o(.bss)
    .bss                                     0x20001260   Section      380  tim.o(.bss)
    .bss                                     0x200013dc   Section      148  usart.o(.bss)
    .bss                                     0x20001470   Section       76  acq_sync.o(.bss)
    .bss                                     0x200014bc   Section      136  spi_protocol.o(.bss)
    .bss                                     0x20001544   Section       32  mbfuncother.o(.bss)
    ucMBSlaveID                              0x20001544   Data          32  mbfuncother.o(.bss)
    .bss                                     0x20001564   Section     5885  mbrtu_m.o(.bss)
    ucMasterRTUSndBuf                        0x20001564   Data         253  mbrtu_m.o(.bss)
    ucMasterRTURcvBuf                        0x20001661   Data        5632  mbrtu_m.o(.bss)
    .bss                                     0x20002c64   Section      148  portserial_m.o(.bss)
    .bss                                     0x20002cf8   Section       76  porttimer_m.o(.bss)
    TIM7_Handler                             0x20002cf8   Data          76  porttimer_m.o(.bss)
    .bss                                     0x20002d44   Section     6560  user_mb_app_m.o(.bss)
    STACK                                    0x200046e8   Section     2048  startup_stm32h753xx.o(STACK)
    .ARM.__AT_0x30000000                     0x30000000   Section       16  spi_protocol.o(.ARM.__AT_0x30000000)
    .ARM.__AT_0x30000100                     0x30000100   Section       16  spi_protocol.o(.ARM.__AT_0x30000100)
    .ARM.__AT_0x30001000                     0x30001000   Section    21504  spi_protocol.o(.ARM.__AT_0x30001000)
    .ARM.__AT_0x30006800                     0x30006800   Section    21504  spi_protocol.o(.ARM.__AT_0x30006800)
    .ARM.__AT_0x3000C000                     0x3000c000   Section    21504  spi_protocol.o(.ARM.__AT_0x3000C000)

    Global Symbols

    Symbol Name                              Value     Ov Type        Size  Object(Section)

    BuildAttributes$$THM_ISAv4$E$P$D$K$B$S$7EM$VFPv5_D16$PE$PLD8$A:L22UL41UL21$X:L11$S22US41US21$IEEE1$IW$USESV6$~STKCKD$USESV7$~SHL$OTIME$ROPI$IEEEX$EBA8$MICROLIB$REQ8$PRES8$EABIv2 0x00000000   Number         0  anon$$obj.o ABSOLUTE
    __ARM_use_no_argv                        0x00000000   Number         0  main.o ABSOLUTE
    __arm_fini_                               - Undefined Weak Reference
    __cpp_initialize__aeabi_                  - Undefined Weak Reference
    __cxa_finalize                            - Undefined Weak Reference
    _clock_init                               - Undefined Weak Reference
    _microlib_exit                            - Undefined Weak Reference
    __Vectors_Size                           0x00000298   Number         0  startup_stm32h753xx.o ABSOLUTE
    __Vectors                                0x08000000   Data           4  startup_stm32h753xx.o(RESET)
    __Vectors_End                            0x08000298   Data           0  startup_stm32h753xx.o(RESET)
    __main                                   0x08000299   Thumb Code     0  entry.o(.ARM.Collect$$$$00000000)
    _main_stk                                0x08000299   Thumb Code     0  entry2.o(.ARM.Collect$$$$00000001)
    _main_scatterload                        0x0800029d   Thumb Code     0  entry5.o(.ARM.Collect$$$$00000004)
    __main_after_scatterload                 0x080002a1   Thumb Code     0  entry5.o(.ARM.Collect$$$$00000004)
    _main_clock                              0x080002a1   Thumb Code     0  entry7b.o(.ARM.Collect$$$$00000008)
    _main_cpp_init                           0x080002a1   Thumb Code     0  entry8b.o(.ARM.Collect$$$$0000000A)
    _main_init                               0x080002a1   Thumb Code     0  entry9a.o(.ARM.Collect$$$$0000000B)
    __rt_lib_shutdown_fini                   0x080002a9   Thumb Code     0  entry12b.o(.ARM.Collect$$$$0000000E)
    __rt_final_cpp                           0x080002ad   Thumb Code     0  entry10a.o(.ARM.Collect$$$$0000000F)
    __rt_final_exit                          0x080002ad   Thumb Code     0  entry11a.o(.ARM.Collect$$$$00000011)
    Reset_Handler                            0x080002b1   Thumb Code     8  startup_stm32h753xx.o(.text)
    ADC3_IRQHandler                          0x080002cb   Thumb Code     0  startup_stm32h753xx.o(.text)
    ADC_IRQHandler                           0x080002cb   Thumb Code     0  startup_stm32h753xx.o(.text)
    BDMA_Channel0_IRQHandler                 0x080002cb   Thumb Code     0  startup_stm32h753xx.o(.text)
    BDMA_Channel1_IRQHandler                 0x080002cb   Thumb Code     0  startup_stm32h753xx.o(.text)
    BDMA_Channel2_IRQHandler                 0x080002cb   Thumb Code     0  startup_stm32h753xx.o(.text)
    BDMA_Channel3_IRQHandler                 0x080002cb   Thumb Code     0  startup_stm32h753xx.o(.text)
    BDMA_Channel4_IRQHandler                 0x080002cb   Thumb Code     0  startup_stm32h753xx.o(.text)
    BDMA_Channel5_IRQHandler                 0x080002cb   Thumb Code     0  startup_stm32h753xx.o(.text)
    BDMA_Channel6_IRQHandler                 0x080002cb   Thumb Code     0  startup_stm32h753xx.o(.text)
    BDMA_Channel7_IRQHandler                 0x080002cb   Thumb Code     0  startup_stm32h753xx.o(.text)
    CEC_IRQHandler                           0x080002cb   Thumb Code     0  startup_stm32h753xx.o(.text)
    COMP1_IRQHandler                         0x080002cb   Thumb Code     0  startup_stm32h753xx.o(.text)
    CRS_IRQHandler                           0x080002cb   Thumb Code     0  startup_stm32h753xx.o(.text)
    CRYP_IRQHandler                          0x080002cb   Thumb Code     0  startup_stm32h753xx.o(.text)
    DCMI_IRQHandler                          0x080002cb   Thumb Code     0  startup_stm32h753xx.o(.text)
    DFSDM1_FLT0_IRQHandler                   0x080002cb   Thumb Code     0  startup_stm32h753xx.o(.text)
    DFSDM1_FLT1_IRQHandler                   0x080002cb   Thumb Code     0  startup_stm32h753xx.o(.text)
    DFSDM1_FLT2_IRQHandler                   0x080002cb   Thumb Code     0  startup_stm32h753xx.o(.text)
    DFSDM1_FLT3_IRQHandler                   0x080002cb   Thumb Code     0  startup_stm32h753xx.o(.text)
    DMA1_Stream0_IRQHandler                  0x080002cb   Thumb Code     0  startup_stm32h753xx.o(.text)
    DMA1_Stream1_IRQHandler                  0x080002cb   Thumb Code     0  startup_stm32h753xx.o(.text)
    DMA1_Stream2_IRQHandler                  0x080002cb   Thumb Code     0  startup_stm32h753xx.o(.text)
    DMA1_Stream3_IRQHandler                  0x080002cb   Thumb Code     0  startup_stm32h753xx.o(.text)
    DMA1_Stream4_IRQHandler                  0x080002cb   Thumb Code     0  startup_stm32h753xx.o(.text)
    DMA1_Stream5_IRQHandler                  0x080002cb   Thumb Code     0  startup_stm32h753xx.o(.text)
    DMA1_Stream6_IRQHandler                  0x080002cb   Thumb Code     0  startup_stm32h753xx.o(.text)
    DMA1_Stream7_IRQHandler                  0x080002cb   Thumb Code     0  startup_stm32h753xx.o(.text)
    DMA2D_IRQHandler                         0x080002cb   Thumb Code     0  startup_stm32h753xx.o(.text)
    DMA2_Stream2_IRQHandler                  0x080002cb   Thumb Code     0  startup_stm32h753xx.o(.text)
    DMA2_Stream3_IRQHandler                  0x080002cb   Thumb Code     0  startup_stm32h753xx.o(.text)
    DMA2_Stream4_IRQHandler                  0x080002cb   Thumb Code     0  startup_stm32h753xx.o(.text)
    DMA2_Stream5_IRQHandler                  0x080002cb   Thumb Code     0  startup_stm32h753xx.o(.text)
    DMA2_Stream7_IRQHandler                  0x080002cb   Thumb Code     0  startup_stm32h753xx.o(.text)
    DMAMUX1_OVR_IRQHandler                   0x080002cb   Thumb Code     0  startup_stm32h753xx.o(.text)
    DMAMUX2_OVR_IRQHandler                   0x080002cb   Thumb Code     0  startup_stm32h753xx.o(.text)
    ECC_IRQHandler                           0x080002cb   Thumb Code     0  startup_stm32h753xx.o(.text)
    ETH_IRQHandler                           0x080002cb   Thumb Code     0  startup_stm32h753xx.o(.text)
    ETH_WKUP_IRQHandler                      0x080002cb   Thumb Code     0  startup_stm32h753xx.o(.text)
    EXTI0_IRQHandler                         0x080002cb   Thumb Code     0  startup_stm32h753xx.o(.text)
    EXTI1_IRQHandler                         0x080002cb   Thumb Code     0  startup_stm32h753xx.o(.text)
    EXTI2_IRQHandler                         0x080002cb   Thumb Code     0  startup_stm32h753xx.o(.text)
    EXTI3_IRQHandler                         0x080002cb   Thumb Code     0  startup_stm32h753xx.o(.text)
    EXTI4_IRQHandler                         0x080002cb   Thumb Code     0  startup_stm32h753xx.o(.text)
    FDCAN1_IT0_IRQHandler                    0x080002cb   Thumb Code     0  startup_stm32h753xx.o(.text)
    FDCAN1_IT1_IRQHandler                    0x080002cb   Thumb Code     0  startup_stm32h753xx.o(.text)
    FDCAN2_IT0_IRQHandler                    0x080002cb   Thumb Code     0  startup_stm32h753xx.o(.text)
    FDCAN2_IT1_IRQHandler                    0x080002cb   Thumb Code     0  startup_stm32h753xx.o(.text)
    FDCAN_CAL_IRQHandler                     0x080002cb   Thumb Code     0  startup_stm32h753xx.o(.text)
    FLASH_IRQHandler                         0x080002cb   Thumb Code     0  startup_stm32h753xx.o(.text)
    FMC_IRQHandler                           0x080002cb   Thumb Code     0  startup_stm32h753xx.o(.text)
    FPU_IRQHandler                           0x080002cb   Thumb Code     0  startup_stm32h753xx.o(.text)
    HASH_RNG_IRQHandler                      0x080002cb   Thumb Code     0  startup_stm32h753xx.o(.text)
    HRTIM1_FLT_IRQHandler                    0x080002cb   Thumb Code     0  startup_stm32h753xx.o(.text)
    HRTIM1_Master_IRQHandler                 0x080002cb   Thumb Code     0  startup_stm32h753xx.o(.text)
    HRTIM1_TIMA_IRQHandler                   0x080002cb   Thumb Code     0  startup_stm32h753xx.o(.text)
    HRTIM1_TIMB_IRQHandler                   0x080002cb   Thumb Code     0  startup_stm32h753xx.o(.text)
    HRTIM1_TIMC_IRQHandler                   0x080002cb   Thumb Code     0  startup_stm32h753xx.o(.text)
    HRTIM1_TIMD_IRQHandler                   0x080002cb   Thumb Code     0  startup_stm32h753xx.o(.text)
    HRTIM1_TIME_IRQHandler                   0x080002cb   Thumb Code     0  startup_stm32h753xx.o(.text)
    HSEM1_IRQHandler                         0x080002cb   Thumb Code     0  startup_stm32h753xx.o(.text)
    I2C1_ER_IRQHandler                       0x080002cb   Thumb Code     0  startup_stm32h753xx.o(.text)
    I2C1_EV_IRQHandler                       0x080002cb   Thumb Code     0  startup_stm32h753xx.o(.text)
    I2C2_ER_IRQHandler                       0x080002cb   Thumb Code     0  startup_stm32h753xx.o(.text)
    I2C2_EV_IRQHandler                       0x080002cb   Thumb Code     0  startup_stm32h753xx.o(.text)
    I2C3_ER_IRQHandler                       0x080002cb   Thumb Code     0  startup_stm32h753xx.o(.text)
    I2C3_EV_IRQHandler                       0x080002cb   Thumb Code     0  startup_stm32h753xx.o(.text)
    I2C4_ER_IRQHandler                       0x080002cb   Thumb Code     0  startup_stm32h753xx.o(.text)
    I2C4_EV_IRQHandler                       0x080002cb   Thumb Code     0  startup_stm32h753xx.o(.text)
    JPEG_IRQHandler                          0x080002cb   Thumb Code     0  startup_stm32h753xx.o(.text)
    LPTIM1_IRQHandler                        0x080002cb   Thumb Code     0  startup_stm32h753xx.o(.text)
    LPTIM2_IRQHandler                        0x080002cb   Thumb Code     0  startup_stm32h753xx.o(.text)
    LPTIM3_IRQHandler                        0x080002cb   Thumb Code     0  startup_stm32h753xx.o(.text)
    LPTIM4_IRQHandler                        0x080002cb   Thumb Code     0  startup_stm32h753xx.o(.text)
    LPTIM5_IRQHandler                        0x080002cb   Thumb Code     0  startup_stm32h753xx.o(.text)
    LPUART1_IRQHandler                       0x080002cb   Thumb Code     0  startup_stm32h753xx.o(.text)
    LTDC_ER_IRQHandler                       0x080002cb   Thumb Code     0  startup_stm32h753xx.o(.text)
    LTDC_IRQHandler                          0x080002cb   Thumb Code     0  startup_stm32h753xx.o(.text)
    MDIOS_IRQHandler                         0x080002cb   Thumb Code     0  startup_stm32h753xx.o(.text)
    MDIOS_WKUP_IRQHandler                    0x080002cb   Thumb Code     0  startup_stm32h753xx.o(.text)
    MDMA_IRQHandler                          0x080002cb   Thumb Code     0  startup_stm32h753xx.o(.text)
    OTG_FS_EP1_IN_IRQHandler                 0x080002cb   Thumb Code     0  startup_stm32h753xx.o(.text)
    OTG_FS_EP1_OUT_IRQHandler                0x080002cb   Thumb Code     0  startup_stm32h753xx.o(.text)
    OTG_FS_IRQHandler                        0x080002cb   Thumb Code     0  startup_stm32h753xx.o(.text)
    OTG_FS_WKUP_IRQHandler                   0x080002cb   Thumb Code     0  startup_stm32h753xx.o(.text)
    OTG_HS_EP1_IN_IRQHandler                 0x080002cb   Thumb Code     0  startup_stm32h753xx.o(.text)
    OTG_HS_EP1_OUT_IRQHandler                0x080002cb   Thumb Code     0  startup_stm32h753xx.o(.text)
    OTG_HS_IRQHandler                        0x080002cb   Thumb Code     0  startup_stm32h753xx.o(.text)
    OTG_HS_WKUP_IRQHandler                   0x080002cb   Thumb Code     0  startup_stm32h753xx.o(.text)
    PVD_AVD_IRQHandler                       0x080002cb   Thumb Code     0  startup_stm32h753xx.o(.text)
    QUADSPI_IRQHandler                       0x080002cb   Thumb Code     0  startup_stm32h753xx.o(.text)
    RCC_IRQHandler                           0x080002cb   Thumb Code     0  startup_stm32h753xx.o(.text)
    RTC_Alarm_IRQHandler                     0x080002cb   Thumb Code     0  startup_stm32h753xx.o(.text)
    RTC_WKUP_IRQHandler                      0x080002cb   Thumb Code     0  startup_stm32h753xx.o(.text)
    SAI1_IRQHandler                          0x080002cb   Thumb Code     0  startup_stm32h753xx.o(.text)
    SAI2_IRQHandler                          0x080002cb   Thumb Code     0  startup_stm32h753xx.o(.text)
    SAI3_IRQHandler                          0x080002cb   Thumb Code     0  startup_stm32h753xx.o(.text)
    SAI4_IRQHandler                          0x080002cb   Thumb Code     0  startup_stm32h753xx.o(.text)
    SDMMC1_IRQHandler                        0x080002cb   Thumb Code     0  startup_stm32h753xx.o(.text)
    SDMMC2_IRQHandler                        0x080002cb   Thumb Code     0  startup_stm32h753xx.o(.text)
    SPDIF_RX_IRQHandler                      0x080002cb   Thumb Code     0  startup_stm32h753xx.o(.text)
    SPI1_IRQHandler                          0x080002cb   Thumb Code     0  startup_stm32h753xx.o(.text)
    SPI2_IRQHandler                          0x080002cb   Thumb Code     0  startup_stm32h753xx.o(.text)
    SPI3_IRQHandler                          0x080002cb   Thumb Code     0  startup_stm32h753xx.o(.text)
    SPI5_IRQHandler                          0x080002cb   Thumb Code     0  startup_stm32h753xx.o(.text)
    SPI6_IRQHandler                          0x080002cb   Thumb Code     0  startup_stm32h753xx.o(.text)
    SWPMI1_IRQHandler                        0x080002cb   Thumb Code     0  startup_stm32h753xx.o(.text)
    TAMP_STAMP_IRQHandler                    0x080002cb   Thumb Code     0  startup_stm32h753xx.o(.text)
    TIM15_IRQHandler                         0x080002cb   Thumb Code     0  startup_stm32h753xx.o(.text)
    TIM16_IRQHandler                         0x080002cb   Thumb Code     0  startup_stm32h753xx.o(.text)
    TIM17_IRQHandler                         0x080002cb   Thumb Code     0  startup_stm32h753xx.o(.text)
    TIM1_BRK_IRQHandler                      0x080002cb   Thumb Code     0  startup_stm32h753xx.o(.text)
    TIM1_CC_IRQHandler                       0x080002cb   Thumb Code     0  startup_stm32h753xx.o(.text)
    TIM1_TRG_COM_IRQHandler                  0x080002cb   Thumb Code     0  startup_stm32h753xx.o(.text)
    TIM1_UP_IRQHandler                       0x080002cb   Thumb Code     0  startup_stm32h753xx.o(.text)
    TIM2_IRQHandler                          0x080002cb   Thumb Code     0  startup_stm32h753xx.o(.text)
    TIM3_IRQHandler                          0x080002cb   Thumb Code     0  startup_stm32h753xx.o(.text)
    TIM5_IRQHandler                          0x080002cb   Thumb Code     0  startup_stm32h753xx.o(.text)
    TIM6_DAC_IRQHandler                      0x080002cb   Thumb Code     0  startup_stm32h753xx.o(.text)
    TIM8_BRK_TIM12_IRQHandler                0x080002cb   Thumb Code     0  startup_stm32h753xx.o(.text)
    TIM8_CC_IRQHandler                       0x080002cb   Thumb Code     0  startup_stm32h753xx.o(.text)
    TIM8_TRG_COM_TIM14_IRQHandler            0x080002cb   Thumb Code     0  startup_stm32h753xx.o(.text)
    TIM8_UP_TIM13_IRQHandler                 0x080002cb   Thumb Code     0  startup_stm32h753xx.o(.text)
    UART4_IRQHandler                         0x080002cb   Thumb Code     0  startup_stm32h753xx.o(.text)
    UART5_IRQHandler                         0x080002cb   Thumb Code     0  startup_stm32h753xx.o(.text)
    UART8_IRQHandler                         0x080002cb   Thumb Code     0  startup_stm32h753xx.o(.text)
    USART2_IRQHandler                        0x080002cb   Thumb Code     0  startup_stm32h753xx.o(.text)
    USART3_IRQHandler                        0x080002cb   Thumb Code     0  startup_stm32h753xx.o(.text)
    USART6_IRQHandler                        0x080002cb   Thumb Code     0  startup_stm32h753xx.o(.text)
    WAKEUP_PIN_IRQHandler                    0x080002cb   Thumb Code     0  startup_stm32h753xx.o(.text)
    WWDG_IRQHandler                          0x080002cb   Thumb Code     0  startup_stm32h753xx.o(.text)
    __aeabi_uldivmod                         0x080002d5   Thumb Code    98  uldiv.o(.text)
    __aeabi_memcpy                           0x08000337   Thumb Code    36  memcpya.o(.text)
    __aeabi_memcpy4                          0x08000337   Thumb Code     0  memcpya.o(.text)
    __aeabi_memcpy8                          0x08000337   Thumb Code     0  memcpya.o(.text)
    __aeabi_memset                           0x0800035b   Thumb Code    14  memseta.o(.text)
    __aeabi_memset4                          0x0800035b   Thumb Code     0  memseta.o(.text)
    __aeabi_memset8                          0x0800035b   Thumb Code     0  memseta.o(.text)
    __aeabi_memclr                           0x08000369   Thumb Code     4  memseta.o(.text)
    __aeabi_memclr4                          0x08000369   Thumb Code     0  memseta.o(.text)
    __aeabi_memclr8                          0x08000369   Thumb Code     0  memseta.o(.text)
    _memset$wrapper                          0x0800036d   Thumb Code    18  memseta.o(.text)
    __aeabi_llsl                             0x0800037f   Thumb Code    30  llshl.o(.text)
    _ll_shift_l                              0x0800037f   Thumb Code     0  llshl.o(.text)
    __aeabi_llsr                             0x0800039d   Thumb Code    32  llushr.o(.text)
    _ll_ushift_r                             0x0800039d   Thumb Code     0  llushr.o(.text)
    __I$use$fp                               0x080003bd   Thumb Code     0  iusefp.o(.text)
    __scatterload                            0x080003bd   Thumb Code    28  init.o(.text)
    __scatterload_rt2                        0x080003bd   Thumb Code     0  init.o(.text)
    __decompress                             0x080003e1   Thumb Code     0  __dclz77c.o(.text)
    __decompress2                            0x080003e1   Thumb Code    94  __dclz77c.o(.text)
    BusFault_Handler                         0x0800043f   Thumb Code     2  stm32h7xx_it.o(i.BusFault_Handler)
    DAC_DMAConvCpltCh1                       0x08000441   Thumb Code    16  stm32h7xx_hal_dac.o(i.DAC_DMAConvCpltCh1)
    DAC_DMAConvCpltCh2                       0x08000451   Thumb Code    16  stm32h7xx_hal_dac_ex.o(i.DAC_DMAConvCpltCh2)
    DAC_DMAErrorCh1                          0x08000461   Thumb Code    24  stm32h7xx_hal_dac.o(i.DAC_DMAErrorCh1)
    DAC_DMAErrorCh2                          0x08000479   Thumb Code    24  stm32h7xx_hal_dac_ex.o(i.DAC_DMAErrorCh2)
    DAC_DMAHalfConvCpltCh1                   0x08000491   Thumb Code    10  stm32h7xx_hal_dac.o(i.DAC_DMAHalfConvCpltCh1)
    DAC_DMAHalfConvCpltCh2                   0x0800049b   Thumb Code    10  stm32h7xx_hal_dac_ex.o(i.DAC_DMAHalfConvCpltCh2)
    DMA2_Stream0_IRQHandler                  0x080004a5   Thumb Code     8  stm32h7xx_it.o(i.DMA2_Stream0_IRQHandler)
    DMA2_Stream1_IRQHandler                  0x080004b1   Thumb Code     8  stm32h7xx_it.o(i.DMA2_Stream1_IRQHandler)
    DMA2_Stream6_IRQHandler                  0x080004bd   Thumb Code     6  stm32h7xx_it.o(i.DMA2_Stream6_IRQHandler)
    DebugMon_Handler                         0x08000901   Thumb Code     2  stm32h7xx_it.o(i.DebugMon_Handler)
    ENTER_CRITICAL_SECTION                   0x08000903   Thumb Code     8  port.o(i.ENTER_CRITICAL_SECTION)
    EXIT_CRITICAL_SECTION                    0x0800090b   Thumb Code     8  port.o(i.EXIT_CRITICAL_SECTION)
    EXTI15_10_IRQHandler                     0x08000913   Thumb Code     8  stm32h7xx_it.o(i.EXTI15_10_IRQHandler)
    EXTI9_5_IRQHandler                       0x0800091b   Thumb Code     8  stm32h7xx_it.o(i.EXTI9_5_IRQHandler)
    Error_Handler                            0x08000923   Thumb Code     4  main.o(i.Error_Handler)
    HAL_DACEx_ConvCpltCallbackCh2            0x08000927   Thumb Code     2  stm32h7xx_hal_dac_ex.o(i.HAL_DACEx_ConvCpltCallbackCh2)
    HAL_DACEx_ConvHalfCpltCallbackCh2        0x08000929   Thumb Code     2  stm32h7xx_hal_dac_ex.o(i.HAL_DACEx_ConvHalfCpltCallbackCh2)
    HAL_DACEx_ErrorCallbackCh2               0x0800092b   Thumb Code     2  stm32h7xx_hal_dac_ex.o(i.HAL_DACEx_ErrorCallbackCh2)
    HAL_DAC_ConfigChannel                    0x0800092d   Thumb Code   328  stm32h7xx_hal_dac.o(i.HAL_DAC_ConfigChannel)
    HAL_DAC_ConvCpltCallbackCh1              0x08000a79   Thumb Code     2  stm32h7xx_hal_dac.o(i.HAL_DAC_ConvCpltCallbackCh1)
    HAL_DAC_ConvHalfCpltCallbackCh1          0x08000a7b   Thumb Code     2  stm32h7xx_hal_dac.o(i.HAL_DAC_ConvHalfCpltCallbackCh1)
    HAL_DAC_ErrorCallbackCh1                 0x08000a7d   Thumb Code     2  stm32h7xx_hal_dac.o(i.HAL_DAC_ErrorCallbackCh1)
    HAL_DAC_Init                             0x08000a7f   Thumb Code    40  stm32h7xx_hal_dac.o(i.HAL_DAC_Init)
    HAL_DAC_MspInit                          0x08000aa9   Thumb Code   150  dac.o(i.HAL_DAC_MspInit)
    HAL_DAC_Start                            0x08000b55   Thumb Code    96  stm32h7xx_hal_dac.o(i.HAL_DAC_Start)
    HAL_DAC_Start_DMA                        0x08000bb5   Thumb Code   200  stm32h7xx_hal_dac.o(i.HAL_DAC_Start_DMA)
    HAL_DAC_Stop_DMA                         0x08000c95   Thumb Code    90  stm32h7xx_hal_dac.o(i.HAL_DAC_Stop_DMA)
    HAL_DMA_Abort                            0x08000cf1   Thumb Code   836  stm32h7xx_hal_dma.o(i.HAL_DMA_Abort)
    HAL_DMA_Abort_IT                         0x08001051   Thumb Code   602  stm32h7xx_hal_dma.o(i.HAL_DMA_Abort_IT)
    HAL_DMA_GetError                         0x080012d5   Thumb Code     4  stm32h7xx_hal_dma.o(i.HAL_DMA_GetError)
    HAL_DMA_IRQHandler                       0x080012d9   Thumb Code  1756  stm32h7xx_hal_dma.o(i.HAL_DMA_IRQHandler)
    HAL_DMA_Init                             0x080019c1   Thumb Code   926  stm32h7xx_hal_dma.o(i.HAL_DMA_Init)
    HAL_DMA_Start_IT                         0x08001d85   Thumb Code   628  stm32h7xx_hal_dma.o(i.HAL_DMA_Start_IT)
    HAL_Delay                                0x08002021   Thumb Code    32  stm32h7xx_hal.o(i.HAL_Delay)
    HAL_GPIO_EXTI_Callback                   0x08002045   Thumb Code   192  public.o(i.HAL_GPIO_EXTI_Callback)
    HAL_GPIO_EXTI_IRQHandler                 0x08002119   Thumb Code    24  stm32h7xx_hal_gpio.o(i.HAL_GPIO_EXTI_IRQHandler)
    HAL_GPIO_Init                            0x08002131   Thumb Code   506  stm32h7xx_hal_gpio.o(i.HAL_GPIO_Init)
    HAL_GPIO_ReadPin                         0x0800235d   Thumb Code    10  stm32h7xx_hal_gpio.o(i.HAL_GPIO_ReadPin)
    HAL_GPIO_WritePin                        0x08002367   Thumb Code    10  stm32h7xx_hal_gpio.o(i.HAL_GPIO_WritePin)
    HAL_GetREVID                             0x08002371   Thumb Code     8  stm32h7xx_hal.o(i.HAL_GetREVID)
    HAL_GetTick                              0x0800237d   Thumb Code     6  stm32h7xx_hal.o(i.HAL_GetTick)
    HAL_IncTick                              0x08002389   Thumb Code    12  stm32h7xx_hal.o(i.HAL_IncTick)
    HAL_Init                                 0x08002399   Thumb Code    74  stm32h7xx_hal.o(i.HAL_Init)
    HAL_InitTick                             0x080023f5   Thumb Code    56  stm32h7xx_hal.o(i.HAL_InitTick)
    HAL_MPU_ConfigRegion                     0x08002435   Thumb Code    86  stm32h7xx_hal_cortex.o(i.HAL_MPU_ConfigRegion)
    HAL_MPU_Disable                          0x08002491   Thumb Code    24  stm32h7xx_hal_cortex.o(i.HAL_MPU_Disable)
    HAL_MPU_Enable                           0x080024ad   Thumb Code    30  stm32h7xx_hal_cortex.o(i.HAL_MPU_Enable)
    HAL_MspInit                              0x080024d1   Thumb Code    22  stm32h7xx_hal_msp.o(i.HAL_MspInit)
    HAL_NVIC_DisableIRQ                      0x080024ed   Thumb Code    34  stm32h7xx_hal_cortex.o(i.HAL_NVIC_DisableIRQ)
    HAL_NVIC_EnableIRQ                       0x0800250f   Thumb Code    26  stm32h7xx_hal_cortex.o(i.HAL_NVIC_EnableIRQ)
    HAL_NVIC_SetPriority                     0x08002529   Thumb Code    60  stm32h7xx_hal_cortex.o(i.HAL_NVIC_SetPriority)
    HAL_NVIC_SetPriorityGrouping             0x08002569   Thumb Code    28  stm32h7xx_hal_cortex.o(i.HAL_NVIC_SetPriorityGrouping)
    HAL_PWREx_ConfigSupply                   0x0800258d   Thumb Code    78  stm32h7xx_hal_pwr_ex.o(i.HAL_PWREx_ConfigSupply)
    HAL_RCCEx_GetD3PCLK1Freq                 0x080025e1   Thumb Code    26  stm32h7xx_hal_rcc_ex.o(i.HAL_RCCEx_GetD3PCLK1Freq)
    HAL_RCCEx_GetPLL2ClockFreq               0x08002605   Thumb Code   296  stm32h7xx_hal_rcc_ex.o(i.HAL_RCCEx_GetPLL2ClockFreq)
    HAL_RCCEx_GetPLL3ClockFreq               0x08002749   Thumb Code   296  stm32h7xx_hal_rcc_ex.o(i.HAL_RCCEx_GetPLL3ClockFreq)
    HAL_RCCEx_PeriphCLKConfig                0x0800288d   Thumb Code  2472  stm32h7xx_hal_rcc_ex.o(i.HAL_RCCEx_PeriphCLKConfig)
    HAL_RCC_ClockConfig                      0x08003239   Thumb Code   580  stm32h7xx_hal_rcc.o(i.HAL_RCC_ClockConfig)
    HAL_RCC_GetHCLKFreq                      0x08003495   Thumb Code    52  stm32h7xx_hal_rcc.o(i.HAL_RCC_GetHCLKFreq)
    HAL_RCC_GetPCLK1Freq                     0x080034d9   Thumb Code    26  stm32h7xx_hal_rcc.o(i.HAL_RCC_GetPCLK1Freq)
    HAL_RCC_GetPCLK2Freq                     0x080034fd   Thumb Code    26  stm32h7xx_hal_rcc.o(i.HAL_RCC_GetPCLK2Freq)
    HAL_RCC_GetSysClockFreq                  0x08003521   Thumb Code   278  stm32h7xx_hal_rcc.o(i.HAL_RCC_GetSysClockFreq)
    HAL_RCC_OscConfig                        0x08003659   Thumb Code  1410  stm32h7xx_hal_rcc.o(i.HAL_RCC_OscConfig)
    HAL_SPI_ErrorCallback                    0x08003bdd   Thumb Code    22  spi_protocol.o(i.HAL_SPI_ErrorCallback)
    HAL_SPI_IRQHandler                       0x08003c05   Thumb Code   544  stm32h7xx_hal_spi.o(i.HAL_SPI_IRQHandler)
    HAL_SPI_Init                             0x08003e29   Thumb Code   366  stm32h7xx_hal_spi.o(i.HAL_SPI_Init)
    HAL_SPI_MspInit                          0x08003fa5   Thumb Code   482  spi.o(i.HAL_SPI_MspInit)
    HAL_SPI_Receive_DMA                      0x080041a9   Thumb Code   374  stm32h7xx_hal_spi.o(i.HAL_SPI_Receive_DMA)
    HAL_SPI_RxCpltCallback                   0x0800432d   Thumb Code    16  spi_protocol.o(i.HAL_SPI_RxCpltCallback)
    HAL_SPI_RxHalfCpltCallback               0x08004349   Thumb Code     2  stm32h7xx_hal_spi.o(i.HAL_SPI_RxHalfCpltCallback)
    HAL_SPI_SuspendCallback                  0x0800434b   Thumb Code     2  stm32h7xx_hal_spi.o(i.HAL_SPI_SuspendCallback)
    HAL_SPI_Transmit                         0x0800434d   Thumb Code   578  stm32h7xx_hal_spi.o(i.HAL_SPI_Transmit)
    HAL_SPI_TransmitReceive_DMA              0x08004591   Thumb Code   476  stm32h7xx_hal_spi.o(i.HAL_SPI_TransmitReceive_DMA)
    HAL_SPI_Transmit_DMA                     0x08004779   Thumb Code   362  stm32h7xx_hal_spi.o(i.HAL_SPI_Transmit_DMA)
    HAL_SPI_TxCpltCallback                   0x080048f1   Thumb Code    30  spi_protocol.o(i.HAL_SPI_TxCpltCallback)
    HAL_SPI_TxHalfCpltCallback               0x0800491d   Thumb Code     2  stm32h7xx_hal_spi.o(i.HAL_SPI_TxHalfCpltCallback)
    HAL_SPI_TxRxCpltCallback                 0x08004921   Thumb Code   114  spi_protocol.o(i.HAL_SPI_TxRxCpltCallback)
    HAL_SPI_TxRxHalfCpltCallback             0x080049b1   Thumb Code     2  stm32h7xx_hal_spi.o(i.HAL_SPI_TxRxHalfCpltCallback)
    HAL_SYSTICK_Config                       0x080049b3   Thumb Code    38  stm32h7xx_hal_cortex.o(i.HAL_SYSTICK_Config)
    HAL_TIMEx_ConfigBreakDeadTime            0x080049d9   Thumb Code   150  stm32h7xx_hal_tim_ex.o(i.HAL_TIMEx_ConfigBreakDeadTime)
    HAL_TIMEx_MasterConfigSynchronization    0x08004a79   Thumb Code   134  stm32h7xx_hal_tim_ex.o(i.HAL_TIMEx_MasterConfigSynchronization)
    HAL_TIM_Base_Init                        0x08004b1d   Thumb Code    98  stm32h7xx_hal_tim.o(i.HAL_TIM_Base_Init)
    HAL_TIM_Base_MspInit                     0x08004b81   Thumb Code    98  tim.o(i.HAL_TIM_Base_MspInit)
    HAL_TIM_Base_Start                       0x08004bf5   Thumb Code    96  stm32h7xx_hal_tim.o(i.HAL_TIM_Base_Start)
    HAL_TIM_Base_Start_IT                    0x08004c75   Thumb Code   106  stm32h7xx_hal_tim.o(i.HAL_TIM_Base_Start_IT)
    HAL_TIM_Base_Stop                        0x08004d01   Thumb Code    38  stm32h7xx_hal_tim.o(i.HAL_TIM_Base_Stop)
    HAL_TIM_Base_Stop_IT                     0x08004d27   Thumb Code    48  stm32h7xx_hal_tim.o(i.HAL_TIM_Base_Stop_IT)
    HAL_TIM_ConfigClockSource                0x08004d59   Thumb Code   248  stm32h7xx_hal_tim.o(i.HAL_TIM_ConfigClockSource)
    HAL_TIM_MspPostInit                      0x08004e55   Thumb Code   192  tim.o(i.HAL_TIM_MspPostInit)
    HAL_TIM_PWM_ConfigChannel                0x08004f39   Thumb Code   292  stm32h7xx_hal_tim.o(i.HAL_TIM_PWM_ConfigChannel)
    HAL_TIM_PWM_Init                         0x0800505d   Thumb Code    98  stm32h7xx_hal_tim.o(i.HAL_TIM_PWM_Init)
    HAL_TIM_PWM_MspInit                      0x080050c1   Thumb Code    74  tim.o(i.HAL_TIM_PWM_MspInit)
    HAL_TIM_PWM_Start                        0x0800511d   Thumb Code   232  stm32h7xx_hal_tim.o(i.HAL_TIM_PWM_Start)
    HAL_TIM_PWM_Stop                         0x0800522d   Thumb Code   154  stm32h7xx_hal_tim.o(i.HAL_TIM_PWM_Stop)
    HAL_TIM_SlaveConfigSynchro               0x080052dd   Thumb Code    86  stm32h7xx_hal_tim.o(i.HAL_TIM_SlaveConfigSynchro)
    HAL_UARTEx_RxEventCallback               0x08005333   Thumb Code     2  stm32h7xx_hal_uart.o(i.HAL_UARTEx_RxEventCallback)
    HAL_UARTEx_RxFifoFullCallback            0x08005335   Thumb Code     2  stm32h7xx_hal_uart_ex.o(i.HAL_UARTEx_RxFifoFullCallback)
    HAL_UARTEx_TxFifoEmptyCallback           0x08005337   Thumb Code     2  stm32h7xx_hal_uart_ex.o(i.HAL_UARTEx_TxFifoEmptyCallback)
    HAL_UARTEx_WakeupCallback                0x08005339   Thumb Code     2  stm32h7xx_hal_uart_ex.o(i.HAL_UARTEx_WakeupCallback)
    HAL_UART_ErrorCallback                   0x0800533b   Thumb Code     2  stm32h7xx_hal_uart.o(i.HAL_UART_ErrorCallback)
    HAL_UART_IRQHandler                      0x0800533d   Thumb Code   878  stm32h7xx_hal_uart.o(i.HAL_UART_IRQHandler)
    HAL_UART_Init                            0x080056c5   Thumb Code   106  stm32h7xx_hal_uart.o(i.HAL_UART_Init)
    HAL_UART_MspInit                         0x08005731   Thumb Code   138  usart.o(i.HAL_UART_MspInit)
    HAL_UART_Receive                         0x080057c9   Thumb Code   232  stm32h7xx_hal_uart.o(i.HAL_UART_Receive)
    HAL_UART_Receive_IT                      0x080058b1   Thumb Code    66  stm32h7xx_hal_uart.o(i.HAL_UART_Receive_IT)
    HAL_UART_RxCpltCallback                  0x080058f9   Thumb Code    46  usart.o(i.HAL_UART_RxCpltCallback)
    HAL_UART_Transmit                        0x08005935   Thumb Code   176  stm32h7xx_hal_uart.o(i.HAL_UART_Transmit)
    HAL_UART_Transmit_IT                     0x080059e5   Thumb Code   136  stm32h7xx_hal_uart.o(i.HAL_UART_Transmit_IT)
    HAL_UART_TxCpltCallback                  0x08005a7d   Thumb Code     4  portserial_m.o(i.HAL_UART_TxCpltCallback)
    HardFault_Handler                        0x08005a81   Thumb Code     2  stm32h7xx_it.o(i.HardFault_Handler)
    MB_TxCpltCallback                        0x08005a85   Thumb Code    14  portserial_m.o(i.MB_TxCpltCallback)
    MX_DAC1_Init                             0x08005a9d   Thumb Code    74  dac.o(i.MX_DAC1_Init)
    MX_DMA_Init                              0x08005af1   Thumb Code    22  dma.o(i.MX_DMA_Init)
    MX_GPIO_Init                             0x08005b0d   Thumb Code   330  gpio.o(i.MX_GPIO_Init)
    MX_SPI5_Init                             0x08005c6d   Thumb Code    90  spi.o(i.MX_SPI5_Init)
    MX_TIM12_Init                            0x08005cd1   Thumb Code   120  tim.o(i.MX_TIM12_Init)
    MX_TIM15_Init                            0x08005d51   Thumb Code   216  tim.o(i.MX_TIM15_Init)
    MX_TIM1_Init                             0x08005e31   Thumb Code   102  tim.o(i.MX_TIM1_Init)
    MX_TIM3_Init                             0x08005ea1   Thumb Code   150  tim.o(i.MX_TIM3_Init)
    MX_TIM5_Init                             0x08005f4d   Thumb Code   102  tim.o(i.MX_TIM5_Init)
    MX_USART1_UART_Init                      0x08005fbd   Thumb Code    76  usart.o(i.MX_USART1_UART_Init)
    MemManage_Handler                        0x08006015   Thumb Code     2  stm32h7xx_it.o(i.MemManage_Handler)
    NMI_Handler                              0x08006017   Thumb Code     2  stm32h7xx_it.o(i.NMI_Handler)
    PIDStructInit                            0x08006019   Thumb Code    30  pid.o(i.PIDStructInit)
    PID_Incremental                          0x0800603d   Thumb Code   108  pid.o(i.PID_Incremental)
    PendSV_Handler                           0x080060a9   Thumb Code     2  stm32h7xx_it.o(i.PendSV_Handler)
    SPI4_IRQHandler                          0x080062ed   Thumb Code     6  stm32h7xx_it.o(i.SPI4_IRQHandler)
    SVC_Handler                              0x080064d7   Thumb Code     2  stm32h7xx_it.o(i.SVC_Handler)
    SysTick_Handler                          0x080064d9   Thumb Code     4  stm32h7xx_it.o(i.SysTick_Handler)
    SystemClock_Config                       0x080064dd   Thumb Code   208  main.o(i.SystemClock_Config)
    SystemInit                               0x080065b9   Thumb Code   180  system_stm32h7xx.o(i.SystemInit)
    TIM4_IRQHandler                          0x08006695   Thumb Code    24  acq_sync.o(i.TIM4_IRQHandler)
    TIM7_IRQHandler                          0x080066b5   Thumb Code    26  porttimer_m.o(i.TIM7_IRQHandler)
    TIM_Base_SetConfig                       0x080066d9   Thumb Code   176  stm32h7xx_hal_tim.o(i.TIM_Base_SetConfig)
    TIM_CCxChannelCmd                        0x080067a9   Thumb Code    26  stm32h7xx_hal_tim.o(i.TIM_CCxChannelCmd)
    TIM_ETR_SetConfig                        0x080067c3   Thumb Code    18  stm32h7xx_hal_tim.o(i.TIM_ETR_SetConfig)
    TIM_OC2_SetConfig                        0x0800688d   Thumb Code   126  stm32h7xx_hal_tim.o(i.TIM_OC2_SetConfig)
    UART7_IRQHandler                         0x08006c45   Thumb Code    44  portserial_m.o(i.UART7_IRQHandler)
    UART_AdvFeatureConfig                    0x08006c79   Thumb Code   200  stm32h7xx_hal_uart.o(i.UART_AdvFeatureConfig)
    UART_CheckIdleState                      0x08006d41   Thumb Code   170  stm32h7xx_hal_uart.o(i.UART_CheckIdleState)
    UART_SetConfig                           0x08007325   Thumb Code   876  stm32h7xx_hal_uart.o(i.UART_SetConfig)
    UART_Start_Receive_IT                    0x080076d1   Thumb Code   256  stm32h7xx_hal_uart.o(i.UART_Start_Receive_IT)
    UART_WaitOnFlagUntilTimeout              0x08007953   Thumb Code   148  stm32h7xx_hal_uart.o(i.UART_WaitOnFlagUntilTimeout)
    USART1_IRQHandler                        0x080079e9   Thumb Code    42  usart.o(i.USART1_IRQHandler)
    UsageFault_Handler                       0x08007a21   Thumb Code     2  stm32h7xx_it.o(i.UsageFault_Handler)
    __0printf$bare                           0x08007a25   Thumb Code     8  printfb.o(i.__0printf$bare)
    __1printf$bare                           0x08007a25   Thumb Code     0  printfb.o(i.__0printf$bare)
    __2printf                                0x08007a25   Thumb Code     0  printfb.o(i.__0printf$bare)
    __ARM_fpclassify                         0x08007a35   Thumb Code    48  fpclassify.o(i.__ARM_fpclassify)
    __hardfp_exp                             0x08007a89   Thumb Code   486  exp.o(i.__hardfp_exp)
    __hardfp_log                             0x08007cf1   Thumb Code   480  log.o(i.__hardfp_log)
    __kernel_poly                            0x08007f2d   Thumb Code   112  poly.o(i.__kernel_poly)
    __mathlib_dbl_divzero                    0x08007fa1   Thumb Code    14  dunder.o(i.__mathlib_dbl_divzero)
    __mathlib_dbl_infnan                     0x08007fc1   Thumb Code     6  dunder.o(i.__mathlib_dbl_infnan)
    __mathlib_dbl_invalid                    0x08007fc9   Thumb Code    10  dunder.o(i.__mathlib_dbl_invalid)
    __mathlib_dbl_overflow                   0x08007fe1   Thumb Code    10  dunder.o(i.__mathlib_dbl_overflow)
    __mathlib_dbl_underflow                  0x08007ff9   Thumb Code    10  dunder.o(i.__mathlib_dbl_underflow)
    __scatterload_copy                       0x08008011   Thumb Code    14  handlers.o(i.__scatterload_copy)
    __scatterload_null                       0x0800801f   Thumb Code     2  handlers.o(i.__scatterload_null)
    __scatterload_zeroinit                   0x08008021   Thumb Code    14  handlers.o(i.__scatterload_zeroinit)
    __set_errno                              0x08008031   Thumb Code     6  errno.o(i.__set_errno)
    eMBFuncReportSlaveID                     0x08008061   Thumb Code    26  mbfuncother.o(i.eMBFuncReportSlaveID)
    eMBMasterEnable                          0x08008085   Thumb Code    28  mb_m.o(i.eMBMasterEnable)
    eMBMasterExecuteRequest                  0x080080a5   Thumb Code    52  mbcustomfunctioncode.o(i.eMBMasterExecuteRequest)
    eMBMasterFuncAcqSync                     0x080080e1   Thumb Code    42  mbcustomfunctioncode.o(i.eMBMasterFuncAcqSync)
    eMBMasterFuncReadCoils                   0x08008111   Thumb Code   100  mbfunccoils_m.o(i.eMBMasterFuncReadCoils)
    eMBMasterFuncReadDiscreteInputs          0x08008175   Thumb Code    98  mbfuncdisc_m.o(i.eMBMasterFuncReadDiscreteInputs)
    eMBMasterFuncReadHoldingRegister         0x080081d7   Thumb Code    84  mbfuncholding_m.o(i.eMBMasterFuncReadHoldingRegister)
    eMBMasterFuncReadInputRegister           0x0800822b   Thumb Code    82  mbfuncinput_m.o(i.eMBMasterFuncReadInputRegister)
    eMBMasterFuncReadSpectrum                0x0800827d   Thumb Code    90  mbcustomfunctioncode.o(i.eMBMasterFuncReadSpectrum)
    eMBMasterFuncReadWriteMultipleHoldingRegister 0x080082e1   Thumb Code   128  mbfuncholding_m.o(i.eMBMasterFuncReadWriteMultipleHoldingRegister)
    eMBMasterFuncWriteCoil                   0x08008361   Thumb Code    88  mbfunccoils_m.o(i.eMBMasterFuncWriteCoil)
    eMBMasterFuncWriteHoldingRegister        0x080083b9   Thumb Code    50  mbfuncholding_m.o(i.eMBMasterFuncWriteHoldingRegister)
    eMBMasterFuncWriteMultipleCoils          0x080083eb   Thumb Code    98  mbfunccoils_m.o(i.eMBMasterFuncWriteMultipleCoils)
    eMBMasterFuncWriteMultipleHoldingRegister 0x0800844d   Thumb Code    76  mbfuncholding_m.o(i.eMBMasterFuncWriteMultipleHoldingRegister)
    eMBMasterInit                            0x08008499   Thumb Code    84  mb_m.o(i.eMBMasterInit)
    eMBMasterPoll                            0x0800850d   Thumb Code   356  mb_m.o(i.eMBMasterPoll)
    eMBMasterPostRequest                     0x08008675   Thumb Code     8  mbcustomfunctioncode.o(i.eMBMasterPostRequest)
    eMBMasterRTUInit                         0x08008681   Thumb Code    72  mbrtu_m.o(i.eMBMasterRTUInit)
    eMBMasterRTUReceive                      0x080086cd   Thumb Code    64  mbrtu_m.o(i.eMBMasterRTUReceive)
    eMBMasterRTUSend                         0x08008715   Thumb Code   106  mbrtu_m.o(i.eMBMasterRTUSend)
    eMBMasterRTUStart                        0x08008789   Thumb Code    32  mbrtu_m.o(i.eMBMasterRTUStart)
    eMBMasterRTUStop                         0x080087ad   Thumb Code    26  mbrtu_m.o(i.eMBMasterRTUStop)
    eMBMasterRegCoilsCB                      0x080087c9   Thumb Code   114  user_mb_app_m.o(i.eMBMasterRegCoilsCB)
    eMBMasterRegDiscreteCB                   0x08008845   Thumb Code   114  user_mb_app_m.o(i.eMBMasterRegDiscreteCB)
    eMBMasterRegHoldingCB                    0x080088c1   Thumb Code    94  user_mb_app_m.o(i.eMBMasterRegHoldingCB)
    eMBMasterRegInputCB                      0x08008929   Thumb Code    94  user_mb_app_m.o(i.eMBMasterRegInputCB)
    eMBMasterReqAcqSync                      0x08008991   Thumb Code    66  mbcustomfunctioncode.o(i.eMBMasterReqAcqSync)
    eMBMasterReqReadSpectrum                 0x080089d9   Thumb Code    82  mbcustomfunctioncode.o(i.eMBMasterReqReadSpectrum)
    eMBMasterWaitRequestFinish               0x08008a31   Thumb Code     4  portevent_m.o(i.eMBMasterWaitRequestFinish)
    fputc                                    0x08008a35   Thumb Code    20  usart.o(i.fputc)
    main                                     0x08008a4d   Thumb Code   954  main.o(i.main)
    n_SystemDataStructInit                   0x08008e65   Thumb Code    50  main.o(i.n_SystemDataStructInit)
    prveMBError2Exception                    0x08008eb1   Thumb Code    24  mbutils.o(i.prveMBError2Exception)
    rs485_tx_set                             0x08008ec9   Thumb Code    12  portserial_m.o(i.rs485_tx_set)
    spi_protocol_init                        0x08008ed9   Thumb Code    74  spi_protocol.o(i.spi_protocol_init)
    spi_start_receive_data                   0x08008f35   Thumb Code    18  spi_protocol.o(i.spi_start_receive_data)
    sync_io_init                             0x08008f59   Thumb Code    58  acq_sync.o(i.sync_io_init)
    sync_start                               0x08008f9d   Thumb Code    36  acq_sync.o(i.sync_start)
    sync_timer_init                          0x08008fc9   Thumb Code    64  acq_sync.o(i.sync_timer_init)
    ucMBMasterGetDestAddress                 0x08009019   Thumb Code     6  mb_m.o(i.ucMBMasterGetDestAddress)
    usMBCRC16                                0x08009025   Thumb Code    40  mbcrc.o(i.usMBCRC16)
    usMBMasterGetPDUSndLength                0x08009051   Thumb Code     6  mbrtu_m.o(i.usMBMasterGetPDUSndLength)
    vMBMasterCBRequestScuuess                0x0800905d   Thumb Code     8  portevent_m.o(i.vMBMasterCBRequestScuuess)
    vMBMasterErrorCBExecuteFunction          0x08009069   Thumb Code    12  portevent_m.o(i.vMBMasterErrorCBExecuteFunction)
    vMBMasterErrorCBReceiveData              0x08009099   Thumb Code    12  portevent_m.o(i.vMBMasterErrorCBReceiveData)
    vMBMasterErrorCBRespondTimeout           0x080090c5   Thumb Code    44  portevent_m.o(i.vMBMasterErrorCBRespondTimeout)
    vMBMasterGetPDUSndBuf                    0x080090fd   Thumb Code     6  mbrtu_m.o(i.vMBMasterGetPDUSndBuf)
    vMBMasterOsResInit                       0x08009109   Thumb Code     2  portevent_m.o(i.vMBMasterOsResInit)
    vMBMasterPortSerialEnable                0x0800910d   Thumb Code    90  portserial_m.o(i.vMBMasterPortSerialEnable)
    vMBMasterPortTimersConvertDelayEnable    0x0800916d   Thumb Code    46  porttimer_m.o(i.vMBMasterPortTimersConvertDelayEnable)
    vMBMasterPortTimersDisable               0x080091a5   Thumb Code    16  porttimer_m.o(i.vMBMasterPortTimersDisable)
    vMBMasterPortTimersRespondTimeoutEnable  0x080091b9   Thumb Code    46  porttimer_m.o(i.vMBMasterPortTimersRespondTimeoutEnable)
    vMBMasterPortTimersT35Enable             0x080091f1   Thumb Code    46  porttimer_m.o(i.vMBMasterPortTimersT35Enable)
    vMBMasterRunResRelease                   0x08009229   Thumb Code     2  portevent_m.o(i.vMBMasterRunResRelease)
    vMBMasterSetCurTimerMode                 0x0800922d   Thumb Code     6  mbrtu_m.o(i.vMBMasterSetCurTimerMode)
    vMBMasterSetDestAddress                  0x08009239   Thumb Code     6  mb_m.o(i.vMBMasterSetDestAddress)
    vMBMasterSetErrorType                    0x08009245   Thumb Code     6  mb_m.o(i.vMBMasterSetErrorType)
    vMBMasterSetPDUSndLength                 0x08009251   Thumb Code     6  mbrtu_m.o(i.vMBMasterSetPDUSndLength)
    xMBMasterPortEventGet                    0x0800925d   Thumb Code    26  portevent_m.o(i.xMBMasterPortEventGet)
    xMBMasterPortEventInit                   0x0800927d   Thumb Code    10  portevent_m.o(i.xMBMasterPortEventInit)
    xMBMasterPortEventPost                   0x0800928d   Thumb Code    12  portevent_m.o(i.xMBMasterPortEventPost)
    xMBMasterPortSerialGetByte               0x0800929d   Thumb Code    20  portserial_m.o(i.xMBMasterPortSerialGetByte)
    xMBMasterPortSerialInit                  0x080092b5   Thumb Code   278  portserial_m.o(i.xMBMasterPortSerialInit)
    xMBMasterPortSerialPutByte               0x080093e5   Thumb Code    16  portserial_m.o(i.xMBMasterPortSerialPutByte)
    xMBMasterPortTimersInit                  0x080093f9   Thumb Code    82  porttimer_m.o(i.xMBMasterPortTimersInit)
    xMBMasterRTUReceiveFSM                   0x08009459   Thumb Code   146  mbrtu_m.o(i.xMBMasterRTUReceiveFSM)
    xMBMasterRTUTimerExpired                 0x080094fd   Thumb Code    94  mbrtu_m.o(i.xMBMasterRTUTimerExpired)
    xMBMasterRTUTransmitFSM                  0x08009561   Thumb Code    98  mbrtu_m.o(i.xMBMasterRTUTransmitFSM)
    xMBMasterRequestIsBroadcast              0x080095cd   Thumb Code     6  mbrtu_m.o(i.xMBMasterRequestIsBroadcast)
    xMBMasterRunResTake                      0x080095d9   Thumb Code     4  portevent_m.o(i.xMBMasterRunResTake)
    xMBUtilSetBits                           0x080095dd   Thumb Code    42  mbutils.o(i.xMBUtilSetBits)
    x_Ads1245Read                            0x08009607   Thumb Code   548  ads1245.o(i.x_Ads1245Read)
    x_Ads1245TemperatureConversion           0x0800982d   Thumb Code   170  public.o(i.x_Ads1245TemperatureConversion)
    x_CRC16                                  0x08009901   Thumb Code    58  public.o(i.x_CRC16)
    x_DAC8552Write                           0x0800993d   Thumb Code   114  dac8552.o(i.x_DAC8552Write)
    x_LaserCurrentSet                        0x080099c1   Thumb Code   166  public.o(i.x_LaserCurrentSet)
    x_LaserFalseSignalCalculation            0x08009a99   Thumb Code   146  public.o(i.x_LaserFalseSignalCalculation)
    x_LaserModeSwitching                     0x08009b45   Thumb Code   466  public.o(i.x_LaserModeSwitching)
    x_MovingFilm                             0x08009d31   Thumb Code   114  public.o(i.x_MovingFilm)
    x_TecMode                                0x08009db1   Thumb Code   148  public.o(i.x_TecMode)
    x_TecPWMChangeDutyCycle                  0x08009e51   Thumb Code    72  public.o(i.x_TecPWMChangeDutyCycle)
    x_UsartReply                             0x08009e9d   Thumb Code    52  public.o(i.x_UsartReply)
    UARTPrescTable                           0x08009edc   Data          24  stm32h7xx_hal_uart.o(.constdata)
    D1CorePrescTable                         0x08009ef4   Data          16  system_stm32h7xx.o(.constdata)
    __mathlib_zero                           0x0800a198   Data           8  qnan.o(.constdata)
    Region$$Table$$Base                      0x0800a1a0   Number         0  anon$$obj.o(Region$$Table)
    Region$$Table$$Limit                     0x0800a1c0   Number         0  anon$$obj.o(Region$$Table)
    G_ADCListNum                             0x20000000   Data           1  public.o(.data)
    u8G_UsartFlag                            0x20000001   Data           1  main.o(.data)
    u8G_UsartSendData                        0x20000002   Data          10  main.o(.data)
    rx_byte                                  0x2000000c   Data           1  usart.o(.data)
    rx_index                                 0x2000000e   Data           2  usart.o(.data)
    mb_spectrum_req_times                    0x20000010   Data           1  mbcustomfunctioncode.o(.data)
    sync_success_times                       0x20000012   Data           2  mbcustomfunctioncode.o(.data)
    modbus_request_flag                      0x20000014   Data           4  mbcustomfunctioncode.o(.data)
    sync_start_flag                          0x20000018   Data           1  acq_sync.o(.data)
    wTransferState                           0x20000024   Data           4  spi_protocol.o(.data)
    spi_info                                 0x20000028   Data           8  spi_protocol.o(.data)
    data_process_buff                        0x20000030   Data        2500  spi_protocol.o(.data)
    uwTickFreq                               0x200009f4   Data           1  stm32h7xx_hal.o(.data)
    uwTickPrio                               0x200009f8   Data           4  stm32h7xx_hal.o(.data)
    uwTick                                   0x200009fc   Data           4  stm32h7xx_hal.o(.data)
    SystemCoreClock                          0x20000a00   Data           4  system_stm32h7xx.o(.data)
    SystemD2Clock                            0x20000a04   Data           4  system_stm32h7xx.o(.data)
    modbus_master_busy_state                 0x20000a0f   Data           1  mb_m.o(.data)
    pxMBMasterFrameCBByteReceived            0x20000a2c   Data           4  mb_m.o(.data)
    pxMBMasterFrameCBTransmitterEmpty        0x20000a30   Data           4  mb_m.o(.data)
    pxMBMasterPortCBTimerExpired             0x20000a34   Data           4  mb_m.o(.data)
    sync_mode                                0x20000acc   Data           1  mbrtu_m.o(.data)
    usMDiscInStart                           0x20000ad6   Data           2  user_mb_app_m.o(.data)
    usMCoilStart                             0x20000ad8   Data           2  user_mb_app_m.o(.data)
    usMRegInStart                            0x20000ada   Data           2  user_mb_app_m.o(.data)
    usMRegHoldStart                          0x20000adc   Data           2  user_mb_app_m.o(.data)
    __stdout                                 0x20000ae0   Data           4  stdout.o(.data)
    G_ADCList                                0x20000ae8   Data          40  public.o(.bss)
    u16G_dac                                 0x20000b10   Data        1250  main.o(.bss)
    s_TECPID                                 0x20000ff4   Data          36  main.o(.bss)
    s_SysData                                0x20001018   Data          36  main.o(.bss)
    u8G_UsartReceive                         0x2000103c   Data          32  main.o(.bss)
    hdac1                                    0x2000105c   Data          20  dac.o(.bss)
    hdma_dac1_ch1                            0x20001070   Data         120  dac.o(.bss)
    hspi5                                    0x200010e8   Data         136  spi.o(.bss)
    htim1                                    0x20001260   Data          76  tim.o(.bss)
    htim3                                    0x200012ac   Data          76  tim.o(.bss)
    htim5                                    0x200012f8   Data          76  tim.o(.bss)
    htim12                                   0x20001344   Data          76  tim.o(.bss)
    htim15                                   0x20001390   Data          76  tim.o(.bss)
    huart1                                   0x200013dc   Data         148  usart.o(.bss)
    TimHandle4                               0x20001470   Data          76  acq_sync.o(.bss)
    SpiHandle                                0x200014bc   Data         136  spi_protocol.o(.bss)
    MB_Handle                                0x20002c64   Data         148  portserial_m.o(.bss)
    ucMDiscInBuf                             0x20002d44   Data          32  user_mb_app_m.o(.bss)
    ucMCoilBuf                               0x20002d64   Data         128  user_mb_app_m.o(.bss)
    usMRegInBuf                              0x20002de4   Data        3200  user_mb_app_m.o(.bss)
    usMRegHoldBuf                            0x20003a64   Data        3200  user_mb_app_m.o(.bss)
    __initial_sp                             0x20004ee8   Data           0  startup_stm32h753xx.o(STACK)
    rx_buffer                                0x30000000   Data          16  spi_protocol.o(.ARM.__AT_0x30000000)
    tx_buffer                                0x30000100   Data          16  spi_protocol.o(.ARM.__AT_0x30000100)
    spectrum_data                            0x30001000   Data       21504  spi_protocol.o(.ARM.__AT_0x30001000)
    spi_send_buff                            0x30006800   Data       21504  spi_protocol.o(.ARM.__AT_0x30006800)
    spi_recv_buff                            0x3000c000   Data       21504  spi_protocol.o(.ARM.__AT_0x3000C000)



==============================================================================

Memory Map of the image

  Image Entry point : 0x08000299

  Load Region LR_IROM1 (Base: 0x08000000, Size: 0x0000aca8, Max: 0x00200000, ABSOLUTE, COMPRESSED[0x0000abfc])

    Execution Region ER_IROM1 (Exec base: 0x08000000, Load base: 0x08000000, Size: 0x0000a1c0, Max: 0x00200000, ABSOLUTE)

    Exec Addr    Load Addr    Size         Type   Attr      Idx    E Section Name        Object

    0x08000000   0x08000000   0x00000298   Data   RO            3    RESET               startup_stm32h753xx.o
    0x08000298   0x08000298   0x00000000   Code   RO         6559  * .ARM.Collect$$$$00000000  mc_w.l(entry.o)
    0x08000298   0x08000298   0x00000004   Code   RO         6849    .ARM.Collect$$$$00000001  mc_w.l(entry2.o)
    0x0800029c   0x0800029c   0x00000004   Code   RO         6852    .ARM.Collect$$$$00000004  mc_w.l(entry5.o)
    0x080002a0   0x080002a0   0x00000000   Code   RO         6854    .ARM.Collect$$$$00000008  mc_w.l(entry7b.o)
    0x080002a0   0x080002a0   0x00000000   Code   RO         6856    .ARM.Collect$$$$0000000A  mc_w.l(entry8b.o)
    0x080002a0   0x080002a0   0x00000008   Code   RO         6857    .ARM.Collect$$$$0000000B  mc_w.l(entry9a.o)
    0x080002a8   0x080002a8   0x00000004   Code   RO         6864    .ARM.Collect$$$$0000000E  mc_w.l(entry12b.o)
    0x080002ac   0x080002ac   0x00000000   Code   RO         6859    .ARM.Collect$$$$0000000F  mc_w.l(entry10a.o)
    0x080002ac   0x080002ac   0x00000000   Code   RO         6861    .ARM.Collect$$$$00000011  mc_w.l(entry11a.o)
    0x080002ac   0x080002ac   0x00000004   Code   RO         6850    .ARM.Collect$$$$00002712  mc_w.l(entry2.o)
    0x080002b0   0x080002b0   0x00000024   Code   RO            4    .text               startup_stm32h753xx.o
    0x080002d4   0x080002d4   0x00000062   Code   RO         6562    .text               mc_w.l(uldiv.o)
    0x08000336   0x08000336   0x00000024   Code   RO         6564    .text               mc_w.l(memcpya.o)
    0x0800035a   0x0800035a   0x00000024   Code   RO         6566    .text               mc_w.l(memseta.o)
    0x0800037e   0x0800037e   0x0000001e   Code   RO         6868    .text               mc_w.l(llshl.o)
    0x0800039c   0x0800039c   0x00000020   Code   RO         6870    .text               mc_w.l(llushr.o)
    0x080003bc   0x080003bc   0x00000000   Code   RO         6879    .text               mc_w.l(iusefp.o)
    0x080003bc   0x080003bc   0x00000024   Code   RO         6890    .text               mc_w.l(init.o)
    0x080003e0   0x080003e0   0x0000005e   Code   RO         6904    .text               mc_w.l(__dclz77c.o)
    0x0800043e   0x0800043e   0x00000002   Code   RO          765    i.BusFault_Handler  stm32h7xx_it.o
    0x08000440   0x08000440   0x00000010   Code   RO         1246    i.DAC_DMAConvCpltCh1  stm32h7xx_hal_dac.o
    0x08000450   0x08000450   0x00000010   Code   RO         1390    i.DAC_DMAConvCpltCh2  stm32h7xx_hal_dac_ex.o
    0x08000460   0x08000460   0x00000018   Code   RO         1247    i.DAC_DMAErrorCh1   stm32h7xx_hal_dac.o
    0x08000478   0x08000478   0x00000018   Code   RO         1391    i.DAC_DMAErrorCh2   stm32h7xx_hal_dac_ex.o
    0x08000490   0x08000490   0x0000000a   Code   RO         1248    i.DAC_DMAHalfConvCpltCh1  stm32h7xx_hal_dac.o
    0x0800049a   0x0800049a   0x0000000a   Code   RO         1392    i.DAC_DMAHalfConvCpltCh2  stm32h7xx_hal_dac_ex.o
    0x080004a4   0x080004a4   0x0000000c   Code   RO          766    i.DMA2_Stream0_IRQHandler  stm32h7xx_it.o
    0x080004b0   0x080004b0   0x0000000c   Code   RO          767    i.DMA2_Stream1_IRQHandler  stm32h7xx_it.o
    0x080004bc   0x080004bc   0x0000000c   Code   RO          768    i.DMA2_Stream6_IRQHandler  stm32h7xx_it.o
    0x080004c8   0x080004c8   0x000000b4   Code   RO         2158    i.DMA_CalcBaseAndBitshift  stm32h7xx_hal_dma.o
    0x0800057c   0x0800057c   0x0000009c   Code   RO         2159    i.DMA_CalcDMAMUXChannelBaseAndMask  stm32h7xx_hal_dma.o
    0x08000618   0x08000618   0x00000074   Code   RO         2160    i.DMA_CalcDMAMUXRequestGenBaseAndMask  stm32h7xx_hal_dma.o
    0x0800068c   0x0800068c   0x00000054   Code   RO         2161    i.DMA_CheckFifoParam  stm32h7xx_hal_dma.o
    0x080006e0   0x080006e0   0x00000220   Code   RO         2162    i.DMA_SetConfig     stm32h7xx_hal_dma.o
    0x08000900   0x08000900   0x00000002   Code   RO          769    i.DebugMon_Handler  stm32h7xx_it.o
    0x08000902   0x08000902   0x00000008   Code   RO         6209    i.ENTER_CRITICAL_SECTION  port.o
    0x0800090a   0x0800090a   0x00000008   Code   RO         6210    i.EXIT_CRITICAL_SECTION  port.o
    0x08000912   0x08000912   0x00000008   Code   RO          770    i.EXTI15_10_IRQHandler  stm32h7xx_it.o
    0x0800091a   0x0800091a   0x00000008   Code   RO          771    i.EXTI9_5_IRQHandler  stm32h7xx_it.o
    0x08000922   0x08000922   0x00000004   Code   RO          399    i.Error_Handler     main.o
    0x08000926   0x08000926   0x00000002   Code   RO         1393    i.HAL_DACEx_ConvCpltCallbackCh2  stm32h7xx_hal_dac_ex.o
    0x08000928   0x08000928   0x00000002   Code   RO         1394    i.HAL_DACEx_ConvHalfCpltCallbackCh2  stm32h7xx_hal_dac_ex.o
    0x0800092a   0x0800092a   0x00000002   Code   RO         1402    i.HAL_DACEx_ErrorCallbackCh2  stm32h7xx_hal_dac_ex.o
    0x0800092c   0x0800092c   0x0000014c   Code   RO         1249    i.HAL_DAC_ConfigChannel  stm32h7xx_hal_dac.o
    0x08000a78   0x08000a78   0x00000002   Code   RO         1250    i.HAL_DAC_ConvCpltCallbackCh1  stm32h7xx_hal_dac.o
    0x08000a7a   0x08000a7a   0x00000002   Code   RO         1251    i.HAL_DAC_ConvHalfCpltCallbackCh1  stm32h7xx_hal_dac.o
    0x08000a7c   0x08000a7c   0x00000002   Code   RO         1254    i.HAL_DAC_ErrorCallbackCh1  stm32h7xx_hal_dac.o
    0x08000a7e   0x08000a7e   0x00000028   Code   RO         1259    i.HAL_DAC_Init      stm32h7xx_hal_dac.o
    0x08000aa6   0x08000aa6   0x00000002   PAD
    0x08000aa8   0x08000aa8   0x000000ac   Code   RO          488    i.HAL_DAC_MspInit   dac.o
    0x08000b54   0x08000b54   0x00000060   Code   RO         1263    i.HAL_DAC_Start     stm32h7xx_hal_dac.o
    0x08000bb4   0x08000bb4   0x000000e0   Code   RO         1264    i.HAL_DAC_Start_DMA  stm32h7xx_hal_dac.o
    0x08000c94   0x08000c94   0x0000005a   Code   RO         1266    i.HAL_DAC_Stop_DMA  stm32h7xx_hal_dac.o
    0x08000cee   0x08000cee   0x00000002   PAD
    0x08000cf0   0x08000cf0   0x00000360   Code   RO         2163    i.HAL_DMA_Abort     stm32h7xx_hal_dma.o
    0x08001050   0x08001050   0x00000284   Code   RO         2164    i.HAL_DMA_Abort_IT  stm32h7xx_hal_dma.o
    0x080012d4   0x080012d4   0x00000004   Code   RO         2166    i.HAL_DMA_GetError  stm32h7xx_hal_dma.o
    0x080012d8   0x080012d8   0x000006e8   Code   RO         2168    i.HAL_DMA_IRQHandler  stm32h7xx_hal_dma.o
    0x080019c0   0x080019c0   0x000003c4   Code   RO         2169    i.HAL_DMA_Init      stm32h7xx_hal_dma.o
    0x08001d84   0x08001d84   0x0000029c   Code   RO         2173    i.HAL_DMA_Start_IT  stm32h7xx_hal_dma.o
    0x08002020   0x08002020   0x00000024   Code   RO         2872    i.HAL_Delay         stm32h7xx_hal.o
    0x08002044   0x08002044   0x000000d4   Code   RO          300    i.HAL_GPIO_EXTI_Callback  public.o
    0x08002118   0x08002118   0x00000018   Code   RO         2010    i.HAL_GPIO_EXTI_IRQHandler  stm32h7xx_hal_gpio.o
    0x08002130   0x08002130   0x0000022c   Code   RO         2011    i.HAL_GPIO_Init     stm32h7xx_hal_gpio.o
    0x0800235c   0x0800235c   0x0000000a   Code   RO         2013    i.HAL_GPIO_ReadPin  stm32h7xx_hal_gpio.o
    0x08002366   0x08002366   0x0000000a   Code   RO         2015    i.HAL_GPIO_WritePin  stm32h7xx_hal_gpio.o
    0x08002370   0x08002370   0x0000000c   Code   RO         2883    i.HAL_GetREVID      stm32h7xx_hal.o
    0x0800237c   0x0800237c   0x0000000c   Code   RO         2884    i.HAL_GetTick       stm32h7xx_hal.o
    0x08002388   0x08002388   0x00000010   Code   RO         2890    i.HAL_IncTick       stm32h7xx_hal.o
    0x08002398   0x08002398   0x0000005c   Code   RO         2891    i.HAL_Init          stm32h7xx_hal.o
    0x080023f4   0x080023f4   0x00000040   Code   RO         2892    i.HAL_InitTick      stm32h7xx_hal.o
    0x08002434   0x08002434   0x0000005c   Code   RO         1094    i.HAL_MPU_ConfigRegion  stm32h7xx_hal_cortex.o
    0x08002490   0x08002490   0x0000001c   Code   RO         1095    i.HAL_MPU_Disable   stm32h7xx_hal_cortex.o
    0x080024ac   0x080024ac   0x00000024   Code   RO         1097    i.HAL_MPU_Enable    stm32h7xx_hal_cortex.o
    0x080024d0   0x080024d0   0x0000001c   Code   RO          877    i.HAL_MspInit       stm32h7xx_hal_msp.o
    0x080024ec   0x080024ec   0x00000022   Code   RO         1100    i.HAL_NVIC_DisableIRQ  stm32h7xx_hal_cortex.o
    0x0800250e   0x0800250e   0x0000001a   Code   RO         1101    i.HAL_NVIC_EnableIRQ  stm32h7xx_hal_cortex.o
    0x08002528   0x08002528   0x00000040   Code   RO         1107    i.HAL_NVIC_SetPriority  stm32h7xx_hal_cortex.o
    0x08002568   0x08002568   0x00000024   Code   RO         1108    i.HAL_NVIC_SetPriorityGrouping  stm32h7xx_hal_cortex.o
    0x0800258c   0x0800258c   0x00000054   Code   RO         2612    i.HAL_PWREx_ConfigSupply  stm32h7xx_hal_pwr_ex.o
    0x080025e0   0x080025e0   0x00000024   Code   RO         1632    i.HAL_RCCEx_GetD3PCLK1Freq  stm32h7xx_hal_rcc_ex.o
    0x08002604   0x08002604   0x00000144   Code   RO         1634    i.HAL_RCCEx_GetPLL2ClockFreq  stm32h7xx_hal_rcc_ex.o
    0x08002748   0x08002748   0x00000144   Code   RO         1635    i.HAL_RCCEx_GetPLL3ClockFreq  stm32h7xx_hal_rcc_ex.o
    0x0800288c   0x0800288c   0x000009ac   Code   RO         1641    i.HAL_RCCEx_PeriphCLKConfig  stm32h7xx_hal_rcc_ex.o
    0x08003238   0x08003238   0x0000025c   Code   RO         1517    i.HAL_RCC_ClockConfig  stm32h7xx_hal_rcc.o
    0x08003494   0x08003494   0x00000044   Code   RO         1522    i.HAL_RCC_GetHCLKFreq  stm32h7xx_hal_rcc.o
    0x080034d8   0x080034d8   0x00000024   Code   RO         1524    i.HAL_RCC_GetPCLK1Freq  stm32h7xx_hal_rcc.o
    0x080034fc   0x080034fc   0x00000024   Code   RO         1525    i.HAL_RCC_GetPCLK2Freq  stm32h7xx_hal_rcc.o
    0x08003520   0x08003520   0x00000138   Code   RO         1526    i.HAL_RCC_GetSysClockFreq  stm32h7xx_hal_rcc.o
    0x08003658   0x08003658   0x00000582   Code   RO         1529    i.HAL_RCC_OscConfig  stm32h7xx_hal_rcc.o
    0x08003bda   0x08003bda   0x00000002   PAD
    0x08003bdc   0x08003bdc   0x00000028   Code   RO         1018    i.HAL_SPI_ErrorCallback  spi_protocol.o
    0x08003c04   0x08003c04   0x00000224   Code   RO         3785    i.HAL_SPI_IRQHandler  stm32h7xx_hal_spi.o
    0x08003e28   0x08003e28   0x0000017c   Code   RO         3786    i.HAL_SPI_Init      stm32h7xx_hal_spi.o
    0x08003fa4   0x08003fa4   0x00000204   Code   RO          572    i.HAL_SPI_MspInit   spi.o
    0x080041a8   0x080041a8   0x00000184   Code   RO         3790    i.HAL_SPI_Receive_DMA  stm32h7xx_hal_spi.o
    0x0800432c   0x0800432c   0x0000001c   Code   RO         1019    i.HAL_SPI_RxCpltCallback  spi_protocol.o
    0x08004348   0x08004348   0x00000002   Code   RO         3793    i.HAL_SPI_RxHalfCpltCallback  stm32h7xx_hal_spi.o
    0x0800434a   0x0800434a   0x00000002   Code   RO         3794    i.HAL_SPI_SuspendCallback  stm32h7xx_hal_spi.o
    0x0800434c   0x0800434c   0x00000242   Code   RO         3795    i.HAL_SPI_Transmit  stm32h7xx_hal_spi.o
    0x0800458e   0x0800458e   0x00000002   PAD
    0x08004590   0x08004590   0x000001e8   Code   RO         3797    i.HAL_SPI_TransmitReceive_DMA  stm32h7xx_hal_spi.o
    0x08004778   0x08004778   0x00000178   Code   RO         3799    i.HAL_SPI_Transmit_DMA  stm32h7xx_hal_spi.o
    0x080048f0   0x080048f0   0x0000002c   Code   RO         1020    i.HAL_SPI_TxCpltCallback  spi_protocol.o
    0x0800491c   0x0800491c   0x00000002   Code   RO         3802    i.HAL_SPI_TxHalfCpltCallback  stm32h7xx_hal_spi.o
    0x0800491e   0x0800491e   0x00000002   PAD
    0x08004920   0x08004920   0x00000090   Code   RO         1021    i.HAL_SPI_TxRxCpltCallback  spi_protocol.o
    0x080049b0   0x080049b0   0x00000002   Code   RO         3804    i.HAL_SPI_TxRxHalfCpltCallback  stm32h7xx_hal_spi.o
    0x080049b2   0x080049b2   0x00000026   Code   RO         1112    i.HAL_SYSTICK_Config  stm32h7xx_hal_cortex.o
    0x080049d8   0x080049d8   0x000000a0   Code   RO         4824    i.HAL_TIMEx_ConfigBreakDeadTime  stm32h7xx_hal_tim_ex.o
    0x08004a78   0x08004a78   0x000000a4   Code   RO         4842    i.HAL_TIMEx_MasterConfigSynchronization  stm32h7xx_hal_tim_ex.o
    0x08004b1c   0x08004b1c   0x00000062   Code   RO         4106    i.HAL_TIM_Base_Init  stm32h7xx_hal_tim.o
    0x08004b7e   0x08004b7e   0x00000002   PAD
    0x08004b80   0x08004b80   0x00000074   Code   RO          614    i.HAL_TIM_Base_MspInit  tim.o
    0x08004bf4   0x08004bf4   0x00000080   Code   RO         4109    i.HAL_TIM_Base_Start  stm32h7xx_hal_tim.o
    0x08004c74   0x08004c74   0x0000008c   Code   RO         4111    i.HAL_TIM_Base_Start_IT  stm32h7xx_hal_tim.o
    0x08004d00   0x08004d00   0x00000026   Code   RO         4112    i.HAL_TIM_Base_Stop  stm32h7xx_hal_tim.o
    0x08004d26   0x08004d26   0x00000030   Code   RO         4114    i.HAL_TIM_Base_Stop_IT  stm32h7xx_hal_tim.o
    0x08004d56   0x08004d56   0x00000002   PAD
    0x08004d58   0x08004d58   0x000000fc   Code   RO         4115    i.HAL_TIM_ConfigClockSource  stm32h7xx_hal_tim.o
    0x08004e54   0x08004e54   0x000000e4   Code   RO          615    i.HAL_TIM_MspPostInit  tim.o
    0x08004f38   0x08004f38   0x00000124   Code   RO         4178    i.HAL_TIM_PWM_ConfigChannel  stm32h7xx_hal_tim.o
    0x0800505c   0x0800505c   0x00000062   Code   RO         4181    i.HAL_TIM_PWM_Init  stm32h7xx_hal_tim.o
    0x080050be   0x080050be   0x00000002   PAD
    0x080050c0   0x080050c0   0x0000005c   Code   RO          617    i.HAL_TIM_PWM_MspInit  tim.o
    0x0800511c   0x0800511c   0x00000110   Code   RO         4186    i.HAL_TIM_PWM_Start  stm32h7xx_hal_tim.o
    0x0800522c   0x0800522c   0x000000b0   Code   RO         4189    i.HAL_TIM_PWM_Stop  stm32h7xx_hal_tim.o
    0x080052dc   0x080052dc   0x00000056   Code   RO         4195    i.HAL_TIM_SlaveConfigSynchro  stm32h7xx_hal_tim.o
    0x08005332   0x08005332   0x00000002   Code   RO         5120    i.HAL_UARTEx_RxEventCallback  stm32h7xx_hal_uart.o
    0x08005334   0x08005334   0x00000002   Code   RO         5539    i.HAL_UARTEx_RxFifoFullCallback  stm32h7xx_hal_uart_ex.o
    0x08005336   0x08005336   0x00000002   Code   RO         5543    i.HAL_UARTEx_TxFifoEmptyCallback  stm32h7xx_hal_uart_ex.o
    0x08005338   0x08005338   0x00000002   Code   RO         5544    i.HAL_UARTEx_WakeupCallback  stm32h7xx_hal_uart_ex.o
    0x0800533a   0x0800533a   0x00000002   Code   RO         5136    i.HAL_UART_ErrorCallback  stm32h7xx_hal_uart.o
    0x0800533c   0x0800533c   0x00000388   Code   RO         5139    i.HAL_UART_IRQHandler  stm32h7xx_hal_uart.o
    0x080056c4   0x080056c4   0x0000006a   Code   RO         5140    i.HAL_UART_Init     stm32h7xx_hal_uart.o
    0x0800572e   0x0800572e   0x00000002   PAD
    0x08005730   0x08005730   0x00000098   Code   RO          700    i.HAL_UART_MspInit  usart.o
    0x080057c8   0x080057c8   0x000000e8   Code   RO         5143    i.HAL_UART_Receive  stm32h7xx_hal_uart.o
    0x080058b0   0x080058b0   0x00000048   Code   RO         5145    i.HAL_UART_Receive_IT  stm32h7xx_hal_uart.o
    0x080058f8   0x080058f8   0x0000003c   Code   RO          701    i.HAL_UART_RxCpltCallback  usart.o
    0x08005934   0x08005934   0x000000b0   Code   RO         5149    i.HAL_UART_Transmit  stm32h7xx_hal_uart.o
    0x080059e4   0x080059e4   0x00000098   Code   RO         5151    i.HAL_UART_Transmit_IT  stm32h7xx_hal_uart.o
    0x08005a7c   0x08005a7c   0x00000004   Code   RO         6332    i.HAL_UART_TxCpltCallback  portserial_m.o
    0x08005a80   0x08005a80   0x00000002   Code   RO          772    i.HardFault_Handler  stm32h7xx_it.o
    0x08005a82   0x08005a82   0x00000002   PAD
    0x08005a84   0x08005a84   0x00000018   Code   RO         6334    i.MB_TxCpltCallback  portserial_m.o
    0x08005a9c   0x08005a9c   0x00000054   Code   RO          489    i.MX_DAC1_Init      dac.o
    0x08005af0   0x08005af0   0x0000001c   Code   RO          529    i.MX_DMA_Init       dma.o
    0x08005b0c   0x08005b0c   0x00000160   Code   RO          463    i.MX_GPIO_Init      gpio.o
    0x08005c6c   0x08005c6c   0x00000064   Code   RO          573    i.MX_SPI5_Init      spi.o
    0x08005cd0   0x08005cd0   0x00000080   Code   RO          618    i.MX_TIM12_Init     tim.o
    0x08005d50   0x08005d50   0x000000e0   Code   RO          619    i.MX_TIM15_Init     tim.o
    0x08005e30   0x08005e30   0x00000070   Code   RO          620    i.MX_TIM1_Init      tim.o
    0x08005ea0   0x08005ea0   0x000000ac   Code   RO          621    i.MX_TIM3_Init      tim.o
    0x08005f4c   0x08005f4c   0x00000070   Code   RO          622    i.MX_TIM5_Init      tim.o
    0x08005fbc   0x08005fbc   0x00000058   Code   RO          702    i.MX_USART1_UART_Init  usart.o
    0x08006014   0x08006014   0x00000002   Code   RO          773    i.MemManage_Handler  stm32h7xx_it.o
    0x08006016   0x08006016   0x00000002   Code   RO          774    i.NMI_Handler       stm32h7xx_it.o
    0x08006018   0x08006018   0x00000024   Code   RO          266    i.PIDStructInit     pid.o
    0x0800603c   0x0800603c   0x0000006c   Code   RO          267    i.PID_Incremental   pid.o
    0x080060a8   0x080060a8   0x00000002   Code   RO          775    i.PendSV_Handler    stm32h7xx_it.o
    0x080060aa   0x080060aa   0x00000002   PAD
    0x080060ac   0x080060ac   0x00000120   Code   RO         1644    i.RCCEx_PLL2_Config  stm32h7xx_hal_rcc_ex.o
    0x080061cc   0x080061cc   0x00000120   Code   RO         1645    i.RCCEx_PLL3_Config  stm32h7xx_hal_rcc_ex.o
    0x080062ec   0x080062ec   0x0000000c   Code   RO          776    i.SPI4_IRQHandler   stm32h7xx_it.o
    0x080062f8   0x080062f8   0x000000bc   Code   RO         3806    i.SPI_CloseTransfer  stm32h7xx_hal_spi.o
    0x080063b4   0x080063b4   0x0000001a   Code   RO         3807    i.SPI_DMAAbortOnError  stm32h7xx_hal_spi.o
    0x080063ce   0x080063ce   0x0000002c   Code   RO         3808    i.SPI_DMAError      stm32h7xx_hal_spi.o
    0x080063fa   0x080063fa   0x0000000a   Code   RO         3809    i.SPI_DMAHalfReceiveCplt  stm32h7xx_hal_spi.o
    0x08006404   0x08006404   0x0000000a   Code   RO         3810    i.SPI_DMAHalfTransmitCplt  stm32h7xx_hal_spi.o
    0x0800640e   0x0800640e   0x0000000a   Code   RO         3811    i.SPI_DMAHalfTransmitReceiveCplt  stm32h7xx_hal_spi.o
    0x08006418   0x08006418   0x00000028   Code   RO         3812    i.SPI_DMAReceiveCplt  stm32h7xx_hal_spi.o
    0x08006440   0x08006440   0x00000028   Code   RO         3814    i.SPI_DMATransmitCplt  stm32h7xx_hal_spi.o
    0x08006468   0x08006468   0x00000028   Code   RO         3815    i.SPI_DMATransmitReceiveCplt  stm32h7xx_hal_spi.o
    0x08006490   0x08006490   0x00000046   Code   RO         3823    i.SPI_WaitOnFlagUntilTimeout  stm32h7xx_hal_spi.o
    0x080064d6   0x080064d6   0x00000002   Code   RO          777    i.SVC_Handler       stm32h7xx_it.o
    0x080064d8   0x080064d8   0x00000004   Code   RO          778    i.SysTick_Handler   stm32h7xx_it.o
    0x080064dc   0x080064dc   0x000000dc   Code   RO          400    i.SystemClock_Config  main.o
    0x080065b8   0x080065b8   0x000000dc   Code   RO         5650    i.SystemInit        system_stm32h7xx.o
    0x08006694   0x08006694   0x00000020   Code   RO          971    i.TIM4_IRQHandler   acq_sync.o
    0x080066b4   0x080066b4   0x00000024   Code   RO         6428    i.TIM7_IRQHandler   porttimer_m.o
    0x080066d8   0x080066d8   0x000000d0   Code   RO         4199    i.TIM_Base_SetConfig  stm32h7xx_hal_tim.o
    0x080067a8   0x080067a8   0x0000001a   Code   RO         4200    i.TIM_CCxChannelCmd  stm32h7xx_hal_tim.o
    0x080067c2   0x080067c2   0x00000012   Code   RO         4210    i.TIM_ETR_SetConfig  stm32h7xx_hal_tim.o
    0x080067d4   0x080067d4   0x00000014   Code   RO         4211    i.TIM_ITRx_SetConfig  stm32h7xx_hal_tim.o
    0x080067e8   0x080067e8   0x000000a4   Code   RO         4212    i.TIM_OC1_SetConfig  stm32h7xx_hal_tim.o
    0x0800688c   0x0800688c   0x00000098   Code   RO         4213    i.TIM_OC2_SetConfig  stm32h7xx_hal_tim.o
    0x08006924   0x08006924   0x00000098   Code   RO         4214    i.TIM_OC3_SetConfig  stm32h7xx_hal_tim.o
    0x080069bc   0x080069bc   0x00000078   Code   RO         4215    i.TIM_OC4_SetConfig  stm32h7xx_hal_tim.o
    0x08006a34   0x08006a34   0x00000074   Code   RO         4216    i.TIM_OC5_SetConfig  stm32h7xx_hal_tim.o
    0x08006aa8   0x08006aa8   0x00000074   Code   RO         4217    i.TIM_OC6_SetConfig  stm32h7xx_hal_tim.o
    0x08006b1c   0x08006b1c   0x000000e0   Code   RO         4218    i.TIM_SlaveTimer_SetConfig  stm32h7xx_hal_tim.o
    0x08006bfc   0x08006bfc   0x00000022   Code   RO         4219    i.TIM_TI1_ConfigInputStage  stm32h7xx_hal_tim.o
    0x08006c1e   0x08006c1e   0x00000024   Code   RO         4221    i.TIM_TI2_ConfigInputStage  stm32h7xx_hal_tim.o
    0x08006c42   0x08006c42   0x00000002   PAD
    0x08006c44   0x08006c44   0x00000034   Code   RO         6335    i.UART7_IRQHandler  portserial_m.o
    0x08006c78   0x08006c78   0x000000c8   Code   RO         5154    i.UART_AdvFeatureConfig  stm32h7xx_hal_uart.o
    0x08006d40   0x08006d40   0x000000aa   Code   RO         5155    i.UART_CheckIdleState  stm32h7xx_hal_uart.o
    0x08006dea   0x08006dea   0x00000014   Code   RO         5156    i.UART_DMAAbortOnError  stm32h7xx_hal_uart.o
    0x08006dfe   0x08006dfe   0x00000002   PAD
    0x08006e00   0x08006e00   0x00000054   Code   RO         5166    i.UART_EndRxTransfer  stm32h7xx_hal_uart.o
    0x08006e54   0x08006e54   0x000000c8   Code   RO         5168    i.UART_RxISR_16BIT  stm32h7xx_hal_uart.o
    0x08006f1c   0x08006f1c   0x000001a0   Code   RO         5169    i.UART_RxISR_16BIT_FIFOEN  stm32h7xx_hal_uart.o
    0x080070bc   0x080070bc   0x000000c8   Code   RO         5170    i.UART_RxISR_8BIT   stm32h7xx_hal_uart.o
    0x08007184   0x08007184   0x000001a0   Code   RO         5171    i.UART_RxISR_8BIT_FIFOEN  stm32h7xx_hal_uart.o
    0x08007324   0x08007324   0x000003ac   Code   RO         5172    i.UART_SetConfig    stm32h7xx_hal_uart.o
    0x080076d0   0x080076d0   0x00000110   Code   RO         5174    i.UART_Start_Receive_IT  stm32h7xx_hal_uart.o
    0x080077e0   0x080077e0   0x00000052   Code   RO         5175    i.UART_TxISR_16BIT  stm32h7xx_hal_uart.o
    0x08007832   0x08007832   0x00000002   PAD
    0x08007834   0x08007834   0x0000006a   Code   RO         5176    i.UART_TxISR_16BIT_FIFOEN  stm32h7xx_hal_uart.o
    0x0800789e   0x0800789e   0x0000004e   Code   RO         5177    i.UART_TxISR_8BIT   stm32h7xx_hal_uart.o
    0x080078ec   0x080078ec   0x00000066   Code   RO         5178    i.UART_TxISR_8BIT_FIFOEN  stm32h7xx_hal_uart.o
    0x08007952   0x08007952   0x00000094   Code   RO         5179    i.UART_WaitOnFlagUntilTimeout  stm32h7xx_hal_uart.o
    0x080079e6   0x080079e6   0x00000002   PAD
    0x080079e8   0x080079e8   0x00000038   Code   RO          703    i.USART1_IRQHandler  usart.o
    0x08007a20   0x08007a20   0x00000002   Code   RO          779    i.UsageFault_Handler  stm32h7xx_it.o
    0x08007a22   0x08007a22   0x00000002   PAD
    0x08007a24   0x08007a24   0x00000010   Code   RO         6571    i.__0printf$bare    mc_w.l(printfb.o)
    0x08007a34   0x08007a34   0x00000030   Code   RO         6844    i.__ARM_fpclassify  m_wv.l(fpclassify.o)
    0x08007a64   0x08007a64   0x00000022   Code   RO         1114    i.__NVIC_SetPriority  stm32h7xx_hal_cortex.o
    0x08007a86   0x08007a86   0x00000002   PAD
    0x08007a88   0x08007a88   0x00000268   Code   RO         6531    i.__hardfp_exp      m_wv.l(exp.o)
    0x08007cf0   0x08007cf0   0x0000023c   Code   RO         6545    i.__hardfp_log      m_wv.l(log.o)
    0x08007f2c   0x08007f2c   0x00000070   Code   RO         6846    i.__kernel_poly     m_wv.l(poly.o)
    0x08007f9c   0x08007f9c   0x00000004   PAD
    0x08007fa0   0x08007fa0   0x00000020   Code   RO         6830    i.__mathlib_dbl_divzero  m_wv.l(dunder.o)
    0x08007fc0   0x08007fc0   0x00000006   Code   RO         6831    i.__mathlib_dbl_infnan  m_wv.l(dunder.o)
    0x08007fc6   0x08007fc6   0x00000002   PAD
    0x08007fc8   0x08007fc8   0x00000018   Code   RO         6833    i.__mathlib_dbl_invalid  m_wv.l(dunder.o)
    0x08007fe0   0x08007fe0   0x00000018   Code   RO         6834    i.__mathlib_dbl_overflow  m_wv.l(dunder.o)
    0x08007ff8   0x08007ff8   0x00000018   Code   RO         6836    i.__mathlib_dbl_underflow  m_wv.l(dunder.o)
    0x08008010   0x08008010   0x0000000e   Code   RO         6898    i.__scatterload_copy  mc_w.l(handlers.o)
    0x0800801e   0x0800801e   0x00000002   Code   RO         6899    i.__scatterload_null  mc_w.l(handlers.o)
    0x08008020   0x08008020   0x0000000e   Code   RO         6900    i.__scatterload_zeroinit  mc_w.l(handlers.o)
    0x0800802e   0x0800802e   0x00000002   PAD
    0x08008030   0x08008030   0x0000000c   Code   RO         6874    i.__set_errno       mc_w.l(errno.o)
    0x0800803c   0x0800803c   0x00000022   Code   RO         6578    i._printf_core      mc_w.l(printfb.o)
    0x0800805e   0x0800805e   0x00000002   PAD
    0x08008060   0x08008060   0x00000024   Code   RO         6013    i.eMBFuncReportSlaveID  mbfuncother.o
    0x08008084   0x08008084   0x00000020   Code   RO         5688    i.eMBMasterEnable   mb_m.o
    0x080080a4   0x080080a4   0x0000003c   Code   RO          901    i.eMBMasterExecuteRequest  mbcustomfunctioncode.o
    0x080080e0   0x080080e0   0x00000030   Code   RO          902    i.eMBMasterFuncAcqSync  mbcustomfunctioncode.o
    0x08008110   0x08008110   0x00000064   Code   RO         5833    i.eMBMasterFuncReadCoils  mbfunccoils_m.o
    0x08008174   0x08008174   0x00000062   Code   RO         5887    i.eMBMasterFuncReadDiscreteInputs  mbfuncdisc_m.o
    0x080081d6   0x080081d6   0x00000054   Code   RO         5917    i.eMBMasterFuncReadHoldingRegister  mbfuncholding_m.o
    0x0800822a   0x0800822a   0x00000052   Code   RO         5983    i.eMBMasterFuncReadInputRegister  mbfuncinput_m.o
    0x0800827c   0x0800827c   0x00000064   Code   RO          903    i.eMBMasterFuncReadSpectrum  mbcustomfunctioncode.o
    0x080082e0   0x080082e0   0x00000080   Code   RO         5918    i.eMBMasterFuncReadWriteMultipleHoldingRegister  mbfuncholding_m.o
    0x08008360   0x08008360   0x00000058   Code   RO         5834    i.eMBMasterFuncWriteCoil  mbfunccoils_m.o
    0x080083b8   0x080083b8   0x00000032   Code   RO         5919    i.eMBMasterFuncWriteHoldingRegister  mbfuncholding_m.o
    0x080083ea   0x080083ea   0x00000062   Code   RO         5835    i.eMBMasterFuncWriteMultipleCoils  mbfunccoils_m.o
    0x0800844c   0x0800844c   0x0000004c   Code   RO         5920    i.eMBMasterFuncWriteMultipleHoldingRegister  mbfuncholding_m.o
    0x08008498   0x08008498   0x00000074   Code   RO         5690    i.eMBMasterInit     mb_m.o
    0x0800850c   0x0800850c   0x00000168   Code   RO         5692    i.eMBMasterPoll     mb_m.o
    0x08008674   0x08008674   0x0000000c   Code   RO          904    i.eMBMasterPostRequest  mbcustomfunctioncode.o
    0x08008680   0x08008680   0x0000004c   Code   RO         6047    i.eMBMasterRTUInit  mbrtu_m.o
    0x080086cc   0x080086cc   0x00000048   Code   RO         6048    i.eMBMasterRTUReceive  mbrtu_m.o
    0x08008714   0x08008714   0x00000074   Code   RO         6049    i.eMBMasterRTUSend  mbrtu_m.o
    0x08008788   0x08008788   0x00000024   Code   RO         6050    i.eMBMasterRTUStart  mbrtu_m.o
    0x080087ac   0x080087ac   0x0000001a   Code   RO         6051    i.eMBMasterRTUStop  mbrtu_m.o
    0x080087c6   0x080087c6   0x00000002   PAD
    0x080087c8   0x080087c8   0x0000007c   Code   RO         6485    i.eMBMasterRegCoilsCB  user_mb_app_m.o
    0x08008844   0x08008844   0x0000007c   Code   RO         6486    i.eMBMasterRegDiscreteCB  user_mb_app_m.o
    0x080088c0   0x080088c0   0x00000068   Code   RO         6487    i.eMBMasterRegHoldingCB  user_mb_app_m.o
    0x08008928   0x08008928   0x00000068   Code   RO         6488    i.eMBMasterRegInputCB  user_mb_app_m.o
    0x08008990   0x08008990   0x00000048   Code   RO          905    i.eMBMasterReqAcqSync  mbcustomfunctioncode.o
    0x080089d8   0x080089d8   0x00000058   Code   RO          906    i.eMBMasterReqReadSpectrum  mbcustomfunctioncode.o
    0x08008a30   0x08008a30   0x00000004   Code   RO         6242    i.eMBMasterWaitRequestFinish  portevent_m.o
    0x08008a34   0x08008a34   0x00000018   Code   RO          704    i.fputc             usart.o
    0x08008a4c   0x08008a4c   0x00000418   Code   RO          401    i.main              main.o
    0x08008e64   0x08008e64   0x0000004c   Code   RO          402    i.n_SystemDataStructInit  main.o
    0x08008eb0   0x08008eb0   0x00000018   Code   RO         6173    i.prveMBError2Exception  mbutils.o
    0x08008ec8   0x08008ec8   0x00000010   Code   RO         6338    i.rs485_tx_set      portserial_m.o
    0x08008ed8   0x08008ed8   0x0000005c   Code   RO         1024    i.spi_protocol_init  spi_protocol.o
    0x08008f34   0x08008f34   0x00000024   Code   RO         1025    i.spi_start_receive_data  spi_protocol.o
    0x08008f58   0x08008f58   0x00000044   Code   RO          972    i.sync_io_init      acq_sync.o
    0x08008f9c   0x08008f9c   0x0000002c   Code   RO          973    i.sync_start        acq_sync.o
    0x08008fc8   0x08008fc8   0x00000050   Code   RO          974    i.sync_timer_init   acq_sync.o
    0x08009018   0x08009018   0x0000000c   Code   RO         5693    i.ucMBMasterGetDestAddress  mb_m.o
    0x08009024   0x08009024   0x0000002c   Code   RO         5807    i.usMBCRC16         mbcrc.o
    0x08009050   0x08009050   0x0000000c   Code   RO         6053    i.usMBMasterGetPDUSndLength  mbrtu_m.o
    0x0800905c   0x0800905c   0x0000000c   Code   RO         6243    i.vMBMasterCBRequestScuuess  portevent_m.o
    0x08009068   0x08009068   0x00000030   Code   RO         6244    i.vMBMasterErrorCBExecuteFunction  portevent_m.o
    0x08009098   0x08009098   0x0000002c   Code   RO         6245    i.vMBMasterErrorCBReceiveData  portevent_m.o
    0x080090c4   0x080090c4   0x00000038   Code   RO         6246    i.vMBMasterErrorCBRespondTimeout  portevent_m.o
    0x080090fc   0x080090fc   0x0000000c   Code   RO         6054    i.vMBMasterGetPDUSndBuf  mbrtu_m.o
    0x08009108   0x08009108   0x00000002   Code   RO         6247    i.vMBMasterOsResInit  portevent_m.o
    0x0800910a   0x0800910a   0x00000002   PAD
    0x0800910c   0x0800910c   0x00000060   Code   RO         6340    i.vMBMasterPortSerialEnable  portserial_m.o
    0x0800916c   0x0800916c   0x00000038   Code   RO         6429    i.vMBMasterPortTimersConvertDelayEnable  porttimer_m.o
    0x080091a4   0x080091a4   0x00000014   Code   RO         6430    i.vMBMasterPortTimersDisable  porttimer_m.o
    0x080091b8   0x080091b8   0x00000038   Code   RO         6431    i.vMBMasterPortTimersRespondTimeoutEnable  porttimer_m.o
    0x080091f0   0x080091f0   0x00000038   Code   RO         6432    i.vMBMasterPortTimersT35Enable  porttimer_m.o
    0x08009228   0x08009228   0x00000002   Code   RO         6248    i.vMBMasterRunResRelease  portevent_m.o
    0x0800922a   0x0800922a   0x00000002   PAD
    0x0800922c   0x0800922c   0x0000000c   Code   RO         6056    i.vMBMasterSetCurTimerMode  mbrtu_m.o
    0x08009238   0x08009238   0x0000000c   Code   RO         5695    i.vMBMasterSetDestAddress  mb_m.o
    0x08009244   0x08009244   0x0000000c   Code   RO         5696    i.vMBMasterSetErrorType  mb_m.o
    0x08009250   0x08009250   0x0000000c   Code   RO         6057    i.vMBMasterSetPDUSndLength  mbrtu_m.o
    0x0800925c   0x0800925c   0x00000020   Code   RO         6249    i.xMBMasterPortEventGet  portevent_m.o
    0x0800927c   0x0800927c   0x00000010   Code   RO         6250    i.xMBMasterPortEventInit  portevent_m.o
    0x0800928c   0x0800928c   0x00000010   Code   RO         6251    i.xMBMasterPortEventPost  portevent_m.o
    0x0800929c   0x0800929c   0x00000018   Code   RO         6342    i.xMBMasterPortSerialGetByte  portserial_m.o
    0x080092b4   0x080092b4   0x00000130   Code   RO         6343    i.xMBMasterPortSerialInit  portserial_m.o
    0x080093e4   0x080093e4   0x00000014   Code   RO         6344    i.xMBMasterPortSerialPutByte  portserial_m.o
    0x080093f8   0x080093f8   0x00000060   Code   RO         6433    i.xMBMasterPortTimersInit  porttimer_m.o
    0x08009458   0x08009458   0x000000a4   Code   RO         6058    i.xMBMasterRTUReceiveFSM  mbrtu_m.o
    0x080094fc   0x080094fc   0x00000064   Code   RO         6059    i.xMBMasterRTUTimerExpired  mbrtu_m.o
    0x08009560   0x08009560   0x0000006c   Code   RO         6060    i.xMBMasterRTUTransmitFSM  mbrtu_m.o
    0x080095cc   0x080095cc   0x0000000c   Code   RO         6061    i.xMBMasterRequestIsBroadcast  mbrtu_m.o
    0x080095d8   0x080095d8   0x00000004   Code   RO         6252    i.xMBMasterRunResTake  portevent_m.o
    0x080095dc   0x080095dc   0x0000002a   Code   RO         6175    i.xMBUtilSetBits    mbutils.o
    0x08009606   0x08009606   0x00000224   Code   RO           13    i.x_Ads1245Read     ads1245.o
    0x0800982a   0x0800982a   0x00000002   PAD
    0x0800982c   0x0800982c   0x000000d4   Code   RO          301    i.x_Ads1245TemperatureConversion  public.o
    0x08009900   0x08009900   0x0000003a   Code   RO          302    i.x_CRC16           public.o
    0x0800993a   0x0800993a   0x00000002   PAD
    0x0800993c   0x0800993c   0x00000084   Code   RO          238    i.x_DAC8552Write    dac8552.o
    0x080099c0   0x080099c0   0x000000d8   Code   RO          303    i.x_LaserCurrentSet  public.o
    0x08009a98   0x08009a98   0x000000ac   Code   RO          304    i.x_LaserFalseSignalCalculation  public.o
    0x08009b44   0x08009b44   0x000001ec   Code   RO          305    i.x_LaserModeSwitching  public.o
    0x08009d30   0x08009d30   0x00000080   Code   RO          307    i.x_MovingFilm      public.o
    0x08009db0   0x08009db0   0x000000a0   Code   RO          308    i.x_TecMode         public.o
    0x08009e50   0x08009e50   0x0000004c   Code   RO          309    i.x_TecPWMChangeDutyCycle  public.o
    0x08009e9c   0x08009e9c   0x00000038   Code   RO          311    i.x_UsartReply      public.o
    0x08009ed4   0x08009ed4   0x00000008   Data   RO         2175    .constdata          stm32h7xx_hal_dma.o
    0x08009edc   0x08009edc   0x00000018   Data   RO         5180    .constdata          stm32h7xx_hal_uart.o
    0x08009ef4   0x08009ef4   0x00000010   Data   RO         5651    .constdata          system_stm32h7xx.o
    0x08009f04   0x08009f04   0x00000200   Data   RO         5808    .constdata          mbcrc.o
    0x0800a104   0x0800a104   0x00000004   PAD
    0x0800a108   0x0800a108   0x00000058   Data   RO         6534    .constdata          m_wv.l(exp.o)
    0x0800a160   0x0800a160   0x00000038   Data   RO         6548    .constdata          m_wv.l(log.o)
    0x0800a198   0x0800a198   0x00000008   Data   RO         6848    .constdata          m_wv.l(qnan.o)
    0x0800a1a0   0x0800a1a0   0x00000020   Data   RO         6896    Region$$Table       anon$$obj.o


    Execution Region RW_IRAM1 (Exec base: 0x20000000, Load base: 0x0800a1c0, Size: 0x00004ee8, Max: 0x00020000, ABSOLUTE, COMPRESSED[0x00000a3c])

    Exec Addr    Load Addr    Size         Type   Attr      Idx    E Section Name        Object

    0x20000000   COMPRESSED   0x00000001   Data   RW          313    .data               public.o
    0x20000001   COMPRESSED   0x0000000b   Data   RW          404    .data               main.o
    0x2000000c   COMPRESSED   0x00000004   Data   RW          706    .data               usart.o
    0x20000010   COMPRESSED   0x00000008   Data   RW          907    .data               mbcustomfunctioncode.o
    0x20000018   COMPRESSED   0x00000008   Data   RW          977    .data               acq_sync.o
    0x20000020   COMPRESSED   0x000009d4   Data   RW         1032    .data               spi_protocol.o
    0x200009f4   COMPRESSED   0x0000000c   Data   RW         2913    .data               stm32h7xx_hal.o
    0x20000a00   COMPRESSED   0x00000008   Data   RW         5652    .data               system_stm32h7xx.o
    0x20000a08   COMPRESSED   0x000000b0   Data   RW         5698    .data               mb_m.o
    0x20000ab8   COMPRESSED   0x00000002   Data   RW         6016    .data               mbfuncother.o
    0x20000aba   COMPRESSED   0x00000002   PAD
    0x20000abc   COMPRESSED   0x00000010   Data   RW         6063    .data               mbrtu_m.o
    0x20000acc   COMPRESSED   0x00000001   Data   RW         6064    .data               mbrtu_m.o
    0x20000acd   COMPRESSED   0x00000001   PAD
    0x20000ace   COMPRESSED   0x00000006   Data   RW         6253    .data               portevent_m.o
    0x20000ad4   COMPRESSED   0x00000002   Data   RW         6435    .data               porttimer_m.o
    0x20000ad6   COMPRESSED   0x00000008   Data   RW         6490    .data               user_mb_app_m.o
    0x20000ade   COMPRESSED   0x00000002   PAD
    0x20000ae0   COMPRESSED   0x00000004   Data   RW         6865    .data               mc_w.l(stdout.o)
    0x20000ae4   COMPRESSED   0x00000004   Data   RW         6875    .data               mc_w.l(errno.o)
    0x20000ae8        -       0x00000028   Zero   RW          312    .bss                public.o
    0x20000b10        -       0x0000054c   Zero   RW          403    .bss                main.o
    0x2000105c        -       0x0000008c   Zero   RW          490    .bss                dac.o
    0x200010e8        -       0x00000178   Zero   RW          574    .bss                spi.o
    0x20001260        -       0x0000017c   Zero   RW          623    .bss                tim.o
    0x200013dc        -       0x00000094   Zero   RW          705    .bss                usart.o
    0x20001470        -       0x0000004c   Zero   RW          975    .bss                acq_sync.o
    0x200014bc        -       0x00000088   Zero   RW         1031    .bss                spi_protocol.o
    0x20001544        -       0x00000020   Zero   RW         6015    .bss                mbfuncother.o
    0x20001564        -       0x000016fd   Zero   RW         6062    .bss                mbrtu_m.o
    0x20002c61   COMPRESSED   0x00000003   PAD
    0x20002c64        -       0x00000094   Zero   RW         6345    .bss                portserial_m.o
    0x20002cf8        -       0x0000004c   Zero   RW         6434    .bss                porttimer_m.o
    0x20002d44        -       0x000019a0   Zero   RW         6489    .bss                user_mb_app_m.o
    0x200046e4   COMPRESSED   0x00000004   PAD
    0x200046e8        -       0x00000800   Zero   RW            1    STACK               startup_stm32h753xx.o



  Load Region LR$$.ARM.__AT_0x30000000 (Base: 0x30000000, Size: 0x00000000, Max: 0x00000010, ABSOLUTE)

    Execution Region ER$$.ARM.__AT_0x30000000 (Exec base: 0x30000000, Load base: 0x30000000, Size: 0x00000010, Max: 0x00000010, ABSOLUTE, UNINIT)

    Exec Addr    Load Addr    Size         Type   Attr      Idx    E Section Name        Object

    0x30000000        -       0x00000010   Zero   RW         1026    .ARM.__AT_0x30000000  spi_protocol.o



  Load Region LR$$.ARM.__AT_0x30000100 (Base: 0x30000100, Size: 0x00000010, Max: 0x00000010, ABSOLUTE)

    Execution Region ER$$.ARM.__AT_0x30000100 (Exec base: 0x30000100, Load base: 0x30000100, Size: 0x00000010, Max: 0x00000010, ABSOLUTE, UNINIT)

    Exec Addr    Load Addr    Size         Type   Attr      Idx    E Section Name        Object

    0x30000100   0x30000100   0x00000010   Data   RW         1027    .ARM.__AT_0x30000100  spi_protocol.o



  Load Region LR$$.ARM.__AT_0x30001000 (Base: 0x30001000, Size: 0x00005400, Max: 0x00005400, ABSOLUTE, COMPRESSED[0x00000104])

    Execution Region ER$$.ARM.__AT_0x30001000 (Exec base: 0x30001000, Load base: 0x30001000, Size: 0x00005400, Max: 0x00005400, ABSOLUTE, UNINIT, COMPRESSED[0x00000104])

    Exec Addr    Load Addr    Size         Type   Attr      Idx    E Section Name        Object

    0x30001000   COMPRESSED   0x00005400   Data   RW         1028    .ARM.__AT_0x30001000  spi_protocol.o



  Load Region LR$$.ARM.__AT_0x30006800 (Base: 0x30006800, Size: 0x00000000, Max: 0x00005400, ABSOLUTE)

    Execution Region ER$$.ARM.__AT_0x30006800 (Exec base: 0x30006800, Load base: 0x30006800, Size: 0x00005400, Max: 0x00005400, ABSOLUTE, UNINIT)

    Exec Addr    Load Addr    Size         Type   Attr      Idx    E Section Name        Object

    0x30006800        -       0x00005400   Zero   RW         1029    .ARM.__AT_0x30006800  spi_protocol.o



  Load Region LR$$.ARM.__AT_0x3000C000 (Base: 0x3000c000, Size: 0x00000000, Max: 0x00005400, ABSOLUTE)

    Execution Region ER$$.ARM.__AT_0x3000C000 (Exec base: 0x3000c000, Load base: 0x3000c000, Size: 0x00005400, Max: 0x00005400, ABSOLUTE, UNINIT)

    Exec Addr    Load Addr    Size         Type   Attr      Idx    E Section Name        Object

    0x3000c000        -       0x00005400   Zero   RW         1030    .ARM.__AT_0x3000C000  spi_protocol.o


==============================================================================

Image component sizes


      Code (inc. data)   RO Data    RW Data    ZI Data      Debug   Object Name

       224         42          0          8         76       2861   acq_sync.o
       548          0          0          0          0    1327030   ads1245.o
       256         32          0          0        140       1855   dac.o
       132         18          0          0          0        661   dac8552.o
        28          6          0          0          0        834   dma.o
       352         22          0          0          0       1227   gpio.o
      1348        150          0         11       1356       6204   main.o
       544         58          0        176          0       7613   mb_m.o
        44          4        512          0          0       1272   mbcrc.o
       380         40          0          8          0       5182   mbcustomfunctioncode.o
       286          0          0          0          0       4180   mbfunccoils_m.o
        98          0          0          0          0       1718   mbfuncdisc_m.o
       338          0          0          0          0       5667   mbfuncholding_m.o
        82          0          0          0          0       1701   mbfuncinput_m.o
        36         10          0          2         32       1379   mbfuncother.o
       758         96          0         17       5885       9229   mbrtu_m.o
        66          0          0          0          0       1881   mbutils.o
       144          6          0          0          0       1650   pid.o
        16          0          0          0          0       6453   port.o
       236        100          0          6          0       6586   portevent_m.o
       540         62          0          0        148       6211   portserial_m.o
       320         58          0          2         76       3978   porttimer_m.o
      1782        198          0          1         40       8306   public.o
       616         44          0          0        376       2249   spi.o
       384        110          0      24036      43160       4570   spi_protocol.o
        36          8        664          0       2048        816   startup_stm32h753xx.o
       232         44          0         12          0      23248   stm32h7xx_hal.o
       388         28          0          0          0      42359   stm32h7xx_hal_cortex.o
       838         28          0          0          0       8601   stm32h7xx_hal_dac.o
        56          0          0          0          0       3961   stm32h7xx_hal_dac_ex.o
      5992        246          8          0          0      12273   stm32h7xx_hal_dma.o
       600         50          0          0          0       3510   stm32h7xx_hal_gpio.o
        28          6          0          0          0        894   stm32h7xx_hal_msp.o
        84          6          0          0          0        769   stm32h7xx_hal_pwr_ex.o
      2466        102          0          0          0       7028   stm32h7xx_hal_rcc.o
      3736        118          0          0          0       7749   stm32h7xx_hal_rcc_ex.o
      3244         58          0          0          0      16601   stm32h7xx_hal_spi.o
      3014        344          0          0          0      19042   stm32h7xx_hal_tim.o
       324         40          0          0          0       2432   stm32h7xx_hal_tim_ex.o
      5080        208         24          0          0      41422   stm32h7xx_hal_uart.o
         6          0          0          0          0       2249   stm32h7xx_hal_uart_ex.o
        84         20          0          0          0       6690   stm32h7xx_it.o
       220         40         16          8          0       1446   system_stm32h7xx.o
      1184        130          0          0        380       6158   tim.o
       380         58          0          4        148       4932   usart.o
       456         40          0          8       6560       4867   user_mb_app_m.o

    ----------------------------------------------------------------------
     38050       2630       1260      24304      60432    1637544   Object Totals
         0          0         32          0          0          0   (incl. Generated)
        44          0          4          5          7          0   (incl. Padding)

    ----------------------------------------------------------------------

      Code (inc. data)   RO Data    RW Data    ZI Data      Debug   Library Member Name

       110         60          0          0          0        580   dunder.o
       616        130         88          0          0        260   exp.o
        48          0          0          0          0        124   fpclassify.o
       572         92         56          0          0        312   log.o
       112          0          0          0          0        116   poly.o
         0          0          8          0          0          0   qnan.o
        94          0          0          0          0          0   __dclz77c.o
         0          0          0          0          0          0   entry.o
         0          0          0          0          0          0   entry10a.o
         0          0          0          0          0          0   entry11a.o
         4          0          0          0          0          0   entry12b.o
         8          4          0          0          0          0   entry2.o
         4          0          0          0          0          0   entry5.o
         0          0          0          0          0          0   entry7b.o
         0          0          0          0          0          0   entry8b.o
         8          4          0          0          0          0   entry9a.o
        12          6          0          4          0         68   errno.o
        30          0          0          0          0          0   handlers.o
        36          8          0          0          0         68   init.o
         0          0          0          0          0          0   iusefp.o
        30          0          0          0          0         68   llshl.o
        32          0          0          0          0         68   llushr.o
        36          0          0          0          0         68   memcpya.o
        36          0          0          0          0        108   memseta.o
        50          8          0          0          0        152   printfb.o
         0          0          0          4          0          0   stdout.o
        98          0          0          0          0         92   uldiv.o

    ----------------------------------------------------------------------
      1946        312        152          8          0       2084   Library Totals
        10          0          0          0          0          0   (incl. Padding)

    ----------------------------------------------------------------------

      Code (inc. data)   RO Data    RW Data    ZI Data      Debug   Library Name

      1458        282        152          0          0       1392   m_wv.l
       478         30          0          8          0        692   mc_w.l

    ----------------------------------------------------------------------
      1946        312        152          8          0       2084   Library Totals

    ----------------------------------------------------------------------

==============================================================================


      Code (inc. data)   RO Data    RW Data    ZI Data      Debug   

     39996       2942       1412      24312      60432    1613652   Grand Totals
     39996       2942       1412       2896      60432    1613652   ELF Image Totals (compressed)
     39996       2942       1412       2896          0          0   ROM Totals

==============================================================================

    Total RO  Size (Code + RO Data)                41408 (  40.44kB)
    Total RW  Size (RW Data + ZI Data)             84744 (  82.76kB)
    Total ROM Size (Code + RO Data + RW Data)      44304 (  43.27kB)

==============================================================================

