:020000040800F2
:1000000008C70024B1020008114A1008B5410008D1
:10001000BD02000881120008D57010080000000021
:10002000000000000000000000000000E75210087F
:100030001114000800000000A1630008595A1008BC
:10004000CB020008CB020008CB020008CB0200085C
:10005000CB020008CB02000869141008ED16000856
:10006000991410081D170008C9141008CB020008C5
:1000700025101008CB020008AD111008CB020008B3
:10008000CB020008CB020008CB020008CB0200081C
:10009000CB020008CB020008CB020008F9141008BC
:1000A000CB020008D16C0008CB020008CB0200088C
:1000B000CB020008AD631008C9631008CB0200082A
:1000C000CB020008CB020008CB0200082551100823
:1000D000CB020008817E0008FD7E0008C570100874
:1000E000A1160008CB02000800000000CB020008A7
:1000F000CB020008CB020008CB020008CB020008AC
:10010000CB020008CB020008CB020008A563000860
:100110003972000849720008096E0008196E00085B
:10012000BD111008CB020008CD111008F91200080B
:10013000CB020008CB020008CB020008CB0200086B
:1001400000000000000000000000000000000000AF
:10015000CB020008CB020008CB0200082D7F00086C
:10016000CB020008CB020008CB020008CB0200083B
:10017000CB020008CB020008CB020008CB0200082B
:10018000CB020008CB0200082D6E10088172000817
:10019000CB020008CB020008CB020008CB0200080B
:1001A000CB020008CB020008CB020008CB020008FB
:1001B000CB020008CB020008CB020008CB020008EB
:1001C000CB020008CB020008CB020008CB020008DB
:1001D000CB020008CB020008CB020008CB020008CB
:1001E000CB020008CB020008CB020008CB020008BB
:1001F000CB020008CB020008CB020008CB020008AB
:10020000CB020008CB020008CB020008CB0200089A
:10021000CB020008CB020008CB020008CB0200088A
:10022000CB020008CB020008CB020008000000004F
:10023000CB020008CB02000800000000CB0200083F
:10024000CB02000851120008CB020008CB020008C4
:10025000CB020008CB020008CB020008CB0200084A
:10026000CB020008CB020008CB020008CB0200083A
:10027000CB020008CB020008CB02000800000000FF
:10028000CB02000800000000CB02000800000000C4
:1002900000000000CB020008DFF810D000F0B6FA32
:1002A0000048004771B30008AFF3008008C700247E
:1002B0000648804706480047FEE7FEE7FEE7FEE700
:1002C000FEE7FEE7FEE7FEE7FEE7FEE7E969000876
:1002D000990200082DE9F05F0546002092469B46F2
:1002E00088460646814640241BE02846414647464C
:1002F0002246FFF0C6FE53465A46C01A914110D31B
:1003000011461846224600F047F82D1A67EB0108FF
:100310004F4622460120002100F03EF817EB00096D
:100320004E41201EA4F10104DFDC484631462A4636
:100330004346BDE8F09F2DE9F0410024061B254609
:1003400071F1000605DA01240027D0EB070067EB06
:100350000101161E73F1000605DA0027D2EB070231
:10036000012567EB0303FFF7B5FF86460E461746E8
:100370009C46AC4204D00025D0EB050E65EB01068F
:1003800024B10020D2EB000760EB030C704631462D
:100390003A466346BDE8F081202A04DB203A00FAA1
:1003A00002F1002070479140C2F1200320FA03F3CC
:1003B000194390407047202A06DBCB17203A41FAB8
:1003C00002F043EAE07306E041FA02F3D040C2F1E2
:1003D00020029140084319467047D2B201E000F86C
:1003E000012B491EFBD270470022F6E710B51346D9
:1003F0000A4604461946FFF7F0FF204610BD30B507
:1004000004460020034600E05B1C934203D2E05CFC
:10041000CD5C401BF8D030BD034611F8012B00F82D
:10042000012B002AF9D1184670473EB5CA17CB0FE9
:10043000002450405140C0186141DA0740F2334374
:100440000094CDE901232246234600F04CF803B086
:1004500030BD70B5C1F30A5201F000450024C1F36C
:10046000130140F2FF3341F480119A4202DA002076
:10047000014670BD40F233439A42A2F2334203DC9C
:100480005242FFF0FEFD01E0FFF786FF2C43F0D063
:100490000023D0EB030063EB010170BD30B50B46C8
:1004A000014600202022012409E021FA02F59D42A4
:1004B00005D303FA02F5491B04FA02F52844151E78
:1004C000A2F10102F1DC30BD10B5141E73F100047D
:1004D00008DA401C41F1000192185B411A4301D136
:1004E00020F0010010BD2DE9F04D92469B4611B160
:1004F000B1FA81F202E0B0FA80F220329046FFF7C2
:100500004BFF04460F4640EA0A0041EA0B015346FE
:100510005A46084313D0114653EA010019D0C8F1D6
:1005200040025046FFF0ADFD05460E465046594686
:100530004246FFF731FF084305D0012004E0204682
:100540003946BDE8F08D0020054346EAE0762C43AD
:1005500037430A986305E40AA0EB08000022FD0A6D
:1005600044EA47540A3002D500200146E9E7010574
:1005700010196941DDE9084500196941BDE8F04DF0
:10058000A2E72DE9FE4F804681EA0300C00F0C462A
:10059000009021F0004123F00045B8EB0200A94192
:1005A00005D24046214690461C460B46024623F0A3
:1005B0000040104347D0270DC7F30A00C3F30A5188
:1005C0000290401A019040286BDAC3F3130040F404
:1005D000801B0098924620B10023D2EB030A63EB04
:1005E0000B0B01985946C0F140025046FFF7D4FE6C
:1005F00006460D4650465946019AFFF7DCFE10EBC1
:1006000008006141002487EA115284EAE7731A4323
:1006100040D0009A62B3019A012A4FEA075215DCD2
:10062000001B61EB02014FF0004202EA0752CDE9E4
:100630000042001C41F5801132462B46FFF753FF64
:1006400003B0BDE8F08F40462146F9E7001B61EB9F
:100650000201001C41F5801300185B412018A2F52F
:10066000001747EB030140EAD570B6196D4111E060
:100670006D084FEA360645EAC0754FEA0752001B7F
:1006800061EB0201001C41F5801149084FEA30007E
:100690000019514132462B4603B0BDE8F04FFFF739
:1006A00013BF0098012240000023D0EB020263EB4D
:1006B000E073009821464FEAE074B8EB000061EB6C
:1006C0000401E9E783F000435BE781F0004158E76C
:1006D0002DE9F04D81EA030404F0004B21F00045C0
:1006E00014464FF0000A23F0004150EA050220D0E2
:1006F00054EA01021DD0C5F30A570246C5F313039D
:10070000C1F31300C1F30A5640F4801543F480137B
:10071000A7EB0608101BD64608F2FD3873EB050060
:1007200002D308F1010801E092185B41B8F1000F13
:1007300003DA00200146BDE8F08D00204FF480115F
:10074000064684460EE0171B73EB050705D3121B04
:1007500063EB050306434CEA010C49084FEA3000FD
:1007600092185B4150EA0107EDD152EA030012D022
:1007700082EA040083EA0501084305D0101BAB415F
:1007800006D20122002306E000224FF0004302E0DF
:100790006FF0010253101AEB06004CEB085110EBFE
:1007A0000A0041EB0B01BDE8F04DFFF78DBE70B5BF
:1007B00021F0004303430CD0C1F30A550024D5EBCC
:1007C000040564EB0403D617AD1AB34102DB002025
:1007D000014670BD201841EB025170BD30B5041EBA
:1007E00071F1000404DB4FF00044404264EB01016E
:1007F000141E73F1000405DB1C464FF00043524207
:1008000063EB0403994208BF904230BD064C074D8C
:1008100006E0E06840F0010394E8070098471034D0
:10082000AC42F6D3FFF73CFD54E7000874E700083C
:1008300010B50021034803F031FA0421014803F008
:100840002DFA10BD4C48002430B58DB01C2106A8EF
:10085000FFF7CAFD364890F8280000F0010010B1FB
:100860000425032401E00925052400BF3148006860
:1008700040F001002F4908600846006800F00100C0
:10088000009000BF00BF00BF2A481030006840F051
:1008900001002849103108600846006800F0010096
:1008A000009000BF00BF244803F0D2F9234822493A
:1008B0000860002048600846C56000210161816031
:1008C0004161816102F1FFF818B1A1211CA000F182
:1008D00073FE0220029003900320049001200590F3
:1008E000C002019001A91E4801F050FB6020069053
:1008F0000020089009904FF480700B9040000C90FD
:1009000000200A9007940C2206A90B4803F0E6F891
:1009100018B1B5210AA000F14FFE002202211920D2
:1009200001F1E8FA192001F090FC0DB030BD000093
:10093000101D0024E0440258CC4700240000014070
:100940002E2E5C2E2E5C557365725C6273705C7328
:1009500072635C6273705F6164373736302E630098
:100960000000025810B500F021F8FFF76DFFFFF00E
:100970002FFE142000F054F8FFF0CCFC002000F112
:10098000F3F82020074908830748806A20F0800098
:1009900080300549886200220B21104605F0D6FD03
:1009A00010BD000000000258101D002400B587B0E3
:1009B00000BF1948006840F0020017490860084667
:1009C000006800F00200019000BF00BF00BF0846B1
:1009D000006840F0020008600846006800F002006D
:1009E000019000BF00BF012003900020049003206D
:1009F0000590C020029002A9084801F0C7FA4FF400
:100A0000007006491831088040200880012000F15C
:100A1000ABF807B000BD0000E044025800040258E3
:100A2000002100E0491C8142FCD370470448006863
:100A3000C06820F4807002490968C86070470000EF
:100A40008C4800240348C06820F001000149C860B8
:100A5000704700000000014010B5044644B1094849
:100A6000806A20F4807000F580700649886207E093
:100A70000448806A20F480700249886200F1AEF870
:100A800010BD0000101D002410B504461248806AF5
:100A900020F00200801C1049886208460088D0B10E
:100AA00008460088401E08800846008898B900F172
:100AB00095F8002008494872084690F82800C0F3CD
:100AC000001010B1FFF0C4FD05E000224FF400510A
:100AD000024801F081FB10BD101D002400100258D7
:100AE0000EB520200090802002906946014801F157
:100AF0001FFF0EBDCC47002410B508F199FB20B9AB
:100B00002148008DC0F3802090B300201BE01F49D6
:100B100011F8201009061D4A32F8202002F47F4205
:100B200001EB0221194A52F8202002F47F0201EB66
:100B30001221164A52F8202001EB1262144B411C7C
:100B400043F82120401CB0F5187FE0DB1148104924
:100B50000860084680684860012003F02DFB09F01A
:100B60003BFB30B94FF41A61094805F081FC03E002
:100B700008E0012009F01EFE0348806A20F480602E
:100B80000149886210BD0000101D00240078103853
:100B900000301038A0A1A2A310B50A48007801289F
:100BA00007D140F2C243084A0849094801F116F842
:100BB00006E040F2C243074A0749054801F10EF832
:100BC00010BD0000A80000241808025800001038CA
:100BD000CC48002408181038100C025810B50248F0
:100BE00000F1E4FD10BD0000CC48002470B50546BE
:100BF0000C4619480078012802D00120FFF0B4FF0C
:100C0000802016490880402008802846FFF0A6FF73
:100C10000A20FFF705FF40201049891C0880782032
:100C2000FFF7FEFE40200D4908806420FFF7F8FE24
:100C30002046FFF093FF0A20FFF7F2FE402007490D
:100C4000891C08807820FFF7EBFE402003490880CC
:100C50006420FFF7E5FE70BDA200002418040258CE
:100C600030B5142025490880254A1346544240F2E5
:100C700053702449088000200FE0234911F8201008
:100C8000802908D0204D411C15F82110802902D15F
:100C90001A49088003E0411CC8B21428EDDB00BFEC
:100CA00016480088132806DD18480078401C1749AC
:100CB0000870002030BD1148018813E0124D481C17
:100CC00015F8200080280BD0481C15F8200040287B
:100CD00006D00E480078401C0C4D28700020E9E733
:100CE000881C81B20548008840F2F645281A8842DF
:100CF000E4DC0020054908700120DBE770000024D7
:100D0000FFFF7F0074000024000000387200002400
:100D100070B5002408203649488336480021016018
:100D2000002000F1E3F800203349086080213248B8
:100D300002680068401C304B186030488154002124
:100D4000184602680068401C18602C488154002234
:100D5000184601680068401C18602848425428481A
:100D600008F058FC012000F1C1F8002000F1BEF8A5
:100D700000202149086080211F4802680068401C4B
:100D80001D4B18601D4881540021184602680068F8
:100D9000401C186019488154184602680068401CBD
:100DA000186016488154164808F034FC012000F100
:100DB0009DF81048007800040E49497840EA012067
:100DC0000C49897840EA010421460EA006F184F915
:100DD0000421194800F1AAFF012801D0012000E0F8
:100DE00000200546294615A006F176F9204670BD7B
:100DF00000100258A07F002478140024906F002473
:100E0000003401400D0A414441343335305F5265AE
:100E1000616453656C656374696F6E3A20726561D5
:100E2000646261636B2076616C7565205B30782548
:100E30003038785D2C2000000008025852656C6143
:100E4000795B2564202D3E2028303A2046425F41C0
:100E50002C20313A2046425F42295D0A0000000002
:100E600070B50446002500260B2C01DD802C01DB2B
:100E70008A2C06DD01220C21002005F067FB0120F1
:100E800070BD914804750B2C03DD04208F49088048
:100E900003E004208D49891E08800B2C79D009DCE1
:100EA0000B2C1DD2DFE804F012283E546A8197AD66
:100EB000C1D7EB00A4F180000B28F2D2DFE800F0EC
:100EC00011273D536A8096ABC0D5E9000D207E49BD
:100ED00008779FED7F0A084680ED080A4FF4026507
:100EE000EBE00220784908779FED7A0A084680ED0A
:100EF000080A4FF40265E0E00F20734908779FED80
:100F0000760A084680ED080A4FF48265D5E0042091
:100F10006D4908779FED710A084680ED080A4FF485
:100F20008265CAE00C20684908779FED6D0A084683
:100F300080ED080A4FF44365BFE00120624908775D
:100F40009FED680A084680ED080A4FF44365B4E057
:100F500011205D4908779FED640A084680ED080A74
:100F60004FF40275A9E00620574908779FED5F0A04
:100F7000084680ED080A4FF402759EE00E205249A3
:100F800008779FED5B0A084680ED080A4FF4C365B9
:100F900093E088E003204C4908779FED560A084605
:100FA00080ED080A4FF4C36587E0132046490877AF
:100FB0009FED510A084680ED080A4FF482757CE0E7
:100FC0000820414908779FED4D0A084680ED080A40
:100FD0004FF4827571E010203B4908779FED480A75
:100FE000084680ED080A4FF4437566E0052036494F
:100FF00008779FED440A084680ED080A4FF44375D0
:101000005BE01520304908779FED3F0A084680EDE8
:10101000080A822551E00A202B4908779FED3B0AF8
:10102000084680ED080A822547E012202649087705
:101030009FED370A084680ED080A4FF4C3753CE07F
:101040000720214908779FED330A084680ED080AFA
:101050004FF4C37531E016201B4908779FED2E0A27
:10106000084680ED080A412527E00B20164908773D
:101070009FED2A0A084680ED080A41251DE014204C
:10108000114908779FED260A084680ED080AC32516
:1010900013E009200C4908779FED220A084680EDED
:1010A000080AC32509E00020074908779FED1E0ABA
:1010B000084680ED080A002500BF00BF2846FFF063
:1010C000BBFD06463046DBE6101D00241A08025818
:1010D00000D0D4459A99714200A07046000009439F
:1010E000338F93459A99274200740B4700009E4323
:1010F0009A1B28463333BF4200B6994700C032449A
:10110000CDDEBF469A195B43003248480080E34475
:1011100033245E47335300440022A14800C03745C2
:101120004DF8F64733838C440000000010B50446A8
:1011300008201B4908830020FFF0D8FE0120FFF0A3
:10114000D5FE0020FFF0D2FE002016490860C4F34F
:101150000741144802680068401C124B186012488E
:101160008154C4F30721184602680068401C1860C7
:101170000D488154184602680068401C18600A48EF
:1011800084540A4808F046FA0120FFF0AFFE082018
:10119000034948830883012007F18AFD10BD000040
:1011A0000010025878140024906F0024003401408D
:1011B00010B52DED028BB0EE408B1E48C06B0028A1
:1011C0002BDD1C48C06B1B49096C884225DC194883
:1011D000006C162821D8174A126C164BDB6BD21AFA
:1011E000521C6423B3FBF2F1BCEEC80B10EE102AC4
:1011F00092B292FBF1F290B20E4A126C0D4BDB6B85
:10120000D21A824203DC0B4A92F83C4004E0094ABD
:1012100092F84020121AD4B200E001240649085D79
:10122000FFF71EFE18B90020BDEC028B10BD012097
:10123000FAE700003C1D002404E3000810B502207A
:1012400005F000FA01200149087010BD8B1C002434
:1012500010B5022007490870074800F1A7FA0748AF
:10126000006800F0020018B102200449091D08605E
:1012700010BD000069000024882700240054025893
:1012800000BFFEE710B519480068006920F00100B2
:101290001649096808611648008820F001001449C1
:1012A0000880032301220821022001F191FE03237B
:1012B00001220C21002001F18BFE05F0E5F800F081
:1012C0004DF90221084600F181F80821012000F1C2
:1012D0007DF804F147F8012007F1EAFC02F12EF94C
:1012E00005F028F800200349087010BDD826002416
:1012F000000401407200002410B50249886F00F01C
:1013000053FB10BDB445002410B502680179E9B162
:1013100008291BD80E4B9A420CD80D4B8C3B9A4295
:1013200008D34B1E0B4C04EB8303C366094B4033BD
:10133000036707E04B1E084C04EB8303C366064BB0
:10134000403303674B1E01249C40446710BD0000DE
:10135000945402580059025800090240F0B5846DB7
:10136000D0E919657560C56E15B1D0E91C65756069
:10137000244E0568B54205D3234E0568B54201D811
:10138000012500E00025CDB190F85C603F25B54017
:10139000A56005682D6825F4802506683560056818
:1013A0006B608568402D04D10568AA600568E96016
:1013B00026E00568A9600568EA6021E0134E05682B
:1013C000B5421DD3114E8C360568B54218D80F4D65
:1013D0002D1F2D6890F85C700126BE4035430B4EE2
:1013E000361F356005686B608568402D04D105683F
:1013F000AA600568E96003E00568A9600568EA601D
:10140000F0BD000010000240B80402400854025829
:10141000704700003EB500249FED460A464880ED27
:10142000000A032301220221002001F1D1FD032340
:1014300001220821022001F1CBFD032301220C210E
:10144000002001F1C5FD032301220621022001F144
:10145000BFFD032301220921022001F1B9FD03236D
:1014600000220A21022001F1B3FD0020009001902A
:10147000034602460A210290022001F1D7FE03230F
:1014800001221946082001F1A3FD2C48406940F4CF
:1014900080502A4948612A48006840F480702849F1
:1014A00008600846006840F04000086000F04EF90F
:1014B000032301221946082001F18AFD0820214951
:1014C000486100F04BF804F0DFFF02210846FFF00E
:1014D0007DFF0021322005F117F94FF47A7141F2B6
:1014E000883005F05DFC1848008840F0010016497E
:1014F0000880012007F1D0FB08210120FFF066FFE2
:101500001148008840F001000F49088000200F4971
:10151000086003F127FF0C48008840F001000A49E9
:10152000088002F10BF80A480A4908600A49086075
:101530003EBD0000AE47F634000000240000025813
:1015400014080258002002580008004014040258F1
:1015500000040140502500241025002410B50E4839
:10156000006840F400700C490860642007F1A0FB9B
:101570000948006820F4007007490860642007F1FA
:1015800097FB0548006840F4007003490860642038
:1015900007F18EFB10BD00001408025810B5344846
:1015A0000078012845D100BF0023324C236000BFE2
:1015B00000BF00BF00BFBFF34F8F00BF00BF00BF21
:1015C000231F1868C0F34E3100BFC0F3C90200BF2B
:1015D00043F6E07303EA41134FF0404404EA827497
:1015E0002343254C236000BF00BF131EA2F101025C
:1015F000EED10B1EA1F10101E7D100BF00BF00BF7A
:10160000BFF34F8F00BF00BF00BF00BF00BF00BFD0
:10161000BFF36F8F00BF00BF00BF00BF40F2F643B3
:10162000164A1749174800F1D9FA002010490870E6
:101630001CE00F480078022818D11348008813498D
:101640000988884209DAFFF70BFB30B107F1ACFAE1
:101650000D480088401C0C4908800D48007802287D
:1016600001DBFFF70FFE01200149087010BD0000EB
:101670006900002484ED00E074EF00E00000003811
:1016800010040258882700247800002476000024E3
:1016900072000024002080F3108800BF7047000013
:1016A0000D484069C0430C49486101200B4908803E
:1016B00000200B4908800A491031086008150949C3
:1016C000086009484FF0B041C1F880000248406905
:1016D000C04301494861704700200258000401409E
:1016E00000040040880000580000C0FF10B5094801
:1016F000006800F0020058B1022006490860064860
:10170000406828B1044948688047022001490860C0
:1017100010BD0000880000587045002410B509482D
:10172000006800F0080058B1082006490860064823
:10173000C06828B10449C86880470820014908608A
:1017400010BD0000880000587045002400B58DB021
:101750001C2101A8FEF748FE00BF00BF2B4800680F
:1017600040F00100294908600846006800F00100C7
:10177000009000BF00BF00BF00BF00BF2348103073
:10178000006840F0010021491031086008460068F7
:1017900000F00100009000BF00BF00BF1C481D49C1
:1017A00008600020486000211A4881600521C1605E
:1017B000802181610021416101F185F94FF40060D0
:1017C00008900220099001200A9003200B9001202C
:1017D0000C9008A9104800F0D9FB6020019003206C
:1017E0000290002003900C2201A90A4802F076F929
:1017F00008480068008840F0010006490968088030
:101800000C21044802F04AFA0DB000BDE044025831
:1018100000000140902500240000025810B56FF030
:1018200001000D49086000210C4801F167F948B139
:1018300040F2BE312F2003F01BF940F2BF3108A067
:10184000FFF0BAFE02F154F92F2803D10021084617
:1018500003F00EF910BD00001004004044490024BC
:101860002E2E5C2E2E5C557365725C6273705C620A
:1018700073705F7369676E616C5F68616E646C65DD
:101880002E63000010B50021044801F195F920B144
:1018900040F2D33102A0FFF08FFE10BD4449002476
:1018A0002E2E5C2E2E5C557365725C6273705C62CA
:1018B00073705F7369676E616C5F68616E646C659D
:1018C0002E63000070B5054619210E48FEF78CFD09
:1018D000002412E0285D7E280ED1601C285C72284E
:1018E0000AD1A01C285CAA2806D12919192205486A
:1018F000FEF086FB012070BD641C142CEADB002086
:10190000F9E700008C93002430B5CC1000F12003DF
:1019100053F824304C07E50E0F24AC40A343CD1000
:1019200000F1200444F82530CC1000F1200353F8D6
:1019300024304C07E40E02FA04F42343CD1000F1E6
:10194000200444F8253030BD30B502460B464FF038
:10195000FF30002108E0545C84EA1064044D55F81F
:10196000244084EA0020491C9942F4D330BD000091
:10197000BCD90008034B18681B1D19681B1D1A6889
:101980007047000000E8F11F014691F8350048B1AA
:10199000C86E38B1C86E006840F48030CA6E1060FE
:1019A000002070470120FCE72DE9F843044600279A
:1019B000002500200090FE4800684FF41651B0FB4F
:1019C000F1F8A66D3768FB492068884205D3FA49CB
:1019D0002068884201D8012000E0002000287BD048
:1019E00094F85C1008208840384000B3F149206822
:1019F000884208D3F0492068884204D820680068EB
:101A000000F0040003E02068006800F0080070B1F6
:101A10002068006820F004002168086094F85C10D9
:101A200008208840B060606D40F00100606594F867
:101A30005C10E24888403840C8B1DE4920688842DE
:101A400008D3DD492068884204D82068406900F046
:101A5000800002E020680068002040B194F85C102B
:101A6000D6488840B060606D40F00200606594F830
:101A70005C10D248C01C88403840D0B1CD492068A5
:101A8000884208D3CC492068884204D8206800687E
:101A900000F0020002E020680068002048B194F8DD
:101AA0005C10C648C01C8840B060606D40F0040007
:101AB000606594F85C1010208840384030B3BD4910
:101AC0002068884209D3BC492068884205D820682C
:101AD000006800F0080004E0EFE02068006800F013
:101AE000040098B194F85C1010208840B060206821
:101AF000006800F4802080B12068006800F40020B5
:101B000028B9206C10B12046216C884715E0A06CE4
:101B100098B12046A16C88470FE02068006800F467
:101B2000807028B92068006820F0080021680860EB
:101B3000206C10B12046216C884794F85C1020205E
:101B400088403840002873D09A492068884208D3DA
:101B500099492068884204D82068006800F0100085
:101B600003E02068006800F00200002860D094F8CC
:101B70005C1020208840B06094F83500042829D1FA
:101B80002068006820F0160021680860206840691D
:101B900020F0800021684861206C08B9A06C28B151
:101BA0002068006820F008002168086094F85C1044
:101BB0003F208840B06000BF002084F8340000BFA0
:101BC000012084F83500206D10B12046216D884732
:101BD000BDE8F8832068006800F4802080B12068A8
:101BE000006800F4002028B9606C10B12046616CD8
:101BF00088471DE0E06BD8B12046E16B884717E0CD
:101C00002068006800F4807068B92068006820F0DF
:101C100010002168086000BF002084F8340000BF75
:101C2000012084F83500E06B10B12046E16B884755
:101C3000606D002840D0606D00F0010090B304207A
:101C400084F835005B49206888420AD35A492068E5
:101C5000884206D82068006820F0010021680860EA
:101C600005E02068006820F001002168086000BFDE
:101C70000098401C0090404500D905E020680068AD
:101C800000F001000028F3D100BF00BF002084F85D
:101C9000340000BF2068006800F0010018B1032084
:101CA00084F8350002E0012084F83500E06C00285B
:101CB00002D02046E16C884797E04149206888427D
:101CC00006D33F498C312068884201D8012000E0CA
:101CD0000020002853D0256839480838006894F857
:101CE0005C20042191400840E0B1286800F0040025
:101CF000C0B1286800F0200018B9286820F004005E
:101D000028602F48001F006894F85C20042191404F
:101D100008432B49091F0860206C80B32046216CC2
:101D2000884762E026480838006894F85C20022161
:101D30009140084020B3286800F0020000B32868F2
:101D400000F0200058B9286820F00A00286000BF81
:101D5000002084F8340000BF012084F835001848C2
:101D6000001F006894F85C20022191400843144948
:101D7000091F0860E06B10B12046E16B884734E032
:101D80000F480838006894F85C200821914008400A
:101D900058B3286800F0080038B3286820F00E0017
:101DA00028600748001F006894F85C20012109E0C2
:101DB0009C16002410000240B8040240010080007C
:101DC00008540258914008430949086001206065A1
:101DD00000BF002084F8340000BF012084F83500E3
:101DE000E06C10B12046E16C884700BFF0E60000CF
:101DF000045402580348006840F00100014908609B
:101E00007047000020040058F0B50C460025002261
:101E1000002300219DE0012606FA01F504EA0502EF
:101E2000AA427DD106684FEA410C032707FA0CF756
:101E30003E430660CF0800F1200656F827604F07A2
:101E40004FEAD76C0F2707FA0CF7BE434FEAD10CC5
:101E500000F1200747F82C6086684FEA410C032701
:101E600007FA0CF7BE438660476801268E40B743E9
:101E70004760C6684FEA410C032707FA0CF7BE43D8
:101E8000C660364E8F0856F827308E07370F0F265C
:101E9000BE403340324EB04201D100262DE0314EDB
:101EA000B04201D1012628E02F4EB04201D10226D6
:101EB00023E02E4EB04201D103261EE02C4EB0424C
:101EC00001D1042619E02B4EB04201D1052614E0C1
:101ED000294EB04201D106260FE0284EB04201D172
:101EE00007260AE0264EB04201D1082605E0254E1D
:101EF000B04201D1092600E00A268F073F0FBE40FD
:101F00009E4225D18E07370F0F2606FA07F3134E90
:101F10008F0856F827609E43104F4FEA910C00E05F
:101F200016E047F82C60184E366896434FF0B047DD
:101F3000C7F880603E46D6F884609643C7F8846050
:101F40003E46366896433E603E46766896437E60DF
:101F5000491C1029FFF45FAFF0BD000008040058D1
:101F6000000002580004025800080258000C0258F1
:101F7000001002580014025800180258001C0258A1
:101F8000002002580024025880000058F8B502468C
:101F90000B460021002600240020824D00BFFCE0FB
:101FA000012707FA01F61F6807EA0604B4427CD14C
:101FB0005F68022F02D05F68122F1AD14FEAD10C4E
:101FC00002F1200757F82C004F074FEAD76C0F2774
:101FD00007FA0CF7B8434FEA417C4FEADC6C1F6903
:101FE00007FA0CF738434FEAD10C02F1200747F803
:101FF0002C0010684FEA410C032707FA0CF7B8438E
:102000001F7907F003074FEA410C07FA0CF7384332
:1020100010605F68012F08D05F68022F05D05F68ED
:10202000112F02D05F68122F17D190684FEA410C30
:10203000032707FA0CF7B8434FEA410CDF6807FAA9
:102040000CF738439060506801278F40B8431F79E0
:10205000C7F300178F4038435060D0684FEA410CF7
:10206000032707FA0CF7B8434FEA410C9F6807FAB9
:102070000CF73843D0605F6807F08057B7F1805F96
:1020800095D100BF484F3F6847F00207DFF818C1FD
:10209000CCF8007067463F6807F00207009700BF62
:1020A00000BF424F4FEA910C00E075E057F82C005A
:1020B0008F074FEA177C0F2707FA0CF7B8433C4FFE
:1020C000BA4201D100272DE03A4FBA4201D101278F
:1020D00028E0394FBA4201D1022723E0374FBA42F4
:1020E00001D103271EE0364FBA4201D1042719E07F
:1020F000344FBA4201D1052714E0334FBA4201D11F
:1021000006270FE0314FBA4201D107270AE0304FCE
:10211000BA4201D1082705E02E4FBA4201D1092762
:1021200000E00A274FEA817C4FEA1C7C07FA0CF793
:1021300038431E4F4FEA910C47F82C002868A04303
:102140005F6807F48037B7F5803F00D120432860EF
:102150006868A0435F6807F40037B7F5003F00D117
:10216000204368604FF0B0473868A0435F6807F4C9
:102170008017B7F5801F00D120434FF0B04738607B
:102180007868A0435F6807F40017B7F5001F00D117
:1021900020434FF0B0477860491C1029FFF400AF8E
:1021A000F8BD000080000058F444025808040058AC
:1021B000000002580004025800080258000C02589F
:1021C000001002580014025800180258001C02584F
:1021D00000200258002402580AB1018300E0418324
:1021E0007047000003480068034909780844014922
:1021F00008607047901600249816002410B503203C
:10220000FFF0B6FE0F20FFF09FFD08B1012010BDCA
:1022100000F01AF80020FAE708B5094A016891426F
:102220000DD100BF0749096841F40071054A1160EA
:102230001146096801F40071009100BF00BF08BD9C
:1022400000240058F444025870470146084600280C
:102250000DDB00BF00BF00F01F0301229A404309BD
:102260009B0003F1E023C3F8002100BF00BF00BFC3
:102270007047000000BF00BF00BF00BF00BFBFF33A
:102280004F8F00BF00BF00BF0948006800F4E06046
:1022900008490843001D0649086000BF00BF00BF91
:1022A000BFF34F8F00BF00BF00BF00BF00BFFDE7FF
:1022B0000CED00E00000FA0510B500F071FA0949D4
:1022C000096801F470614FF4807292FAA2F2B2FAD6
:1022D00082F2D140044A515CC84004490860084673
:1022E000006810BD18440258C2C710089C1600248C
:1022F00010B5FFF083FF0749096801F07001102253
:1023000092FAA2F2B2FA82F2D140034A515CC8407A
:1023100010BD000020440258C2C7100870B5014625
:1023200000220120002300249FED811AB0EE410A13
:102330009FED7F1AF0EE410A7E4D2D6805F00302F5
:102340007C4D2D68C5F305307A4D2D1D2D6805F0A7
:102350001003784D14352D68C5F3CC0515FB03F536
:1023600001EE105AB8EE411AB0EE410A22B1012A2C
:102370004DD0022A7DD169E06E4D283D2D68C5F310
:1023800040152DB36B4D283D2D68C5F3C1066A4D30
:1023900025FA06F4B4FBF0F501EE105AF8EE411AF6
:1023A0009FED661A80EE012A624D10352D68C5F347
:1023B000080501EE105AB8EE411A32EE011AB7EED6
:1023C000002A31EE021A21EE811AF0EE410A1DE0D8
:1023D000594DB5FBF0F501EE105AF8EE411A9FED9C
:1023E000571A80EE012A534D10352D68C5F30805A4
:1023F00001EE105AB8EE411A32EE011AB7EE002A79
:1024000031EE021A21EE811AF0EE410A5EE04C4DE7
:10241000B5FBF0F501EE105AB8EE412A9FED471AD0
:10242000C0EE011A434D10352D68C5F3080501EEC5
:10243000105AB8EE411A31EE811AF7EE001A31EE59
:10244000211A22EE011AF0EE410A3FE03D4DB5FBA4
:10245000F0F501EE105AF8EE411A9FED381A80EEB1
:10246000012A344D10352D68C5F3080501EE105AC8
:1024700000E00CE0B8EE411A32EE011AB7EE002A85
:1024800031EE021A21EE811AF0EE410A1EE02C4DC7
:10249000B5FBF0F501EE105AB8EE412A9FED271A70
:1024A000C0EE011A234D10352D68C5F3080501EE65
:1024B000105AB8EE411A31EE811AF7EE001A31EED9
:1024C000211A22EE011AF0EE410A00BF00BF194D99
:1024D00010352D68C5F346256D1C01EE105AB8EE77
:1024E000411AC0EE811ABCEEE11A81ED001A114DBD
:1024F00010352D68C5F306456D1C01EE105AB8EE77
:10250000411AC0EE811ABCEEE11A81ED011A094DA3
:1025100010352D68C5F306656D1C01EE105AB8EE36
:10252000411AC0EE811ABCEEE11A81ED021A70BDAB
:1025300000000000284402580090D003000000462C
:1025400000093D0040787D0170B501460022012060
:10255000002300249FED811AB0EE410A9FED7F1AFF
:10256000F0EE410A7E4D2D6805F003027C4D2D688A
:10257000C5F305507A4D2D1D2D6805F48073784DF7
:102580001C352D68C5F3CC0515FB03F501EE105A7B
:10259000B8EE411AB0EE410A22B1012A4DD0022A0A
:1025A0007DD169E06E4D283D2D68C5F340152DB3F2
:1025B0006B4D283D2D68C5F3C1066A4D25FA06F41A
:1025C000B4FBF0F501EE105AF8EE411A9FED661AD1
:1025D00080EE012A624D18352D68C5F3080501EE1D
:1025E000105AB8EE411A32EE011AB7EE002A31EE57
:1025F000021A21EE811AF0EE410A1DE0594DB5FB99
:10260000F0F501EE105AF8EE411A9FED571A80EEE0
:10261000012A534D18352D68C5F3080501EE105AEF
:10262000B8EE411A32EE011AB7EE002A31EE021A64
:1026300021EE811AF0EE410A5EE04C4DB5FBF0F55B
:1026400001EE105AB8EE412A9FED471AC0EE011A6A
:10265000434D18352D68C5F3080501EE105AB8EE44
:10266000411A31EE811AF7EE001A31EE211A22EEEC
:10267000011AF0EE410A3FE03D4DB5FBF0F501EEE9
:10268000105AF8EE411A9FED381A80EE012A344DA7
:1026900018352D68C5F3080501EE105A00E00CE06E
:1026A000B8EE411A32EE011AB7EE002A31EE021AE4
:1026B00021EE811AF0EE410A1EE02C4DB5FBF0F53B
:1026C00001EE105AB8EE412A9FED271AC0EE011A0A
:1026D000234D18352D68C5F3080501EE105AB8EEE4
:1026E000411A31EE811AF7EE001A31EE211A22EE6C
:1026F000011AF0EE410A00BF00BF194D18352D68D0
:10270000C5F346256D1C01EE105AB8EE411AC0EE15
:10271000811ABCEEE11A81ED001A114D18352D68B1
:10272000C5F306456D1C01EE105AB8EE411AC0EE15
:10273000811ABCEEE11A81ED011A094D18352D6898
:10274000C5F306656D1C01EE105AB8EE411AC0EED5
:10275000811ABCEEE11A81ED021A70BD0000000082
:10276000284402580090D0030000004600093D00B4
:1027700040787D0110B5FFF041FD0749096801F07F
:102780007001102292FAA2F2B2FA82F2D140034A08
:10279000515CC84010BD00001C440258C2C710085C
:1027A00070B5012500EE905A00220121002300247B
:1027B000DFED861AB0EE610ADFED841AB0EE611A21
:1027C0000020834D2D6805F0380535B1082D15D052
:1027D000102D15D0182D7CD114E07D4D103D2D68A5
:1027E000C5F3401545B17A4D103D2D68C5F3C106BE
:1027F000784D25FA06F000E07648E5E07648E3E01B
:102800007648E1E0724D18352D6805F00302704DF1
:1028100018352D68C5F305116D4D1C352D6805F073
:1028200001036B4D24352D68C5F3CC0515FB03F56D
:1028300001EE905AF8EE611AB0EE610A22B1012A57
:102840004FD0022A7DD16BE0614D103D2D68C5F35C
:1028500040152DB35E4D103D2D68C5F3C1065D4D8D
:1028600025FA06F4B4FBF1F501EE905AB8EE612AB0
:10287000DFED5B1AC0EE212A554D20352D68C5F3DA
:10288000080501EE905AF8EE611A72EEA11AF7EE01
:10289000002A71EEA21A62EE211AB0EE611A1FE050
:1028A0004C4DB5FBF1F501EE905AB8EE612ADFED23
:1028B0004C1AC0EE212A464D20352D68C5F3080577
:1028C00001EE905AF8EE611A72EEA11AF7EE002AA4
:1028D00000E077E071EEA21A62EE211AB0EE611A02
:1028E0005EE03D4DB5FBF1F501EE905AB8EE612A80
:1028F000DFED3B1AC0EE212A354D20352D68C5F39A
:10290000080501EE905AF8EE611A72EEA11AF7EE80
:10291000002A71EEA21A62EE211AB0EE611A3FE0AF
:102920002E4DB5FBF1F501EE905AB8EE612ADFEDC0
:102930002C1AC0EE212A264D20352D68C5F3080536
:1029400000E00EE001EE905AF8EE611A72EEA11A64
:10295000F7EE002A71EEA21A62EE211AB0EE611AA9
:102960001EE01D4DB5FBF1F501EE905AF8EE612A1F
:10297000DFED1B1A80EE212A154D20352D68C5F399
:10298000080501EE905AF8EE611A72EE211AB7EEC0
:10299000002A71EE821A62EEA11AB0EE611A00BF2F
:1029A00000BF0B4D20352D68C5F346256D1C00EE8C
:1029B000905AF8EE601A81EE212AFCEEC21A11EE4E
:1029C000900A01E0044800BF00BF70BD0000000095
:1029D000104402580090D00300093D0040787D016A
:1029E0000000004670B504460025207800F0010084
:1029F000002872D0F948006800F0380010280CD088
:102A0000F648006800F03800182812D1F348183052
:102A1000006800F0030002280BD1F048103800686D
:102A2000C0F3404000286DD0606800286AD10120C2
:102A300070BD00BF6068B0F5803F08D1E74810382E
:102A4000006840F48030E549103908602EE0606885
:102A500068B9E2481038006820F48030DF49103946
:102A600008600846006820F4802008601EE0606866
:102A7000B0F5A02F0DD1D9481038006840F480205F
:102A8000D649103908600846006840F48030086074
:102A90000CE0D2481038006820F48030CF4910395B
:102AA00008600846006820F48020086000BF606865
:102AB000A0B1FFF043F9054608E0FFF03FF9401BE5
:102AC00041F28831884201D90320B1E7C348103868
:102AD0000068C0F340400028EFD013E0FFF02EF96B
:102AE000054608E0FFF02AF9401B41F28831884290
:102AF00001D903209CE7B94810380068C0F3404072
:102B00000028EFD1207800F00200022847D1B34816
:102B1000006800F0380058B1B048006800F0380094
:102B200018283ED1AD481830006800F00300B8BB4B
:102B3000AA4810380068C0F3800018B1E06808B9EE
:102B4000012075E7A5481038006820F01900E168F9
:102B50000843A24910390860FFF0F0F8054606E086
:102B6000FFF0ECF8401B022801D9032060E79B48E6
:102B700010380068C0F380000028F1D097480C3866
:102B8000006820F47C304FF47C3292FAA2F2B2FA60
:102B900082F221699140084390490C3908604AE06B
:102BA000FFE7E06868B38D481038006820F019002E
:102BB000E1680843894910390860FFF0BFF805460D
:102BC00006E0FFF0BBF8401B022801D903202FE7E5
:102BD000824810380068C0F380000028F1D07F4898
:102BE0000C38006820F47C304FF47C3292FAA2F268
:102BF000B2FA82F221699140084378490C390860A1
:102C000019E076481038006820F001007349103947
:102C10000860FFF093F8054606E0FFF08FF8401BD0
:102C2000022801D9032003E76C4810380068C0F37C
:102C300080000028F1D1207800F01000102877D112
:102C40006648006800F0380008280CD06348006827
:102C500000F03800182823D160481830006800F0D0
:102C6000030001281CD15D4810380068C0F3002023
:102C700020B1E069802801D00120D9E657480C38FE
:102C8000006820F0F8404FF0F84292FAA2F2B2FA4F
:102C900082F2216A9140084350490C39086047E0AC
:102CA000E06958B34D481038006840F080004B4947
:102CB00010390860FFF042F8054606E0FFF03EF8E4
:102CC000401B022801D90320B2E6444810380068AE
:102CD000C0F300200028F1D040480C38006820F0F4
:102CE000F8404FF0F84292FAA2F2B2FA82F2216A68
:102CF0009140084339490C39086019E037481038C9
:102D0000006820F08000354910390860FFF016F89F
:102D1000054606E0FFF012F8401B022801D9032007
:102D200086E62E4810380068C0F300200028F1D154
:102D3000207800F00800082836D16069D0B1274813
:102D40006430006840F00100244964310860FEF0FE
:102D5000F5FF054606E0FEF0F1FF401B022801D911
:102D6000032065E61D4864300068C0F34000002879
:102D7000F1D019E019486430006820F001001749CB
:102D800064310860FEF0DAFF054606E0FEF0D6FF8B
:102D9000401B022801D903204AE61048643000682D
:102DA000C0F340000028F1D1207800F02000202856
:102DB00034D1A069D8B109481038006840F4805077
:102DC000064910390860FEF0B9FF054608E0FEF03C
:102DD000B5FF401B022803D9032029E610440258FE
:102DE000AF480068C0F340300028F0D016E0AC488F
:102DF000006820F48050AA490860FEF09FFF054655
:102E000006E0FEF09BFF401B022801D903200FE6DD
:102E1000A3480068C0F340300028F2D1207800F0C9
:102E2000040004287DD19F48006840F480709D49CB
:102E30000860FEF083FF054606E0FEF07FFF401BC2
:102E4000642801D90320F3E59648006800F48070F7
:102E50000028F2D000BFA068012808D19048703047
:102E6000006840F001008E49703108602DE0A068D4
:102E700068B98B487030006820F0010088497031D3
:102E800008600846006820F0040008601DE0A068A3
:102E900005280DD182487030006840F00400804958
:102EA000703108600846006840F0010008600CE0DE
:102EB0007B487030006820F001007949703108606B
:102EC0000846006820F00400086000BFA068A0B1B8
:102ED000FEF034FF054608E0FEF030FF401B41F2F3
:102EE0008831884201D90320A2E56D48703000681E
:102EF000C0F340000028EFD013E0FEF01FFF0546AE
:102F000008E0FEF01BFF401B41F28831884201D9E6
:102F100003208DE5624870300068C0F3400000284F
:102F2000EFD1606A00287CD05D481030006800F066
:102F30003800182876D0606A022874D15848006892
:102F400020F0807056490860FEF0F8FE054606E065
:102F5000FEF0F4FE401B022801D9032068E550482A
:102F60000068C0F340600028F2D100BFD4E90A1025
:102F700041EA00104A492831096840F2F33291438E
:102F80000843474928310860208E401EC0F30800DE
:102F9000616B491E4FF47E4202EA41210843218FB2
:102FA000491ED20102EA014108433C21095D491E44
:102FB000120202EA0161084339493031086000BF5A
:102FC000081D00684FF6F87188434FF6F87292FAC0
:102FD000A2F2B2FA82F2A16C914008433049343136
:102FE00008602F482C30006820F00C00216C08434A
:102FF0002B492C3108600846006820F00200616C03
:10300000084327492C3108600846006840F48030A6
:1030100008600846006840F4003008600846006810
:1030200002E03BE038E01FE040F480200860084602
:10303000006840F0010008601948006840F08070A6
:1030400017490860FEF07AFE054606E0FEF076FEBF
:10305000401B022801D90320EAE411480068C0F3AC
:1030600040600028F2D019E00D48006820F0807020
:103070000B490860FEF062FE054606E0FEF05EFECB
:10308000401B022801D90320D2E405480068C0F3A0
:1030900040600028F2D101E00120C9E40020C7E42B
:1030A000004402580048025870B504460025002626
:1030B0000CB9012070BD606A00B900BFA06AB0F50C
:1030C000800F00D100BF8E49206888420CD08D4906
:1030D0002068884208D08C492068884204D0E06883
:1030E0000F2801D90120E5E7204603F094F90646B0
:1030F00083492068884209D082492068884205D0E7
:1031000081492068884201D0082E0DD87C4920686A
:10311000884207D07B492068884203D07A492068DA
:10312000884203D1102E01D90120C3E7A06AB0F56F
:10313000800F1DD17249206888420DD071492068E6
:10314000884209D070492068884205D0206BB0F5CC
:10315000702F01D90120ADE7206B10B9A0890504BB
:1031600000E0256BE068B0EB154F01D90120A1E725
:1031700094F8810028B9002084F88000204600F0EF
:10318000FDF8022084F881002068006820F001002A
:1031900021680860A069B0F1806F0BD16068B0F55C
:1031A000800F07D1A06B28B92068006840F48050D8
:1031B00021680860A16AE06908432843E16B08437D
:1031C000E168084321688860616A606B0843A16B0D
:1031D0000843A16908432169084361690843216ADA
:1031E000084361680843E16C0843A1680843A16C87
:1031F0000843A16D08432168C860A06AB0F5800F3C
:103200004DD1206C012806D12068006840F40040B0
:103210002168086005E02068006820F4004021680B
:103220000860606C012806D12068006840F4804086
:103230002168086005E02068006820F4804021686B
:1032400008602F49206888420AD02E4920688842A9
:1032500006D02D492068884202D0B5F5702F0ED0D7
:1032600027492068884207D026492068884203D031
:1032700025492068884209D1B5F5F81F06D1206894
:10328000006840F400502168086005E0206800688C
:1032900020F40050216808602168E06A08646068D2
:1032A00088B9A06A38B92068806820F4C05040F41A
:1032B0000060216888602068806820F4C06040F465
:1032C0008060216888602068006D20F0010021681E
:1032D0000865606800F48000B0F5800F07D12068B1
:1032E000C06820F00040616D08432168C86000207C
:1032F000C4F88400012084F881000020DAE6000090
:103300000030014000380040003C004010B5044649
:1033100015492068884225D11448006840F480503F
:10332000124908600846006820F480500860202197
:103330000F48FEF769FD40210D48FEF765FD80212D
:103340000B48FEF761FD0B48FEF0ACFA0A48FEF0B0
:10335000A9FA3B20FEF0ACFD3A20FEF0A9FD2320A7
:10336000FEF773FF10BD0000003001409844025882
:1033700000000258003C0024783C002410B586B0C0
:1033800004466049206888427ED100BF5E480068DC
:1033900040F001005C4908600846006800F0010048
:1033A000009000BF00BF00BF57481030006840F4D5
:1033B00080505549103108600846006800F480507C
:1033C000009000BF00BF00BF4F480838006840F0C1
:1033D00002004D49083908600846006800F0020004
:1033E000009000BF00BF20200190022002900390B7
:1033F00004900520059001A94448FEF7C7FD402030
:1034000001900520059001A94048FEF7BFFD8020EE
:1034100001900520059001A93C48FEF7B7FD10205A
:10342000019002200290012003900520059001A93F
:103430003648FEF7ABFD364836490860002135486E
:103440004162032181624FF40001C162891001636E
:1034500026203049486040212E4881600021C1600B
:103460004FF480610161002141618161C1610162AC
:10347000FEF0ACFA00BF2748A067846300BF244871
:1034800018382549086000E039E0002122484162EF
:10349000032181624FF40001C1628910016325207C
:1034A0001D49486000211C488160C1604FF4806163
:1034B0000161002141618161C1614FF4003101620C
:1034C000FEF084FA00BF1448E067846300BF012265
:1034D00011463B20FEF00EFD3B20FEF7B6FE00221B
:1034E00001213A20FEF006FD3A20FEF7AEFE002252
:1034F00001212320FEF0FEFC2320FEF7A6FE06B0ED
:1035000010BD000000300140E044025800000258A5
:1035100058040240003C0024783C00242DE9F0418E
:1035200004460E461546002700BF94F88000012887
:1035300002D10220BDE8F081012084F8800000BFA4
:1035400094F88100012807D0022700BF002084F8EA
:10355000800000BF3846EDE706B13DB9012700BF46
:10356000002084F8800000BF3846E3E703205C3485
:1035700084F825000020A0622660A580E580A06078
:10358000A0616061A081E0815C3CA068B0F5C02FC3
:1035900005D12068006840F4006021680860E06898
:1035A0000F2804D9E06F8069B0F5804F0CD1E06836
:1035B000072811D9E06F8069B0F5005F0CD0E06F8B
:1035C0008069B0F5804F07D0012700BF002084F844
:1035D000800000BF3846ADE7E068072816D8A06F26
:1035E0008069B0F5005F05D1B4F86200401C400866
:1035F000A4F86200A06F8069B0F5804F14D1B4F8D0
:103600006200C01C8008A4F862000DE0E0680F288A
:103610000AD8A06F8069B0F5804F05D1B4F8620078
:10362000401C4008A4F862002848A16F086428489C
:10363000A16FC8632748A16FC8640020A16F086507
:103640002068806820F4004021688860B4F8623007
:10365000D4F800C00CF12002E16DA06FFEF0BEFABC
:10366000A06FC069B0F5807F06D1206840686FF315
:103670000F002168486006E0206840686FF30F0083
:103680002843216848602068806840F40040216831
:1036900088602068006940F44870216808612068EB
:1036A000006840F00100216808606068B0F5800F94
:1036B00005D12068006840F400702168086000BFF0
:1036C000002084F8800000BF384633E70964000812
:1036D000B9521008895210080121014A117070472F
:1036E000D01C00247047042808D14FF0E02109695C
:1036F00041F004014FF0E022116107E04FF0E021BA
:10370000096921F004014FF0E02211617047704710
:1037100010B50346002200BF93F83C00012801D1F8
:10372000022010BD012083F83C0000BF22F0FF0002
:10373000CC6840EA040222F440708C6840EA04023B
:1037400022F480604C6840EA040222F400600C68B5
:1037500040EA040222F480500C6940EA040222F498
:1037600000504C6940EA040222F480408C6A40EA2E
:10377000040222F470200C8B40EA04420F4C1868BB
:10378000A04203D00E4C1868A0420ED122F4700063
:103790008C8C40EA045222F08070CC6940EA04022A
:1037A00022F000700C6A40EA04021868426400BF0C
:1037B000002083F83C0000BF00BFB2E700000140DA
:1037C0000004014010B504460CB9012010BD94F866
:1037D0003D0028B9002084F83C00204600F036F86F
:1037E000022084F83D00211D206802F1DDFF012048
:1037F00084F83D000020E9E7114A0168914206D1B2
:103800001049096821F001010E4A116016E00168B3
:10381000B1F1804F08D10B490839096821F0010145
:10382000084A083A116009E0074A0168914205D147
:103830000449096821F00201024A11607047000042
:1038400000000140F04402580004014008B51C4A41
:10385000016891420DD100BF1A49096841F0010188
:10386000184A11601146096801F00101009100BF7A
:1038700025E00168B1F1804F0FD100BF114908392F
:10388000096841F001010F4A083A116011460968C0
:1038900001F00101009100BF11E00B4A0168914263
:1038A0000DD100BF0749096841F00201054A1160C6
:1038B0001146096801F00201009100BF00BF08BD78
:1038C00000000140F044025800040140014602207B
:1038D00081F83D000868008840F001000A68108007
:1038E000012081F83D000020704701460868C0684B
:1038F00020F001000A68D06000BF0868006A41F249
:103900001112104050B90868006A9210104028B98E
:103910000868008820F001000A68108000BF0020BD
:103920007047704710B5044620680069C0F3400036
:10393000D8B12068C068C0F34000B0B16FF0020099
:1039400021680861012020772068806900F0030069
:1039500018B12046FFF7E5FF05E02046FFF0B2F87A
:10396000204600F099F90020207720680069C0F314
:103970008000D8B12068C068C0F38000B0B16FF09B
:10398000040021680861022020772068806900F423
:10399000407018B12046FFF7C4FF05E02046FFF055
:1039A00091F8204600F078F900202077206800691F
:1039B000C0F3C000D8B12068C068C0F3C000B0B187
:1039C0006FF0080021680861042020772068C06932
:1039D00000F0030018B12046FFF7A3FF05E02046E2
:1039E000FFF070F8204600F057F90020207720689B
:1039F0000069C0F30010D8B12068C068C0F300109F
:103A0000B0B16FF0100021680861082020772068AD
:103A1000C06900F4407018B12046FFF782FF05E04E
:103A20002046FFF04FF8204600F036F900202077BE
:103A30002068006900F0010058B12068C06800F0FB
:103A4000010030B16FF0010021680861204600F0EC
:103A5000B3F920680069C0F3C01058B12068C0688D
:103A6000C0F3C01030B16FF08000216808612046BB
:103A7000FFF74DFE20680069C0F3002058B12068B0
:103A8000C068C0F3C01030B16FF0800021680861D9
:103A90002046FFF73CFE20680069C0F3801058B153
:103AA0002068C068C0F3801030B16FF0400021681A
:103AB00008612046FFF023F920680069C0F3401038
:103AC00058B12068C068C0F3401030B16FF02000DA
:103AD000216808612046FEF029FF10BD70B504463C
:103AE0000D46164600BF94F83C00012801D1022083
:103AF00070BD012084F83C0000BF022084F83D0026
:103B00000C2E51D005DC4EB1042E1ED0082E7AD1D9
:103B100033E0102E60D0142EF9D175E029462068CC
:103B200003F08CF92068806940F008002168886102
:103B30002068806920F0040021688861206880691D
:103B4000296908432168886177E02946206803F0E5
:103B5000CDF92068806940F40060216888612068A0
:103B6000806920F480602168886120688069296903
:103B700040EA0120216888615FE02946206802F15F
:103B80008DFF2068C06940F008002168C861206886
:103B9000C06920F004002168C8612068C0692969F3
:103BA00008432168C86148E02946206802F1D0FF37
:103BB0002068C06940F400602168C8612068C0695D
:103BC00020F480602168C8612068C069296940EAE2
:103BD00001202168C86130E02946206802F1F4FF25
:103BE0002068406D40F00800216848652068406DFD
:103BF00020F00400216848652068406D2969084369
:103C00002168486519E017E02946206803F0CCF9DF
:103C10002068406D40F40060216848652068406D70
:103C200020F48060216848652068406D296940EA79
:103C300001202168486500E000BF00BF012084F832
:103C40003D0000BF002084F83C0000BF00BF4FE7EC
:103C500010B50446022084F83D0000BF2068006AC9
:103C600041F21111084050B92068006A89100840DB
:103C700028B92068008820F001002168088000BF72
:103C8000204600F008F8002084F83D0000BF84F8CA
:103C90003C0000BF10BD70477047000030B50446BF
:103CA0000D4601222946206802F1E4FD12492068F0
:103CB00088420FD01149206888420BD010492068F3
:103CC000884207D00F492068884203D00E492068F7
:103CD000884201D1012000E0002028B12068406C1A
:103CE00040F40040216848642068008840F00100EA
:103CF00021680880002030BD000001400004014020
:103D000000400140004401400048014030B50446F5
:103D10000D4600222946206802F1ACFD21492068A9
:103D200088420FD02049206888420BD01F49206864
:103D3000884207D01E492068884203D01D49206868
:103D4000884201D1012000E0002090B100BF20682E
:103D5000006A41F21111084050B92068006A8910C8
:103D6000084028B92068406C20F40040216848646D
:103D700000BF00BF2068006A41F21111084050B92D
:103D80002068006A8910084028B92068008820F05F
:103D900001002168088000BF012084F83D00002058
:103DA00030BD00000000014000040140004001401F
:103DB000004401400048014010B5044602488442D6
:103DC00001D108F029FE10BDA08F00247047704774
:103DD00010B504460CB9012010BDA06900B100E087
:103DE00000BF94F8790028B9002084F878002046B4
:103DF00000F02AF8242084F879002068006820F078
:103E0000010021680860204603F0B8FA012800D1BB
:103E1000E2E7606B10B1204603F110F820684068BB
:103E200020F49040216848602068806820F02A00D3
:103E3000216888602068006840F0010021680860FF
:103E4000204603F170F8C7E710B586B004462B4949
:103E50002068884250D100BF00BF2948006840F068
:103E60001000274908600846006800F01000009024
:103E700000BF00BF00BF00BF00BF2148103800686E
:103E800040F001001E49103908600846006800F043
:103E90000100009000BF00BF00BF00BF00BF084688
:103EA000006840F0010008600846006800F001006A
:103EB000009000BF00BF00BF4FF4007001900220CF
:103EC000029001200390022004900720059001A990
:103ED0000C48FEF75BF84FF48060019007200590D6
:103EE00001A90848FEF752F82520FEF7AEF9032293
:103EF00011462520FDF0FEFF06B010BD0010014068
:103F0000F04402580000025810B5034693F87A00B6
:103F1000202867D101B10AB9012010BD00BF93F874
:103F20007800012801D10220F7E7012083F878000A
:103F300000BF5966A3F86820A3F86A2000BF9868FC
:103F4000B0F5805F0AD1186920B940F2FF10A3F8DC
:103F50006C001CE0FF20A3F86C0018E0986848B9DA
:103F6000186918B9FF20A3F86C0010E07F20A3F8AF
:103F70006C000CE09868B0F1805F08D1186918B93E
:103F80007F20A3F86C0002E03F20A3F86C0000BF84
:103F90000020D867222083F87A0000BF002083F831
:103FA000780000BF1868806840F001001C68A060BD
:103FB0001868006800F0005060B11868006840F4AC
:103FC00080701C6820601868806840F080501C6811
:103FD000A06005E01868006840F490701C682060DC
:103FE00000209AE7022098E770B5044608251E498C
:103FF0002068884200D100251C492068884200D1F1
:1040000001251B492068884200D1022519492068F2
:10401000884200D1032518492068884200D1042530
:1040200016492068884200D1052515492068884234
:1040300000D1062513492068884200D10725082DA4
:1040400011DA114850F8250068B1104A505D0E4A47
:1040500052F8251088470D4A51190D4A02EBC51038
:104060000122FFF751FF70BD0010014000440040E5
:1040700000480040004C0040005000400014014047
:1040800000780040007C0040504500248D00002452
:10409000F03C002470B504460E46154694F87900AD
:1040A00020283CD106B10DB9012070BD00BF94F8A5
:1040B0007800012801D10220F7E7012084F8780078
:1040C00000BFE665A4F86050A4F862500020E067E5
:1040D000212084F879001348216FC8631248216FAA
:1040E00008641248216FC8640020216F08652368A6
:1040F00003F128022B46E16D206FFDF06FFD40209B
:104100002168086200BF002084F8780000BF2068A2
:10411000806840F08000216888600020C5E70220A8
:10412000C3E70000A9720008F76F10089B6F100822
:1041300010B5034693F87900202830D101B10AB9AF
:10414000012010BD00BF93F87800012801D10220A2
:10415000F7E7012083F8780000BF43F85C1F9A80DE
:10416000DA8000201862212058775C3B00BF0020D5
:1041700083F8780000BF1868006800F0005030B184
:104180001868806840F400001C68A06005E01868AA
:10419000006840F080001C6820600020D1E7022009
:1041A000CFE710B50446204601F0B8FF204603F0E3
:1041B000F9FD10BD00BFFEE710B5044602F02EFF6A
:1041C0009FED871B20EE010BBDEEC00B10EE100A19
:1041D000000C8549887002F021FF9FED811B20EEC5
:1041E000010BBDEEC00B10EE100A000A7E49C8702C
:1041F00002F014FF9FED7A1B20EE010BBDEEC00B09
:1042000010EE100A784908712C2008722B20C87112
:104210002A2088713C2008733B20C8723A2088729B
:104220004C2008744B20C8734A2088735D200875A1
:104230005C20C8745B2088745A20487408468078D3
:1042400088750846C078C875084600790876002C3D
:1042500060D1084600790006C97800EB0140624948
:10426000897800EB012020F0FF016048C0F81813A6
:104270005D48007A00065C49C97900EB01405A4963
:10428000897900EB012020F0FF015848C0F81C1389
:104290005548007B00065449C97A00EB0140524959
:1042A000897A00EB012020F0FF015048C0F820136C
:1042B0004D48007C00064C49C97B00EB01404A494F
:1042C000897B00EB012020F0FF014848C0F824134F
:1042D0004548007D00064449C97C00EB0140424945
:1042E000897C00EB01204049497C01443F48C0F8EB
:1042F00028133D48007E00063B49C97D00EB014084
:104300003949897D00EB012020F0FF013748C0F8D2
:104310002C1363E03448007900063349C97800EB78
:1043200001403149897800EB012020F0FF0030493D
:10433000C1F884092C48007A00062B49C97900EBA2
:1043400001402949897900EB012020F0FF0028492C
:10435000C1F888092448007B00062349C97A00EB8C
:1043600001402149897A00EB012020F0FF0020491B
:10437000C1F88C091C48007C00061B49C97B00EB76
:1043800001401949897B00EB012020F0FF0018490A
:10439000C1F890091448007D00061349C97C00EB60
:1043A00001401149897C00EB01200F49497C0844F8
:1043B0000F49C1F894090C48007E00060A49C97DDE
:1043C00000EB01400849897D00EB012020F0FF004F
:1043D0000749C1F898090748C1F89C0910BD0000B9
:1043E0000000000000408F40A04900240028103841
:1043F00000301038FCFDFEFF30B5ADF6542D0546FB
:1044000040F654216846FBF7EFFF40F65422294658
:10441000684607F0C7FB15A002F15EFE00241AE013
:104420001DF804101CA002F157FE601C182190FB1F
:10443000F1F201FB120010B91AA002F14DFE601C4E
:10444000F02190FBF1F201FB120010B915A002F16E
:1044500043FE601C84B240F654208442E0DB12A08C
:1044600002F13AFE0DF6542D30BD00004D42426B74
:10447000675369676E616C44656275673A2073695A
:10448000676E616C206461746120696E20466C61A6
:1044900073683A0D0A0000003078253032582C201D
:1044A000000000000D0A00000D0A0D0A00000000C7
:1044B0002DE9F047ADF6582D044688464FF0000927
:1044C000A078617800EB01201FFA80FA2079E1786A
:1044D00000EB012085B2A079617900EB012086B262
:1044E00021782A461AA002F1F7FD28126070A57003
:1044F0003012E0702671BAF1000F24D10B2D22DAB0
:10450000F02E20DC40F6542101A8FBF76DFF40F6A9
:1045100054221D4901A807F045FB00270BE0C5EB1D
:104520000510022101EB0010384401A9095C781D37
:104530002154781C87B2B742F1DB701DA8F8000047
:104540004FF0010900BF48460DF6582DBDE8F08731
:104550000D0A4D42426B675369676E616C45787016
:104560006F72742E2E2E0A66697273745F6279748C
:10457000655B307825785D2C206672616D655F6EB5
:10458000756D5B25645D0A00005420002DE9F04143
:1045900004460F464FF00008A078617800EB012038
:1045A0004E4948812079E17800EB01204B49888110
:1045B0000846428921784AA002F18EFD4748408989
:1045C00040BB46488089F02823D1A079617900EB6F
:1045D000012042494880E0790006217A00EB014041
:1045E000617A00EB0120A17A08443C494860207BB5
:1045F000E17A00EB012039490881002507E005F147
:104600000B00215C35480E304155681C85B2EA2DFF
:10461000F5DB5CE0314840890A283CD12F4880898D
:10462000F02837D12D48008980BB00250FE0681D98
:10463000215C2A484089401EC0EB0010EA2202EBB0
:104640000010421925480E308154681C85B2F02DA7
:10465000EDDB40F64A2121480E30FDF775F906469C
:104660001E484388314642682B4802F135FD1B48FD
:104670004068B0420ED1294800F052F838B101200C
:10468000164908708046002006F1AEFF02E00020C7
:10469000124908701BE0114840890A2817DC0F48AE
:1046A0008089F02813D100250FE0681D215C0B489C
:1046B0004089401EC0EB0010EA2202EB00104219B4
:1046C00006480E308154681C85B2F02DEDDB84F86D
:1046D0000580062038804046BDE8F0810010043097
:1046E0000D0A4D42426B675369676E616C496D708C
:1046F0006F72742E2E2E0A66697273745F627974FB
:10470000655B307825785D2C206672616D655F6E23
:10471000756D5B25645D0A00A8E610080054200052
:10472000F0B5ADF6542D064640F654216846FBF729
:104730005BFE00240127A5222146641C0DF8012000
:104740002146641C0DF801202648408802122146AB
:10475000641C0DF80120234882782146641C0DF862
:1047600001204068020E2146641C0DF801201D48FE
:104770004068C0F307422146641C0DF80120194827
:104780008088C0F307222146641C0DF801201548DB
:1047900002792146641C0DF80120002509E011482A
:1047A0000E30425D2046611C8CB20DF80020681C62
:1047B00085B240F64A208542F1DB5A222046611C30
:1047C0008CB20DF800202046611C8CB20DF8002040
:1047D00022463146684606F125FE074638460DF664
:1047E000542DF0BD001004302DE9F04707460D466A
:1047F0004FF001080026002400BF34440126344451
:1048000000BF3444022634440126344408FA04F03C
:10481000384068B1A889698900EB01491948814588
:1048200005D8484601F06CFC174880ED030A00BF2C
:104830000226A01984B208FA04F0384050B1288A40
:10484000E98900EB0149484601F05AFC0E4880ED29
:10485000040A00BF0226A01984B208FA04F0384006
:1048600068B1A88A698A00EB0149484601F048FC12
:10487000054880ED050A012006F1B6FE00BFBDE83F
:10488000F087000020A10700182300240248C06917
:10489000401C0149C8617047882100242DE9F05F60
:1048A00006460F4615464FF001094FF00008002458
:1048B000A24600BF444409FA04F0384008B12888F1
:1048C00030604FF0010804EB080084B209FA04F0EC
:1048D000384008B1688870604FF0010804EB0800A8
:1048E00084B209FA04F0384008B1A888B0604FF0EB
:1048F000010804EB080084B209FA04F0384008B15A
:10490000E888F0604FF0010804EB080084B209FA6F
:1049100004F0384008B1288930614FF0010804EBF9
:10492000080084B209FA04F03840B0B1002011E068
:10493000411D35F811100A0A06F1140101F8102082
:10494000411D15F811304100491C06F11402535461
:10495000411C88B20428EBDB00BF4FF0040804EBD5
:10496000080084B209FA04F03840B8B1002012E01F
:1049700000F1090135F811100B0A4100083106F168
:104980001402535400F1090115F8113041000931A6
:104990005354411C88B20428EADB00BF4FF00408DE
:1049A00004EB080084B209FA04F03840B8B10020E2
:1049B00012E000F10D0135F811100B0A4100103121
:1049C00006F11402535400F10D0115F811304100A5
:1049D00011315354411C88B20428EADB00BF4FF068
:1049E000040804EB080084B209FA04F03840B8B1B6
:1049F000002012E000F1110135F811100B0A4100FE
:104A0000183106F11402535400F1110115F8113058
:104A1000410019315354411C88B20428EADB00BF1D
:104A20004FF0040804EB080084B24FF0010804EBD7
:104A3000080084B209FA04F0384080B1E88DA98DED
:104A400000EB014BBBF1000F08D0BBF1004F05D2CA
:104A5000584601F055FB86ED0E0AC24600BFBAF17A
:104A6000000F02D1002006F1BFFDBDE8F09F00005D
:104A7000014A9082D182704788210024DFED040A28
:104A800060EE200AFDEEE00A10EE900A704700008A
:104A900000007A441F4A92ED030A1F4A82ED000A81
:104AA00091ED001B1D4A92ED0E0AB7EEC00A21EEF1
:104AB000000BB7EEC00B184A82ED010A91ED020B14
:104AC000174A92ED0E1AB7EEC11A20EE010BB7EE9F
:104AD000C00B114A82ED020A91ED041B114A92EDBE
:104AE0000E0AB7EEC00A21EE000BB7EEC00B0A4A61
:104AF00082ED030A91ED061B0B4A92ED0E0AB7EE0A
:104B0000C00A21EE000BB7EEC00B034A82ED040A87
:104B100070470000C8210024D822002488200024E7
:104B2000C820002408210024482100242DE9F04F4A
:104B30002DED028B83B006460F4614464FF0010858
:104B40004FF00009002500BF4D4408FA05F1386810
:104B5000084008B1208830604FF0010905EB0900DA
:104B600085B208FA05F13868084008B160887060BD
:104B70004FF0010905EB090085B208FA05F1386824
:104B8000084008B1A088B0604FF0010905EB0900AA
:104B900085B208FA05F13868084008B1E088F0608D
:104BA0004FF0010905EB090085B208FA05F13868F4
:104BB000084008B1208930614FF0010905EB090078
:104BC00085B208FA05F13868084008B1608970615B
:104BD0004FF0010905EB090085B208FA05F13868C4
:104BE000084008B1A089B0614FF0010905EB090048
:104BF00085B208FA05F13868084008B1E089F0612B
:104C00004FF0010905EB090085B208FA05F1386893
:104C10000840E8B1228A13044FF0000C628A1CEBB2
:104C20000C0A5A41A38A4FEA0C4C4CEA134C1B0461
:104C30001AEB030A42EB0C03E28A1AEB020043F17F
:104C40000001CDE90001DDE90023C6E9082300BF2A
:104C50004FF0040905EB090085B208FA05F1386840
:104C60000840E8B1228B4FEA024C0023628B13EB21
:104C7000030A4CEB020CA28B1B0443EA12431204FE
:104C80001AEB020A4CEB0303E28B1AEB020043F12E
:104C90000001CDE90001DDE90023C6E90A2300BFD8
:104CA0004FF0040905EB090085B208FA05F13868F0
:104CB000084048B1608C218C00EB014A504601F05D
:104CC0001FFA86ED0C0A00BF4FF0020905EB090040
:104CD00085B208FA05F13868084048B1E08CA18C2B
:104CE00000EB014A504601F00BFA86ED0D0A00BFB9
:104CF0004FF0020905EB090085B208FA05F13868A2
:104D0000084048B1608D218D00EB014A504601F00A
:104D1000F7F986ED0E0A00BF4FF0020905EB090016
:104D200085B208FA05F13868084048B1E08DA18DD8
:104D300000EB014A504601F0E3F986ED0F0A00BF8F
:104D40004FF0020905EB090085B208FA05F1386851
:104D5000084048B1608E218E00EB014A504601F0B8
:104D6000CFF986ED100A00BF4FF0020905EB0900EC
:104D700085B208FA05F13868084048B1E08EA18E86
:104D800000EB014A504601F0BBF986ED110A00BF65
:104D90004FF0020905EB090085B208FA05F1386801
:104DA000084048B1608F218F00EB014A504601F066
:104DB000A7F986ED120A00BF4FF0020905EB0900C2
:104DC00085B208FA05F13868084048B1E08FA18F34
:104DD00000EB014A504601F093F986ED130A00BF3B
:104DE0004FF00009002500BF4D4408FA05F178682E
:104DF000084058B1B4F84200B4F8401000EB014A42
:104E0000504601F07DF986ED140A00BF4FF002090B
:104E100005EB090085B208FA05F17868084058B139
:104E2000B4F84600B4F8441000EB014A504601F0D3
:104E300067F986ED150A00BF4FF0020905EB09007E
:104E400085B208FA05F17868084058B1B4F84A000C
:104E5000B4F8481000EB014A504601F051F986EDD4
:104E6000160A00BF4FF0020905EB090085B208FAE7
:104E700005F17868084058B1B4F84E00B4F84C1009
:104E800000EB014A504601F03BF986ED170A00BFDE
:104E90004FF0020905EB090085B208FA05F17868C0
:104EA000084058B1B4F85200B4F8501000EB014A71
:104EB000504601F025F986ED180A00BF4FF00209AF
:104EC00005EB090085B208FA05F17868084058B189
:104ED000B4F85600B4F8541000EB014A504601F003
:104EE0000FF986ED190A00BF4FF0020905EB090022
:104EF00085B208FA05F17868084058B1B4F85A004C
:104F0000B4F8581000EB014A504601F0F9F886ED6C
:104F10001A0A00BF4FF0020905EB090085B208FA32
:104F200005F17868084058B1B4F85E00B4F85C1038
:104F300000EB014A504601F0E3F886ED1B0A00BF82
:104F40004FF0020905EB090085B208FA05F178680F
:104F5000084058B1B4F86200B4F8601000EB014AA0
:104F6000504601F0CDF886ED1C0A00BF4FF0020953
:104F700005EB090085B208FA05F17868084058B1D8
:104F8000B4F86600B4F8641000EB014A504601F032
:104F9000B7F886ED1D0A00BF4FF0020905EB0900C6
:104FA00085B208FA05F17868084020B334F8680F34
:104FB000010400226088931841EB0002A0880021C0
:104FC000090441EA104100041B185141E088683C83
:104FD00013EB000A41F1000B50465946FBF725FA46
:104FE00041EC100B9FED331B80EE012BB0EE428B9A
:104FF00086ED1E8B00BF4FF0040905EB090085B25A
:1050000008FA05F17868084020B334F8700F0104FD
:1050100000226088931841EB0002A1880020000460
:1050200040EA114009045B185041E188703C13EBE1
:10503000010A40F1000B50465946FBF7F6F941ECE6
:10504000100B9FED1E1B80EE012BB0EE428B86ED08
:10505000208B00BF4FF0040905EB090085B208FA68
:1050600005F17868084058B1B4F87A00B4F87810BF
:1050700000EB014A504601F043F886ED230A00BFD9
:105080004FF0020905EB090085B208FA05F17868CE
:10509000084038B1B4F87C00012803DCB4F87C0087
:1050A000A6F89000002006F19FFA03B0BDEC028B39
:1050B000BDE8F08F0000901EC4BCD6420000000086
:1050C0000088C3400FB49DED0A0BBCEEC00B10EE80
:1050D000100A1C49A1F888000846B0F888001A494F
:1050E000A1F856009DED180BBCEEC00B10EE100A97
:1050F0001649A1F888000846B0F888101248A0F8B0
:1051000058109DED260BBCEEC00B10EE100A104996
:10511000A1F888000846B0F888100B48A0F85A108B
:105120009DED340BBCEEC00B10EE100A0949A1F83E
:1051300088000846B0F888100348A0F85C1004B056
:1051400070470000A81D00243C1D0024401E0024C0
:10515000D81E0024701F002470B504460E4600259A
:10516000E56825B106F1C001284600F025FF256A53
:1051700025B106F500712846FEF08AFAD4E9091037
:105180000144E06A0D1835B106F5107204F12401EE
:105190003648FFF7CBFCD4E90C100144A06B0D1886
:1051A00035B106F5407204F130013148FFF7BEFC1D
:1051B000D4E90F100144606C0D1835B106F570721A
:1051C00004F13C012B48FFF7B1FCA56C25B106F5B5
:1051D0009061284600F092F8E56C2DB106F59862D2
:1051E00029462548FFF75AFB256D2DB106F5A0622B
:1051F00029462248FFF752FB656D2DB106F5A862DE
:1052000029461F48FFF74AFBA56D2DB106F5B06290
:1052100029461C48FFF742FBAC200059D4F8A810DF
:105220000144B02000590D1835B106F5286204F18B
:10523000A8011548FFF77AFCD4F8B4502DB106F553
:10524000346229461148FFF729FBD4F8BC5025B138
:1052500006F53C612846FFF7C7FAD4F8D45025B1CB
:1052600006F554612846FFF025FA70BDA81D0024FC
:10527000401E0024D81E002448200024882000243A
:10528000C820002408210024701F00244821002485
:105290002DE9F041C0B007460C461546A046002651
:1052A0004FF480716846FBF79FF81EE0A019C21703
:1052B00000EBD26252115DF822204146CB1701EB80
:1052C000D3635B11A1EB431C012303FA0CF31A43D4
:1052D000A019C31700EBD3635B114DF8232008F12D
:1052E0000108681E85B2701C86B2002DDEDC3946CE
:1052F0006846FEF064FC40B0BDE8F0812DE9F0475F
:1053000006460D464FF0010800270024A24600BFC4
:105310003C4408FA04F0304010B12888A5490860E0
:105320000127E01984B208FA04F0304010B168880F
:10533000A04948600127E01984B208FA04F030401F
:1053400010B1A8889B4988600127E01984B208FA47
:1053500004F0304068B12889E98800EB014996489B
:10536000814505D8484600F0CBFE924880ED030AFF
:1053700000BF0227E01984B208FA04F03040D8B127
:10538000A889698900EB01498A48806801280CD105
:105390000A21B9FBF1F089490968814202D08749A5
:1053A000086001E04FF0010A00BF484600F0A8FE87
:1053B000804880ED040A00BF0227E01984B208FA91
:1053C00004F03040E0B1288AE98900EB01497948CE
:1053D000406801280DD14FF47A71B9FBF1F078499A
:1053E0000968814202D07649086001E04FF0010A65
:1053F00000BF484600F084FE6E4880ED050A00BFFD
:105400000227E01984B208FA04F0304010B1688A2B
:10541000684988610127E01984B208FA04F0304035
:1054200050B1E88AA98A00EB0149484600F068FEBD
:10543000604880ED070A00BF0227E01984B208FA2D
:1054400004F0304050B1688B298B00EB014948468D
:1054500000F056FE574880ED080A00BF0227E01909
:1054600084B208FA04F0304050B1E88BA98B00EB0D
:105470000149484600F044FE4E4880ED090A00BF4D
:105480000227E01984B208FA04F03040C8B1688CF1
:10549000298C00EB014000EE100AB8EEC01ADFEDD7
:1054A000491A81EE212AF0EE420AF5EEC00AF1EE29
:1054B00010FA03DB3F48C0ED0A0A01E04FF0010A91
:1054C00000BF0227E01984B208FA04F0304098B116
:1054D000E98CAA8C01EB024041F2883188420AD85B
:1054E00000EE900AF8EEE00AB2EE041A80EE810AAD
:1054F000304981ED0B0A00BF0227E01984B208FA97
:1055000004F0304050B1288D172807D2288D294942
:105510000886098E2C4A505CFBF7A2FC0127E01993
:1055200084B208FA04F0304050B1A88D698D00EBC8
:105530000149484600F0E4FD1E4880ED0D0A00BF19
:105540000227E01984B208FA04F0304050B1288EE6
:10555000E98D00EB0149484600F0D2FD154880ED89
:105560000E0A00BF0227E01984B208FA04F03040A6
:1055700050B1688E0F4988870846808F47F6FF71C3
:10558000884201D106F094FA0127E01984B200BFE5
:10559000E01984B208FA04F0304010B1E88E0549F1
:1055A000C887BAF1000F02D1002006F11DF8BDE84E
:1055B000F08700000820002420A10700801C0024A0
:1055C000841C002400007A4404E3000870B54FF402
:1055D00080715E4C24880D46491C20F815405B4CB8
:1055E000A4880D46491C20F81540584C24890D46C6
:1055F000491C20F81540554CA4890D46491C20F83B
:105600001540524C248A0D46491C20F815404F4C39
:10561000A48A0D46491C20F815404C4C248B0D469D
:10562000491C20F81540494CA48BA6B20C464D1CD1
:10563000A9B220F81460454C248CA6B20C464D1C2F
:10564000A9B220F81460414CA48CA6B20C464D1CA3
:10565000A9B220F814603D4C248DA6B20C464D1C16
:10566000A9B220F81460394CA48FA6B20C464D1C88
:10567000A9B220F81460354CB4F84040A6B20C46EC
:105680004D1CA9B220F81460304CB4F84440A6B2C6
:105690000C464D1CA9B220F814602C4CB4F84840BC
:1056A000A6B20C464D1CA9B220F81460274C94ED0C
:1056B000130ADFED270A20EE200ABDEEC00A10EE25
:1056C000102A4FF6FF7404EA12460C464D1CA9B28C
:1056D00020F814600C464D1CA9B220F814201B4C75
:1056E000E46A14B14AF6AA2401E04FF6FF74234697
:1056F0000C464D1CA9B220F81430144C248EA6B2CE
:105700000C464D1CA9B220F81460104C626B4FF689
:10571000FF7404EA12460C464D1CA9B220F814602E
:105720000C464D1CA9B220F81420084CA26B4FF671
:10573000FF7404EA12460C464D1CA9B220F814600E
:105740000C464D1CA9B220F8142070BD3C1D00244D
:1057500000007A44024680200830801C7047000018
:105760002DE9F05F83460D46BBF1000F09D0BBF178
:10577000010F0AD0BBF1020F0BD0BBF1030F10D108
:105780000BE04FF49074BA4E0BE04FF4C074B94E76
:1057900007E04FF4F074B84E03E04FF4A864B74E3E
:1057A00000BF00BF26B9B6A001F196FCBDE8F09F8E
:1057B000308882B22046611C8CB225F81020B08857
:1057C00082B22046611C8CB225F81020308982B24A
:1057D0002046611C8CB225F81020B08982B2204688
:1057E000611C8CB225F81020308A82B22046611CE0
:1057F0008CB225F81020B08A82B22146601C84B297
:1058000025F81120308B82B22046611C8CB225F81D
:105810001020B08B82B22046611C8CB225F810207B
:10582000D6E908784FEA18422046611C8CB225F868
:1058300010204FF6FF7008EA000082B22046611C7B
:105840008CB225F81020380C40EA084082B220467D
:10585000611C8CB225F810202146601C84B225F80A
:105860001170D6E90A784FEA18422046611C8CB2C2
:1058700025F810204FF6FF7008EA000082B220469B
:10588000611C8CB225F81020380C40EA084082B226
:105890002046611C8CB225F810202046611C8CB279
:1058A00025F81070D6ED0C0AB0EE600AFFF7E6F8A6
:1058B00081464FF6FF7000EA19422146601C84B20F
:1058C00025F811202046611C8CB225F81090D6EDE9
:1058D0000D0AB0EE600AFFF7D1F881464FF6FF706F
:1058E00000EA19422046611C8CB225F8102020469F
:1058F000611C8CB225F810904FF0000A1CE006F1F4
:10590000380000EB8A00D0ED000AB0EE600AFFF725
:10591000B5F881464FF6FF7000EA19422146601C37
:1059200084B225F811202046611C8CB225F8109015
:105930000AF101001FFA80FABAF1080FDFDB4FF01D
:10594000000A1CE006F1580000EB8A00D0ED000AC6
:10595000B0EE600AFFF792F881464FF6FF7000EA5A
:1059600019422146601C84B225F811202046611C92
:105970008CB225F810900AF101001FFA80FABAF1F2
:10598000080FDFDB96ED1E1B9FED4B2B21EE021B5C
:10599000B0EE410B51EC100BFAF75BFD0746884661
:1059A0004FEA18422046611C8CB225F810204FF6B1
:1059B000FF7008EA000082B22046611C8CB225F814
:1059C0001020380C40EA084082B22046611C8CB29C
:1059D00025F810202046611C8CB225F8107096ED39
:1059E000201B9FED372B21EE021BB0EE410B51EC3B
:1059F000100BFAF72EFD074688464FEA184220465C
:105A0000611C8CB225F810204FF6FF7008EA0000E8
:105A100082B22046611C8CB225F81020380C40EA76
:105A2000084082B22046611C8CB225F81020204626
:105A3000611C8CB225F81070D6ED230AB0EE600A16
:105A4000FFF71CF881464FF6FF7101EA1942204624
:105A5000611C8CB225F810202046611C8CB225F800
:105A60001090B6F8900025F8140000BF9EE60000E4
:105A7000A81D0024401E0024D81E0024701F0024EE
:105A80000D0A4D42526561644761734C696E653A17
:105A900020464154414C206572726F7220616E64E1
:105AA0002072657475726E2061626E6F726D616CCA
:105AB0002E2E2E0A000000000000901EC4BCD6420C
:105AC000000000000088C34030B54FF4D4620021CC
:105AD00007E000251346541CA2B220F813504B1CBB
:105AE00099B21329F5DB044BDD8C1346541CA2B28A
:105AF00020F8135030BD0000101D002470B504467E
:105B00004FF488655548D0ED000AB0EE600AFEF704
:105B1000B5FF06464FF6FF7000EA164229466D1C97
:105B200024F8112029466D1C24F811604B48D0ED53
:105B3000010AB0EE600AFEF7A1FF06464FF6FF70BD
:105B400000EA164229466D1C24F8112029466D1CD6
:105B500024F811604148D0ED020AB0EE600AFEF769
:105B60008DFF06464FF6FF7000EA164229466D1C6F
:105B700024F811202846691C8DB224F8106037489B
:105B8000D0ED030AB0EE600AFEF778FF06464FF646
:105B9000FF7000EA16422846691C8DB224F81020D6
:105BA0002846691C8DB224F810602C48D0ED040AF8
:105BB000B0EE600AFEF762FF06464FF6FF7000EA9D
:105BC00016422846691C8DB224F810202846691C0C
:105BD0008DB224F810602148D0ED050AB0EE600ABD
:105BE000FEF74CFF06464FF6FF7000EA16422846C5
:105BF000691C8DB224F810202846691C8DB224F847
:105C000010601648D0ED060AB0EE600AFEF736FFC7
:105C100006464FF6FF7000EA16422846691C8DB210
:105C200024F810202846691C8DB224F810600B4817
:105C3000D0ED070AB0EE600AFEF720FF06464FF6E9
:105C4000FF7000EA16422846691C8DB224F8102025
:105C50002846691C8DB224F8106070BD18220024FB
:105C60002DE9F04104464FF4846501F0D7F9B7EE11
:105C7000C00BB34880ED000AD0ED000AB0EE600A18
:105C8000FEF7FCFE06464FF6FF7000EA1642294674
:105C90006D1C24F8112029466D1C24F81160A848B9
:105CA00090ED120ADFEDA70A20EE200ABDEEC00A31
:105CB00010EE106A4FF6FF7000EA164229466D1C7E
:105CC00024F8112029466D1C24F811609C4890EDA1
:105CD000020ABCEEC00A10EE100A29466D1C24F818
:105CE0001100974890ED030ABCEEC00A10EE100AAE
:105CF00082B22846691C8DB224F810209248007F99
:105D00008F4908820846028A2846691C8DB224F809
:105D100010208B48D0ED050AB0EE600AFEF7AEFE0B
:105D200006464FF6FF7000EA16422846691C8DB2FF
:105D300024F810202846691C8DB224F81060804891
:105D4000028B2846691C8DB224F810207C48428BB7
:105D50002846691C8DB224F810207949D1E90878C9
:105D60004FEA18422846691C8DB224F810204FF6DD
:105D7000FF7008EA000082B22846691C8DB224F840
:105D80001020380C40EA084082B22846691C8DB2C7
:105D900024F810202846691C8DB224F81070684839
:105DA000D0ED0A0AB0EE600AFEF768FE06464FF62E
:105DB000FF7000EA16422846691C8DB224F81020B4
:105DC0002946681C85B224F81160604890ED0F0ADE
:105DD0005B4880ED0B0AD0ED0B0AB0EE600AFEF7CF
:105DE0004DFE06464FF6FF7000EA16422946681C33
:105DF00085B224F811202846691C8DB224F8106061
:105E0000534890ED0F0A4E4880ED0C0AD0ED0C0A75
:105E1000B0EE600AFEF732FE06464FF6FF7000EA6B
:105E200016422846691C8DB224F810202846691CA9
:105E30008DB224F81060474890ED0F0A404880ED7D
:105E40000D0AD0ED0D0AB0EE600AFEF717FE064609
:105E50004FF6FF7000EA16422846691C8DB224F8FE
:105E600010202846691C8DB224F81060344890ED4B
:105E7000030A80ED0E0AD0ED0E0AB0EE600AFEF7BE
:105E8000FDFD06464FF6FF7000EA16422846691CE3
:105E90008DB224F810202846691C8DB224F81060B9
:105EA0002748818F2CA001F117F92548828F2846B9
:105EB000691C8DB224F810203548D0ED040AB0EEEC
:105EC000600AFEF7DBFD06464FF6FF7000EA164259
:105ED0002846691C8DB224F810202846691C8DB212
:105EE00024F810602A48D0ED050AB0EE600AFEF7EB
:105EF000C5FD06464FF6FF7000EA16422846691CAB
:105F00008DB224F810202846691C8DB224F8106048
:105F10002048D0ED140AB0EE600AFEF7AFFD064649
:105F20004FF6FF7000EA16422846691C8DB224F82D
:105F300010202846691C8DB224F81060BDE8F0815D
:105F4000C821002400007A44101D002448200024A9
:105F500088200024C82000240D0A4D425265616447
:105F6000537973537461746973746963734D6573A2
:105F7000736167653A2063616C69625F7065616B2C
:105F80005F706F736974696F6E205B25645D0A00D2
:105F9000082000243C1D0024F3EE0E0A70EE200AB7
:105FA0009FED041A60EE810AFCEEE00A10EE900A02
:105FB00080B2704700007A442DE9F04704460D4650
:105FC00001274FF000080026B1464FF01F08464455
:105FD00007FA06F0204060B1E88F002806DD064889
:105FE000806A20F480400449886202E003A001F145
:105FF00073F84846BDE8F087101D00240D0A446F71
:10600000206E6F7468696E6720616E642072656DC2
:1060100061696E206F7065726174696E67206E656C
:10602000772076616C756520756E6368616E676553
:10603000642E0A0070B504460D46214991F8FE040D
:1060400001F1AEFE1E48C089001260701C48807BC2
:10605000A0701B48407BE070002006E0184910311A
:106060000A5C011D6254411CC8B20A28F6DB0020FC
:1060700007E013491A310A5C00F10E016254411C19
:10608000C8B20828F5DB0E48C0880012A0750C487D
:106090008079E0750A488068000E2076084880689C
:1060A000000C607606480089000AA0760448007A51
:1060B000E0761C20288003A001F10EF870BD0000DE
:1060C000000004300D0A4D42537973506172616DC6
:1060D0005570646174655374617475730A000000CF
:1060E00029B1064A12690243044B1A6104E0034ACB
:1060F00012698243014B1A61704700008821002415
:1061000000EE900AF8EEE00A9FED031AC0EE811A45
:10611000B0EE610A7047000000007A4410B50446F2
:106120000248844201D104F143FD10BDCC9100240A
:106130001FB5002001900290039000BF1D48006829
:1061400040F400101B4908600846006800F4001085
:10615000009000BF00BF184818490860012048603F
:10616000002116488160C1604FF48061016189009F
:106170004161890081610021C1614FF440310162B8
:10618000FBF024FC0A2001904FF400300290012023
:10619000039001A90948FBF0BFFA0848FBF7F4FB9C
:1061A0008120FCF752F8002211468120FBF0A2FE6C
:1061B0001FBD0000E04402580854025888270024FC
:1061C00038B5044600200090002C41D03448806A45
:1061D00020F010001030324988620846806A20F0B2
:1061E00020008862084680890880084600880012DE
:1061F0008DF80000084600788DF80100684600F030
:1062000055F84FF47A602749088000214020FFF7B5
:1062100067FFFDF06DFC282803D100210846FEF73A
:1062200027FC00221146104600F090F901220721B8
:10623000002000F08BF901221146002000F086F9C1
:1062400019488088022829D0042000F0FBF925E0B5
:106250001348806A20F01000114988620846806A5D
:1062600020F020008862684600F020F8012200211A
:10627000084600F06BF901220721002000F066F9C2
:1062800001221146002000F061F9074880880228A9
:1062900002D0012000F0D6F903F1D8FA38BD000091
:1062A000101D0024C00000248821002470B505467C
:1062B0006878297800EB012084B20D4804804CB145
:1062C0004FF400400B494883FAF74CFB4FF4004071
:1062D000084908830CB1012100E000210846FAF7C3
:1062E000BBFBE2B24FF400510248FBF775FF70BDF3
:1062F000101D00240010025870B505462E46344685
:106300002078452814D16078432811D1A0784128FD
:106310000ED1E0784D280BD12079412808D1607941
:106320004E2805D1A079412802D12846FEF032FC42
:1063300070BD000010B51648406920F48050144923
:10634000486108211348FDF039F912480068C06817
:1063500040F001000F490968C86008210D48FDF7A9
:106360009DFC0D48008840F001000B490880012089
:106370000A4909680861052008490968086101207F
:1063800002F196FC0C2217210448FBF071FD10BDB0
:10639000000002585025002400080040D8260024A0
:1063A0007047000010B50F48006800F4805070B1CD
:1063B000002005F14FFA002005F022FE002005F133
:1063C0000DFA002006F08EF90120074908700548F3
:1063D000001D006840F6F87108430249091D086075
:1063E00010BD0000143C0040D01C002470B50546D0
:1063F000AC6B00206234208120800120E077623C79
:106400002046FBF049FF70BD70B50446A56B2846D9
:10641000FDF768F970BD10B501460124C86B04EBA7
:106420005013C868421CD01DC20802FB03F010BD07
:106430002DE9F04106460C4617469846069D0BE0AE
:10644000681C48B12DB1FBF079FCA0EB0800A84214
:1064500002D90320BDE8F081306840692040A042A5
:1064600001D1012000E00020B842E9D00020F1E78E
:1064700070B504460D462A4621460248FDF70AFE3D
:1064800070BD0000445D002410B5032301220021EB
:106490001046FCF09DFD0323012211461046FCF03E
:1064A00097FD0323012202211046FCF091FD0323F6
:1064B000012219461046FCF08BFD03230122042122
:1064C0001046FCF085FD0323012205211046FCF057
:1064D0007FFD0323012206211046FCF079FD0323F2
:1064E000012207211046FCF073FD0323012208213D
:1064F0001046FCF06DFD0323012209211046FCF03B
:1065000067FD032301220A211046FCF061FD0323ED
:1065100001220B211046FCF05BFD032301220C211C
:106520001046FCF055FD032301220D211046FCF01E
:106530004FFD032301220E211046FCF049FD0323E9
:1065400001220F211046FCF043FD10BD10B5384B61
:106550001B78984207D1374B1B78994203D1364BB1
:106560001B789A420ED0324B1870324B1970324B56
:106570001A70324B9B6A23F4804303F580432F4CFF
:10658000A36200E010BD30B1012816D0022826D049
:10659000032848D135E0012A07D1294BDB880124A3
:1065A0008C402343264CE38006E0254BDB88012406
:1065B0008C40A343224CE38036E0012A07D1204BD4
:1065C0001C8901238B401C431D4B1C8106E01C4B86
:1065D0001B8901248C40A343194C238124E0012A08
:1065E00007D1174B5C8901238B401C43144B5C8102
:1065F00006E0134B5B8901248C40A343104C63815C
:1066000012E0012A07D10E4B9C8901238B401C43C9
:106610000B4B9C8106E00A4B9B8901248C40A343D1
:10662000074CA38100E000BF00BF00BFAAE7000045
:10663000C4140024C5140024C6140024101D002412
:106640008821002401460120034A1070034801708C
:106650000348818001207047C3140024C214002421
:106660008821002410B57B4890ED030A7A48D0EDCC
:106670000A0AB4EEE00AF1EE10FA1AD20120FEF096
:1066800063F9002814D175A000F126FD00214FF414
:106690008070FFF725FD00210220FFF721FD012179
:1066A0000846FFF71DFD6B48008B401C69490883B5
:1066B0006AE0684890ED030ADFED750AB4EEE00A7F
:1066C000F1EE10FA40DD90ED030ADFED720AB4EE50
:1066D000E00AF1EE10FA19DB4FF48070FEF034F9A5
:1066E000002851D16CA000F1F7FC00210120FFF738
:1066F000F7FC00210220FFF7F3FC01210802FFF75D
:10670000EFFC49210F20FEF7B3F93DE00220FEF037
:106710001BF9002838D16DA000F1DEFC00214FF4F8
:106720008070FFF7DDFC00210120FFF7D9FC01217B
:106730000220FFF7D5FCFDF0DBF90F2824D1002162
:106740000846FEF795F91FE00120FEF0FDF801284C
:106750000AD00220FEF0F8F8012805D04FF480702E
:10676000FEF0F2F801280FD165A000F1B5FC002180
:106770000120FFF7B5FC00210220FFF7B1FC00214A
:106780004FF48070FFF7ACFC324890ED030ADFED68
:10679000690AB4EEE00AF1EE10FA39D266480078E0
:1067A00038B901206449087044F6206063490880C4
:1067B0004EE062480088A0B90820FEF0C5F8002825
:1067C00046D15FA000F188FC00211020FFF788FC73
:1067D00001210820FFF784FC7F210E20FEF748F9F5
:1067E00036E05648008842F21071884230DA1020B4
:1067F000FEF0AAF800282BD15FA000F16DFC00216B
:106800000820FFF76DFC01211020FFF769FC1FE055
:106810000020494908701020FEF096F8012804D0A5
:106820000820FEF091F8012812D161A000F154FC7B
:1068300000210820FFF754FC00211020FFF750FC36
:10684000FDF056F90E2803D100210846FEF710F995
:1068500010BD0000C8210024082000240D0A53792F
:1068600073537461747573436F64654D616E6167D2
:10687000653A205353435F4C4F575F5452414E5338
:106880004D495353494F4E5F414C41524D0A000010
:106890000000BE420000C8420D0A53797353746170
:1068A000747573436F64654D616E6167653A20531B
:1068B00053435F484947485F5452414E534D4953F3
:1068C00053494F4E5F4552524F520A000D0A5379B9
:1068D00073537461747573436F64654D616E616762
:1068E000653A205353435F484947485F5452414EED
:1068F000534D495353494F4E5F414C41524D0A004D
:106900000D0A537973537461747573436F64654DE5
:10691000616E6167653A205452414E534D4953535D
:10692000494F4E5F414C41524D20436C6561720AA4
:10693000000000006F12833ACC140024CA14002413
:106940000D0A537973537461747573436F64654DA5
:10695000616E6167653A205353435F4C4947485421
:106960005F504154485F424C4F434B45445F455252
:10697000524F520A000000000D0A5379735374619C
:10698000747573436F64654D616E6167653A20533A
:1069900053435F4C494748545F504154485F424C11
:1069A0004F434B45445F414C41524D0A00000000AB
:1069B0000D0A537973537461747573436F64654D35
:1069C000616E6167653A205353435F4C49474854B1
:1069D0005F504154485F424C4F434B454420436C09
:1069E0006561720A000000002048006840F47000F1
:1069F0001E4908601E48006840F001001C490860FC
:106A000000201B49103108601948006819490840E6
:106A1000174908600020164918310860091D0860F0
:106A2000091D0860124928310860091D0860091D08
:106A30000860091D0860091D0860091D0860091D1E
:106A40000860091D08600A48006820F48020084991
:106A5000086000200649603108600120064908608E
:106A6000C0060249803908607047000088ED00E0E8
:106A7000004402587FEDF6EA08810051082861D2EF
:106A8000DFE800F0040F1B26323D49544FF48051DB
:106A9000334A51830121334A51830902324A11801A
:106AA0005BE04FF480512E4A518301212D4A5183DE
:106AB00009022D4A921E11804FE04FF48051284A5E
:106AC00051830121274A11830902274A118044E09A
:106AD0004FF48051224A51830121224A1183090235
:106AE000214A921E118038E04FF480511C4A1183D4
:106AF00001211C4A518309021B4A11802DE04FF4E9
:106B00008051174A11830121164A51830902164AFE
:106B1000921E118021E04FF48051114A118301210E
:106B2000104A11830902104A118016E04FF4805177
:106B30000B4A118301210B4A118309020A4A921E52
:106B400011800AE04FF48051054A51830121054A22
:106B500051830902044A118000BF00BF7047000042
:106B600000000258001002581A040258002003497D
:106B7000096801F0020101B90120704710080258AC
:106B800010B53F48006808BB3E48008DC0F3403058
:106B900020B142F210703A49086002E03A483849A0
:106BA00008600120394908703648008DC0F3403034
:106BB00060B137480088401C354908800846008885
:106BC000012803DB4FF40060324948832F480078E6
:106BD00060B3FFF041F830480078072826DD002038
:106BE0002A4908702D48FFF0EFF800F05FF82548BB
:106BF000008DC0F34030C8B1B0EE000A284880EDE7
:106C00000D0A00220D211046FAF094FB9FED250A93
:106C1000234880ED100A00220F210120FAF08AFBA0
:106C20001B480088012801DBFFF0ACF81548008DF7
:106C3000C0F3003010B31C48C08800F00200E8B96F
:106C4000FEF00EFF4FF40060124908830020104947
:106C500008800C48806A20F480500A4988620846FF
:106C6000806A20F400508862B7EE000A0C4880ED7C
:106C7000100A01220F211046FAF05CFB10BD000043
:106C8000B41C0024101D0024C0270900BA1C0024D5
:106C9000C81C002400100258B81C0024382200240C
:106CA000582200240000000088210024002004490C
:106CB0000870044908700449087004490870704756
:106CC000B81C0024B91C0024BA1C0024BB1C0024DE
:106CD00010B52E48006900F0010000284FD0F9F7E8
:106CE000B1FEF9F087FFF9F757FFF9F7A1FDFAF7C1
:106CF00095FDF9F7F5FE00202449486200BF002306
:106D0000234C236000BF00BF00BF00BFBFF34F8F05
:106D100000BF00BF00BF231F1868C0F34E3100BF83
:106D2000C0F3C90200BF43F6E07303EA41134FF01A
:106D3000404404EA82742343164C236000BF00BF22
:106D4000131EA2F10102EED10B1EA1F10101E7D148
:106D500000BF00BF00BFBFF34F8F00BF00BF00BF29
:106D600000BF00BF00BFBFF36F8F00BF00BF00BFF9
:106D700000BF0120084948720020084908800348E4
:106D8000006920F001000149086110BD00000140C8
:106D900084ED00E074EF00E0101D0024B400002436
:106DA00070B505460C461648006840F002001449CC
:106DB0000860012001F170FF12480560001F048087
:106DC0000020104924390860081D006840F00100C7
:106DD000091D08600B482C38008820F06000094924
:106DE0002C3908800846008820F010000880002216
:106DF00001211D20FBF07EF81D20FBF726FA70BD57
:106E0000E84402582C04004010B50248FCF78AFD03
:106E100010BD0000A08F002410B50748006800F0E6
:106E2000010008B104F034FC0348006820F00100C0
:106E30000149086010BD00001014004030B5002466
:106E400000220023056A25F001050562026A4368F5
:106E50008469204D2C4024F003040D682C4322F05B
:106E600002028D682A431C4DA84200D10FE01B4D41
:106E7000A84200D10BE01A4DA84200D107E0194DFD
:106E8000A84200D103E0184DA84206D100BF22F06D
:106E90000802CD682A4322F004020F4DA8420BD00D
:106EA0000E4DA84208D00E4DA84205D00D4DA84267
:106EB00002D00D4DA84207D123F4807323F4007350
:106EC0004D692B438D692B43436084614D68456355
:106ED000026230BD8FFFFEFF000001400004014050
:106EE00000400140004401400048014030B500240A
:106EF00000220023056A25F010050562026A436836
:106F00008469234D2C4024F440740D6844EA052420
:106F100022F020028D6842EA05121E4DA84200D1DF
:106F20000FE01D4DA84200D10BE01C4DA84200D13E
:106F300000BF1B4DA84200D100BF1A4DA84207D187
:106F400006E022F08002CD6842EA051222F04002FB
:106F5000104DA8420BD0104DA84208D00F4DA842AA
:106F600005D00F4DA84202D00E4DA84209D123F4FE
:106F7000806323F400634D6943EA85038D6943EA26
:106F80008503436084614D688563026230BD000003
:106F9000FF8FFFFE0000014000040140004001405F
:106FA000004401400048014030B500220023002485
:106FB000056A25F480150562036A4468426D22F46F
:106FC000E0420D6842EA052223F400130D8943EAEA
:106FD00005530D4DA8420BD00C4DA84208D00C4DC6
:106FE000A84205D00B4DA84202D00B4DA84204D1B7
:106FF00024F400344D6944EA8524446042654D68B8
:10700000C565036230BD000000000140000401407E
:10701000004001400044014000480140014890ED1B
:10702000000B7047A81400243EB50020029065486C
:107030000088002877D14FF47A7062490880FFF009
:10704000D2FE03F0ABFE902003F07AFE03F0D8FEF0
:10705000002003F075FE03F0D3FE03F09FFE9120A5
:1070600003F06EFE03F0CCFE04463CB103F0B2FE2A
:10707000012209210020FFF769FA3EBD03F03CFE22
:107080008DF8080003F01AFE03F036FE8DF80900B3
:1070900003F014FE03F09EFE9DF809009DF8081011
:1070A00040EA012000114849088008460088B0F5F0
:1070B000006F0ADB08460088B0F5496F05DA012247
:1070C00009210020FFF742FA6CE000220921104656
:1070D000FFF73CFA3C48008800F088F83B4890ED08
:1070E000000BB5EEC00BF1EE10FA1DD090ED000BC9
:1070F000374890ED001B30EE010B344880ED000B5B
:1071000090ED000BB0EE001B80EE012BB7EEC20B32
:10711000304880ED050A90ED050AB7EEC00A2B480D
:1071200080ED000B0DE04AE0294890ED000B274868
:1071300080ED000B90ED000BB7EEC00B254880ED05
:10714000050A234890ED000B9FED231BB4EEC10B05
:10715000F1EE10FA12DD2248007818BB0120204918
:10716000087001220F211046FFF7F0F90720FFF702
:1071700069FAC8212020FDF77BFC13E0184800784D
:1071800001280FD100201649087000220F2101208C
:10719000FFF7DCF9FCF0ACFC202803D10021084605
:1071A000FDF766FC0F4880890E494989CDE900103A
:1071B0000C480389C28881880B48FFF08DFF00BF0F
:1071C0005BE70000A0140024B0140024B8140024CD
:1071D000A8140024C82100240000000000405540ED
:1071E000B21400248821002414E61008B0F5006FC2
:1071F00010DB40F6FF71091A491C494200EE101AD3
:10720000B8EEC00B9FED091B20EE010B094981ED83
:10721000000B0AE000EE100AB8EE400B9FED031BD6
:1072200020EE010B034981ED000B704700000000C8
:107230000000B03FA814002410B50248FBF060FD28
:1072400010BD0000703E002410B50A480068C069F7
:1072500000F0200048B10120074908704FF47A730C
:10726000012206490348FBF029FE0248FBF048FDD5
:1072700010BD0000445D0024701400247414002428
:1072800010B50248FBF03CFD10BD0000704000242A
:1072900070B50546AC6B0020A4F86A00A4F8620043
:1072A0002046FCF794FD70BD70B50546AC6BE869EF
:1072B000B0F5807F0FD00020A4F8620020688068BD
:1072C00020F08000216888602068006840F040005D
:1072D0002168086002E02046FCF763FF70BD10B52E
:1072E00004462068006820F04000216808602020E3
:1072F00084F879002046FCF754FF002010BD000000
:1073000010B51948007828B31848008815281BDAEA
:107310004FF4FA701649088016490A78134908880C
:10732000411C124B198014490A541846008815282C
:107330000DD10846FEF7E0FF00200C49088015211A
:107340000D48F9F751F802E00020084908800020B4
:10735000054908700648008828B90448008810B11B
:1073600000200249088010BD9414002496140024C3
:107370009A14002498140024E08F00242DE9F04F83
:1073800089B0044600254FF08008A946AA4600208F
:107390000890FA492068884201D1012000E00020CD
:1073A00000B100E000BFA06AB0F1005F00D100BFF3
:1073B0002169A068084361690843E16940EA010561
:1073C000A06A054320680068ED4908402843216809
:1073D00008602068406820F44050E1680843216854
:1073E0004860A569E5492068884201D1012000E094
:1073F000002008B9206A0543A06AB0F1005F03D1FC
:10740000D4E90B010843054320688068DD49084042
:107410002843216888602068C06A20F00F00616AF4
:1074200008432168C86200BFD7492068884224D138
:10743000D648006800F03800182814D005DC48B1A0
:1074400008280AD0102817D10AE020280ED02828B2
:1074500012D10EE04FF001080EE04FF004080BE0EF
:107460004FF0400808E04FF0080805E04FF0100822
:1074700002E04FF0200800BF17E1C54920688842AC
:107480001DD1C248006800F00700062816D2DFE8C8
:1074900000F00306090C0F124FF000080EE04FF049
:1074A00004080BE04FF0400808E04FF0080805E042
:1074B0004FF0100802E04FF0200800BFF5E0B5499A
:1074C000206888421DD1B148006800F007000628F6
:1074D00016D2DFE800F00306090C0F124FF0000887
:1074E0000EE04FF004080BE04FF0400808E04FF0CA
:1074F000080805E04FF0100802E04FF0200800BF38
:10750000D3E0A549206888421DD1A048006800F05A
:107510000700062816D2DFE800F00306090C0F1258
:107520004FF000080EE04FF004080BE04FF0400869
:1075300008E04FF0080805E04FF0100802E04FF0B7
:10754000200800BFB1E09549206888421DD18F48CE
:10755000006800F00700062816D2DFE800F00306F6
:10756000090C0F124FF000080EE04FF004080BE07A
:107570004FF0400808E04FF0080805E04FF0100811
:1075800002E04FF0200800BF8FE085492068884264
:1075900024D17E48006800F03800182814D005DC9B
:1075A00048B108280AD0102817D10AE020280ED0A8
:1075B000282812D10EE04FF001080EE04FF0040829
:1075C0000BE04FF0400808E04FF0080805E04FF0EE
:1075D000100802E04FF0200800BF66E07149206803
:1075E00088421DD16948006800F00700062816D2BD
:1075F000DFE800F00306090C0F124FF000080EE060
:107600004FF004080BE04FF0400808E04FF0080886
:1076100005E04FF0100802E04FF0200800BF44E002
:107620006149206888421DD15848006800F0070071
:10763000062816D2DFE800F00306090C0F124FF0FF
:1076400000080EE04FF004080BE04FF0400808E09F
:107650004FF0080805E04FF0100802E04FF0200856
:1076600000BF22E04549206888421ED14748001DDE
:10767000006800F00700062816D2DFE800F00306D5
:10768000090C0F124FF002080EE04FF004080BE057
:107690004FF0400808E04FF0080805E04FF01008F0
:1076A00002E04FF0200800BF00BF00BF3349206850
:1076B000884201D1012000E0002000285DD0002593
:1076C000B8F1100F33D009DCB8F1020F10D0B8F1C7
:1076D000040F11D0B8F1080F2ED117E0B8F1200F28
:1076E00027D0B8F1400F0CD0B8F1800F24D124E09E
:1076F000FAF7FEFD054623E005A8FAF70FFE069D02
:107700001EE002A8FAF720FF039D19E01F48543835
:107710000068C0F3401040B11C4854380068C0F302
:10772000C101224820FA01F500E0204D08E0204D7B
:1077300006E04FF4004503E000BF0120089000BFC1
:1077400000BF002D0AD0606800EB4000A84203D8BB
:1077500060680003A84202D201200890D4E2B8F188
:10776000100F7CD026DCB8F1020F2DD0B8F1040F39
:1077700052D0B8F1080F73D19EE03FE1000C0058E1
:10778000F369FFCFFFF4FF11001001405444025889
:107790000044004000480040004C004000500040C1
:1077A0000014014000780040007C00400090D003AD
:1077B00000093D00B8F1200F7DD0B8F1400F54D042
:1077C000B8F1800FD7D109E1FAF792FD00270646FC
:1077D000FB49606A31F810C062463B463046394684
:1077E000F8F778FD4FF4807600220346A3FB0607E6
:1077F00001FB067103FB0213616849080646711814
:107800005A41CDE9001266683246002308460199C4
:10781000F8F760FD0546E4E005A8FAF77FFDDDF81E
:1078200018C0E749606A31F810B05A460023604634
:107830001946F8F74FFD4FF4807C0022A0FB0C3B6B
:1078400001FB0CB100FB0210616849085E1840EBB7
:107850000201D4F804C062460023304601E079E01A
:10786000BBE0F8F737FD0546BBE002A8FAF76CFE6F
:10787000DDF80CC0D249606A31F810B05A460023D6
:1078800060461946F8F726FD4FF4807C0022A0FBE5
:107890000C3B01FB0CB100FB0210616849085E184B
:1078A00040EB0201D4F804C0624600233046F8F7EA
:1078B00011FD054695E06EE0C2480068C0F3401037
:1078C00038B3C0480068C0F3C101BF4820FA01FCCA
:1078D000BB49606A31F810B05A4600236046194629
:1078E000F8F7F8FC4FF4807C0022A0FB0C3B01FB76
:1078F0000CB100FB0210616849085E1840EB020100
:10790000D4F804C0624600233046F8F7E3FC05468D
:107910001FE0AB49606A31F810C062460023AA48F4
:107920001946F8F7D7FC4FF4807C0022A0FB0C3BF3
:1079300001FB0CB100FB0210616849085E1840EBC6
:107940000201D4F804C0624600233046F8F7C2FCB6
:10795000054646E09A49606A31F810C06246002345
:107960009A481946F8F7B6FC4FF4807C0022A0FB39
:107970000C3B01FB0CB100FB0210616849085E186A
:1079800040EB0201D4F804C0624600233046F8F709
:10799000A1FC054625E08A49606A31F810C06246BC
:1079A00000234FF400401946F8F794FC4FF4807C14
:1079B0000022A0FB0C3B01FB0CB100FB0210616834
:1079C00049085E1840EB0201D4F804C06246002367
:1079D0003046F8F77FFC054603E000BF0120089021
:1079E00000BF00BFB5F5407F05D3B5F5801F02D2BB
:1079F0002068C56088E10120089085E1E069B0F564
:107A0000004F7CD1B8F1100F7AD00CDCB8F1000F28
:107A100013D0B8F1010F21D0B8F1040F2FD0B8F175
:107A2000080F6ED151E0B8F1200F6BD0B8F1400FC4
:107A300038D0B8F1800F64D197E0FAF79BFE604A26
:107A4000616A32F81110B0FBF1F04000616800EBA0
:107A50005100B0FBF1F01FFA80FA89E0FAF0EAFB7E
:107A6000574A616A32F81110B0FBF1F040006168CA
:107A700000EB5100B0FBF1F01FFA80FA78E005A8A6
:107A8000FAF74CFC06994E4A606A32F81000B1FBD6
:107A9000F0F04000616800EB5100B0FBF1F01FFA1C
:107AA00080FA65E002A8FAF74FFD0399444A606A3C
:107AB00032F81000B1FBF0F04000616800EB5100BB
:107AC000B0FBF1F01FFA80FA52E03E480068C0F3C4
:107AD0004010C0B13B480068C0F3C1013A48C840FB
:107AE000374A616A32F81110B0FBF1F0400061686A
:107AF00000EB5100B0FBF1F01FFA80FA12E044E015
:107B000011E031E01FE02E49606A31F810002E4983
:107B1000B1FBF0F04000616800EB5100B0FBF1F008
:107B20001FFA80FA24E02649606A31F810002749DC
:107B3000B1FBF0F04000616800EB5100B0FBF1F0E8
:107B40001FFA80FA14E01E49606A31F810004FF401
:107B50000041B1FBF0F04000616800EB5100B0FB68
:107B6000F1F01FFA80FA03E000BF0120089000BF87
:107B700000BF4FF6F0700AEA0009CAF3420049EA72
:107B800000092068C0F80C90BEE0B8F1100F7CD05E
:107B90000CDCB8F1000F1BD0B8F1010F29D0B8F1FF
:107BA000040F37D0B8F1080F70D159E0B8F1200FA9
:107BB0006DD0B8F1400F40D0B8F1800F66D19FE092
:107BC0008CD70008004402580090D00300093D0003
:107BD000FAF7D0FD4E4A616A32F81110B0FBF1F0AD
:107BE000616800EB5100B0FBF1F080B22168C86021
:107BF00089E0FAF01FFB464A616A32F81110B0FBC7
:107C0000F1F0616800EB5100B0FBF1F080B2216847
:107C1000C86078E005A8FAF781FB06993C4A606ADB
:107C200032F81000B1FBF0F0616800EB5100B0FBDE
:107C3000F1F080B22168C86065E002A8FAF784FC20
:107C40000399334A606A32F81000B1FBF0F06168C2
:107C500000EB5100B0FBF1F080B22168C86052E047
:107C60002C480068C0F34010C0B12A480068C0F337
:107C7000C1012948C840264A616A32F81110B0FB98
:107C8000F1F0616800EB510002E017E037E025E019
:107C9000B0FBF1F080B22168C8600EE01C49606A58
:107CA00031F810001C49B1FBF0F0616800EB5100A5
:107CB000B0FBF1F080B22168C86024E01449606A2A
:107CC00031F810001549B1FBF0F0616800EB51008C
:107CD000B0FBF1F080B22168C86014E00C49606A22
:107CE00031F810004FF40041B1FBF0F0616800EB97
:107CF0005100B0FBF1F080B22168C86003E000BF22
:107D00000120089000BF00BF089809B0BDE8F08FBF
:107D10008CD70008004402580090D00300093D00B1
:107D2000014691F87900212839D1B1F86200C8B92B
:107D30000868006800F0005030B10868806820F4DE
:107D400000000B68986005E00868006820F080007B
:107D50000B6818600868006840F040000B68186005
:107D6000002070478868B0F5805F0BD1086948B97A
:107D7000CA6D1088C0F308000B681885C86D801C98
:107D8000C86505E0CB6D581CC86518780B68188568
:107D9000B1F86200401EA1F862000020E1E7022075
:107DA000DFE70000074988420BD10749896A21F0C3
:107DB0000201891C044A91621146896A21F020015E
:107DC00091627047445D0024101D00242DE9F041AC
:107DD00004460D4617469846069E21E0701CF8B1F1
:107DE0002EB1F9F0ABFFA0EB0800B04218D9206823
:107DF000006820F4D070216808602068806820F056
:107E0000010021688860202084F8790084F87A00D5
:107E100000BF002084F8780000BF0320BDE8F08197
:107E20002068C0692840A84201D1012000E000205C
:107E3000B842D3D00020F1E710B519220C490D4803
:107E4000F8F7DDFA08B9012010BD19220A490948DE
:107E5000F8F7D5FA08B90220F6E7192207490548CC
:107E6000F8F7CDFA08B90320EEE70420ECE70000AC
:107E7000BC1600248C930024EB1600240417002465
:107E800000B51A48808CC3B2194801780078401CAC
:107E9000174A107017484354452B02D10120114650
:107EA000087013480078152819D1124840784328E3
:107EB00002D048280FD109E001200F4908700B4873
:107EC000006820F004000949086004E00949887846
:107ED00001F16AFD00BF00BF00200549087003489A
:107EE000006A40F008000149086200BD001001402E
:107EF00084000024C02600246B00002410B50A482A
:107F00000068C06900F0010010B100F105FF07E052
:107F100005480068C06900F0200008B103F0C0FB0C
:107F20000148FAF0EDFE10BDCC91002410B50A48CE
:107F30000068C06900F0200048B1012007490870BE
:107F40004FF47A73012206490348FAF0B7FF02485A
:107F5000FAF0D6FE10BD0000F88F0024941400241F
:107F60009814002403B401984100009850EAC120FD
:107F700018BF04204A0D18BF40F0010040F2FF7204
:107F8000B2EB515F08BF40F00200012808BF052096
:107F900002B0704702480068C0F30220704700003A
:107FA0000CED00E00000000010B5794A2DED020B49
:107FB0002DED088B82B00B99C80F21F00041914242
:107FC00042D3744A8A4219D80A9AC1F31301114361
:107FD00009D09DED0A0B02B0BDEC088B02B0BDE8E4
:107FE000104000F0F9BE002814BF9FED6B0B9DED13
:107FF0000A0B02B0BDEC088B02B010BD9DED0A0B60
:108000009FED671BB4EEC10BF1EE10FA0ADD022002
:1080100000F00EFF02B0BDEC088B02B0BDE81040CE
:10802000FFF082B89FED601BB4EEC10BF1EE10FAC9
:108030000AD2022000F0FCFE02B0BDEC088B02B0B8
:10804000BDE8104000F0D8BE594A9FED5B9B8A42C4
:1080500039D25B4A914213D25A49794401EBC001AB
:108060009DED0A1B91ED000B574931EE408B794491
:1080700001EBC00191ED00ABC0F101010C1A1DE054
:108080005249794401EBC0009DED0A1B90ED000BB5
:108090009FED4F2B9DED0A8B01EE020BBDEEC00B49
:1080A00010EE104A00EE104AB8EEC00B9FED4A1BCE
:1080B00000EE418B9FED4A1B20EE01AB38EE4A0BE0
:1080C0008DED0A0B15E0484888420FD99DED0A0B4B
:1080D0009FED471B30EE010BB4EEC90BF1EE10FA29
:1080E000C4BF9DED0A0B30EE090B82DC9DED0A0B3F
:1080F00000244148052120EE00BBB0EE4B0B784434
:1081000000F022FE9DED0A1B9DED0A2B0BEE401B9D
:108110009FED3B0B22EE012BBCB130EE411B6FF407
:108120007F70844282EE010B3AEE400B30EE480B3A
:1081300039EE400B10EE900A8DED000B10DB00EBDA
:10814000045001909DED000B53E731EE401B82EE91
:10815000010B9DED0A1B30EE410B39EE400B48E759
:108160004FF07A5101EB0451084401909DED001B42
:108170009FED250B21EE008B51EC180BFFF7F2FE63
:10818000042808BF00F038FEB0EE480B31E70000CD
:10819000422E86400000F07F00000000000000003A
:1081A000EF39FAFE422E864051302DD5104987C056
:1081B000422ED63F00000000000000000000F03F0B
:1081C000B2A2F03F2A63000026630000F2620000C2
:1081D000FE822B654715F73F0000E0FE422EE63F8A
:1081E000763C7935EF39EA3D0000303E0000000072
:1081F0009C7500883CE4377EA66200000000000009
:1082000000000000000000400000000000007001BD
:1082100070B5DFF8DCC100222DED020B2DED108BC7
:10822000DDE91010604505DA20F00043634501D810
:1082300009D141B19DED100BBDEC108B02B0BDE832
:10824000704000F0C9BDB0F5801F24DA19430BD08F
:10825000002814DA012000F0EBFDBDEC108B02B019
:10826000BDE8704000F0BCBD022000F0E1FD00F070
:10827000A3FDB1EE400BBDEC108B02B070BD9DEDC7
:10828000100B6FF035029FED5C1B20EE010B10EE22
:10829000900A8DED100B02EB2051A1F2FF325849EC
:1082A000C0F31300014401F4801181F07F6383F077
:1082B0004053034311939DED100B02EB21549FEDAE
:1082C000521B811CC1F3130130EE418B9FED50BB5B
:1082D0009FED51CB032931D25148784490ED000BEA
:1082E000B4EE408BF1EE10FA0ED1002C02BFBDECC3
:1082F000108B02B070BD00EE104AB8EEC01B21EE2C
:108300000B0B01EE0C0BB6E728EE081B9FED462B7E
:108310009FED470B002C08EE420B21EE000B08BF2F
:1083200038EE400BA7D001EE104AB8EEC11B01EEAB
:108330004C0B30EE480B11EE0B0B9CE79FED3E0B08
:108340003F49C0F1510638EE000B45183D4806F58F
:10835000D726032188EE009B00EE104AB8EEC0AB92
:1083600029EE09DB2DEE0DEBB0EE4E0B784400F05C
:10837000EBFC20EE0EFB3448B0EE4E0B04217844AB
:1083800000F0E2FC20EE0D0B45EA0600002830EE7E
:108390000F1B1ADD002C9FED260B28EE000B20EEA4
:1083A000080B30EE011B04BF09EE410B38EE400B09
:1083B0003FF461AF21EE091B0AEE0C1B30EE410BBE
:1083C00030EE480B1AEE0B0B55E754B138EE410B6B
:1083D00020EE090B0AEE4C0B30EE480B1AEE0B0B9D
:1083E00049E738EE411BB0EE480B09EE410B42E77E
:1083F0000000F07F0000000000000000000050437B
:10840000645F090000000000000000000000F03F71
:108410000000E0FE422EE63F763C7935EF39EA3D3A
:10842000F260000000000000555555555555D53FE8
:10843000000000000000E03F0000000000000040DD
:1084400086EBF9FF986110009E61100000000000AB
:108450002DE9F04D2DED040B2DED0A8B9AB0DDE9E1
:108460002550279CDDF890A025F0004624F0004818
:10847000BAF1000F14BF0121002101EB4502F849B8
:1084800053184A1093422AD3002814BF0123002313
:1084900003EB44030B44F3498B4220D358EA000119
:1084A0009FEDF19B72D0DFF8C8B35D4503D1BAF1FF
:1084B000000F05D184E0BAF1000F08BF002100D001
:1084C000012101EB450111F5001F08D8002814BF58
:1084D0000121002101EB440111F5001F0BD99DED95
:1084E000261B9DED240B1AB0BDEC0A8B04B0BDE831
:1084F000F04DFEF015BE0027002DBCBFDD498845BC
:1085000021DADD498845A8BF02271CDAC3451ADCF9
:10851000DA4901EB2851142908DDC1F1340220FAAF
:1085200002F101FA02F282420DD108E058B9C1F11C
:10853000140228FA02F101FA02F2424503D101F0D5
:108540000101C1F1020756EA0A0120D1002C1EDA0E
:10855000002D18BF022F01D0012F0AD0022000F0F9
:1085600067FC1AB0BDEC0A8B04B0BDE8F04D00F01A
:1085700023BC022000F05CFC00F01EFCB1EE400BBE
:108580001AB0BDEC0A8B04B0BDE8F08D18E09FED89
:10859000BCAB9FEDBD8B00287DD1B64880451CD17A
:1085A00005F1804010F5801008BFBAF1000F07D028
:1085B000B34508DC002CA8BF9DED260BE0DA07E0F0
:1085C000B0EE490BDCE7002CB8BF9DED260BD5DBE8
:1085D000AF48784490ED000BD2E7D84548D1002C45
:1085E00043DA2EB186423AD1BAF1000F3DD126E0EE
:1085F000BAF1000F13D0022000F01AFCFEF094FD37
:108600008DED020B9DED240B8DED000B10EE900A0D
:10861000039961F31E0003909DED020BB0E78DED11
:1086200002AB9DED240B1AEE901A10EE900A8DED20
:10863000000B61F31E0003909DED020BA0E78DED92
:10864000028B9DED240B18EE901A10EE900A8DED22
:10865000000B61F31E0003909DED020B90E704DA1E
:108660009DED241B89EE010B8AE79DED240B87E726
:1086700086421ADAB4F1804F04BF9DED240B20EE40
:10868000000B3FF47DAFA4F10050B0F1FF500CD1CE
:10869000002D0ADB00E008E09DED240B51EC100BEF
:1086A00002F1EEFF41EC100B6AE79DED240B51EC5B
:1086B000100B01F10FF8BAF1000FCDE90E0140D116
:1086C0009FED750B46B3A6F1E040B0F17F600ED090
:1086D0005E4536D1002D00DA97B3022F0CBF012082
:1086E0004FF0FF3000EE100AB8EEC00B48E7002D47
:1086F00001DD002C0DDA002D01DD002C1DDB002D2D
:1087000014DA002C12DB012F08BF9FED650B3FF43C
:1087100037AFB0EE4A0B33E7022F18BF002D0CD055
:10872000012F0AD1002DFFF62BAF06E0002DB8BFB8
:10873000002C06DA012F3FF423AFB0EE480B1FE701
:1087400019E0012000EBE57050EA070113D0791E13
:10875000B0EE498B084308BF9FED538B544800256A
:1087600080457ADD53495448884514DDB0420DDB1D
:10877000002C19DB2CE0012000F05AFB1AB0BDECF4
:108780000A8B04B0BDE8F04D00F02ABBB34502DC13
:10879000002C09DC1CE0864202DA002C18DA03E027
:1087A0005E4528DD002C13DD022000F041FBFEF0C9
:1087B000BBFC8DED020B28EE0A0B8DED000B10EECD
:1087C000900A039961F31E0003909DED020BD7E61A
:1087D000022000F02DFB00F00FFB10EE901A18EEB7
:1087E000900A8DED020B8DED008B61F31E0003905E
:1087F0009DED020BC4E69DED0E0B9FED313B30EE7F
:10880000490B8DED040B20EE002B9DED041B9FED1D
:108810002E0B01EE430B9DED043B9FED2D1B03EE54
:10882000401B9DED040B9FED2E3B22EE012B9FED97
:108830002A1B20EE011B20EE030B9FED2B3B02EECB
:10884000430B31EE002B8DED022B02959DED022B9B
:1088500032EE411B30EE411B21E149E000000000F7
:10886000FFFF1F00FFFF0F00000000000000F03FAF
:108870000000F03F0000F07F0000404301FCFFFFDC
:10888000000000000000F07F000000000000000079
:10889000FA5D000000000000000000000000008001
:1088A000000000000000F0FF000000000000F0BF2A
:1088B0000000E0410000F043FFFFEF3F0000000038
:1088C000000000000000D03F555555555555D53F87
:1088D000000000000000E03F000000604715F73F87
:1088E00044DF5DF80BAE543EFE822B654715F73F23
:1088F0000020B6F5801F0BDA9DED0E0B9FEDEC1BF3
:108900006FF0340020EE010B10EE906A8DED0E0B2F
:10891000E94A00EB2650C6F31301A0F2FF3741F0FD
:108920007F6040F040509142D8BF002408DDE34A08
:108930008A42C8BF012403DC0024A0F580107F1CFC
:10894000DF49794401EBC4010F9091ED001B9DEDCF
:108950000E2B9DED0E0BDB4931EE023B30EE410B51
:1089600089EE032B20EE02AB8DED02AB794402952C
:1089700091ED003B4FF0005141EA600000EB844074
:108980008DED043B00F5002005909DED043B9DED31
:10899000044B2AEE0ACB33EE411B9DED0E3BCA4839
:1089A000062133EE411B9DED023B03EE440B03EE2B
:1089B000410B20EE02BBB0EE4C0B784400F0C4F942
:1089C0002CEE0C1B20EE010B9DED021B31EE0A1B61
:1089D0000BEE010B9DED021B21EE011B9FEDBC2B4D
:1089E00031EE023B33EE003B8DED043B04959DEDF3
:1089F000043B33EE422B32EE411B30EE412B9DED1A
:108A0000020B9DED041B20EE011B9DED040B2BEED4
:108A1000000B02EE0A0B31EE002B8DED022B0295BE
:108A20009DED022B32EE411B30EE410B9DED021B02
:108A30009FEDA92B21EE021B9DED022B9FEDA83B84
:108A400022EE032B9FEDA83BA94800EE032B7844B0
:108A500000EBC40090ED000BA64832EE000B02EED6
:108A6000107AB8EEC22B8DED042B31EE003B78442A
:108A700000EBC4009DED044B90ED002B33EE023B68
:108A800033EE043B8DED023B02959DED023B33EE50
:108A9000443B33EE422B32EE411B30EE411B9DED49
:108AA000260B954A8DED000B00959DED260B9DED57
:108AB000002B30EE420B9DED022B20EE020B9DEDC4
:108AC000262B02EE010B9DED001B9DED022B21EEEE
:108AD000021B8DED021B30EE011B11EE900A11EE10
:108AE000101A8DED001B904224DB821A11430ED127
:108AF0009FED831B9DED002B9DED023B30EE011B96
:108B000032EE432BB4EEC21BF1EE10FA26DD02204A
:108B100000F08EF9FEF008FB10EE901A18EE900AA5
:108B20008DED020B8DED008B61F31E0003909DED2A
:108B3000020B25E5744B20F000429A420ED3734A93
:108B4000024411437FF444AE9DED022B31EE421BF3
:108B5000B4EEC01BF1EE10FABFF63AAE20F00041C1
:108B60006B4A6C4B002402EB21529942D8BF9DED19
:108B7000021B27DD511C4FF4801222FA01F101443F
:108B8000654BC1F30A527B44A2F2FF3293ED001B06
:108B9000624B8DED041BD34021EA0303C1F31301A3
:108BA00041F48011C2F1140221FA02F40593002865
:108BB000B8BF64429DED021B9DED042B31EE421BBC
:108BC0008DED021B30EE011B8DED041B04959DED18
:108BD000041B9FED532B9DED023B21EE021B9DEDEF
:108BE000042B32EE432B30EE420B9FED4F2B20EE49
:108BF000020B9DED042B9FED4E3B4F48052102EEED
:108C0000030B31EE002B8DED002B32EE411B30EECD
:108C100041AB9DED000B20EE000B8DED040B784475
:108C200000F092F89DED001B9DED042B02EE401B21
:108C30008DED021B9DED000B20EE010B9FED402BF7
:108C400031EE422B80EE021B9DED002BB0EE4A0B65
:108C500002EE0A0B31EE400B9DED001B30EE410B96
:108C600039EE400B10EE900A8DED000B00EB045036
:108C700001150029C8BF019013DC224651EC100BEE
:108C8000F7F795FDFFF76EF9042808BF00F0B4F878
:108C900022469DED000B51EC100BF7F788FDCDE956
:108CA00000019DED000B28EE000B69E400000000C0
:108CB00000000000000040438E9803007AB60B00CD
:108CC000FA5B1000605A0000B25B10000000000068
:108CD0000000000000000840000000E009C7EE3F6F
:108CE000F5015B14E02F3EBEFD033ADC09C7EE3F01
:108CF0000E5B1000DE5A10000000904000000000E3
:108D0000FE822B654715973C00CC904000346F3FA6
:108D100001FCFFFF0000E03F46580000FFFF0F008E
:108D200000000000432EE63FEF39FAFE422EE63FF8
:108D3000396CA80C615C20BE7E5910000000000058
:108D40000000000000000040491E00EBC102B0EE30
:108D5000401B92ED000B31F006020DD0491E00EBD6
:108D6000C102B0EE403B92ED002B31F00602B0EEB6
:108D7000420B03EE010BF1D1022914D004290AD0D1
:108D8000062918BF704790ED0A2B00EE012B90EDDD
:108D9000080B02EE010B90ED062B00EE012B90ED7F
:108DA000040B02EE010B90ED022B00EE012B90ED77
:108DB000000B02EE010B70479FED031B9FED042B90
:108DC00081EE020B70470000000000000000F03F41
:108DD000000000000000000030EE000B70470000B3
:108DE0009FED031B81EE010B7047000000000000A7
:108DF00000000000000000009FED030B20EE000BC0
:108E0000704700000000000000000000000000109B
:108E100002E008C8121F08C1002AFAD17047704743
:108E2000002001E001C1121F002AFBD170470000A1
:108E300001490860704700000C1D00242DE9FF5F08
:108E400082B00021DDE90430020DDDF840B00343BB
:108E500018D044F61050A2F2FF3242431514119874
:108E600001281FD0A5EB0B00401C5FEA000A4FF061
:108E700000064E4FDFF83891B046504615D5CAF17E
:108E8000000413E0119801244AA3012801D16FEADC
:108E90000B010298119AC0E90031C0E9024206B004
:108EA000BDE8F09FCBF10000DFE704460021404A17
:108EB000491842EB0450CDE9001012E0E00707D05A
:108EC00032463B4640464946F7F0EBF88046894635
:108ED00032463B4610461946F7F0E3F806460F4681
:108EE0006410002CEAD1DDE90401DDE90023BAF1C8
:108EF000000F06DAF7F0D5F842464B46F7F0D1F806
:108F000005E0F7F7E5FB42464B46F7F7E1FB044681
:108F10000E460022284BF7F761FC03D84FF0FF30D4
:108F2000014607E00022254B20463146F7F729FB92
:108F3000F7F029F9102409E0002C0ADB0A220023AB
:108F4000F7F7C8F9039B30321A55641E50EA010244
:108F5000F2D1641C039AC4F111031444119A012A3A
:108F600003D0012208430DD10AE0084304D00020B9
:108F70004FF0110B119072E7A3EB0B056D1E0DE086
:108F80005B4504DD4FF0000205F1010504E003DA62
:108F90004FF00002A5F10105002AECD002981199CA
:108FA000C0E90231C0E9004579E700000000144043
:108FB0000000F03F300000000000F0430000E03F00
:108FC00010B504461649B1F8540002F155FC154994
:108FD00021F814001249B1F8560002F14DFC114A73
:108FE000611C22F811000E49B1F8580002F144FC4E
:108FF0000C4AA11C22F811000949B1F85A0002F1EB
:109000003BFC084AE11C22F811000549B1F85C005C
:1090100002F132FC034A211D22F8110010BD0000AC
:109020003C1D0024004001302DE9F04780464446B5
:10903000FDF7F4FFB7EEC00B9D4880ED000A90ED00
:10904000000ADFED9C0A20EE200ABDEEC00A10EEF9
:10905000105A4FF6FF7101EA154002F10DFCA046CF
:10906000611C8CB2944921F81800A8B202F104FCEA
:109070002146621C94B2904A22F811008F48C06ABF
:1090800058B18B4890ED120ADFED8A0A20EE200AD3
:10909000BDEEC00A10EE105A05E08948806A4FF410
:1090A0007A7100FB01F54FF6FF7101EA154002F1FC
:1090B000E3FB2146621C94B27F4A22F81100A8B259
:1090C00002F1DAFB2146621C94B27B4A22F81100BD
:1090D000774991ED020ABCEEC00A10EE101A88B270
:1090E00002F1CAFB2146621C94B2734A22F81100B5
:1090F0006F4991ED030ABCEEC00A10EE101A88B257
:1091000002F1BAFB2146621C94B26B4A22F81100AC
:109110006C48007F66490882088A02F1ADFB21464F
:10912000621C94B2644A22F81100614890ED050A6D
:10913000DFED600A20EE200ABDEEC00A10EE105AE4
:109140004FF6FF7101EA154002F196FB01462046F9
:10915000621C94B2584A22F81010A8B202F18CFB9B
:109160002146621C94B2544A22F811005049088BDF
:1091700002F182FB2146621C94B24F4A22F8110090
:109180004B49488B02F178FB2146621C94B24A4A53
:1091900022F811004648D0E90867380C02F16CFB50
:1091A0002146621C94B2444A22F81100B8B202F17E
:1091B00063FB2146621C94B23F4A22F81100310C35
:1091C00041EA074188B202F157FB2146621C94B282
:1091D000394A22F81100B0B202F14EFB2146621C5E
:1091E00094B2354A22F81100314890ED0A0ADFEDB9
:1091F000310A20EE200ABDEEC00A10EE105A4FF6DA
:10920000FF7101EA154002F137FB2146621C94B25E
:10921000294A22F81100A8B202F12EFB2146621C55
:1092200094B2254A22F811004FF0000925E02648A3
:1092300000EB890090ED000ADFED1E0A20EE200A07
:10924000BDEEC00A10EE105A4FF6FF7101EA15404C
:1092500002F112FB2146621C94B2174A22F8110057
:10926000A8B202F109FB2146621C94B2124A22F80C
:10927000110009F101001FFA80F9B9F1080FD6DBDE
:109280001049C88C02F1F8FA2146621C94B20A4ACD
:1092900022F811000D49888F02F1EEFA2146621C76
:1092A00094B2054A22F81100A01C84B2BDE8F087F0
:1092B000C821002400007A44004001303C1D0024F5
:1092C00000400030101D0024D82200240820002473
:1092D00010B51346DFED1A0AB0EE600A8A0818E0EE
:1092E000F0EC010A70EE800AB0EE600AF0EC010AC0
:1092F00070EE800AB0EE600AF0EC010A70EE800AAF
:10930000B0EE600AF0EC010A70EE800AB0EE600A7E
:10931000521E002AE4D101F0030206E0F0EC010A3B
:1093200070EE800AB0EE600A521E002AF6D100EEFE
:10933000901AF8EE600A80EE201A83ED001A10BD34
:109340000000000010B513469A0818E0F0EC010A7E
:1093500060EE800AE1EC010AF0EC010A60EE800A9E
:10936000E1EC010AF0EC010A60EE800AE1EC010A8E
:10937000F0EC010A60EE800AE1EC010A521E002ABC
:10938000E4D103F0030206E0F0EC010A60EE800A8B
:10939000E1EC010A521E002AF6D110BD2DE9FF4F63
:1093A0002DED048B83B081461F46DDE9176BDDE9A7
:1093B00014A59DED198AC6EBC60105F1080000EB66
:1093C000C10090ED070AB8EEC00BB8EEC81B80EEE6
:1093D000012BB0EE429BB7EEC90B1F4880ED120A7D
:1093E00000978DED018AB0EE490B33464846DDE922
:1093F0000812FFF083F8C6EBC60105F1080000EB88
:10940000C100C069584501DD012000E00020029044
:10941000002419E004EB44110AF1080000EBC10834
:10942000C4EBC40105F1080000EBC100019098F8FD
:109430000401012807D1029828B141464846169BED
:10944000019A01F109FA641C2868A042E2D803B02D
:10945000BDEC048BBDE8FF8FC8210024F0B5ADF250
:10946000EC4D4FF49D6101A8F6F7BEFF00240025E6
:109470000026504991F8FE0400F140F8074640F2FA
:10948000E642394601A802F08DFB9DF807009DF8E1
:10949000061040EA0120474948809DF80800000670
:1094A0009DF8091040EA01409DF80A1040EA0120A9
:1094B0009DF80B1008433F49886040F2DC4103A847
:1094C000F8F742FA05463B48836890F8FE142A46AE
:1094D0003948FDF001FE37488068A84268D122244F
:1094E00001A9601C085C095D00EB012086B2052E15
:1094F00005DA32494E750846407D31498886A01C00
:1095000084B2214601A802F1D1FC04F1400084B2EA
:109510002C4A214601A803F0DDFB04F1C00084B20F
:10952000294A214601A803F0D5FB04F1C00084B20A
:10953000264A214601A803F0CDFB04F1C00084B205
:10954000214601A803F008FE04F1400084B2204A3D
:10955000214601A802F16AFE04F1400084B21D4ACE
:10956000214601A802F162FE04F1400084B21A4AC9
:10957000214601A802F15AFE04F1400084B2174AC4
:10958000214601A802F152FE04F1400084B2144ABF
:10959000214601A803F09EFB04F1C00084B2114AE9
:1095A000214601A802F142FE01200DF2EC4DF0BD72
:1095B0000020FAE700000430A8E50008101D002490
:1095C00088210024A81D0024401E0024D81E002449
:1095D0004820002488200024C820002408210024DA
:1095E000701F0024482100240649884203D101212C
:1095F000054A117005E00549884202D10121044A5B
:109600001170704700380040841400240034014079
:109610008514002438B5044630480068B0F5805FF2
:1096200000D938BD2E48844216D1642000902B48C2
:10963000008883B22B4A2C492C48F8F056FF0028AA
:1096400020D04FF484712920FBF712FA40F209115F
:1096500027A0F7F0B1FF15E02E48844212D1642014
:1096600000901E48008883B21E4A1F492A48F8F01D
:109670003CFF38B129A0FDF02FFD40F2131130203E
:10968000FBF7F6F917484FF48051002923DD00F06D
:109690001F056A18034600BF00BF00BFBFF34F8F0E
:1096A00000BF00BF00BF00BF244D2B602033203A15
:1096B000002AF9DC00BF00BF00BFBFF34F8F00BF1F
:1096C00000BF00BF00BF00BF00BFBFF36F8F00BF70
:1096D00000BF00BF00BF00BF00BFA2E77814002496
:1096E00000380040A07F0024906F0024806E00248A
:1096F0002E2E5C2E2E5C557365725C6273705C73EB
:1097000072635C6273705F7370695F6275732E63FE
:109710000000000000340140086F00240D0A414D94
:10972000502041444134333530205350492069732F
:10973000206661756C747921210A00005CEF00E0FD
:109740002DE9F0412DED0C8B05460E460027032E2A
:1097500001DB322E03DD76A0FDF0BEFCE3E006EB7C
:109760004607781CC100002001F010FF286028681F
:1097700040B97BA0FDF0B0FC40F2AF71012001F1D7
:1097800059FBD0E0002407E09FED820B286800EB36
:10979000C40080ED000B641CBC42F5DD06FB06F046
:1097A00000EE100AB8EEC0AB2AEE0ACB9FED798B23
:1097B000B0EE489B00244AE004FB04F000EE100ADF
:1097C000B8EEC0BBB0EE080B2CEE000BB1EE082BD0
:1097D000B0EE4B1B12EE0A1B0BEE410B286800EBA0
:1097E000C40080ED000BB0EE000B2AEE000B8BEEF8
:1097F000001BB0EE41DBB0EE4D0BFEF7D5FBB0EE3B
:10980000401BB0EE080B2CEE002B00EE106AB8EEF9
:10981000C00B22EE000B21EE000B286800EBC40009
:1098200090ED001B81EE002B286800EBC40080ED5A
:10983000002B286800EBC40090ED001BB0EE002B5D
:10984000B0EE490B02EE010BB0EE409B641CBC4233
:10985000B2DD286890ED000B39EE400BB0EE409B76
:1098600000EE107AB8EEC01BB7EE000BB0EE002B86
:1098700002EE010B89EE001BB0EE419B002419E0C3
:10988000286800EBC40090ED000B30EE490B28680F
:1098900000EBC40080ED000B002C0ADD286800EB13
:1098A000C40090ED000BB0EEC00B30EE080BB0EE34
:1098B000408B641CBC42E3DDB0EE000B28EE000BD5
:1098C000B0EE408B286890ED000B30EE080BB0EE48
:1098D000408B9FED320BB4EEC08BF1EE10FA07D245
:1098E000B7EE000BB0EE408B2EA0FDF0F5FB05E0CF
:1098F000B7EE000B80EE081BB0EE418B00240CE0AD
:10990000286800EBC40090ED000B20EE080B2868DF
:1099100000EBC40080ED000B641CBC42F0DD6E6007
:10992000AF600120E860BDEC0C8BBDE8F081000069
:109930004572726F7220696E206275696C645F4651
:10994000465F66696C7465723A2077696474682052
:109950006F7574206F6620626F756E640A00000078
:109960004572726F7220696E206275696C645F4621
:10997000465F66696C7465723A20696E76616C69DF
:109980006420696E70757420706F696E7465720AF8
:109990000000000000000000000000002342920CC4
:1099A000A19CC73B4572726F7220696E2062756917
:1099B0006C645F46465F66696C7465723A206469E0
:1099C0007669646564206279207A65726F0A0000A6
:1099D00030B595B005460C46E06A48B1502168465E
:1099E000F6F702FD6A4621462846FEF0B9FC00BFA4
:1099F00015B030BD10B5ADF50A7D6E496E4801F168
:109A000087F86D4908686B49103103F0D5F86A484A
:109A10000269C168674801F11FFA684966484068F1
:109A2000CDE900016348826800F5804000F114032D
:109A30000169634801F100F85E48624B624A81683F
:109A4000A2F6C410FEF022FF5A485E4B10335F4A64
:109A500081685D48FEF01AFF56485A4B103B5C4A3D
:109A600081685A48FEF012FF5AA0FDF035FB002431
:109A700006E0574850F8241058A0FDF02DFB641C58
:109A8000B4F51C7FF5D940F6C4115548F6F7ACFC87
:109A9000484988684E4902F037F9524B524A5349B7
:109AA0004B4800F1A9FE4448C06AA0B14248816B0E
:109AB000406B414A126B4B4BCDE90232CDE90401B8
:109AC00049484A49CDE900103A48494A4049836823
:109AD0004348FFF763FC4748808F47F6FF71884291
:109AE00019D04448808FC0EBC0023F48083000EBDB
:109AF000C20000F1100128226846F6F081FA3D48C4
:109B0000808FC0EBC0013848083000EBC10494E8F6
:109B10000F00F9F0F3FF33493348FFF759FF4FF4D3
:109B20000A72314910316846F6F06AFA2E480FC8B9
:109B3000FBF7C8FA2F48808F47F6FF7188422FD075
:109B40002C48808F00EB40112848083000EBC10002
:109B5000D0F800012749898F01EB411223490831D0
:109B600001EBC201496DCDE90A102248808FC0EB9C
:109B7000C0021D48083000EBC20000F1100128228D
:109B80006846F6F03DFA1B48808FC0EBC0011648CE
:109B9000083000EBC10494E80F0001F1C1FE01E0C0
:109BA00001F0A2FF01F094FD00F000FF00200DF590
:109BB0000A7D10BD006000300000003010800030D1
:109BC0000020003010300030D8A900309CB30030A5
:109BD00060BD003064762E66660A000025640A00C7
:109BE00024C700300040003000500030001000302A
:109BF000E8D00030082000242DED028BB0EE404B61
:109C0000B7EE006BB0EE465B08296BD2DFE801F0DF
:109C100004090E13182946639FED3B6BB0EE465BBB
:109C200060E09FED3B6BB0EE465B5BE09FED3A6B17
:109C3000B0EE465B56E09FED366BB0EE465B51E012
:109C400090ED067B9FED368B87EE086B26EE026B60
:109C500086EE017B9FED346B27EE066BB0EE465B24
:109C600040E090ED067B9FED2E8B87EE086B26EE95
:109C7000026B86EE017B9FED2E6B27EE066B26EEC8
:109C8000016B9FED2D7B86EE078B9FED2D6B28EEF4
:109C9000066B86EE027BB0EE475B23E090ED067B21
:109CA0009FED1F8B87EE086B26EE026B86EE017B25
:109CB0009FED1D6B27EE066B26EE016B9FED1E7B65
:109CC00086EE078B9FED1E6B28EE066B86EE027B01
:109CD000B0EE475B06E09FED0C6B23EE066BB0EE3B
:109CE000465B00BF00BF24EE056B9FED177B26EEA1
:109CF000076B26EE016B90ED087B27EE027B86EE6C
:109D0000070BBDEC028B70470000000000005940BB
:109D10000000000080842E410000000065CDCD4190
:109D2000A987687407A120400000000084D79741EC
:109D300000000000006AF8400000000000107140C0
:109D40006891ED7C3F35F03FC2C7EC09A9676E3FD3
:109D500010B502460B460020002104E052F82140D5
:109D600004B1401C491C9942F8DB10BD30B50446D3
:109D7000D4E90530E268216800F162FB30BD2DE9CD
:109D8000F05F06460D464FF0000B2888052844D1A9
:109D900070784FEA002AB07840EA0A0AF0780402A4
:109DA00030790443012C35DBB4F5FA6F32DA3746EB
:109DB00000202880012007F8010B2888401C2880FB
:109DC00004F0070040B12046E11704EB5171C910BF
:109DD000491C01F0FF0805E02046E11704EB517132
:109DE000C1F3C70807F8018B2888401C288000238E
:109DF00022465146384600F009FB8146B9F1000F72
:109E000004D0484601F02FFC834608E028884044EF
:109E1000288004E04FF0030B01E04FF0030B58469D
:109E2000BDE8F09F70B505460E46002400F0D4F959
:109E300008B9062406E000F0CFF9012801D1062474
:109E400000E00624204670BD2DE9F05F06460D4671
:109E50004FF0000B2888052847D170784FEA002979
:109E6000B07840EA090909F101001FFA80F9F07899
:109E7000040230790443012C34DBB4F5FA6F31DA93
:109E8000374600202880022007F8010B2888401C54
:109E9000288004F0070040B12046E11704EB51711F
:109EA000C910491C01F0FF0805E02046E11704EB4A
:109EB0005171C1F3C70807F8018B2888401C28801E
:109EC00022464946384600F03FFC8246BAF1000F70
:109ED00004D0504601F0C7FB834608E02888404480
:109EE000288004E04FF0030B01E04FF0030B5846CD
:109EF000BDE8F09F2DE9F04705460C464FF0000AFB
:109F00002088052833D168784FEA0029A87840EAEC
:109F10000909E87806022E79012E25DB7D2E23DC47
:109F20002F4600202080032007F8010B2088401CCA
:109F300020807006000E07F8010B2088401C20804E
:109F40000023324649463846FFF066FA8046B8F1AB
:109F5000000F04D0404601F086FB824609E02088CD
:109F600000EB4600208004E04FF0030A01E04FF0D0
:109F7000030A5046BDE8F0872DE9F04705460C4638
:109F80004FF0000A2088052837D168784FEA00286A
:109F9000A87840EA080808F101001FFA80F8E8787C
:109FA000060228790643012E24DB7D2E22DA2F4675
:109FB00000202080042007F8010B2088401C20800E
:109FC0007006000E07F8010B2088401C20803246E6
:109FD00041463846FFF062FA8146B9F1000F04D0DD
:109FE000484601F040FB824609E0208800EB46002D
:109FF000208004E04FF0030A01E04FF0030A5046CE
:10A00000BDE8F08770B505460E46002400F0E4F880
:10A0100008B9062406E000F0DFF8012801D1062483
:10A0200000E00624204670BD70B504460D460026AB
:10A0300004A0FDF051F829462046FAF04BFB3046CB
:10A0400070BD00000D0A654D4246756E635379730D
:10A05000506172616D5570646174652E2E2E0A0018
:10A0600070B504460D46002604A0FDF035F82946DB
:10A070002046FAF031FC304670BD00000D0A654DF7
:10A080004246756E63506172616D557064617465AE
:10A0900048616E647368616B652E2E2E0A000000A5
:10A0A0002DE9F04104460E464FF00008308805289F
:10A0B00010D160780702A078074301231A46394679
:10A0C000E01CFFF0A9F9054635B1284601F0CBFAAE
:10A0D000804601E04FF003084046BDE8F0812DE9DD
:10A0E000F05F05460E464FF0000B3088052838DD3E
:10A0F00068784FEA0029A87840EA0909E87804025C
:10A100002879044395F805A004F0070038B12046EB
:10A11000E11704EB5171C910491CCFB205E020468C
:10A12000E11704EB5171C1F3C707012C16DBB4F53D
:10A13000F66F13DC574511D1012322464946A81D6D
:10A1400000F064F98046B8F1000F04D0404601F0F9
:10A150008AFA834607E00520308004E04FF0030BC5
:10A1600001E04FF0030B5846BDE8F09F2DE9F047A2
:10A1700004460E464FF0000A3088062826DB607839
:10A180004FEA0028A07840EA0808E0780502207924
:10A19000054394F80590012D15DB782D13DC680636
:10A1A000000E48450FD101232A464146A01DFFF06D
:10A1B00033F9074627B1384601F055FA824607E0E1
:10A1C0000520308004E04FF0030A01E04FF0030A5D
:10A1D0005046BDE8F0870000014800787047000055
:10A1E000921800240148007870470000931800245A
:10A1F0002DE9F04705460C4616461F46DDF820902F
:10A200004FF000081CB1012C01DBF72C02DD4FF0F0
:10A21000020835E01C48047005BB1C481C49086056
:10A220001C481D4908601D481D4908601D481E49FD
:10A23000086000201D4908601D481E4908601E482E
:10A240001E4908601E481F4908604B463A46314681
:10A250000D480078FFF0B4F8804602E04FF00208A5
:10A2600000BF00BFB8F1000F0AD103F07BF910B9AD
:10A270004FF0030804E014480570012013490870EA
:10A280004046BDE8F087000020170024CDA3000859
:10A2900028170024F5A300082C1700242DA300087C
:10A2A00024170024D1A200083017002434170024FA
:10A2B000E5D5000838170024E9C510083C1700242C
:10A2C000F5D6000840170024211700242217002487
:10A2D0002DE9F04104460D4616460027F7F0BEF87A
:10A2E00010480088FF2802DDFF200E4908800D4835
:10A2F0000088042810DB0B4801880B4802F0C2FCE0
:10A3000050B909480078207006480088C01E308087
:10A310000548401C286000E00527F7F7BBF93846E0
:10A32000BDE8F081B61600248C9200242DE9F0419E
:10A3300005460E4617464FF00008F7F08FF81E4806
:10A340000078012830D1701E1C49086001201C498A
:10A3500008801A480068057008460088384408805C
:10A36000084601881548006802F08CFC0446144930
:10A370000888411C124B1980104909680C5422129C
:10A3800019460888411C19800C4909680A540120A3
:10A390000C4908700121002001F146FDFAF0E0FAB5
:10A3A00009480068804701E04FF00508F7F772F9A7
:10A3B0004046BDE8F0810000AD160024B016002430
:10A3C000B4160024AC1600243C17002410B5F7F096
:10A3D00045F8002000F0E8F9002005490870002148
:10A3E000012001F121FD01F155FDF7F753F910BDF1
:10A3F000AD16002410B5F7F031F80021084601F140
:10A4000013FD02F05BFCF7F745F910BD2DE9FC47A1
:10A4100004460D46904699464FF0000A4646002DE8
:10A4200000DC70D105EB080020286CDC284687B2E0
:10A43000B9F1000F03D0B9F1010F13D113E00FE010
:10A44000082E01DD082000E03046C2B239466F48D0
:10A4500002F13BF904F8010B083E07F1080087B24E
:10A46000002EEDDCCBE0142D7ED2DFE805F00A13E0
:10A47000B2B2B2B21C313658B2B26089B2B2B2B224
:10A48000A0A963A0FCF028FE2078FF2801D1F7F7EF
:10A49000F1FE9FE063A0FCF01FFE2078FF2801D1B1
:10A4A000F7F7E8FE96E0217863A0FCF015FE20782F
:10A4B000FF2802D1F6F7C2FE09E06548808802282D
:10A4C00005D164A0FCF008FE0120FCF7BBF881E098
:10A4D000217863A0FCF000FE7CE02078FF2813D1F7
:10A4E000674AB2F8482091B2654AB2F8442090B267
:10A4F000F5F0A4FE18B10120FCF7A4F80EE001204D
:10A5000000F052F90AE07BE000210846F5F096FEE3
:10A510005CA0FCF0E1FD0120FCF794F85AE0217802
:10A520005BA0FCF0D9FD0620FCF78CF852E0217806
:10A5300060A0FCF0D1FD2078FF2820D1F6F0ECFCE3
:10A5400001220E211046FCF701F801220321002010
:10A55000FBF7FCFF0020FBF733FE0120FCF772F84D
:10A560003B4880893A4900E033E04989CDE9001051
:10A5700037480389C28881885548FCF0ADFD29E041
:10A58000217854A0FCF0A8FD2078FF2808D15D4870
:10A59000806A20F4006000F500605A49886205E096
:10A5A0005848806A20F400605649886212E056A03C
:10A5B000FCF092FD2078FF2801D100F001F909E0BC
:10A5C00059A0FCF089FD2078FF2801D1FEF0A4FFFE
:10A5D00000E000BF00BF0FE014F8013B082E01DDD2
:10A5E000082000E03046C2B23946084802F182F83D
:10A5F000083E07F1080087B2002EEDDC00BF01E045
:10A600004FF0010A5046BDE8FC87000048180024BE
:10A610000D0A525532207265626F6F742052656761
:10A620002D300A000D0A525532207265626F6F7428
:10A63000205265672D310A000D0A525532204175AE
:10A64000746F204761696E205B307825785D0A0061
:10A65000882100240D0A2A2A2A2A2A360A00000004
:10A660000D0A5255322073656C662063616C696215
:10A67000726174696F6E205B307825785D0A000026
:10A680003C1D00240D0A2A2A2A2A2A370A00000023
:10A690000D0A52553220737065637472756D2064B3
:10A6A000617461206F7574707574205B30782578E3
:10A6B0005D0A00000D0A52553220726573657420E0
:10A6C0006761696E205B307825785D0A00000000C4
:10A6D00014E610080D0A52553220686172647761E1
:10A6E00072652074657374206D6F6465205B3078CB
:10A6F00025785D2C2030202D3E20617665726167C3
:10A70000650A0000101D00240D0A525532206572A2
:10A7100061736520706172616D657465722074612A
:10A72000626C650A000000000D0A52553220726505
:10A7300061646261636B20706172616D65746572E2
:10A74000207461626C650A002DE9F04705460C46ED
:10A7500016464FF0000937B2012C00DC1CD1A019BD
:10A76000212819DC601E1FFA80F812E0082F01DD95
:10A77000082000E03846C2B241460A4801F1A5FF70
:10A7800005F8010BA7F1080007B208F108001FFA4D
:10A7900080F8002FEADC01E04FF001094846BDE8EF
:10A7A000F08700004C180024014908707047000031
:10A7B0009518002401490870704700009318002480
:10A7C00010B504A0FCF088FC4FF4001000F1A2FCCE
:10A7D00010BD00000D0A66466C61736845726173B6
:10A7E00065506172616D5461626C653A20457261B9
:10A7F00073652033324B422C207374617274206174
:10A80000646472657373205B30783230303030307E
:10A810005D0A0000F0B503460C461546002753F8C4
:10A8200024602246611C18E053F821C0481E53F8EA
:10A830002000844510DC53F821C0481C53F8200048
:10A84000844509DC53F82100B04201DDA24203D166
:10A85000012753F821600A46491CA942E4DB0FB1E5
:10A860001046F0BD0020FCE72DE9F04104460F46FC
:10A8700004B11FB92EA0FCF02FFC56E0002507E024
:10A880009FED370B606900EBC50080ED000B6D1C80
:10A890002068A842F4D8002613E0E06950F82600AA
:10A8A00007EBC000D0E900211046F5F7BEFD41ECF2
:10A8B000100B606990ED001B30EE010B80ED000B7A
:10A8C000761CA068B042E8D8012528E0002622E0E6
:10A8D000E06950F8260007EBC000D0E900211046DF
:10A8E000F5F7A3FD41EC100BE06950F82600216953
:10A8F00051F8200000EBC50090ED002B606900EBE3
:10A90000C50090ED001B00EE021B606900EBC50066
:10A9100080ED001B761CA068B042D9D86D1C206861
:10A92000A842D3D82046FFF721FABDE8F081000005
:10A930004572726F7220696E206669745F6E6F7205
:10A940006D616C697A65643A20696E76616C6964E0
:10A9500020696E70757420706F696E746572730013
:10A96000000000000000000070B502460C464FF0E9
:10A97000FF300021002311E032F8115080EA054039
:10A98000491C002308E000F000651DB1064D85EA72
:10A99000400000E040005B1C102BF4D3251EA4F106
:10A9A0000104E9D170BD0000B71DC10410B5062037
:10A9B00000F058F90446C4B10C480078012814D1BD
:10A9C00000200A4908700A4B00224FF42851204603
:10A9D00001F09AFA45F25061054800F145FE642005
:10A9E0000449088000200449087010BDD01C0024D0
:10A9F00000200430041D0024081D002470B5044606
:10AA00003848406940F020003649486136480068BF
:10AA100020F007003449086000255DE0002033493C
:10AA20000880FEF08FFF32480678324890ED000A29
:10AA3000B7EEC00AB0EE0A1BB4EEC10BF1EE10FA8D
:10AA400018DD2B48007818B901202B49087011E057
:10AA500027480078401E264908702348006820F0E7
:10AA60000700214908600846006821490978084321
:10AA70001D4908601F4890ED000AB7EEC00A9FED1F
:10AA80001F1BB4EEC10BF1EE10FA19D21848007872
:10AA9000072803D101201849087011E014480078F4
:10AAA000401C134908701048006820F007000E4948
:10AAB0000860084600680E49097808430A4908609A
:10AAC0000D480078012800D170BD09480078864201
:10AAD00000D103E0681CC5B2A5429FDB00BF00BFE8
:10AAE000F2E7000000000258140402587E0000241F
:10AAF0007C000024800000247B000024840F3EF8AA
:10AB0000E083EF3F70B5044600BF00234E4D2B603D
:10AB100000BF00BF00BF00BFBFF34F8F00BF00BF2B
:10AB200000BF2B1F1868C0F34E3100BFC0F3C9022D
:10AB300000BF43F6E07303EA41134FF0404505EAD6
:10AB400082752B43414D2B6000BF00BF131EA2F145
:10AB50000102EED10B1EA1F10101E7D100BF00BF40
:10AB600000BFBFF34F8F00BF00BF00BF00BF00BFDB
:10AB700000BFBFF36F8F00BF00BF00BF00BF4FF427
:10AB80009F63334A33493448F7F028F83248006865
:10AB9000006840F0010030490968086000BF2F4894
:10ABA00000780028FBD00B202D49088000200FE002
:10ABB000274911F82010802908D0254A411C12F895
:10ABC0002110802902D12649088003E0411CC8B227
:10ABD0001428EDDB00BF002013E01D4911F8201000
:10ABE00040290CD01A4A411C12F82110402906D1E4
:10ABF0001B490988814201DD1949088003E0411C95
:10AC0000C8B21428E9DB00BF154800880A2801DD16
:10AC1000002070BD124801780EE00D4A481C52F821
:10AC20002000802806D0481C52F82000402801D07F
:10AC30000020EEE7881CC1B20948008800F2E44019
:10AC40008142EADB0120E4E784ED00E074EF00E0FC
:10AC500000000038100402588827002469000024EE
:10AC600070000024014609B90D487047012901D13F
:10AC70000C48FAE7022901D10B48F6E7032901D174
:10AC80000A48F2E7042901D10948EEE7052901D174
:10AC90000848EAE7062901D10748E6E70020E4E78B
:10ACA0001060003014A00030D8A900309CB30030F0
:10ACB00060BD003024C700300040013010B54FF4B3
:10ACC00000700B490880FEF081FE4FF48070094946
:10ACD0000883FEF07BFE4FF4807006494883FEF047
:10ACE00075FE4FF400700249891E088010BD0000F7
:10ACF0001A0802580000025870B50024002516E01A
:10AD00006006040E4FF480700B490883FEF05EFE6F
:10AD10000A48006800F4007008B1601CC4B24FF427
:10AD2000807005494883FEF051FE681CC5B2082DAD
:10AD3000E6DB204670BD00000000025810080258F3
:10AD400070B50446002521E004F0800020B14FF4E6
:10AD500000701049088004E04FF400700D49891C10
:10AD60000880FEF033FE4FF480700B490883FEF03C
:10AD70002DFE4FF4807008494883072D02D1400012
:10AD8000044908806006040E681CC5B2082DDBDB90
:10AD900070BD0000180802580000025810B54FF4AA
:10ADA00000700A490880401009490883FEF00EFE31
:10ADB0004FF400700549891C0880FEF007FE4FF42F
:10ADC000807003494883FEF001FE10BD1808025848
:10ADD0000000025810B54FF4007007490880401079
:10ADE00006490883FEF0F2FD4FF400700249891E07
:10ADF0000880FEF0EBFD10BD1A0802580000025852
:10AE000010B54FF400700D490880FEF0DFFD4FF4DF
:10AE100080700B490883FEF0D9FD084808380068A7
:10AE200000F4007008B1012400E000244FF48070A9
:10AE300003494883FEF0CAFD204610BD1808025899
:10AE400000000258164909680160154949684160C7
:10AE50001349896881601249C968C160104909694C
:10AE600001610F49496941610D49896981610C4955
:10AE7000C969C1610A49096A01620949496A4162AD
:10AE80000749896A81620649C96AC1620449096B36
:10AE900001630349496B41630149896B81637047D1
:10AEA0003C1D00242DE9F04104460E4615461F4680
:10AEB00004B11EB924A0FCF00FF92AE0002D01DD39
:10AEC000002F03DC2DA0FCF007F922E027602946C3
:10AED0003046FEF73DFFA06065602068C10000209D
:10AEE00000F054FB606120688100002000F04EFB00
:10AEF000E060A0688100002000F048FBE061284687
:10AF00002168FCF0E7FD206121680846FCF0E2FDC5
:10AF1000A061606938B1E06828B1206918B1A06902
:10AF200008B1E06940B921A0FCF0D6F840F2A45184
:10AF30000120FFF07FFF04E02A463146E069FDF082
:10AF4000DBFEBDE8F08100004572726F7220696E11
:10AF500020696E69745F64657369676E5F666974A2
:10AF60003A20696E76616C696420696E7075742030
:10AF7000706F696E746572730A0000004572726FBB
:10AF80007220696E20696E69745F646573696E67AB
:10AF90005F6669743A20696E76616C696420696ED7
:10AFA00070757420706172616D0A00004572726F75
:10AFB0007220696E20696E69745F64657369676E7B
:10AFC0005F6669743A206D616C6C6F6320666169BD
:10AFD0006C0A000030B585B004460D46EDB9314825
:10AFE00090ED030AB7EEC00A84ED000B90ED040A61
:10AFF000B7EEC00A84ED020B90ED050AB7EEC00A69
:10B0000084ED040BC08F4AF6AA21884202D10120A8
:10B01000A06217E00020A06214E0234890ED030A2C
:10B02000B7EEC00A84ED000B90ED040AB7EEC00A3B
:10B0300084ED020B90ED050AB7EEC00A84ED040B17
:10B040000020A062A06A049094ED040B8DED020B29
:10B0500094ED020B8DED000B94ED001BB0EE410B57
:10B0600053EC102B29461148FCF036F80D4890EDB2
:10B07000070AB7EEC00A84ED0C0B90ED080AB7EE94
:10B08000C00A84ED0E0B90ED090AB7EEC00A84EDFC
:10B09000100B0021A165204600F00AFB206605B0D8
:10B0A00030BD00000820002418230024DCE4000840
:10B0B00070B52DED088B05460E46B7EE000BB0EED1
:10B0C00040AB95ED180BB5EEC00BF1EE10FA50DD6C
:10B0D00096ED040BB0EE408BB0EE480B2846FFF027
:10B0E00030FD044694ED021BB0EE410B53EC102BE7
:10B0F00022A0FBF0F1FF94ED041BB0EE410B53ECEA
:10B10000102B20A0FBF0E8FF94ED061BB0EE410BE6
:10B1100053EC102B1DA0FBF0DFFF94ED081BB0EEED
:10B12000410B53EC102B1BA0FBF0D6FF0CB394ED9E
:10B13000060B94ED081B01EE080B94ED041B08EEC2
:10B14000001B94ED020BB0EE409B08EE019B96EDC8
:10B15000080BB1EE401B81EE080B95ED181B20EE9D
:10B16000010BB0EE40BBFCF71FFF20EE090BB0EE69
:10B1700040ABB0EE4A0BBDEC088B70BD50303A20AE
:10B1800025650A0050313A2025650A0050323A20E0
:10B1900025650A0050333A2025650A0070B52DED6B
:10B1A000108B04460D46B0EE40BBB7EE000BB0EE80
:10B1B00040CB9FED500BB0EE409B9FED500B2BEE24
:10B1C000000B95ED041B20EE010BB0EE40DB95ED7E
:10B1D000020B94ED061B20EE010B8DEE001BB0EE72
:10B1E00041DB95ED060BB7EE001B30EE010BB0EE28
:10B1F00040EB95ED080BB7EE001B30EE010BB0EE07
:10B2000040FBB0EE4F0BFDF703F8B0EE40AB94ED12
:10B210002A1BB1EE411B21EE0A1BB0EE410BFCF7DD
:10B22000C3FEB0EE408B28EE0E0BB0EE408B94EDDB
:10B230002C1BB1EE411B21EE0A1BB0EE410BFCF7BB
:10B24000B3FE94ED1A1B21EE0D1B20EE010BB0EEA8
:10B25000409BA86AD0B194ED1C1BB0EE410B53EC9F
:10B26000102B28A0FBF038FF94ED2E1BB1EE411BF4
:10B2700021EE0A1BB0EE410BFCF796FE94ED1C2B61
:10B28000B0EE491B02EE001BB0EE419BB7EE000B87
:10B2900039EE000BB0EE409B28EE090BB0EE408B70
:10B2A000B7EE000B38EE400BB0EE408B94ED240B64
:10B2B00094ED261B08EE010B94ED221B08EE001BFB
:10B2C00094ED200B08EE010BB7EE001B08EE001BFF
:10B2D000B0EE41CB94ED281B95ED082BB0EE4C0B56
:10B2E00001EE020BB0EE40CBB0EE4C0BBDEC108B80
:10B2F00070BD00000000000000000000FF25A94C08
:10B300003107813F0D0A6C696E6577696474685F07
:10B310007468656F7265746963616C3A20706172FC
:10B32000616D5F70726F636573735F62726F61648A
:10B33000205B25665D0A000070B5ADF5985D054699
:10B340000E464FF4985209496846F4F059FE00241D
:10B3500007E0684600EBC40103C906EBC40203C260
:10B36000641CAC42F5D30DF5985D70BD40C8100863
:10B3700008B501F025FAF6F741FF04230222052162
:10B38000C02001F0BDFA4FF4F070FDF07BFC4FF4EB
:10B390007A31782000F1BEFCF6F73CF8FAF7CAFFE4
:10B3A000FAF7C6FEF9F0C6FE0022C72140F2E730E8
:10B3B000FBF0DEF93EA0FBF08FFEFAF039FB002433
:10B3C00000204FF47A33024672210090FEF710FFFE
:10B3D0000443FDF0A1FC04432CB101220D21002007
:10B3E000FBF7B4F804E000220D211046FBF7AEF89D
:10B3F0003349096888688047002080F3108800BFBF
:10B40000F6F7B8FAFCF0FEFB38B9FAF00DF80122B5
:10B410000E210020FBF79AF804E000220E211046CE
:10B42000FBF794F8002000F1DFF80020FBF70AF9A1
:10B43000F8F05EFB082803D100210846F9F718FB55
:10B4400034E02048007818B3F6F7A8F81E480088C2
:10B450001E49098888421BD1FEF7CCFA00201A4900
:10B46000088001201A490870002016490870194800
:10B47000006840F004001749086042F21071164855
:10B48000FBF78EFC1548008840F001001349088046
:10B49000FAF01AF9FBF734FFF9F026FFFDF0CEFEC3
:10B4A000FBF7C2FDF5F0B0FBFBF76AFBC9E7000054
:10B4B0000D0A53797374656D206F6E2E2E2E0A005F
:10B4C0008C1600246B0000247800002476000024F1
:10B4D000690000240010014020A107000004004082
:10B4E0002DE9F04104460E461548005D38B9144870
:10B4F00010380168204688470120BDE8F0811148D6
:10B5000050F82400B04219D90F4850F82400B6FB77
:10B51000F0F10B48001F50F8240050F821200025BE
:10B5200008E000230648001F50F824004F1940F897
:10B5300027306D1C9542F4DB0020DEE70220DCE7BB
:10B54000BC1800240CC8100808C8100810B5014623
:10B550000023002207E00B4850F8210050F8220099
:10B5600000B15B1C521C084850F821009042F2D8F0
:10B570004FF47A705843044C54F82140B0FBF4F077
:10B5800080B210BDB818002404C8100870B5044675
:10B590000E4631462046FFF0C1F90546681C08B941
:10B5A000002070BD024850F824002844F9E700004C
:10B5B000B418002430B5034601E003F8011B141E43
:10B5C000A2F10102F9D130BD70B52DED028B044618
:10B5D0000E46606990ED000BB0EE408B012512E045
:10B5E000606900EBC50090ED001B206950F8260053
:10B5F00000EBC50090ED002BB0EE480B01EE020B06
:10B60000B0EE408B6D1C2068A842E9D851EC180BB5
:10B61000F4F71FFFBDEC028B70BD2DE9F84F824699
:10B620008B4616461F460020009059465046FFF7AD
:10B63000CBFF04460D460C9830C0002184EA01007F
:10B64000694008430AD0B80740EA96014FEA867875
:10B6500022462B464046F4F76EFE00900098C0F15B
:10B660008040BDE8F88F014631B1012906D002299A
:10B6700006D0072908D105E0002007E0022005E0F8
:10B68000032003E0062001E0042000BF00BF704754
:10B6900010B502480068804710BD00004017002424
:10B6A00010B502480068804710BD0000381700241C
:10B6B00010B504462046FFF0A5FA30B104F1300081
:10B6C000FFF0A0FA08B1012010BD0020FCE7000047
:10B6D00070B54F4800894E498988401A84B20025C8
:10B6E0004FF4A8414B48F4F77FFE49480068C20078
:10B6F00049494848F4F084FC4848407D03284DD02F
:10B70000A20047494748F4F07BFCA00000EBD07151
:10B71000491001F6C4118DB22846FDF751FCA20074
:10B7200041494248F4F06CFCA00000EBD071491094
:10B7300001F6A6618DB22846FDF742FCA2003C4905
:10B740003C48F4F05DFCA00000EBD07141F288327F
:10B7500002EB61018DB22846FDF732FCA2003649AA
:10B760003648F4F04DFCA00000EBD07141F66A02BF
:10B7700002EB61018DB22846FDF722FCA2003049A0
:10B780003048F4F03DFCA00000EBD07141F64C5283
:10B7900002EB61018DB22846FDF712FC42F69C15C2
:10B7A0002846FCF051F842F6B5152846FDF73CFC5A
:10B7B00042F6E715062229466D1C164820F811208E
:10B7C0001348008882B229466D1C124820F81120C7
:10B7D0002846691C8DB20F4921F810402846691C83
:10B7E0008DB20C4921F810402846691C8DB20949D8
:10B7F00021F810402846691C8DB2064921F81040F6
:10B800002846691C8DB2034921F8104070BD000024
:10B81000000000300040013010600030101D002496
:10B8200014A0003088530130D8A900304C5D01309D
:10B830009CB300301067013060BD0030D47001301F
:10B8400024C70030987A01302DE9FF4F2DED048B8D
:10B8500085B08A461746169C0020049003908046C7
:10B860007800401C50450CDC002F0ADB0C98A042ED
:10B8700007DC7800A04204DB012C02DB0C980028D6
:10B8800003DA77A0FBF028FCE4E0601C81000020D4
:10B89000FFF77CFE0490601CC1000020FFF776FEDD
:10B8A0008046611C601CFCF015F90390049820B1DF
:10B8B000B8F1000F01D0039840B973A0FBF00CFC65
:10B8C00040F23F710120FFF0B5FAB8E0002651E0E8
:10B8D000002E9FED750BB7EE001B01FE000BB0EEC6
:10B8E000408B4FF001050EE000EE106AB8EEC01B71
:10B8F00000EE105AB8EEC00BFCF7AAFD30EE080BB4
:10B90000B0EE408B6D1CBD42EEDD01250FE000EE78
:10B91000106AB8EEC01B684200EE100AB8EEC00B09
:10B92000FCF796FD30EE080BB0EE408B6D1CBD426F
:10B93000EDDDC6EB44094E4500DAB146C9F1000021
:10B94000019013E0019AB11801EBD1725310039AE0
:10B9500052F82330019AB01A00EBD072521003EB68
:10B96000C20282ED008B0198801C0190019848452D
:10B97000E8DD761CB6EB440FAADD611CDDE90302AD
:10B98000FEF0E2FD0020029009E09FED470B0298D7
:10B9900008EBC00080ED000B0298401C0290611C77
:10B9A00002988842F1DBB7EE000B0C9808EBC00060
:10B9B00080ED000B4346DDE90302FEF041FD4FF050
:10B9C000000B08E09FED380B099800EBCB0080EDF1
:10B9D000000B0BF1010BD345F4DB7D422CE098ED1D
:10B9E000000BB0EE408BB7EE000BB0EE409B4FF07B
:10B9F000010913E008EBC90090ED001B00EE105A9E
:10BA0000B8EEC00B29EE002BB0EE429BB0EE480B17
:10BA100001EE020BB0EE408B09F10109A145E9DD11
:10BA2000AAEB050090FBFAF10AFB110B099800EB59
:10BA3000CB0080ED008B6D1CBD42D0DD00BF00202F
:10BA40000499FEF0BFFF41460020FEF0BBFF0398C3
:10BA5000FDF010FF05B0BDEC048BBDE8FF8F0000CA
:10BA60004572726F7220696E20736176676F6C3AEF
:10BA70002073657474696E6773206F7574206F66C8
:10BA800020626F756E640A004572726F7220696E73
:10BA900020736176676F6C3A206D616C6C6F632008
:10BAA0006661696C0A0000000000000000000000F0
:10BAB00010B5002205211046FAF748FD01220221A7
:10BAC0000020FAF743FD00220D210120FAF73EFD88
:10BAD00001220C211046FAF739FD00214FF4805065
:10BAE000FAF7FEFA10BD000003480449086001207F
:10BAF0000349087070470000C0D40100901C002466
:10BB0000A21C002410B50446FFF046FD002000F002
:10BB1000E3F80020164908602021154802680068F3
:10BB2000401C134B186013488154C4F30742184655
:10BB300001680068401C18600E484254C4F3072294
:10BB4000184601680068401C18600A4842541846AC
:10BB500001680068401C1860064844540648FDF718
:10BB600059FD012000F0B8F8FFF028FC10BD0000DE
:10BB700078140024906F00240038004070B503460C
:10BB800000240BE013F8015BE843C5B211F8010B88
:10BB9000284008B1012070BD601C84B29442F1DBE2
:10BBA0000020F8E72DE9F04180460C46154625B106
:10BBB00060192D494969884201D9BDE8F08100200A
:10BBC00000F08AF80020294908600321274802680C
:10BBD0000068401C254B186025488154C4F3074178
:10BBE000184602680068401C186021488154C4F35C
:10BBF0000722184601680068401C18601C4842541F
:10BC0000184602680068401C186019488454194896
:10BC1000FDF700FD002710E04FF480501349086045
:10BC20001448FDF7F7FC4FF4805213494046F4F0F6
:10BC3000E7F908F58058781C87B2B7EB153FEBD3CE
:10BC4000C5F30B06002E09DD084806600948FDF71C
:10BC5000E1FC324608494046F4F0D2F9012000F0F8
:10BC60003BF800BFA9E70000545E002478140024CC
:10BC7000906F002400380040A07F002470B5044677
:10BC800010484069A04201D8FF2070BD002000F09C
:10BC900023F800200C49086003200C490870200C90
:10BCA0004870200A8870CC70052007490860084851
:10BCB000FDF7B0FC012000F00FF806480579284692
:10BCC000E3E70000545E002478140024906F002401
:10BCD00000380040A07F002410B504463CB9084855
:10BCE000FDF782FC4FF480500649088007E04FF4CE
:10BCF00080500449891E08800148FCF081F910BD7C
:10BD0000003800401A04025870B506460D46164821
:10BD100090F8260000F0030068B9002405E055F80B
:10BD20002400124941F82400641CB442F7D310A047
:10BD3000FBF0D2F916E00C4890F8260000F0020063
:10BD400002280FD1002408E055F82400074951F8D3
:10BD50002410401A45F82400641CB442F4D30BA00C
:10BD6000FBF0BAF970BD0000101D002400E800309F
:10BD70000D0A63656C6C206666207369676E616C82
:10BD8000206261636B75703A0A0000000D0A6365FA
:10BD90006C6C206666207369676E616C206D696EDD
:10BDA00075733A0A000000007047000070B545F254
:10BDB000506146A0FBF090F94E4D4F48006840F0AE
:10BDC00001004D49086000BF4A48006F00F00100C3
:10BDD0000028F9D147487030401B10381821B0FBBB
:10BDE000F1F0C4B2062C0ADBE868A11F01EB4101A7
:10BDF000490010313D228A401043E86020E0042CC5
:10BE000009DBE868211F01EB41014A003D21914017
:10BE10000843E86014E0022C0ADBA868A11E01EBCD
:10BE20004101490010313D228A401043A86007E0DB
:10BE3000A96804EB440042003D2090400143A96002
:10BE40002E4800EB84063E2030602D482949886743
:10BE50002C48C8670020486708670846006F40F014
:10BE6000400008670846006F08670846006F0867CB
:10BE70000846006F08670846006F08670846006FAD
:10BE800008670846006F08670846006F40F4806046
:10BE900008670846006F40F4006008670846006FB6
:10BEA00040F4005008670846006F40F4803008678F
:10BEB0000846006F08670846006F08670846006F6D
:10BEC00008670846006F086770BD00000D0A6153DF
:10BED00050495F54785F446174614275666665726B
:10BEE0005F7531362053495A453A205B25645D0A17
:10BEF0000000000000000240D84402580008024040
:10BF0000203C0040002004302DE9F84F80460E46CA
:10BF100091461C464FF0000B00274FF40070009034
:10BF20004FF0000A7000C11700EB11610912A0EB7D
:10BF300001218FB23046F11706EB1161C1F30F2BCF
:10BF40001FB10BF101001FFA80FB7E20208009F554
:10BF5000E84060802A21A18027480068010CE18028
:10BF600025480088208142F606316181002512E0D3
:10BF7000292D01D107B100974FF48371694304F172
:10BF80000E0202EB410308EB45202946009AFFF020
:10BF900037FC681C85B22A2DEADB42F60231A01C70
:10BFA000FEF7E2FC824615480068010C45F2066087
:10BFB00001531248008845F20661214448804FEA47
:10BFC0001A4045F206612144888045F20661214409
:10BFD000A1F806A040F60A5145F20E60015306484A
:10BFE0000068401C0449086004480068401C03497C
:10BFF0000860BDE8F88F0000F81C0024FC1C002439
:10C00000012806D10649096841F40041044A11603B
:10C0100005E00349096821F40041014A11607047B5
:10C02000083C004070B500260025002400BF0AE04F
:10C03000FE48006821464268002090470120FCF03D
:10C040002BFE601CC4B20C2CF2DB0124F748006804
:10C05000006804EBC40100EB8100807978BBF348F1
:10C060000068006804EBC40100EB8100C07901287E
:10C0700025D1EE480068006804EBC40100EB8100A4
:10C08000007AE0B9E9480068006804EBC40100EBFD
:10C090008100407A032812D1E4480068006804EB6C
:10C0A000C40100EB8100807A48B9E048006800686C
:10C0B00004EBC40100EB8100C07A13284ED00025A8
:10C0C0000023DA480068006804EBC40100EB81013A
:10C0D000891D2A466D1C8B540123D44800680068D2
:10C0E00004EBC40100EB8101891D2A466D1C8B54B1
:10C0F0000023CE480068006804EBC40100EB810116
:10C10000891D2A466D1C8B540323C84800680068AB
:10C1100004EBC40100EB8101891D2A466D1C8B5480
:10C120000023C2480068006804EBC40100EB8101F1
:10C13000891D2A466D1C8B541323BC480068006877
:10C1400004EBC40100EB8101891D2A466D1C8B5450
:10C15000B648006821464268012090470B24B34846
:10C160000068006804EBC40100EB810080790106DF
:10C17000AE480068006804EBC40200EB8200C0799E
:10C1800001EB0041A9480068006804EBC40200EB21
:10C190008200007A01EB0021A4480068006804EBEB
:10C1A000C40200EB8200407A0E18B6F57A3F38D010
:10C1B0004FF47A360025330E9C480068006804EB83
:10C1C000C40100EB8101891D2A466D1C8B54330C80
:10C1D00096480068006804EBC40100EB8101891DEA
:10C1E0002A466D1C8B54C6F30723904800680068EC
:10C1F00004EBC40100EB8101891D2A466D1C8B54A0
:10C200008A480068006804EBC40100EB8101891DC5
:10C210002A466D1C8E5485480068214642680120DC
:10C220009047022481480068006804EBC40100EBD9
:10C230008100807900287DD17C480068006804EB8B
:10C24000C40100EB8100C079002877D177480068ED
:10C25000006804EBC40100EB8100007A00286DD176
:10C2600072480068006804EBC40100EB8100407A6A
:10C27000002863D16D480068006804EBC40100EB3E
:10C280008100807A002859D168480068006804EB72
:10C29000C40100EB8100C07A00284FD100250023A3
:10C2A00062480068006804EBC40100EB8101891D4D
:10C2B0002A466D1C8B5401235C480068006804EB1F
:10C2C000C40100EB8101891D2A466D1C8B5400239B
:10C2D00056480068006804EBC40100EB8101891D29
:10C2E0002A466D1C8B54032350480068006804EBF9
:10C2F000C40100EB8101891D2A466D1C8B5400236B
:10C300004A480068006804EBC40100EB8101891D04
:10C310002A466D1C8B5445480068006804EBC40134
:10C3200000EB8101891D2A466D1C8B543F48006833
:10C33000214600E002E042680120904702240025E7
:10C340003A480068006804EBC40100EB8100C07942
:10C3500036490968096804EBC40201EB8201897956
:10C3600000EB01203249088630480068006804EB81
:10C37000C40100EB8100417A2C480068006804EB9E
:10C38000C40200EB8200007A01EB002081B2284851
:10C39000418626480068006804EBC40100EB810078
:10C3A000C17A22480068006804EBC40200EB8200F6
:10C3B000807A01EB002081B21D48818603241B484E
:10C3C0000068006804EBC40100EB8100807901067D
:10C3D00016480068006804EBC40200EB8200C079D4
:10C3E00001EB004111480068006804EBC40200EB57
:10C3F0008200007A01EB00210C480068006804EB21
:10C40000C40200EB8200407A08440949C86204244F
:10C4100006480068006804EBC40100EB8100C079A5
:10C4200002490968096804EBC40203E08C16002481
:10C430009C22002401EB8201897900EB0120A749AD
:10C440000884A7480068006804EBC40100EB810081
:10C45000417AA3480068006804EBC40200EB820044
:10C46000007A01EB002081B29C484184052400BF82
:10C470009B480068006804EBC40100EB81008179EF
:10C4800097480068006804EBC40200EB8200C079A2
:10C490000A1829466D1C9148001D20F8112090486B
:10C4A0000068006804EBC40100EB8100017A8C484D
:10C4B0000068006804EBC40200EB8200407A0A18AE
:10C4C00029466D1C8548001D20F81120844800680D
:10C4D000006804EBC40100EB8100817A80480068A9
:10C4E000006804EBC40200EB8200C07A0A182946F7
:10C4F0006D1C7A48001D20F8112006247848006839
:10C50000006804EBC40100EB8100807901067448E7
:10C510000068006804EBC40200EB8200C07901EB04
:10C5200000416F480068006804EBC40200EB820021
:10C53000007A01EB00216A480068006804EBC4023D
:10C5400000EB8200407A08446449C86007246448CC
:10C550000068006804EBC40100EB8100C079604909
:10C560000968096804EBC40201EB8201897900EBD8
:10C5700001205A4908805A480068006804EBC40149
:10C5800000EB8100417A56480068006804EBC40261
:10C5900000EB8200007A01EB00205049488008241B
:10C5A00000254F480068006804EBC40100EB8100DF
:10C5B00081794B480068006804EBC40200EB8200FC
:10C5C000C0790A1829466D1C4448143020F81120FF
:10C5D00043480068006804EBC40100EB8100017A65
:10C5E0003F480068006804EBC40200EB8200407A18
:10C5F0000A1829466D1C3948143020F81120384893
:10C600000068006804EBC40100EB8100817A3448C3
:10C610000068006804EBC40200EB8200C07A0A18CC
:10C6200029466D1C2D48143020F8112009242C486F
:10C630000068006804EBC40100EB8100807901060A
:10C6400027480068006804EBC40200EB8200C07950
:10C6500001EB004122480068006804EBC40200EBD3
:10C660008200007A01EB00211D480068006804EB9D
:10C67000C40200EB8200407A08441849C8610A24C9
:10C6800017480068006804EBC40100EB8100C07922
:10C6900013490968096804EBC40201EB8201897936
:10C6A00000EB01200D4908820D480068006804EB8A
:10C6B000C40100EB8100417A09480068006804EB7E
:10C6C000C40200EB8200007A01EB002081B2034833
:10C6D000418200200149886370BD00009C22002433
:10C6E0008C160024012803D10821034A116002E0BE
:10C6F0000021014A11607047103C00402DE9F047CD
:10C7000080460D4616464FF0010900240027A24638
:10C7100005B10EB94FF00009B8F1000F03D0B8F120
:10C72000010F45D123E02878AA2801D04FF0000955
:10C73000E87F552801D04FF000091D241D2128460F
:10C74000F4F04CFC074628194078295D00EB0120E5
:10C750001FFA80FA574501D04FF00009B9F1010FD7
:10C7600004D11C22691C3046F3F04AFC23E0AA22C3
:10C770002046611CCCB2325430191C222946F3F0F9
:10C780003FFC04F11C00C4B221463046F4F026FC04
:10C7900007463A122046611CCCB232542046611C36
:10C7A000CCB2375455222046611CCCB2325402E040
:10C7B0004FF0000900BF00BF4846BDE8F087000009
:10C7C00010B500BF4C48006800F4003000B139E0FB
:10C7D00000BF00BF00BFBFF34F8F00BF00BF00BF4F
:10C7E00000BF00BF00BFBFF36F8F00BF00BF00BF1F
:10C7F00000204249086000BF00BF00BFBFF34F8F59
:10C8000000BF00BF00BF00BF00BF00BFBFF36F8FFE
:10C8100000BF00BF00BF3848006840F40030364910
:10C82000086000BF00BF00BFBFF34F8F00BF00BF55
:10C8300000BF00BF00BF00BFBFF36F8F00BF00BFCE
:10C8400000BF00BF00BF2C4B1B6803F4803303B153
:10C8500048E00023284C7034236000BF00BF00BFB5
:10C86000BFF34F8F00BF00BF00BF231F1868C0F386
:10C870004E3100BFC0F3C90200BF43F6E07303EAC4
:10C8800041134FF0404404EA827423431B4C10349C
:10C89000236000BF00BF131EA2F10102EDD10B1EE9
:10C8A000A1F10101E6D100BF00BF00BFBFF34F8F70
:10C8B00000BF00BF00BF104B1B6843F480330E4C19
:10C8C000236000BF00BF00BFBFF34F8F00BF00BF9A
:10C8D00000BF00BF00BF00BFBFF36F8F00BF00BF2E
:10C8E00000BF00BF05484C30006840F00400034919
:10C8F0004C31086010BD000014ED00E050EF00E086
:10C900002DE9F0419CB080460C4615461E46002796
:10C91000202114A8F3F768FD4C2101A8F3F764FD6A
:10C920003B48006820F004003949086000BF00203F
:10C93000009037480C30006840F4404034490C31D6
:10C9400008600846006800F44040009000BF00BF47
:10C9500000BF2F480C30006800F40050B0F5005FB5
:10C96000F7D101200190000402900020049008906B
:10C970000120079002200A9002210B91CDF834800B
:10C980000C940E950F96109100211291082111918F
:10C990000021139101A8F6F725F807461FB10120E1
:10C9A0001CB0BDE8F0813F201490032015900020BA
:10C9B0001690082017904020199000011A904020EE
:10C9C000189000201B90022114A8F5F0EFFA0746FA
:10C9D0000FB10120E4E7F5F0DFFA0E48006840F0FF
:10C9E00080000C49086000BF0A48F430006840F03D
:10C9F00002000849F43108600846006800F00200AF
:10CA0000009000BF00BFF5F7F5F90020C8E700006F
:10CA10000C480258004402585348008820B152483C
:10CA20000088401E504908805048008820B14F4877
:10CA30000088401E4D4908804D48006820B14C4890
:10CA40000068401E4A4908604A4890F82800C0F330
:10CA5000801020B147480069401C4649086146489B
:10CA6000008820B144480088401E4349088043485C
:10CA7000008820B141480088401E40490880404855
:10CA8000008820B13E480088401E3D4908803D484E
:10CA9000008820B13B480088401E3A4908803A4847
:10CAA000008820B138480088401E37490880374840
:10CAB000008820B135480088401E34490880344839
:10CAC000006820B132480068401E31490860314892
:10CAD000008820B12F480088401E2E4908802E482B
:10CAE000008820B12C480088401E2B4908802B4824
:10CAF000006820B129480068401E2849086028487D
:10CB0000006820B126480068401E25490860254875
:10CB1000006820B123480068401E2249086022486E
:10CB20000088401C80B2204908800A281AD10020C1
:10CB300008801E480088401C80B21C4908800A28D2
:10CB400010D1002008801A480088401C80B2184983
:10CB500008800A2806D1002008801648806B401CF7
:10CB600014498863704700009A1400247614002446
:10CB7000A8160024101D0024A0140024C8140024AA
:10CB8000881C0024C0000024CA140024B01C002407
:10CB9000B41C0024041D0024061D0024901C002445
:10CBA000941C0024981C002486140024881400245B
:10CBB0008A1400249C22002470B5ADF6C81D0546D9
:10CBC0000E461F480068A84206D21EA0FAF084FA5A
:10CBD00001200DF6C81D70BD002413E0254800EBB0
:10CBE000C40090ED000BB7EEC00B234800EB8400AF
:10CBF00080ED000A9FED210B1E4800EBC40080ED84
:10CC0000000B641CB4F51C7FE8D92A4601A9B7EED5
:10CC1000000A1948FCF796FB00240DE001A800EB80
:10CC2000840090ED000A10EE101A0846F3F008FA9E
:10CC300006EBC40203C2641CAC42EFD30020C8E779
:10CC40003C1D00240D0A6C6F61645F7261775F7236
:10CC5000616D703A2072616D705F6C656E677468AB
:10CC6000206C6172676572207468616E203630389E
:10CC7000210A000078280024BC490024000000009C
:10CC80000000000070B502460C46FF25FF2309E0B6
:10CC900012F8010B80EA03010648405C80EA0503B4
:10CCA0000548455C201EA4F10106B4B2F0D143EA68
:10CCB000052070BDBCD70008BCD8000810B56FF0C7
:10CCC00001000349096808610148F6F70EFE10BD2E
:10CCD0004C9200242DE9F74F2DED048B05461646A6
:10CCE00000270024FEA0FAF0F7F9059C00BFE01928
:10CCF00084B2601C285C295D00EB012030600227B3
:10CD0000E01984B2601C285C295D00EB0120706092
:10CD100000BFE01984B2601C285C295D00EB012093
:10CD2000B06000BFE01984B2601C285C295D00EB94
:10CD30000120F06000BFE01984B2601C285C295D0E
:10CD400000EB0120306100BFE01984B2601C285C58
:10CD5000295D00EB0120706100BFE01984B2601C06
:10CD6000285C295D00EB0120B06100BFE01984B2AE
:10CD7000601C285C295D00EB0120F06100BFE01918
:10CD800084B2285D01060022601C285C921841EBE9
:10CD9000004004F10201695C121C40EB012104F126
:10CDA0000300285C131C41EB0002201D285C0021BD
:10CDB000090641EA10214FEA006C13EB0C0342EB29
:10CDC0000100611D695C0022120442EA114209045B
:10CDD0005B184241A01D295C0020000240EA11605E
:10CDE0004FEA012C114613EB0C024141E01D285C77
:10CDF00012EB000A41F1000BC6E908AB0827E01965
:10CE000084B2285D01060022601C285C921841EB68
:10CE1000004004F10201695C121C40EB012104F1A5
:10CE20000300285C131C4841211D695C0022120686
:10CE300042EA112209065B185041611D695C00221B
:10CE4000120442EA114209045B185041A11D695CB9
:10CE50000022120242EA116C09025A1840EB0C003F
:10CE6000E11D695C12EB010A40F1000BC6E90AAB57
:10CE700000BFE01984B2285D0106601C285C01EB4C
:10CE80000041A01C285C01EB0021E01C285C01EBA8
:10CE9000000800EE108AB8EEC00ADFED980A80EEB6
:10CEA000201AB0EE418A86ED0C8A0427E01984B27C
:10CEB000285D0106601C285C01EB0041A01C285C79
:10CEC00001EB0021E01C285C01EB000800EE108A59
:10CED000B8EEC00ADFED890A80EE201AB0EE418A72
:10CEE00086ED0D8A4FF0000924E00427E01984B292
:10CEF000285D0106601C285C01EB0041A01C285C39
:10CF000001EB0021E01C285C01EB000800EE108A18
:10CF1000B8EEC00ADFED790A80EE201AB0EE418A41
:10CF200006F1380000EB890080ED008A09F101006C
:10CF300000F0FF09B9F1080FD7DB4FF0000924E03A
:10CF40000427E01984B2285D0106601C285C01EB0F
:10CF50000041A01C285C01EB0021E01C285C01EBD7
:10CF6000000800EE108AB8EEC00ADFED640A80EE19
:10CF7000201AB0EE418A06F1580000EB890080EDDE
:10CF8000008A09F1010000F0FF09B9F1080FD7DBB1
:10CF90000427E01984B2285D01060022601C285C89
:10CFA000921841EB004104F10200285C121C41EB95
:10CFB000002104F10300285C131C4841211D6A5C18
:10CFC0000021090641EA122112069B184841611D01
:10CFD0006A5C0021090441EA124112049B1848418D
:10CFE000A11D695C0022120242EA116C09025A1862
:10CFF00040EB0C00E11D695C12EB010A40F1000BF3
:10D0000050465946F3F711FA41EC100B9FED3C1BCB
:10D0100080EE012BB0EE429B86ED1E9B0827E019A7
:10D0200084B2285D01060022601C285C921841EB46
:10D03000004104F10200285C121C41EB002104F1C4
:10D040000300285C131C4841211D6A5C002109066D
:10D0500041EA122112069B184141601D285C002202
:10D06000120442EA10424FEA004C13EB0C0341EB6E
:10D070000200A11D695C0022120242EA116C090241
:10D080005A1840EB0C01E01D285C12EB000A41F13C
:10D09000000B50465946F3F7C8F941EC100B9FEDD1
:10D0A0001A1B80EE012BB0EE429B86ED209B00BF49
:10D0B000E01984B2285D0106601C285C01EB004188
:10D0C000A01C285C01EB0021E01C285C01EB00089F
:10D0D00008F10100F0B99FED0E0A86ED230A25E064
:10D0E0000D0A766641737369676E4761734C696EAA
:10D0F0006573506172616D2E2E2E0A0000007A4415
:10D100000000901EC4BCD642000000000088C3404E
:10D110000000000000EE108AB8EEC00A5FED090AB8
:10D1200080EE201AB0EE418A86ED238A0427E019AA
:10D1300084B2601C285C295D00EB0120A6F89000F9
:10D14000B6F89000012802DD0020A6F89000BDECA2
:10D15000048BBDE8FE8F00002DE9F0412DED028B20
:10D160000546884600270024DDA0F9F0B5FF4446B7
:10D1700000BFE01984B2601C285C295D00EB01202F
:10D18000DE4908600227E01984B2601C285C295D32
:10D1900000EB0120D949486000BFE01984B2601C4F
:10D1A000285C295D00EB0120D449886000BFE019AC
:10D1B00084B2285D0106601C285C01EB0041A01CC4
:10D1C000285C01EB0021E01C285C0E18CC4886424C
:10D1D0000BD800EE106AB8EEC00ADFEDCA0A80EE86
:10D1E000208AC64880ED038A04E0B7EE000AC348EF
:10D1F00080ED030A0427E01984B2285D0106601C53
:10D20000285C01EB0041A01C285C01EB0021E01C24
:10D21000285C0E1800EE106AB8EEC00ADFEDB90AFD
:10D2200080EE201AB0EE418AB44880ED048A00BF37
:10D23000E01984B2285D0106601C285C01EB004106
:10D24000A01C285C01EB0021E01C285C0E1800EEFD
:10D25000106AB8EEC00ADFEDAB0A80EE201AB0EE1D
:10D26000418AA64880ED058A00BFE01984B2601C9F
:10D27000285C295D00EB0120A04988610227E019A4
:10D2800084B2285D0106601C285C01EB0041A01CF3
:10D29000285C01EB0021E01C285C0E1800EE106AEF
:10D2A000B8EEC00ADFED970A80EE201AB0EE418A90
:10D2B000924880ED078A0427E01984B2285D0106B0
:10D2C000601C285C01EB0041A01C285C01EB0021E4
:10D2D000E01C285C0E1800EE106AB8EEC00ADFED04
:10D2E000890A80EE201AB0EE418A844880ED088ACF
:10D2F00000BFE01984B2285D0106601C285C01EBC8
:10D300000041A01C285C01EB0021E01C285C0E18E9
:10D3100000EE106AB8EEC00ADFED7A0A80EE201A3D
:10D32000B0EE418A754880ED098A00BFE01984B2E9
:10D33000285D0106601C285C01EB0041A01C285CF4
:10D3400001EB0021E01C285C0E1800EE106AB8EE1C
:10D35000C00ADFED6C0A80EE201AB0EE418AB5EE0D
:10D36000C08AF1EE10FA05D2B0EE000A634880EDF3
:10D370000A0A02E0614880ED0A8A0427E01984B2B3
:10D38000285D0106601C285C01EB0041A01C285CA4
:10D3900001EB0021E01C285C0E1841F28830864227
:10D3A0000DD800EE106AB8EEC00AF2EE040A80EE64
:10D3B000201AB0EE418A514880ED0B8A04E09FEDBF
:10D3C000520A4E4880ED0B0A0427E01984B24F48F8
:10D3D000407D98B1601C285C295D00EB0120474925
:10D3E00008860846008E172802D34848007F088622
:10D3F0004249098E464A505CF3F732FD0227E01994
:10D4000084B2285D0106601C285C01EB0041A01C71
:10D41000285C01EB0021E01C285C0E1800EE106A6D
:10D42000B8EEC00ADFED370A80EE201AB0EE418A6E
:10D43000324880ED0D8A0427E01984B2285D010688
:10D44000601C285C01EB0041A01C285C01EB002162
:10D45000E01C285C0E1800EE106AB8EEC00ADFED82
:10D46000290A80EE201AB0EE418A244880ED0E8A07
:10D4700000BFE01984B2601C285C295D00EB01202C
:10D480001E4988870846808F032808DD0846808F5C
:10D4900047F6FF71884202D0022018498887022788
:10D4A000E01984B200BFE01984B2601C285C295DD9
:10D4B00000EB01201149C8870846C08F4AF6AA210F
:10D4C000884209D00D48C08F4FF6FF71884203D0C3
:10D4D0004AF6AA200949C887BDEC028BBDE8F08155
:10D4E0000D0A766641737369676E496E7374616C79
:10D4F0006C506172616D2E2E2E0A000008200024EF
:10D5000020A1070000007A4400000000101D002444
:10D5100004E3000810B5FEF0E9F8FEF747FC02232B
:10D52000332203210846F7F023FA4FF4C0500A498A
:10D5300008600A480849083108600948091D086060
:10D540000820091D086004485030006820F00100E0
:10D5500001495031086010BD003C00400F00003010
:10D560002F0042A7002002490870012070470000E8
:10D57000A516002438B5044600BF1748006840F0DF
:10D580002000154908600846006800F0200000905F
:10D5900000BF00BF11481249086004F1B300C86021
:10D5A00042F20F70486000210D4881600161F6F77A
:10D5B00009F9002204213720F4F09CFC3720F4F70D
:10D5C00044FE6FF001000649096808610448F6F757
:10D5D0008CF9012038BD0000E844025800140040D6
:10D5E0004C9200241CB5002434480078A8B134A023
:10D5F000F9F072FD40F20F111520F7F739FA00200B
:10D600002E4908704FF47A33024672210090FCF7DD
:10D61000EFFDFBF081FB00201CBD01A8FEF034FFF4
:10D620002F48007830B101280AD002282ED00328D4
:10D6300040D102E0FEF02EFC3CE0FEF02BFC39E095
:10D640002848007840B9012211032748F4F7C4FDA7
:10D6500001202449087008E000224FF4805122483C
:10D66000F4F7BAFD00201F49087000201F49088008
:10D670009DF804200888411C1C4B19801C490A5441
:10D68000022017490870FEF005FC13E017480088D7
:10D69000FF2809DC9DF8042014490888411C134B1D
:10D6A000198013490A5402E003200D490870FEF066
:10D6B000F1FB00BF00BF2046AEE70000AC1600241F
:10D6C0000D0A784D42525455526563656976654638
:10D6D000534D3A2054582062757379210A00000096
:10D6E000AD160024B816002400100258B616002407
:10D6F0008C92002438B500241748007820B1022805
:10D7000007D003280BD109E00020FEF0B1FE04464B
:10D710001AE00120FEF0ACFE044615E014E00FA074
:10D72000F9F0DAFC40F2C1111520F7F7A1F9002059
:10D73000154908704FF47A33024672210090FCF7C5
:10D7400057FDFBF0E9FA00BF00BFFFF7B7FA012071
:10D7500001490870204638BDAD1600240D0A784DE9
:10D760004252545554696D65725433354578706929
:10D770007265643A2064656661756C7420666174D4
:10D78000616C210A00000000AC16002401000200B8
:10D790000400060008000A000C00100020004000F1
:10D7A00080000001010002000400060008000A00D9
:10D7B0000C001000200040008000000100C18140EA
:10D7C00001C0804101C0804100C1814001C0804151
:10D7D00000C1814000C1814001C0804101C0804141
:10D7E00000C1814000C1814001C0804100C1814031
:10D7F00001C0804101C0804100C1814001C0804121
:10D8000000C1814000C1814001C0804100C1814010
:10D8100001C0804101C0804100C1814000C1814000
:10D8200001C0804101C0804100C1814001C08041F0
:10D8300000C1814000C1814001C0804101C08041E0
:10D8400000C1814000C1814001C0804100C18140D0
:10D8500001C0804101C0804100C1814000C18140C0
:10D8600001C0804101C0804100C1814001C08041B0
:10D8700000C1814000C1814001C0804100C18140A0
:10D8800001C0804101C0804100C1814001C0804190
:10D8900000C1814000C1814001C0804101C0804180
:10D8A00000C1814000C1814001C0804100C1814070
:10D8B00001C0804101C0804100C1814000C0C10160
:10D8C000C30302C2C60607C705C5C404CC0C0DCDF0
:10D8D0000FCFCE0E0ACACB0BC90908C8D81819D960
:10D8E0001BDBDA1A1EDEDF1FDD1D1CDC14D4D51590
:10D8F000D71716D6D21213D311D1D010F03031F180
:10D9000033F3F23236F6F737F53534F43CFCFD3DAF
:10D91000FF3F3EFEFA3A3BFB39F9F83828E8E9299F
:10D92000EB2B2AEAEE2E2FEF2DEDEC2CE42425E54F
:10D9300027E7E62622E2E323E12120E0A06061A1BF
:10D9400063A3A26266A6A767A56564A46CACAD6D6F
:10D95000AF6F6EAEAA6A6BAB69A9A86878B8B979DF
:10D96000BB7B7ABABE7E7FBF7DBDBC7CB47475B50F
:10D9700077B7B67672B2B373B17170B050909151FF
:10D980009353529296565797559594549C5C5D9D2F
:10D990005F9F9E5E5A9A9B5B99595898884849891F
:10D9A0004B8B8A4A4E8E8F4F8D4D4C8C44848545CF
:10D9B00087474686824243834181804000000000C1
:10D9C000B71DC1046E3B8209D926430DDC760413D2
:10D9D0006B6BC517B24D861A0550471EB8ED082669
:10D9E0000FF0C922D6D68A2F61CB4B2B649B0C3506
:10D9F000D386CD310AA08E3CBDBD4F3870DB114CB3
:10DA0000C7C6D0481EE09345A9FD5241ACAD155F95
:10DA10001BB0D45BC2969756758B5652C836196A9E
:10DA20007F2BD86EA60D9B6311105A6714401D7989
:10DA3000A35DDC7D7A7B9F70CD665E74E0B6239833
:10DA400057ABE29C8E8DA191399060953CC0278B9D
:10DA50008BDDE68F52FBA582E5E66486585B2BBE24
:10DA6000EF46EABA3660A9B7817D68B3842D2FAD41
:10DA70003330EEA9EA16ADA45D0B6CA0906D32D4E4
:10DA80002770F3D0FE56B0DD494B71D94C1B36C719
:10DA9000FB06F7C32220B4CE953D75CA28803AF222
:10DAA0009F9DFBF646BBB8FBF1A679FFF4F63EE17D
:10DAB00043EBFFE59ACDBCE82DD07DEC7770863442
:10DAC000C06D4730194B043DAE56C539AB068227B1
:10DAD0001C1B4323C53D002E7220C12ACF9D8E12F0
:10DAE00078804F16A1A60C1B16BBCD1F13EB8A0125
:10DAF000A4F64B057DD00808CACDC90C07AB9778B2
:10DB0000B0B6567C69901571DE8DD475DBDD936BF4
:10DB10006CC0526FB5E6116202FBD066BF469F5ED5
:10DB2000085B5E5AD17D1D576660DC5363309B4DA8
:10DB3000D42D5A490D0B1944BA16D84097C6A5AC36
:10DB400020DB64A8F9FD27A54EE0E6A14BB0A1BFFC
:10DB5000FCAD60BB258B23B69296E2B22F2BAD8A2B
:10DB600098366C8E41102F83F60DEE87F35DA999E0
:10DB70004440689D9D662B902A7BEA94E71DB4E0A3
:10DB8000500075E4892636E93E3BF7ED3B6BB0F378
:10DB90008C7671F7555032FAE24DF3FE5FF0BCC659
:10DBA000E8ED7DC231CB3ECF86D6FFCB8386B8D59C
:10DBB000349B79D1EDBD3ADC5AA0FBD8EEE00C697C
:10DBC00059FDCD6D80DB8E6037C64F643296087A82
:10DBD000858BC97E5CAD8A73EBB04B77560D044FD5
:10DBE000E110C54B383686468F2B47428A7B005C56
:10DBF0003D66C158E4408255535D43519E3B1D250F
:10DC00002926DC21F0009F2C471D5E28424D193645
:10DC1000F550D8322C769B3F9B6B5A3B26D615038A
:10DC200091CBD40748ED970AFFF0560EFAA01110D9
:10DC30004DBDD014949B93192386521D0E562FF17F
:10DC4000B94BEEF5606DADF8D7706CFCD2202BE2CD
:10DC5000653DEAE6BC1BA9EB0B0668EFB6BB27D710
:10DC600001A6E6D3D880A5DE6F9D64DA6ACD23C411
:10DC7000DDD0E2C004F6A1CDB3EB60C97E8D3EBD20
:10DC8000C990FFB910B6BCB4A7AB7DB0A2FB3AAE49
:10DC900015E6FBAACCC0B8A77BDD79A3C660369B8E
:10DCA000717DF79FA85BB4921F4675961A1632884D
:10DCB000AD0BF38C742DB081C330718599908A5D62
:10DCC0002E8D4B59F7AB085440B6C95045E68E4EE1
:10DCD000F2FB4F4A2BDD0C479CC0CD43217D827B5C
:10DCE0009660437F4F460072F85BC176FD0B8668F5
:10DCF0004A16476C93300461242DC565E94B9B118E
:10DD00005E565A1587701918306DD81C353D9F0224
:10DD100082205E065B061D0BEC1BDC0F51A69337C1
:10DD2000E6BB52333F9D113E8880D03A8DD0972478
:10DD30003ACD5620E3EB152D54F6D4297926A9C502
:10DD4000CE3B68C1171D2BCCA000EAC8A550ADD6AC
:10DD5000124D6CD2CB6B2FDF7C76EEDBC1CBA1E317
:10DD600076D660E7AFF023EA18EDE2EE1DBDA5F030
:10DD7000AAA064F4738627F9C49BE6FD09FDB8895F
:10DD8000BEE0798D67C63A80D0DBFB84D58BBC9A28
:10DD900062967D9EBBB03E930CADFF97B110B0AFC5
:10DDA000060D71ABDF2B32A66836F3A26D66B4BCEC
:10DDB000DA7B75B8035D36B5B440F7B101000200F7
:10DDC0000400060008000A000C00100020004000BB
:10DDD00080000001010002000400060008000A00A3
:10DDE0000C0010002000400080000001AAAA04DC02
:10DDF000D232ED0B0001000300000000000307E435
:10DE00000B181325000100040005000000000001AC
:10DE1000026000AA024E001900370003000500034B
:10DE20000019000A000300010003000108000000BF
:10DE30003A9800000000FFFFFFFFFFFFFFFFFFFF1A
:10DE4000FFFFFFFFFFFFFFFFFFFFFFFFFFFFFFFFE2
:10DE50000000000000000002000100FB00F10105CD
:10DE600000000000000000000000000000000000B2
:10DE70000004FA380000000000000000000000006C
:10DE80000000000000000000000000000000000092
:10DE90000000000000000000000000000000000082
:10DEA0000000000000000000000000000000000072
:10DEB0000000000000000000000000000000004919
:10DEC000FFFFFFFFFFFFF66EFFFFFFFFFFFFFFFFFC
:10DED000FFFFFFFFFFFFFFFFFFFFFFFFFFFFFFFF52
:10DEE000FFFFFFFFFFFFFFFFFFFFFFFFFFFFFFFF42
:10DEF000FFFFFFFFFFFFFFFFFFFFFFFFFFFFFFFF32
:10DF0000FFFFFFFFFFFFFFFFFFFFFFFFFFFFFFFF21
:10DF10000001000000000005000100FB00F1010508
:10DF200000000000000000000000000000000000F1
:10DF30000004FA38000000000000000000000000AB
:10DF400000000000000000000000000000000000D1
:10DF500000000000000000000000000000000000C1
:10DF600000000000000000000000000000000000B1
:10DF70000000000000000000000000000000004958
:10DF8000FFFFFFFFFFFFF66EFFFFFFFFFFFFFFFF3B
:10DF9000FFFFFFFFFFFFFFFFFFFFFFFFFFFFFFFF91
:10DFA000FFFFFFFFFFFFFFFFFFFFFFFFFFFFFFFF81
:10DFB000FFFFFFFFFFFFFFFFFFFFFFFFFFFFFFFF71
:10DFC000FFFFFFFFFFFFFFFFFFFFFFFFFFFFFFFF61
:10DFD0000002000000000005000100FB00F1010547
:10DFE0000000000000000000000000000000000031
:10DFF0000004FA38000000000000000000000000EB
:10E000000000000000000000000000000000000010
:10E010000000000000000000000000000000000000
:10E0200000000000000000000000000000000000F0
:10E030000000000000000000000000000000004997
:10E04000FFFFFFFFFFFFF66EFFFFFFFFFFFFFFFF7A
:10E05000FFFFFFFFFFFFFFFFFFFFFFFFFFFFFFFFD0
:10E06000FFFFFFFFFFFFFFFFFFFFFFFFFFFFFFFFC0
:10E07000FFFFFFFFFFFFFFFFFFFFFFFFFFFFFFFFB0
:10E08000FFFFFFFFFFFFFFFFFFFFFFFFFFFFFFFFA0
:10E09000000000000000000003E8000003F5000499
:10E0A0008440000000000000000003F500048440EC
:10E0B00000000014000000000001000003E8000060
:10E0C0004E200001FFFFFFFFFFFFFFFFFFFF5FD8B4
:10E0D000000000020000000000054E4833284C6993
:10E0E0006E652D30290000000000000000000000D7
:10E0F00000000000000000000000FFFF000003E837
:10E10000FFFFFFFFFFFFFFFFFFFFFFFFFFFFFFFF1F
:10E110000000000000010001000548324F284C6952
:10E120006E652D3129000000000000000000000095
:10E1300000000000000000000000FFFF000003E8F6
:10E14000FFFFFFFFFFFFFFFFFFFFFFFFFFFFFFFFDF
:10E15000000000000002000200054F32284C696EEA
:10E16000652D3229000000000000000000000000C2
:10E1700000000000000000000000FFFF000003E8B6
:10E18000FFFFFFFFFFFFFFFFFFFFFFFFFFFFFFFF9F
:10E19000000100000003000300055452414E534D9E
:10E1A000495353494F4E000000000000000000009A
:10E1B00000000000000000000000FFFF000003E876
:10E1C000FFFFFFFFFFFFFFFFFFFFFFFFFFFFFFFF5F
:10E1D0000003000000000002000100FB00F1010547
:10E1E000000000000000000000000000000000002F
:10E1F0000004FA38000000000000000000000000E9
:10E20000000000000000000000000000000000000E
:10E2100000000000000000000000000000000000FE
:10E2200000000000000000000000000000000000EE
:10E230000000000000000000000000000000004995
:10E24000FFFFFFFFFFFFF66EFFFFFFFFFFFFFFFF78
:10E25000FFFFFFFFFFFFFFFFFFFFFFFFFFFFFFFFCE
:10E26000FFFFFFFFFFFFFFFFFFFFFFFFFFFFFFFFBE
:10E27000FFFFFFFFFFFFFFFFFFFFFFFFFFFFFFFFAE
:10E28000FFFFFFFFFFFFFFFFFFFFFFFFFFFFFFFF9E
:10E29000000100000004000400055452414E534D9B
:10E2A000495353494F4E0000000000000000000099
:10E2B00000000000000000000000FFFF000003E875
:10E2C000FFFFFFFFFFFFFFFFFFFFFFFFFFFFFFFF5E
:10E2D00055550000010002000400060008000A0075
:10E2E0000C0010002000400080000001010002002E
:10E2F0000400060008000A000C0010002000400086
:10E30000800000010B82808481868388858A8789CA
:10E3100002000401060308050A07090000000000C6
:10E320009A9927429A9971423333BF4200000943B8
:10E330009A195B4300009E433353004400C03244AB
:10E3400033838C440080E34400C03745338F9345CA
:10E3500000D0D4459A1B284600A07046CDDEBF46AB
:10E3600000740B4733245E4700B699474DF8F647D3
:10E37000003248480022A148000000000000E03FB1
:10E38000000000000000E0BF0000E0FE422EE63F7B
:10E390000000E0FE422EE6BF763C7935EF39EA3DDB
:10E3A000763C7935EF39EABD3E5555555555C53F53
:10E3B00093BDBE166CC166BF2CDE25AF6A56113FF9
:10E3C000F16BD2C541BDBBBED0A4BE726937663EFB
:10E3D00000000000000000000D0A4554475F504354
:10E3E0005F4F50435F504152414D5F5441424C4555
:10E3F0005F44454255473A207374617475735B30CE
:10E4000078253034785D2C2072756E6E696E675F8A
:10E41000666C6167305B3078253034785D2C207213
:10E42000756E6E696E675F666C6167315B3078250B
:10E430003034785D0A0000000D0A4554475F5043B0
:10E440005F4F50435F524541445F54454D503A2021
:10E450007374617475735B3078253034785D2C206B
:10E4600072756E6E696E675F666C6167305B30787F
:10E47000253034785D2C2072756E6E696E675F662C
:10E480006C6167315B3078253034785D0A000000BC
:10E490000D0A4F445220697320307825303278209D
:10E4A0005B302D3E354D487A2C20322E354D487A42
:10E4B0002C20312E32354D487A2C203632354B48BF
:10E4C0007A2C203331322E354B487A2C20352D3E94
:10E4D0003135362E32354B487A5D0A000D0A696EA9
:10E4E00069745F6761735F656E7672696F6E6D6583
:10E4F0006E745F73657474696E67733A206D6F64D0
:10E5000065205B25645D2C20706174685F6C656EAE
:10E51000677468205B25665D2C2070726573737567
:10E520007265205B25665D2C2074656D7065726177
:10E5300074757265205B25665D2C2062726F616464
:10E54000656E696E67205B25645D0A004761732014
:10E55000257320616D706C69747564653A2025645B
:10E560002C206C73663A2025652C206C77663A2047
:10E5700025652C2072617720636F6E63656E7472FF
:10E580006174696F6E3A2025652C20756E69743A46
:10E5900020256420636F6E63656E74726174696FA9
:10E5A0006E3A2025650A00000D0A626650617261AC
:10E5B0006D5F436F6E6669673A2075635043545FC1
:10E5C000496E557365205B25645D2C206C6F63611B
:10E5D0006C204352435F436865636B5F7533325B06
:10E5E0002523785D2C20466C61736820756C43523E
:10E5F0004333325B2523785D0A0000000D0A4D424B
:10E60000537973506172616D5570646174653A201D
:10E61000676173547970653D2523782C2067617399
:10E62000547970654C6F63616C3D2523782C204DC7
:10E63000696E6F725665723D2523780A00000000EE
:10E640000D0A53454C465F43414C49425F53544188
:10E6500054453120734C656674446972656374690E
:10E660006F6E436E745B25645D2C2073526967681E
:10E6700074446972656374696F6E436E745B25647C
:10E680005D2C206543616C696244697265637469DD
:10E690006F6E5B25645D0A000D0A2A2A2A2A2A73F6
:10E6A00079735F73656C665F63616C6962726174D4
:10E6B000653A206D65617375726520706F7369745A
:10E6C000696F6E205B25665D2C2072656620706F19
:10E6D000736974696F6E205B25645D2C20756343DC
:10E6E000616C6962436E745B25645D0A0000000022
:10E6F0000D0A53454C465F43414C49425F574149DF
:10E70000545F434F4D50454E534154494F4E5F5314
:10E71000544154453A207374617475735B307825A5
:10E720003034785D2C2072756E6E696E675F666C32
:10E730006167305B3078253034785D2C2072756EDF
:10E740006E696E675F666C6167315B307825303467
:10E75000785D0A0074E7000800000024101D000026
:10E76000B6011008B4FF0008101D0024F8A900002D
:10E77000208E00086110084543414D414E41320C46
:10E78000720142FF45A0A1A2A31CFCFDFE10591B73
:10E7900022300231242A013D695C69080117064EC6
:10E7A000080B0B1111108F056C073E5FB4073EDBA1
:10E7B000C1083E2DEC093E94C20C3E1E33103ED4DF
:10E7C000D4123E73F1173E0A661C3EC39F213E6D74
:10E7D00039273EF4F82D3E5CCB343E7C623D3EF55D
:10E7E000BA453EE3504F3EC51B593E05DC633E2C07
:10E7F000B86F3E07EC7A3E2D05843EF4A3893E09AE
:10E80000DE903E963F973EAAD29E3EBF65A63E6EE4
:10E810006CAE3E48C2B63E3CDCBE3E1B0DC83EC69A
:10E82000DDD03E4182DA3ED07BE33E2979ED3E7673
:10E83000F9F63E0BD210123F39F1053F3FC70B3FAF
:10E84000CD1D113F31EA163F1014C51C3F25B322E0
:10E850003F45B9283F6FB92E3FE608353F186B5644
:10E860003B3F66BC413F5455483F38F44E3F48C398
:10E87000553F5DA45C3FC363633F567D6A3F309E56
:10E88000713F889E783F02D57F3F268B833F0630BD
:10E89000873FF1F28A3F43AC8E3FD87E923F094FCB
:10E8A000963F6B299A3F65FE9D3FD5EAA13FE4D78D
:10E8B000A53FE1B5A93FFAB7AD3F2D97B13F56BA95
:10E8C000B53F8D9CB93FAFB3BD6810CCC13FECC024
:10E8D000C53FD4D3C93FC5E6CD3F79E6D13F3D0D15
:10E8E000D63FF71EDA3F7B2FDE3F0B43E23F9356C6
:10E8F000E63FE771EA3FF261EE3F3197F23FDE908B
:10E90000F63FCAA6FA3F48A5FE3FB0560140375031
:10E910000340D74B0540C74707409E44094017298D
:10E920000B40331A0D40A1110F40E1EB1040E6E619
:10E930001240A9BF1440ED9F1640607818409D4CCE
:10E940001A40A7221C40DDED1D4091B71F40717396
:10E950002140C53D23406BEF2440EF9226400C59E7
:10E960002840D1EA2940EB8B2B408F372D40E1B472
:10E970002E402F4E304059DC3140A853334096D1C1
:10E980003440FB3E36408BA73740B70A39402865F4
:10E990003A407CBA3B407A188C3D4028433E40EDDB
:10E9A0007E3F408EAC4040E1D34140D9EB42402114
:10E9B000044440790645406D1B46409B0347400494
:10E9C0000248408FE04840D2C7494085954A4052AE
:10E9D000654B40E5274C40A1D94C40938F4D40FBFF
:10E9E0003A4E4050C54E4080634F4050E34F40BBCD
:10E9F0006350402DCE504054355140B29D5140C8D7
:10EA0000EF5140FB3D52409B72524025AE52402791
:10EA1000D95240D3F75240E00F53400115534057AD
:10EA2000245340950C1EBDFB5240C21C184A29B409
:10EA300052409E785240433B5240CFF551406AA627
:10EA40005140923F514071E450401C5D5040F8FBF2
:10EA50004F40645B4F4021CA4E402A364E40C28729
:10EA60004D40BEDE4C4079224C40035F4B40EA945F
:10EA70004A4034BE4940DBB4102145F347403507D6
:10EA8000474096074640DD084540A0FF43409CDED6
:10EA90004240AAD241401B9B40401070753F408DC0
:10EAA000423E40F1F23C40C7BA3B40D55B3A40D3CE
:10EAB0001239408BA7374063443640CBD53440C829
:10EAC0005E334088D73140D15D3040EFC62E4010D4
:10EAD0003C2D40FDA32B4026FD2940F25C284042FE
:10EAE0009926401002254055322340E78A21400CE8
:10EAF000B01F40CBF71D4042261C401E511A40E873
:10EB0000851840359A164040BD14401014E3124059
:10EB100095F11040A1140F40B41E0D40E8300B4099
:10EB200000FF003B09405F45074056470540CF4D79
:10EB30000340DF510140419FFE3F03B1FA3FDA8DB0
:10EB4000F63F62A1F23FB08FEE3F486BEA3F0168AB
:10EB5000E63FD13EE23FF549DE3FC823DA3F761774
:10EB6000D63FFA0CD23FC8EFCD3F85EFC93FBFD4A7
:10EB7000C53FE4D9C13F84BBBD3F72C5B93FFBCCA3
:10EB8000B53FA7B1B13F03CDAD3F7CB9A93F85EDFE
:10EB9000A53F91D1A13F44159E3FF81A9A3F624884
:10EBA000963FDB87923FACAB8E3F65018B3F6F2F6B
:10EBB000873FC89A833F9DD87F3FFBB2783F5187FC
:10EBC000713F126A6A3FBA69633FD0B85C3F69AC73
:10EBD000553FC5384F3F6973483FB1E1413F897C9C
:10EBE0003B3F581D353FE0D92E3FD7C2283F51C08B
:10EBF000223FCEFE1C3FE10B173F6F80113FF0DC40
:10EC00000B3F5C74063F6403013FF547F83E43A9A0
:10EC1000ED3EC021E43EA06CDA3E1AFDD03E96CE19
:10EC2000C718803EF721BF3E5875B63E6A84AE3E97
:10EC3000BF65A63E80EF9E3EC07B973E4E98903EBD
:10EC400095B9893EDE74833E8BDE793EB62C6F3EED
:10EC50007CB5633EF3AB593EADA24F3E5F7B463E73
:10EC6000B7443E3E68CF353E93192F3EA81B283E41
:10EC70009EB7213EAAD41C3E5EF7163EC66D143EDA
:10EC8000431B103E467E0D3E6DC90A3E9E43093E23
:10EC9000A513093E35D1073EBDA9083E261C0A3EF4
:10ECA00072C41800FF00780E3E94BE103E566414E5
:10ECB0003E8A72193ECCD21E3EB3EA233EC9CB2A0D
:10ECC0003E4F04313ECF2C393E2998413E7E8F4A3B
:10ECD0003E185F543ED8645D3E8D62693E1A1974D9
:10ECE0003E711C803EC8CF863E56D88C3E854294ED
:10ECF0003EA92F9B3E25E9A23E07B6AA3EE882B276
:10ED00003E4034BB3E096BC33EB77CCC3E02BCD513
:10ED10003EE42DDF3EED9AE83EB4E7F23E96B2FCCB
:10ED20003E3DB8033F6E18093FF3740E3FF60914D9
:10ED30003F9FE9193F94891F3F0A80253F47AA2B2F
:10ED40003FEBC4313F82FD373F19593E3FE8D9447C
:10ED50003FD6724B3F062B523FF2CF583F6BB95F05
:10ED60003F32B0663F33C06D3FC7D9743F643A7CD1
:10ED70003F60AC813F1E6E853F0B25893F4ED28C94
:10ED80003FB5A9903F1172943FA241983F33179C21
:10ED90003FA706A03FA8E1A33F2AE3A73FF4C2ABE9
:10EDA0003F9EB3AF10503FB6BBB33F5FB2B73FAE6D
:10EDB000BBBB3F64CABF3F45BCC33F06DAC73F2168
:10EDC000E5CB3FDFF9CF3FF701D43FA704D83FC7DA
:10EDD00012DC3FF432E03FDA3CE43FCE52E83F1F22
:10EDE00065EC3F965DF03F247DF43F7077F83FEE91
:10EDF0007BFC3FF14B00FF0040FD4C0240C93A0450
:10EE000040E04D0640143E0840EB3A0A4002290C0F
:10EE1000401E1A0E40D50810404BEA11409CDF13EB
:10EE200040EEAF1540F19E17400B621940D0461BD3
:10EE300040B3081D4023DB1E4023A220404F5B222D
:10EE4000402F142440EFC72540677E27401A17291A
:10EE5000405CC92A4053592C40B6F42D40467C2FC3
:10EE6000400E113140159132405DFC3340A1863592
:10EE7000408FDF3640C24E3840B4AD39409CFA3A3C
:10EE800040CD3E3C40D5933D402ECA3E40E8F63F43
:10EE9000408540414039614240446C434060924467
:10EEA00040658E4540219346406A864740EA7A484D
:10EEB00040DD5B494061344A409A094B40ABCD4B41
:10EEC0004055894C40A73B4D407AE34D40488B4E1E
:10EED000409C154F4015AB4F4029225040C39A50DB
:10EEE00040EE0A51408C67514093C351407B14520D
:10EEF00040055352403100FF00985240CAC0524072
:10EF00007EE552406EFB5240FA0E534017115340BB
:10EF1000130B534029045340A9DA52406DCA5240A2
:10EF20007A8C52404260524061185240B0C8514001
:10EF3000C66E5140F416514016A45040FE29504070
:10EF40007DB04F40541B4F40E6944E4044DF4D404F
:10EF5000603E4D4005864C405DC44B40AF054B4084
:10EF6000F6284A40AE634940446B4840218F4740F1
:10EF70009F944640649145403C844440E678434039
:10EF8000EA5D4240122F41402C0D404051D83E4096
:10EF900089963D40234E3C405E0F3B404CA8394093
:10EFA00096593840C9E93640D78A35406E14344006
:10EFB00081963240481B3140EE942F40A8FE2D40F0
:10EFC0000E682C402DD12A405A2D2940228A2740F4
:10EFD00091D12540BB2724409E5E224047AD204072
:10EFE00072DE1E40D6191D40E9451B40446F194092
:10EFF000EE981740D8B615102C4005DF134064E991
:10F000001140070A10404A0C0E4088300C40492E2F
:10F010000A40FB3B0840AA460640603B04409C5324
:10F0200002400A4B10BB40029AFC3F2099F83F3245
:10F030008FF43F177EF03F5F7BEC3F7574E83F7FB6
:10F040004FE43FA35AE03FDF33DC3F8924D83F9CA5
:10F0500014D43FB610D03F5DF8CB3F78EEC73F8A5F
:10F06000E4C33F6FD9BF3F2EE2BB3F3FC9B73FC6A6
:10F07000DCB33F0CCBAF3FD9EBAB3F58E4A73FDE4F
:10F08000E8A33F2121A03F782A9C3FA241983FDA84
:10F0900070943F4A9B903F2AE08C3F9F1C893F51D0
:10F0A0006C853F79CD813F4E287C3F5512753F0FCF
:10F0B000EF6D3F45DA663FFAF15F3FCB2D593F13C5
:10F0C00043523F6ABD4B3F90F5443FBCAF3E3F4388
:10F0D0001F383F8621323F36CD2B3F27A4253FA83E
:10F0E00000FF00203F11FE193FE485143F20CF0EA2
:10F0F0003F9D66093F15C9033FC570FD3E9CF8F270
:10F100003E76C1E83E910EDF3E438ED53EED83CC88
:10F110003EC7F1C33EB1C4BB3EC47AB33E9DF3AB20
:10F120003EE9F1A33EF8189C3E93A7943E8BDF8CFA
:10F130003EEC89863ECCB77E3E9910733E0B0C693F
:10F140003E71035E3E1F2F543E4E634B3EECA04289
:10F150003E50353A3EA27C313EC2FB2A3E95D22338
:10F160003E55C01D3E732A193E0150153EEDB811A3
:10F170003EB4720F3EDB6F0D3E0CEA0B3E20D30A0D
:10F180003ED2E53F402FA83B40B9352E405AF018FB
:10F1900040E124FF3F2FFAC83F7994923FE3C33CFC
:10F1A0003F8CD6C93E3F1A2E3EFAED6B3D50A6511C
:10F1B0003C94DA8B3A3CBCE7B96281AF3A7CB864E4
:10F1C0003B64903B3B7E8A633BFE45503BE65AB432
:10F1D0003A69AB923ABA4B623BFB73513B110187E0
:10F1E0003A38246C40843AEA758B3A4F3DD2B919CB
:10F1F0003D37BA118A2DBA0CE6AF3A3BAA9AB91339
:10F2000010933A6825AD042D110107BA5C2845B763
:10F210000D23BA9F7161BA5C548BBA64CDC8B92B07
:10F22000C1623A121354BA16316CBA6C09F9B9DBDF
:10F230008992BA57B08DBA5E6317BBD14197BA7144
:10F24000218FB9804A95BA795DBFB90EF53BBAD026
:10F2500044583A14291C188E78D418BBD97A86BA27
:10F26000FF420FBB1CD228BA03CED23C84D7AE3D9E
:10F270002CF3163EEEB23F3E1FF6523E4EB75C3EBA
:10F280009F935E3EFED65E3E22385E3EE10C5E3EC1
:10F2900010215E3EDA725E3EDC115E3E84655C3EAD
:10F2A000ACA95C3E35D05C3ECFBC5C3E64AE5C3EFF
:10F2B000514C5E3E71CA5C3E40865E3EA27D5C3E25
:10F2C000433A5C3EF10F5B3EAE485C3EA0DE5C3EE6
:10F2D00042EC5C3E29085E3E8A92603EB08F5E3E04
:10F2E00063635E3EF2102920481799475E3E180975
:10F2F0005D3EFF5A5E3EF6435C3E45815E3E4C1BE2
:10F300000418237AE15E3E0AD85E3E61525C3EE319
:10F31000A85C3E802A5E3EE0BE5E3E75B05E3ECC9E
:10F320000B603E75E64C3827995E3E7B2F5E3EF1C2
:10F33000BA5E3E2B4F603EB475603E31D1603E1CDC
:10F34000EF5E3EAF7A603EBB0F603E3AB262101095
:10F35000CB46D25E3ED7D9603E4B02643E5CAF697D
:10F360003ED0D06F3E1F4D753EC8D17C3EC05E8101
:10F370003EA437843ED714883E3D0B8A3E9BCB8DFE
:10F380003E45D58F3E44DE923EE19B963E36AC999B
:10F390003EFA469C3EAF419F3EC231A33E5BEEA487
:10F3A0003E0ADBA73E6EDCAA3E74B5AD3EAAD3B1E1
:10F3B0003E0C56B43EA050B73E643CBA3E8104BDFC
:10F3C0003E3A40C03ED7DFC23EA60AC63E76C1C81E
:10F3D0003EAA9ECC3E26AACF3E7B13D33E5857D59D
:10F3E0003E371AD83E433CDA3EB3F0DD3E569EE04F
:10F3F0003E74B2E43ED34CE73E4434EA3E1539EC69
:10F400003E0A2CF03EAED9F23E3D0CF53E6DA8F81A
:10F410003EDBA7FB3E1688FE3E0744100B3F5248DA
:10F42000023F2194033F9310EF053F9A98063F4B0C
:10F4300006083F6682093FA6EE0A3FF8520C3F5A83
:10F44000D60D3F9D130F3FA394103FFF75123FFA57
:10F4500008143F1173153F5EF7163F5E30183F6E7C
:10F460004E193F60211B3FC8B61C3F70771E3F16E8
:10F47000871F3F9B57213FA5F6223FA1F6233FD888
:10F4800049253F59C2263F97AE283FA5122A3F2063
:10F49000792B3FDAFF2C3FD47F2E3FE23C303F5F99
:10F4A0005D313F96B0323F064C343FA7AD353FF457
:10F4B000A5373FD120393F118D3A3FE4D73B3FAAD2
:10F4C000633D3FB5C03E3FF720403FEFAC413F7743
:10F4D0002B433F5DF9443F4562463F64E5473FBCEF
:10F4E0007A493F4AEC4A3FB7464C3F9FAF4D3F2DCC
:10F4F000064F3F6B99503FC4E8513F3484533F510E
:10F500004D553F02BB563FB134583F4DBE593FC8E1
:10F51000245B3F728C5C3F180F1D5E3F1C995F3F60
:10F52000CAFB603F826F628000FF00643FF5BA65EE
:10F530003FA2D0663FE38D683F8197693F338C6B74
:10F540003FACFE6C3F637E6E3F14EC6F3F215C71FD
:10F550003F13D2723F2D94743F9A95753F821D7769
:10F560003F0989783FAEF1793FB54F7B3FBFEE7CD5
:10F570003F16BE7E3F8928803F55A4803FAD8781DE
:10F580003FD13C823F49F4823F2FC3833FF33E8407
:10F590003F8526853F2BD9853F1DE3863F5F9987B1
:10F5A0003F2315883F90BD883FD87F893F4B3A8ADB
:10F5B0003F4FE98A3FAAD58B3F0F9B8C3F2F518D40
:10F5C0003F3A068E3F5BD38E3FAA808F3F653490D3
:10F5D0003F7BF8903FB29F913F5858923FAE649363
:10F5E0003FE605943FAED7943F9F8E953F342C96CF
:10F5F0003F4AF0963FF4A5973FF434983F492C9941
:10F600003F77A1993FA0899A3FDE3C9B3FEF039C47
:10F610003F66C19C3F22719D3FF31B9E3FD9EA9EEE
:10F620003FD4619F3FC45CA03F00FF000210A13F98
:10F630006DCAA13FC87EA23F8E3DA33F56BCA33FEB
:10F64000BB5EA43FC91CA53FA3CDA53F50C4A63FA8
:10F650002D5BA73FB550A83F280BA93FF0A6A93FB7
:10F66000376FAA3F56EFAA3F9F94AB3F7A54AC3F07
:10F670009221AD3F6AFBAD3F20CFAE3F338AAF3F13
:10F680002E01B03FAAF3B03F315CB13F5229B23FE7
:10F69000D8D7B23F2386B33F3944B43F9E09B53F24
:10F6A0003603B63F37A9B63F4661B73F71E2B73F71
:10F6B00075AEB83F018AB93F0E16BA3F2103BB3F72
:10F6C000C3B8BB3F9F72BC3F6F29BD3FA1A1BD3FE7
:10F6D0005AA1BE3F5512BF3F06DABF3FADBEC03F85
:10F6E0006878C13F3334C23F6ABEC23FF1B9C33FFD
:10F6F000992EC43FE4D6C43F3599C53FD34BC63F8E
:10F700006612C73F4AD2C73F508AC83F9643C93F97
:10F71000ACE4C93F22A8CA3F4354CB3FBE14CC3F00
:10F72000FED6CC3FA88CCD3FA43500FF00CE3FCF06
:10F73000F4CE3F9AB6CF3F4D6AD03F8334D13FECF1
:10F74000D9D13F588ED23FB342D33FD6FDD33FDB12
:10F7500089D43F4F3ED53FC904D63FE4F7D63F8D0D
:10F76000B3D73FCF69D83F6D1CD93F6893D93FC607
:10F7700052DA3FD410DB3F4FAEDB3FF86FDC3FE1A6
:10F780005EDD3F2827DE3F5299DE3F9758DF3F7806
:10F7900041E03FFE9AE03FCF4BE13FDC2CE23FC32C
:10F7A000F5E23FC075E33F1B62E43FE31AE53F2308
:10F7B000D7E53F7382E63F3D44E73F3ECDE73FB5A7
:10F7C0008AE83F7F2FE93F6F2AEA3FD5AFEA3F152E
:10F7D0008FEB3F1E18EC3F86C9EC3F2979ED3F3097
:10F7E00048EE3F4209EF3F32E7EF3FDBA2F03F7DBB
:10F7F00058F13F581EF23F8B8AF23F2540F33F6994
:10F80000FFF33F01BDF43F0169F53FF626F63FCB1C
:10F81000F7F63FE198F73F4967F83FE10DF93F54AC
:10F82000C8F93F8446FA3FD237FB3F101F69ACFB53
:10F830003FE675FC3F925DFD3FE9EDFD3F42D1FEA5
:10F840003F8923FF3F7EFEFF3F3546144059A714F2
:10F8500040C2F910DB407E710140FFAF0140D4107F
:10F8600002401E6E0240E2CB0240F92D0340FD86AD
:10F87000034030D803409B200440087604409CDCC1
:10F880000440123105403B89054095EE0540E947AB
:10F890000640849E0640EBE006402D5D0740569CE6
:10F8A0000740C7F3074011510840BDA90840DA04DA
:10F8B0000940726B0940C1A80940FA080A405B5F21
:10F8C0000A40D0B90A40C7100B4008770B401CB360
:10F8D0000B400B260C40406A0C4065DE0C407E1D40
:10F8E0000D40E4820D40CFD90D40A1310E403E784D
:10F8F0000E405AD60E40122F0F40FD850F40C9E72B
:10F900000F40B74410409D8510407EE01040BD364A
:10F910001140739C1140E2EA1140403112409BAC0F
:10F920001240E6E912400F641340529B134011103D
:10F930008C1440533E1440F6B31440C3EF1440629D
:10F940004C154021B115401B0E16405E6716406EE7
:10F95000A71640C11917407060174041BB1740AD52
:10F96000161840B66818409ECF18403D291940DF50
:10F970008819408CBC1940E6241A40E0811A407F67
:10F98000DE1A4083311B40D9961B4024D41B40A271
:10F99000251C40809F1C40ABE71C40FB3D1D40E206
:10F9A000941D40F5DA1D40342E1E40FF921E404249
:10F9B000E91E40BB441F40BA841F40651A20540012
:10F9C000FF002040459B2040AEF32040B43C214046
:10F9D000AF992140C4E821405A4522406685224023
:10F9E00070EA22406B44234044A5234055DB23406A
:10F9F00022332440BC932440F1D724404431254095
:10FA0000658F254019E22540F73C26407C81264041
:10FA1000ACE52640E2392740147827401BD7274021
:10FA20003C3228409B8E284076E22840062A294016
:10FA30008C8129402BDB2940821B2A40A3732A405A
:10FA400055D92A40E42F2B405D8B2B4039D02B40D9
:10FA500014242C40C7832C402BC32C40971B2D40D3
:10FA6000A7772D40CFDB2D404C1A2E40336B2E4014
:10FA7000D5CD2E40B30C2F40546F2F407EC42F4065
:10FA8000BC243040786130408CBC30409C15314003
:10FA900053583140BFB63140EC14324052643240CA
:10FAA00051A43240F30333405760334070B53340C4
:10FAB000D8F433409F563440F3AF344089ED34409E
:10FAC000181C3F533540BDA73540D0ED35406F473A
:10FAD0003640739D3640C1E03640213A37E8105B2E
:10FAE0003740F5D73740282938403F8B3840A4E0CD
:10FAF0003840392539405567394040C13940761B77
:10FB00003A40C07B3A4099BA3A4048193B406E6B44
:10FB10003B408AB03B40E9F03B4039603C406EA13D
:10FB20003C4086033D4085433D40D5AF3D4034F3E6
:10FB30003D4098323E407D933E40001054E53E40AB
:10FB40002B303F40F9813F40B5E03F409404100224
:10FB500012A01210890E011614E009100220060AE4
:10FB6000200A241A2024021F040A2140240A2160AA
:10FB70006C0A2180480A21A0240A21C06C0A21E0D5
:10FB800048110A200B240A21202413D01410082421
:10FB90008DB8100825C01408801642243210420186
:10FBA0003C90D003040114131A2A147E72AA280E62
:10FBB00010E14554472D314F502D303030042D0584
:10FBC000640D0A191302E16B01FF0B4C0202010BD9
:10FBD000A92F1A31040C10410576191A3204564225
:10FBE00005780D0A02290229EC13799F2A08B1131E
:10FBF000F59E2A08C8136DA133080613A1A02A0890
:10FC0000D4137F9D33080536DD9110080F1ADF18D5
:10FC100029621A49303220369D8F10082136BD8D59
:10FC200010082236398E1008301A052832311A99F8
:10FC30001832401A253032411A75103228363D905C
:10FC40001008501A612832511A29082A555019688B
:10FC50002A5618192832571A4108015519BD230F81
:10FC6000F0120100093E221144336655887713A62D
:10FC7000931B24C604C117F1A810084DB519C01371
:10FC8000023044E0033063F401182272BCD4E1C7AF
:10FC9000655B3FADBC0344910A6C3FD9F9FB71CD64
:10FCA0004394BE9135F09CD8E8043EFF01416821A1
:10FCB0005C68D7527AC5C53FA2B6F14DF1BD653F2C
:10FCC000DA88A88B8982A93E8A4F81754627ED3D47
:10FCD00050144EF2FF681D6D1FA33F1322C2BA4F8E
:10FCE000606A3FE772D4A10526833E251C674EC893
:10FCF00015DFBD507820150661117F7C4CBFE9AA45
:10FD0000128759186C3FA7594448456891BEC13ABB
:10FD1000730721B8E55068218030FA4EEF099ABF89
:10FD2000C2C51D09E4F7593FD6B7B9221D1CDE3EF6
:10FD30006A3620699E1228BE5068212D060A1A05CF
:10FD400049E1BF4E9012580136733FB0ABC083A655
:10FD5000709C3E3DA9C688F7DF243E507820E9F626
:10FD600009D50A2999BFAB76743433E0583FE38C48
:10FD7000B2335206E03E8857995A9A3E2F50682176
:10FD8000D40118E83DA2D1BF612E95F687DF693F07
:10FD900070BF94F6EF9ECF3EEF91DAEECC30FDBD12
:10FDA00050682114D5E38674FBA6BF4DDB24B29EB8
:10FDB0000C603F4AAB243BCC13D33E1137D2994A57
:10FDC00003263E507820EA1AEEA236E117C0937659
:10FDD00072E89E05A23F07B5358EF6D30EBFC56704
:10FDE000CA7BEA7C67A078209CF91614CD959FBF4A
:10FDF000E870D51D2B115B3F78CE2107AD0DDC3EA1
:10FE000090D61CE298411DA078207A4C3F09B5E4B9
:10FE1000E7BF8E6A5584D6BB773F3A42DB2CBD7173
:10FE2000C0BE54438E78D594345078208FD3B8ED2B
:10FE3000EF9F94BF1C9215713DC36C3F4E4477CC2D
:10FE40005F61DABE3F656FE1F60556A0091E2869BD
:10FE50005078205B0438AF9B7C73BF99F7CC224766
:10FE6000296B3F8AB4C5246B4CC4BEC05D6503ECEE
:10FE70007C43507820A27433EDAC77FCBFC3EC3DDB
:10FE8000B4EF71873F398115EF9BBFEDBE6E85479B
:10FE90008528B14E506821DEEC5FA6CA2A653F4C2A
:10FEA000DF86C35EAC6B3FE1F91D4371A872BE579C
:10FEB00039D467B20EE33D506821CF94BACC8A9E04
:10FEC000B53F83A9E9EF735D693FB28CA44D1680FD
:10FED0007D3E03C628E1364BF13D506821EBD96CDD
:10FEE000F5423F923FEB4347109F166B3F39C77F68
:10FEF000A4A78B663E713E757C84E6A6BD50881F24
:10FF00005F43E50A91EB8F3FD160E0985EC16B3FA4
:10FF1000E2B6FCC2DA2590BEAC905B5193055080EE
:10FF200019F168E388B5F8E43E8DEDB5A0F7C6B0E9
:10FF30003E48AFBC9AF2D77A3E6950091E286950F4
:10FF40006821849ECDAACFD596BF4850FC1873D7A0
:10FF5000623FD70BCA9B58ACD53E01FEF873B7BAC7
:10FF600033BE50002122A835CD3B4ED1B1BF79E937
:10FF7000263108AC6C3FC825D35218E6A73EEE37B1
:10FF8000504349C0EA3D597101215C0210022E1311
:10FF900015D5100808DDB7100801C01F08A9C31047
:10FFA00008910413E5C606100855B8100813D41CB0
:04FFB000C224000067
:020000040810E2
:1000000040EA01039B0703D009E008C9121F08C09A
:10001000042AFAD203E011F8013B00F8013B521E1A
:10002000F9D2704710B5002200E0521C835C8C5C52
:10003000A34201D1002BF8D1D8B2E1B2401A10BDD1
:1000400010B500F0004420F00040C20DC0F31600CF
:1000500040F400007F2A02DA0020014610BD002192
:10006000962A03DCC2F19602D04002E0963A00F7ED
:1000700093F9002CF2D00023D0EB030063EB0101D5
:1000800010BD202A04DB203A21FA02F0002170473B
:1000900021FA02F3D040C2F12002914008431946F0
:1000A00070472DE9FE4F81EA030404F0004421F07B
:1000B000004100944FF0000B23F0004350EA01048C
:1000C0005ED052EA03045BD0C3F30A54C1F30A556D
:1000D0002C44A4F2F3340194A0FB0254C1F31301A5
:1000E00041F48011C3F3130343F4801301FB024472
:1000F00000FB034E840A970A44EA815447EA835777
:10010000A4FB076802958D0A05FB07854FEA932C2F
:1001100004FB0C542705029D4FEA065847EA1637A0
:10012000B5EB08056EEB070C870E920E47EA8117B8
:1001300042EA8312A7FB0201B6EB0B0164EB000459
:100140002B0D43EA0C335E1844EB1C50DA46514643
:10015000E7FB0201C5F313044FEA0B3343EA1453E0
:100160004FEA0432019C43EA0603A4F10C04029412
:10017000009CCDE900B400F7B6F903B0BDE8F08FFC
:1001800000200146F9E7C1F30A52C1F3130140F21E
:10019000FF3341F480119A4202DA00200146704791
:1001A00040F233439A42A2F2334202DC5242FFF75A
:1001B00068BF00F7F1B870B58C1810F8015B15F046
:1001C000070301D110F8013B2A1106D110F8012BC9
:1001D00003E010F8016B01F8016B5B1EF9D12B07EE
:1001E00005D40023521E0DD401F8013BFAE710F8A4
:1001F000013BCB1A921C03E013F8015B01F8015B91
:10020000521EF9D5A142D8D3002070BD10B50021EF
:10021000034803F77BFD0421014803F777FD10BD78
:100220004C48002470B505460C4622460249284633
:10023000FFF7E6FE70BD00000030103870B50546CF
:100240000E46254890F82800C0F3001070B123A096
:1002500006F042FF2A488088042805D01E48806A9C
:1002600020F010001C498862012070BD00F04AFC9B
:1002700005FB06F4B4F57A6F00D825B9214806F0DD
:100280002BFF0120F1E7102C14D9C4F30F1004F058
:100290000F01002901DD421C90B210220E4B9A8101
:1002A000194B1A800C4A5081184A10800201184BD1
:1002B0001A600BE0A0B21449088007498881012028
:1002C000124908800449488111480460012005F75B
:1002D00077FF0020C9E70000101D00240D0A4465C7
:1002E0007669636520697320627573792C20726565
:1002F0006A6563742072657175657374210A000004
:1003000088210024C8E51008CA000024C800002481
:10031000C400002410B54FF400701849088006206E
:1003200000F77EFB4FF400701449891E08800620F8
:1003300000F776FB124890F8280000F0010020B189
:100340000221084600F752FC03E02221022000F7B8
:100350004DFC0B48C178012000F748FC01200749FB
:100360000880462000F75CFB01200449891E0880B4
:1003700041F2883000F754FB10BD00001A04025807
:10038000101D002410B500F023F806F76BF909F7EB
:1003900031FB08488088022805D1074807490268D0
:1003A000074807F0ECFB00220121104606F7CEF8C3
:1003B00010BD0000882100243C1D0024805300242F
:1003C000BC49002410B5002005F7FAFE10BD00005E
:1003D00000B52DED028B85B04B4909680A394B4AAF
:1003E00002EB810004AA0A2108F772FF9DED040ABE
:1003F000B7EEC00A9FED461B20EE010BB7EEC00B17
:10040000454880ED100A4049C968404A02EB810026
:1004100004AA0A2108F75CFF9DED040AB5EEC00AA4
:10042000F1EE10FA1BD03D4890ED001B9DED040A43
:10043000B7EEC00A31EE000B80ED000B90ED000B23
:10044000B0EE001B80EE018B51EC180B00F701F8A9
:10045000314AC2E90801314880ED008B0FE09DED83
:10046000040AB7EEC00A2D4880ED000B90ED000B9A
:1004700051EC100BFFF6EDFF274AC2E908019DED94
:10048000040AB7EEC00A9FED221B20EE010BB7EE67
:10049000C00B214880ED110A90ED100AD0ED110A31
:1004A00030EE600AB7EEC00A9FED1D1B80EE012BF7
:1004B0009FED1D0B22EE000BB7EEC00B80ED010A85
:1004C00090ED010AB7EEC00A8DED020B90ED110A16
:1004D000B7EEC00A8DED000B90ED101AB7EEC11A01
:1004E000B0EE410B53EC102B11A006F0F5FD0022ED
:1004F0000721104606F72AF804A904480BF068FC07
:1005000005B0BDEC028B00BD3C1D0024BC4900249D
:10051000F6285C8FC2F5D83FC8210024D000002403
:10052000000000007CFC4841000000000000594031
:100530000D0A4144373736305F446961676E6F7327
:100540007469634461746143616C633A206D6178DE
:100550005F766F6C5B25665D2C206D696E5F766FD4
:100560006C5B25665D2C20745B25665D0A000000CF
:1005700010B50C210B4802F01FFB18B1E7210AA0AF
:1005800001F01AF82020104948831048806A20F0B2
:1005900080000E49886201220B21002005F7D6FF5A
:1005A00010BD0000CC4700242E2E5C2E2E5C55730F
:1005B00065725C6273705C7372635C6273705F61BE
:1005C00064373736302E630000000258101D0024B7
:1005D00010B50C21044802F091FA18B1D62103A0FD
:1005E00000F0EAFF10BD0000CC4700242E2E5C2E48
:1005F0002E5C557365725C6273705C7372635C62CF
:1006000073705F6164373736302E63006FF001001E
:10061000034908610846C06840F00100C86070479F
:100620000000014010B503A006F056FD002005F7BC
:10063000C7FD10BD0D0A2A2A2A2A2A2A2A2A2A2A6E
:100640004144373736302072657365740A00000004
:1006500010B5ADF5985D0120FE490870FE48008890
:10066000002861D0FC480088401EFB490880FB48F8
:100670000068401CF94908600021202005F730FD82
:10068000F7480068012816D100200BE0F54951F821
:100690002020F34BC11C53F821101144F14A42F8B9
:1006A0002010401CB0F5986FF0DBEF480068401C4C
:1006B000ED49086031E0EA480068022816D10020C0
:1006C0000BE0E84951F82020E54B011D53F82110BB
:1006D0001144E44A42F82010401CB0F5986FF0DB5A
:1006E000E1480068401CE049086016E0DA480088EC
:1006F000401CD9490880DD480068401CDB4908607F
:1007000008460068DA490968B1EB800F01D2FFF7AB
:1007100059FE0121202005F7E3FCCF48806A20F034
:100720000200801CCC498862CB48008800287CD11C
:10073000C9484089401EC8494881012428E0C94869
:1007400050F82400CB490988090388421FD2CA48BF
:100750000068401CC8490860BF484089401CBE4929
:1007600048810020BB490870C4480088401CC34928
:10077000088008460088C2490988B1EB800F01DA79
:10078000FFF720FE0121202005F7AAFC03E0A41CAE
:10079000B4F5986FD3DB00BFAE48007818B30020E3
:1007A0001EE0014600EBD1725210A0EB420262B192
:1007B000B44951F82010AB4A32F82020C2F30B02A2
:1007C0001144B04A42F8201009E0AE4951F8201017
:1007D000A44A52F820201144AA4A42F82010401C92
:1007E000B0F5986FDDDB4FF498519E48FFF6FCFDA5
:1007F0009948408900287CD19749487200F0EEF969
:100800009B48006810282BD2002025E0014600EB11
:10081000D1725210A0EB42029AB100EBD172521089
:10082000994B53F82220974B00E060E133F82030D9
:1008300002EB034200EBD1735B10934C44F823208E
:1008400009E0904A52F82020014600EBD1735B107A
:100850008D4C44F82320401CB0F5986FD6DB29E07E
:10086000002024E0014600EBD1725210A0EB4202BE
:100870008AB100EBD1725210834B53F82220814B86
:1008800053F8203002EB033200EBD1735B107E4C47
:1008900044F823200AE07B4A52F82020120901463E
:1008A00000EBD1735B10784C44F82320401CB0F56A
:1008B000986FD7DB6F480088102831DA00202BE0D2
:1008C000714951F8201000EE101AF8EE400A6849FC
:1008D00091ED000AB8EE400A80EE801A694601EBFD
:1008E000800181ED001A694601EB800191ED000A5B
:1008F00000E0F2E0BCEEC00A10EE101A624A42F8C4
:100900002010694601EB800191ED000A5F4901EB7F
:10091000800181ED000A401CB0F5187FD0DB2FE08C
:1009200000202AE0584951F8201000EE101AF8EE85
:10093000400A5349098800EE101AB8EE400A80EECA
:10094000801A694601EB800181ED001A694601EBCE
:10095000800191ED000ABCEEC00A10EE101A4A4A5E
:1009600042F82010694601EB800191ED000A4749E9
:1009700001EB800181ED000A401CB0F5187FD1DB4E
:10098000434890ED000AB5EEC00AF1EE10FA36D0F9
:10099000324890ED001AB8EE412B344890ED001A21
:1009A000B8EE411B32EE412B2C4890ED001AB8EE08
:1009B000411B82EE013B364890ED001AB7EEC11A9A
:1009C00033EE011BB7EEC11B80ED001A90ED001A4B
:1009D000F0EE001A81EE212AB7EEC21AB0EE410BFA
:1009E0009FED2C1B20EE011BB7EEC11B2B4880EDA9
:1009F0000A1AB7EEC01B264880ED001A20E01748FF
:100A000090ED000AB8EE401B184890ED000AB8EED1
:100A1000400B31EE401B114890ED000AB8EE400B40
:100A200081EE002BB7EEC20B194880ED000A90ED65
:100A3000000ADFED1B0A20EE200A184880ED0A0AA2
:100A40000020094908600C4908600348806A20F0CA
:100A5000200027E0B6000024101D0024D800002448
:100A60000018103800601038BC000024DC0000249E
:100A7000C4000024CA000024B8000024E4000024BC
:100A8000C80000240048103800781038BC49002401
:100A9000E00000240000000000005940C8210024AC
:100AA0000000C842144988620846806A20F010009D
:100AB0008862002008800846806A20F00200801CBE
:100AC000886200224FF400510C4801F785FB012297
:100AD0000021084605F73AFD09E009480088064963
:100AE00008800846806A20F00200801C886200208E
:100AF0000DF5985D10BD0000101D00240010025877
:100B0000CA00002410B54FF498510D48FFF66CFC54
:100B10004FF498510B48FFF667FC4FF498510A4880
:100B2000FFF662FC40F6C4110848FFF65DFC0020A9
:100B300007490860074908600749088010BD0000A0
:100B40000060103800481038007810380030103835
:100B5000D8000024DC000024E400002401490860DF
:100B600070470000140C025810B586B0044600BF50
:100B70001648006840F008001449086008460068FC
:100B800000F00800009000BF00BF00200390032089
:100B900004904FF6FF700190012C08D101200290C3
:100BA00080200B49088001200A49087008E00020D5
:100BB000029080200649891C0880002005490870A1
:100BC00001A9054801F7E2F906B010BDE04402585A
:100BD00018040258A2000024000C025810B500F7B7
:100BE00051FEFFF6FBFFFFF621FFFFF70FFBFFF7BC
:100BF000BFFC10BD10B505F04BFE05F0E9FE06F098
:100C00001BF804F0DDFD10BD10B50A48008DC0F3DF
:100C1000002068B1074890F82800C0F3C01038B130
:100C2000FFF7F4FC0348806A20F480700149886271
:100C300010BD0000101D002470B50446204600F7CA
:100C400075FA00F765F8054604F50000A8420ED1D4
:100C500000220C21104605F779FC02F049FF3028EC
:100C600003D10021084603F703FF002070BD0122D5
:100C70000C21002005F76AFC40F28B11302003F7AD
:100C8000F7FE0120F2E7000000B587B0924890F827
:100C90002800C0F3C00000287ED000BF8F48006845
:100CA00040F010008D4908600846006800F0100010
:100CB000019000BF00BF00BF0846006840F0100070
:100CC00008600846006800F01000019000BF00BFF7
:100CD00000BF0846006840F0100008600846006841
:100CE00000F01000019000BF00BF00BF0846006880
:100CF00040F0100008600846006800F01000019005
:100D000000BF00BF00BF0846006840F01000086048
:100D10000846006800F01000019000BF00BF00BF4F
:100D20000846006840F0040008600846006800F0CB
:100D30000400019000BF00BF00BF0846006840F0FB
:100D4000100008600846006800F01000019000BF25
:100D500000BF01200390002004900220059008208D
:100D6000029002A95E4801F711F90420029002A93D
:100D70005B4801F70BF92020029002A9584801F7BF
:100D800005F94020029002A9554801F7FFF810200C
:100D9000029002A9524800E020E001F7F7F8022093
:100DA000029002A94E4801F7F1F84FF4005002906A
:100DB00002A94C4801F7EAF8082049494883042071
:100DC0004883202048834020488310204883022005
:100DD000088300034349183108807BE000234FF06B
:100DE00080729101404807F049F800BF3B48006815
:100DF00040F01000394908600846006800F0100013
:100E0000019000BF00BF00BF0846006840F010001E
:100E100008600846006800F01000019000BF00BFA5
:100E200000BF0846006840F00400086008460068FB
:100E300000F00400019000BF00BF00BF084600683A
:100E400040F0100008600846006800F010000190B3
:100E500000BF00BF00BF0846006840F00400086003
:100E60000846006800F00400019000BF00BF0120A8
:100E700003900490022005901020029002A91848C7
:100E800001F784F8002004900820029002A9144879
:100E900001F77CF80220029002A9114801F776F8C8
:100EA0004FF40050029002A90E4801F76FF8042099
:100EB000029002A90B4801F769F808200849488305
:100EC0001020088302204883000306491831088057
:100ED0000420088007B000BD101D0024E044025823
:100EE00000100258000802580034014010B50446B2
:100EF00034B9074808F778FB10200649488305E015
:100F0000102004490883024807F07AF810BD000059
:100F1000003401400010025810B5074890F828002E
:100F2000C0F3C00018B1012000F008F802E08220F0
:100F3000FFF696FF10BD0000101D00240B2800DDF9
:100F400070470821234A5183042151832021518372
:100F500040215183102151831F4908750B2835D238
:100F6000DFE800F006070B0C10161A20242A2E00CA
:100F70002DE01021174A118329E028E04021154A6D
:100F8000118324E01021134A1183402111831EE0B4
:100F90002021104A11831AE040210E4A118320219A
:100FA000118314E004210B4A118310E02021094A27
:100FB0001183042111830AE00821064A118306E007
:100FC0000421044A11830821118300E000BF00BFFF
:100FD00000BFB5E700100258101D002470B502468E
:100FE0000B464FF6FF71002015E0145C00250EE063
:100FF00084EA010606F0010626B14AF2010686EAF5
:10100000610600E04E10314664106E1CF5B2082DEA
:10101000EEDB441CA0B29842E7DB080240EA212044
:1010200080B270BD10B5FFF601FD5848006800F4AD
:101030000060002872D000BF0023554C236000BF21
:1010400000BF00BF00BFBFF34F8F00BF00BF00BF96
:10105000231F1868C0F34E3100BFC0F3C90200BFA0
:1010600043F6E07303EA41134FF0404404EA82740C
:101070002343484C236000BF00BF131EA2F10102AE
:10108000EED10B1EA1F10101E7D100BF00BF00BFEF
:10109000BFF34F8F00BF00BF00BF00BF00BF00BF46
:1010A000BFF36F8F00BF00BF00BF00BF4FF40060F1
:1010B000364988600846806AFFF6B8FC3648407AB0
:1010C000002847D035480078012840D034480089AE
:1010D00000F47F40334908603148808900F47F4044
:1010E000314908602F480068B0F5805F08D1084694
:1010F0000068B0F5805F03D001202949086011E045
:1011000028480068B0F5805F09D027480068B0F52E
:10111000805F04D102202249086003E01AE0002029
:101120001F4908601C4890F82800C0F3001010B157
:10113000FFF78EFA0EE00820FFF6A6FC002003F76A
:101140003BF841F23031164805F792F902E00520EC
:10115000FFF69AFC0D48006800F4806018B14FF467
:1011600080600A4988600948006800F4007018B17E
:101170004FF40070054988600448006800F48070EE
:1011800018B14FF480700149886010BD0000024022
:1011900084ED00E074EF00E0101D0024A80000249E
:1011A00000181038AC000024B000002410B502492B
:1011B000086F00F7F9FB10BD445D002410B502492B
:1011C000C86C00F7F1FB10BD7890002410B50249FF
:1011D000C86F00F7E9FB10BDB4450024014608784C
:1011E00010381823B0FBF3F20848805CC865032A66
:1011F00005D908686FF30900001D886503E00868D9
:101200006FF309008865886D704700008AC7100871
:1012100010B500210268174B9A4213D8154B8C3B2E
:101220009A420FD30378083B1424B3FBF4F1124B1A
:1012300003EB81030366104B8033436601238B402D
:10124000836616E00378103B1824B3FBF4F10B4BD4
:101250009A4204D8094BA83B9A4200D30831084B64
:1012600003EB81030366064B8033436601238B4007
:10127000836610BD9454025800580258B8040240C6
:1012800000080240014600208A69D2B98A6A32B158
:10129000012A0DD0022A03D0032A10D10EE000BF8C
:1012A000CA6A02F08072B2F1807F00D1012007E0AB
:1012B000CA6AB2F1C07F00D1012001E000E000BFA6
:1012C00036E08A69B2F5005F1BD18A6A32B1012A21
:1012D00007D0022A03D0032A11D10AE000BF01205F
:1012E0000EE0CA6A02F08072B2F1807F00D1012064
:1012F00006E0CA6AB2F1C07F00D1012000E000BF61
:1013000016E08A6A32B1012A05D0022A04D0032AE3
:101310000CD103E000BF00BF012008E0CA6A02F060
:101320008072B2F1807F00D1012000E000BF00BFD9
:101330007047000010B5214B1B78984207D1204B15
:101340001B78994203D11F4B1B789A4206D01B4B46
:1013500018701B4B19701B4B1A7000E010BD20B1A8
:10136000012814D0022825D123E0012A07D1164BE9
:10137000DB8E01248C402343134CE38606E0124BA2
:10138000DB8E01248C40A3430F4CE38612E0012A3C
:1013900007D10D4B1C8F01238B401C430A4B1C872C
:1013A00006E0094B1C8F01238B409C43064B1C8796
:1013B00000E000BF00BF00BFD0E70000CA1C00244F
:1013C000CB1C0024CC1C00248821002470B50546C9
:1013D0000C461F48406940F480501D4948611D4833
:1013E000006840F480701B490860642007F060FCCE
:1013F00019480560552007F05BFC1648006820F48A
:10140000807014490860552007F052FC11480068AC
:1014100040F480700F490860552007F049FC0E48E1
:101420000460642007F044FC0A48006820F48070DF
:1014300008490860552007F03BFC0648006840F466
:10144000807004490860642007F032FC70BD000021
:10145000000002581408025814040258012080F3B6
:10146000108800BF7047000010B50948006800F000
:10147000010058B10120064908600648006828B1FB
:1014800004490868804701200149086010BD000038
:10149000880000587045002410B50948006800F025
:1014A000040058B10420064908600648806828B145
:1014B00004498868804704200149086010BD000085
:1014C000880000587045002410B50948006800F0F5
:1014D000100058B11020064908600648006928B17C
:1014E00004490869804710200149086010BD0000C8
:1014F000880000587045002410B52D48006800F0A1
:10150000200058B120202A4908602A48406928B1A3
:1015100028494869804720202549086024480068F8
:1015200000F0400058B140202149086021488069FE
:1015300028B120498869804740201D4908601C481F
:10154000006800F0800058B18020194908601948EF
:10155000C06928B11749C8698047802014490860CC
:101560001348006800F4807068B14FF4807010492F
:1015700008601048006A30B10E49086A80474FF48D
:1015800080700B4908600A48006800F4007068B178
:101590004FF40070064908600648406A30B10549BA
:1015A000486A80474FF400700149086010BD000090
:1015B000880000587045002470B505460C46224648
:1015C000294603A005F088FD04B970BD00BFFEE701
:1015D00057726F6E6720706172616D6574657273AA
:1015E0002076616C75653A2066696C6520257320EC
:1015F0006F6E206C696E652025640D0A0000000086
:1016000010B50A48007801280FD10020074908705A
:101610000748018807480088FEF710FE28B100201F
:1016200007F060FF012005F70DF810BDA418002495
:10163000A8180024A61800242DE9F0470C46DDE97F
:101640000867002100258C4600BF60E04FF00108CC
:1016500008FA01F504EA050CAC4557D1D0F8008032
:101660004FEA410A4FF0030909FA0AF928EA090882
:10167000C0F80080D0F800804FEA410902FA09F969
:1016800048EA0908C0F80080012A01D0022A27D1BF
:10169000D0F808804FEA410A4FF0030909FA0AF925
:1016A00028EA0908C0F80880D0F808804FEA410904
:1016B00006FA09F948EA0908C0F80880D0F8049049
:1016C0004FF0010808FA01F829EA0809C0F8049067
:1016D000D0F8048003FA01F948EA0908C0F8048048
:1016E000D0F80C804FEA410A4FF0030909FA0AF9D1
:1016F00028EA0908C0F80C80D0F80C804FEA4109AC
:1017000007FA09F948EA0908C0F80C80491C1029B1
:101710009CD3BDE8F087000030B502460023214C81
:101720001068A04205D3204C1068A04201D80120C7
:1017300000E0002000B100E000BFD06E18B94020EA
:10174000506501232CE092F83500012824D1D06E99
:10175000006800F48030F8B900BF92F83400012826
:1017600001D1022030BD012082F8340000BF88681A
:10177000401E4FF4780595FAA5F5B5FA85F5A84011
:101780000C6820434C682043D46E206000BF0020CA
:1017900082F8340000BFE5E74FF400605065012394
:1017A0001846DFE710000240B804024010B50446B6
:1017B0000CB9012010BD94F83500022803D0802018
:1017C00060650120F6E734492068884205D3334933
:1017D0002068884201D8012000E00020C0B1042028
:1017E00084F835002C49206888420AD32B492068A8
:1017F000884206D82068006820F00100216808604F
:1018000048E02068006820F001002168086041E09D
:101810002068006820F00E00216808601E492068DA
:1018200088420AD31D492068884206D8206800688B
:1018300020F001002168086005E02068006820F0C1
:10184000010021680860206E006820F48070216E1D
:10185000086094F85C100120884011490860D4E9C0
:1018600019104860E06E40B1E06E006820F48070AE
:10187000E16E0860D4E91C10486000BF002084F8C5
:10188000340000BF012084F83500206D10B12046DF
:10189000216D884700208DE710000240B804024007
:1018A0000454025870B5044600250CB9012070BDDF
:1018B00094F83500022803D1800260650120F6E724
:1018C0003D49206888420AD33C492068884206D8AE
:1018D0002068006820F001002168086005E02068A9
:1018E000006820F0010021680860334920688842C0
:1018F00005D332492068884201D8012000E0002049
:10190000B8B10020216808602168486021688860BB
:101910002168C8602168086121202168486120464B
:10192000FFF75CFC054694F85C103F208840A860F7
:101930001CE023492068884206D321498C31206865
:10194000884201D8012000E0002078B10020216801
:10195000086021684860216888602168C86094F840
:101960005C10012088401649091F08602046FFF7D7
:101970004FFC206E28B10020216E0860D4E91910B8
:101980004860606858B16068082808D82046FFF6AB
:10199000BBFC0020E16E0860D4E91C104860002008
:1019A000E06620676067606584F8350000BF84F8F2
:1019B000340000BF00BF7AE710000240B8040240C4
:1019C000085402580146486D704700002DE9F04167
:1019D0000446002500F0B2F90646002714B901209C
:1019E000BDE8F08179492068884205D378492068AC
:1019F000884201D8012000E00020002871D0606AF0
:101A000000B100BF00BF002084F8340000BF0220F6
:101A100084F835006D49206888420AD36C492068F3
:101A2000884206D82068006820F00100216808601C
:101A300005E02068006820F00100216808600BE0E4
:101A400000F07CF9801B052806D920206065032062
:101A500084F835000120C3E72068006800F0010029
:101A60000028EDD1206805685A480540D4E90201F4
:101A700008432169084361690843A1690843E16992
:101A80000843216A08430543606A042803D1D4E966
:101A90000B0108430543206805602068456925F06F
:101AA0000705606A0543606A04280DD1A06A0543F2
:101AB000E06A48B12046FFF7E5FB28B140206065A9
:101AC000012084F835008BE7206845612046FFF748
:101AD00085FB074694F85C103F208840B8604DE0D5
:101AE000FFE73D492068884206D33B498C31206896
:101AF000884201D8012000E00020B8B300BF0020D8
:101B000084F8340000BF022084F83500206805689E
:101B100047F6F0708543A068402801D1102105E008
:101B2000A068802801D1C10100E00021E06841EAFD
:101B3000D001206941EAD001606941EAD001A06981
:101B400041EAD0002022E16902EAD1010843216A7A
:101B500040EA11100543206805601F492068401ABB
:101B60001421B0FBF1F08000E06507E0FFE74020C2
:101B70006065032084F83500012031E72046FFF737
:101B800047FBA068802801D1002060602079216E89
:101B90000860D4E919104860606860B1606808287E
:101BA00009D82046FFF6B0FB0020E16E0860D4E9BA
:101BB0001C10486003E00020E0662067606700209A
:101BC0006065012084F83500002009E7100002401C
:101BD000B80402403F8010FE085402582DE9F0413D
:101BE00004460D4616461F464FF0000814B9012062
:101BF000BDE8F08100BF94F83400012801D1022033
:101C0000F6E7012084F8340000BF94F8350001287D
:101C10007CD1022084F835000020606541492068AD
:101C200088420AD340492068884206D82068006864
:101C300020F001002168086005E02068006820F0BD
:101C40000100216808603B46324629462046FFF6DF
