Component: ARM Compiler 5.06 update 7 (build 960) Tool: armlink [4d3601]

==============================================================================

Section Cross References

    startup_stm32h743xx.o(RESET) refers to startup_stm32h743xx.o(STACK) for __initial_sp
    startup_stm32h743xx.o(RESET) refers to startup_stm32h743xx.o(.text) for Reset_Handler
    startup_stm32h743xx.o(RESET) refers to stm32h7xx_it.o(i.NMI_Handler) for NMI_Handler
    startup_stm32h743xx.o(RESET) refers to stm32h7xx_it.o(i.HardFault_Handler) for HardFault_Handler
    startup_stm32h743xx.o(RESET) refers to stm32h7xx_it.o(i.MemManage_Handler) for MemManage_Handler
    startup_stm32h743xx.o(RESET) refers to stm32h7xx_it.o(i.BusFault_Handler) for BusFault_Handler
    startup_stm32h743xx.o(RESET) refers to stm32h7xx_it.o(i.UsageFault_Handler) for UsageFault_Handler
    startup_stm32h743xx.o(RESET) refers to stm32h7xx_it.o(i.SVC_Handler) for SVC_Handler
    startup_stm32h743xx.o(RESET) refers to stm32h7xx_it.o(i.DebugMon_Handler) for DebugMon_Handler
    startup_stm32h743xx.o(RESET) refers to stm32h7xx_it.o(i.PendSV_Handler) for PendSV_Handler
    startup_stm32h743xx.o(RESET) refers to stm32h7xx_it.o(i.SysTick_Handler) for SysTick_Handler
    startup_stm32h743xx.o(RESET) refers to stm32h7xx_it.o(i.DMA1_Stream3_IRQHandler) for DMA1_Stream3_IRQHandler
    startup_stm32h743xx.o(RESET) refers to stm32h7xx_it.o(i.TIM3_IRQHandler) for TIM3_IRQHandler
    startup_stm32h743xx.o(RESET) refers to stm32h7xx_it.o(i.SPI1_IRQHandler) for SPI1_IRQHandler
    startup_stm32h743xx.o(RESET) refers to stm32h7xx_it.o(i.SPI2_IRQHandler) for SPI2_IRQHandler
    startup_stm32h743xx.o(RESET) refers to uart.o(i.USART1_IRQHandler) for USART1_IRQHandler
    startup_stm32h743xx.o(RESET) refers to stm32h7xx_it.o(i.EXTI15_10_IRQHandler) for EXTI15_10_IRQHandler
    startup_stm32h743xx.o(RESET) refers to porttimer.o(i.TIM7_IRQHandler) for TIM7_IRQHandler
==============================================================================

Removing Unused input sections from the image.

    Removing startup_stm32h743xx.o(HEAP), (512 bytes).
    Removing system_stm32h7xx.o(.rev16_text), (4 bytes).
    Removing system_stm32h7xx.o(.revsh_text), (4 bytes).
    Removing system_stm32h7xx.o(.rrx_text), (6 bytes).
    Removing system_stm32h7xx.o(i.SystemCoreClockUpdate), (564 bytes).
    Removing stm32h7xx_hal.o(.rev16_text), (4 bytes).
    Removing stm32h7xx_hal.o(.revsh_text), (4 bytes).
    Removing stm32h7xx_hal.o(.rrx_text), (6 bytes).
    Removing stm32h7xx_hal.o(i.HAL_DBGMCU_DisableDBGSleepMode), (20 bytes).
    Removing stm32h7xx_hal.o(i.HAL_DBGMCU_DisableDBGStandbyMode), (20 bytes).
    Removing stm32h7xx_hal.o(i.HAL_DBGMCU_DisableDBGStopMode), (20 bytes).
    Removing stm32h7xx_hal.o(i.HAL_DBGMCU_EnableDBGSleepMode), (20 bytes).
    Removing stm32h7xx_hal.o(i.HAL_DBGMCU_EnableDBGStandbyMode), (20 bytes).
    Removing stm32h7xx_hal.o(i.HAL_DBGMCU_EnableDBGStopMode), (20 bytes).
    Removing stm32h7xx_hal.o(i.HAL_DeInit), (132 bytes).
    Removing stm32h7xx_hal.o(i.HAL_Delay), (40 bytes).
    Removing stm32h7xx_hal.o(i.HAL_DisableCompensationCell), (20 bytes).
    Removing stm32h7xx_hal.o(i.HAL_EXTI_D1_ClearFlag), (22 bytes).
==============================================================================

Image Symbol Table

    Local Symbols

    Symbol Name                              Value     Ov Type        Size  Object(Section)

    ../clib/microlib/division.c              0x00000000   Number         0  uidiv.o ABSOLUTE
    ../clib/microlib/division.c              0x00000000   Number         0  uldiv.o ABSOLUTE
    ../clib/microlib/init/entry.s            0x00000000   Number         0  entry11b.o ABSOLUTE
    ../clib/microlib/init/entry.s            0x00000000   Number         0  entry8b.o ABSOLUTE
    ../clib/microlib/init/entry.s            0x00000000   Number         0  entry.o ABSOLUTE
    ../clib/microlib/init/entry.s            0x00000000   Number         0  entry9b.o ABSOLUTE
    ../clib/microlib/init/entry.s            0x00000000   Number         0  entry5.o ABSOLUTE
    ../clib/microlib/init/entry.s            0x00000000   Number         0  entry12b.o ABSOLUTE
    ../clib/microlib/init/entry.s            0x00000000   Number         0  entry12a.o ABSOLUTE
    ../clib/microlib/init/entry.s            0x00000000   Number         0  entry9a.o ABSOLUTE
    ../clib/microlib/init/entry.s            0x00000000   Number         0  entry8a.o ABSOLUTE
    ../clib/microlib/init/entry.s            0x00000000   Number         0  entry7a.o ABSOLUTE
    ../clib/microlib/init/entry.s            0x00000000   Number         0  entry11a.o ABSOLUTE
    ../clib/microlib/init/entry.s            0x00000000   Number         0  entry10b.o ABSOLUTE
    ../clib/microlib/init/entry.s            0x00000000   Number         0  entry7b.o ABSOLUTE
    ../clib/microlib/init/entry.s            0x00000000   Number         0  entry10a.o ABSOLUTE
    ../clib/microlib/init/entry.s            0x00000000   Number         0  entry2.o ABSOLUTE
    ../clib/microlib/longlong.c              0x00000000   Number         0  llshl.o ABSOLUTE
    ../clib/microlib/longlong.c              0x00000000   Number         0  llsshr.o ABSOLUTE
    ../clib/microlib/longlong.c              0x00000000   Number         0  llushr.o ABSOLUTE
    ../clib/microlib/printf/printf.c         0x00000000   Number         0  printf4.o ABSOLUTE
    ../clib/microlib/printf/printf.c         0x00000000   Number         0  printf1.o ABSOLUTE
    ../clib/microlib/printf/printf.c         0x00000000   Number         0  printf5.o ABSOLUTE
    ../clib/microlib/printf/printf.c         0x00000000   Number         0  printf6.o ABSOLUTE
    ../clib/microlib/printf/printf.c         0x00000000   Number         0  printf7.o ABSOLUTE
    ../clib/microlib/printf/printf.c         0x00000000   Number         0  printf0.o ABSOLUTE
    ../clib/microlib/printf/printf.c         0x00000000   Number         0  printfa.o ABSOLUTE
    ../clib/microlib/printf/printf.c         0x00000000   Number         0  printf2.o ABSOLUTE
    ../clib/microlib/printf/printf.c         0x00000000   Number         0  printf8.o ABSOLUTE
    ../clib/microlib/printf/printf.c         0x00000000   Number         0  printf3.o ABSOLUTE
    ../clib/microlib/printf/printf.c         0x00000000   Number         0  printfb.o ABSOLUTE
    ../clib/microlib/printf/stubs.s          0x00000000   Number         0  stubs.o ABSOLUTE
    ../clib/microlib/stdio/streams.c         0x00000000   Number         0  stdout.o ABSOLUTE
    ../clib/microlib/string/memcpy.c         0x00000000   Number         0  memcpyb.o ABSOLUTE
    ../clib/microlib/string/memcpy.c         0x00000000   Number         0  memcpya.o ABSOLUTE
    ../clib/microlib/string/memset.c         0x00000000   Number         0  memseta.o ABSOLUTE
    ../clib/microlib/stubs.s                 0x00000000   Number         0  iusefp.o ABSOLUTE
    ../fplib/microlib/fpadd.c                0x00000000   Number         0  dadd.o ABSOLUTE
    ../fplib/microlib/fpdiv.c                0x00000000   Number         0  ddiv.o ABSOLUTE
    ../fplib/microlib/fpepilogue.c           0x00000000   Number         0  depilogue.o ABSOLUTE
    ../fplib/microlib/fpfix.c                0x00000000   Number         0  dfixul.o ABSOLUTE
    ../fplib/microlib/fpmul.c                0x00000000   Number         0  dmul.o ABSOLUTE
    ..\BSP\myiic.c                           0x00000000   Number         0  myiic.o ABSOLUTE
    ..\BSP\pcf8574.c                         0x00000000   Number         0  pcf8574.o ABSOLUTE
    ..\Drivers\CMSIS\Device\ST\STM32H7xx\Source\Templates\arm\startup_stm32h743xx.s 0x00000000   Number         0  startup_stm32h743xx.o ABSOLUTE
    ..\Drivers\CMSIS\Device\ST\STM32H7xx\Source\Templates\system_stm32h7xx.c 0x00000000   Number         0  system_stm32h7xx.o ABSOLUTE
    ..\Drivers\STM32H7xx_HAL_Driver\Src\stm32h7xx_hal.c 0x00000000   Number         0  stm32h7xx_hal.o ABSOLUTE
    ..\Drivers\STM32H7xx_HAL_Driver\Src\stm32h7xx_hal_adc.c 0x00000000   Number         0  stm32h7xx_hal_adc.o ABSOLUTE
    ..\Drivers\STM32H7xx_HAL_Driver\Src\stm32h7xx_hal_adc_ex.c 0x00000000   Number         0  stm32h7xx_hal_adc_ex.o ABSOLUTE
    ..\Drivers\STM32H7xx_HAL_Driver\Src\stm32h7xx_hal_cortex.c 0x00000000   Number         0  stm32h7xx_hal_cortex.o ABSOLUTE
    ..\Drivers\STM32H7xx_HAL_Driver\Src\stm32h7xx_hal_dma.c 0x00000000   Number         0  stm32h7xx_hal_dma.o ABSOLUTE
    ..\Drivers\STM32H7xx_HAL_Driver\Src\stm32h7xx_hal_gpio.c 0x00000000   Number         0  stm32h7xx_hal_gpio.o ABSOLUTE
    ..\Drivers\STM32H7xx_HAL_Driver\Src\stm32h7xx_hal_pwr.c 0x00000000   Number         0  stm32h7xx_hal_pwr.o ABSOLUTE
    ..\Drivers\STM32H7xx_HAL_Driver\Src\stm32h7xx_hal_pwr_ex.c 0x00000000   Number         0  stm32h7xx_hal_pwr_ex.o ABSOLUTE
    ..\Drivers\STM32H7xx_HAL_Driver\Src\stm32h7xx_hal_rcc.c 0x00000000   Number         0  stm32h7xx_hal_rcc.o ABSOLUTE
    ..\Drivers\STM32H7xx_HAL_Driver\Src\stm32h7xx_hal_rcc_ex.c 0x00000000   Number         0  stm32h7xx_hal_rcc_ex.o ABSOLUTE
    ..\Drivers\STM32H7xx_HAL_Driver\Src\stm32h7xx_hal_spi.c 0x00000000   Number         0  stm32h7xx_hal_spi.o ABSOLUTE
    ..\Drivers\STM32H7xx_HAL_Driver\Src\stm32h7xx_hal_spi_ex.c 0x00000000   Number         0  stm32h7xx_hal_spi_ex.o ABSOLUTE
    ..\Drivers\STM32H7xx_HAL_Driver\Src\stm32h7xx_hal_tim.c 0x00000000   Number         0  stm32h7xx_hal_tim.o ABSOLUTE
    ..\Drivers\STM32H7xx_HAL_Driver\Src\stm32h7xx_hal_tim_ex.c 0x00000000   Number         0  stm32h7xx_hal_tim_ex.o ABSOLUTE
    ..\Drivers\STM32H7xx_HAL_Driver\Src\stm32h7xx_hal_uart.c 0x00000000   Number         0  stm32h7xx_hal_uart.o ABSOLUTE
    ..\Drivers\STM32H7xx_HAL_Driver\Src\stm32h7xx_hal_uart_ex.c 0x00000000   Number         0  stm32h7xx_hal_uart_ex.o ABSOLUTE
    ..\Modbus\source\mb.c                    0x00000000   Number         0  mb.o ABSOLUTE
    ..\Modbus\source\mbcrc.c                 0x00000000   Number         0  mbcrc.o ABSOLUTE
    ..\Modbus\source\mbfunccoils.c           0x00000000   Number         0  mbfunccoils.o ABSOLUTE
    ..\Modbus\source\mbfuncdiag.c            0x00000000   Number         0  mbfuncdiag.o ABSOLUTE
    ..\Modbus\source\mbfuncdisc.c            0x00000000   Number         0  mbfuncdisc.o ABSOLUTE
    ..\Modbus\source\mbfuncholding.c         0x00000000   Number         0  mbfuncholding.o ABSOLUTE
    ..\Modbus\source\mbfuncinput.c           0x00000000   Number         0  mbfuncinput.o ABSOLUTE
    ..\Modbus\source\mbfuncother.c           0x00000000   Number         0  mbfuncother.o ABSOLUTE
    ..\Modbus\source\mbrtu.c                 0x00000000   Number         0  mbrtu.o ABSOLUTE
    ..\Modbus\source\mbutils.c               0x00000000   Number         0  mbutils.o ABSOLUTE
    ..\Modbus\source\port.c                  0x00000000   Number         0  port.o ABSOLUTE
    ..\Modbus\source\portevent.c             0x00000000   Number         0  portevent.o ABSOLUTE
    ..\Modbus\source\portserial.c            0x00000000   Number         0  portserial.o ABSOLUTE
    ..\Modbus\source\porttimer.c             0x00000000   Number         0  porttimer.o ABSOLUTE
    ..\Modbus\source\user_mb_app.c           0x00000000   Number         0  user_mb_app.o ABSOLUTE
    ..\User\ads7828.c                        0x00000000   Number         0  ads7828.o ABSOLUTE
    ..\User\delay.c                          0x00000000   Number         0  delay.o ABSOLUTE
    ..\User\is25lp256.c                      0x00000000   Number         0  is25lp256.o ABSOLUTE
    ..\User\loop420ma.c                      0x00000000   Number         0  loop420ma.o ABSOLUTE
    ..\User\main.c                           0x00000000   Number         0  main.o ABSOLUTE
    ..\User\mbcustomfunctioncode.c           0x00000000   Number         0  mbcustomfunctioncode.o ABSOLUTE
    ..\User\spi_protocal.c                   0x00000000   Number         0  spi_protocal.o ABSOLUTE
    ..\User\stm32h7xx_hal_msp.c              0x00000000   Number         0  stm32h7xx_hal_msp.o ABSOLUTE
    ..\User\stm32h7xx_it.c                   0x00000000   Number         0  stm32h7xx_it.o ABSOLUTE
    ..\User\uart.c                           0x00000000   Number         0  uart.o ABSOLUTE
    ..\\BSP\\myiic.c                         0x00000000   Number         0  myiic.o ABSOLUTE
    ..\\BSP\\pcf8574.c                       0x00000000   Number         0  pcf8574.o ABSOLUTE
    ..\\Drivers\\CMSIS\\Device\\ST\\STM32H7xx\\Source\\Templates\\system_stm32h7xx.c 0x00000000   Number         0  system_stm32h7xx.o ABSOLUTE
    ..\\Drivers\\STM32H7xx_HAL_Driver\\Src\\stm32h7xx_hal.c 0x00000000   Number         0  stm32h7xx_hal.o ABSOLUTE
    ..\\Drivers\\STM32H7xx_HAL_Driver\\Src\\stm32h7xx_hal_adc.c 0x00000000   Number         0  stm32h7xx_hal_adc.o ABSOLUTE
    ..\\Drivers\\STM32H7xx_HAL_Driver\\Src\\stm32h7xx_hal_adc_ex.c 0x00000000   Number         0  stm32h7xx_hal_adc_ex.o ABSOLUTE
    ..\\Drivers\\STM32H7xx_HAL_Driver\\Src\\stm32h7xx_hal_cortex.c 0x00000000   Number         0  stm32h7xx_hal_cortex.o ABSOLUTE
    ..\\Drivers\\STM32H7xx_HAL_Driver\\Src\\stm32h7xx_hal_dma.c 0x00000000   Number         0  stm32h7xx_hal_dma.o ABSOLUTE
    ..\\Drivers\\STM32H7xx_HAL_Driver\\Src\\stm32h7xx_hal_gpio.c 0x00000000   Number         0  stm32h7xx_hal_gpio.o ABSOLUTE
    ..\\Drivers\\STM32H7xx_HAL_Driver\\Src\\stm32h7xx_hal_pwr.c 0x00000000   Number         0  stm32h7xx_hal_pwr.o ABSOLUTE
    ..\\Drivers\\STM32H7xx_HAL_Driver\\Src\\stm32h7xx_hal_pwr_ex.c 0x00000000   Number         0  stm32h7xx_hal_pwr_ex.o ABSOLUTE
    ..\\Drivers\\STM32H7xx_HAL_Driver\\Src\\stm32h7xx_hal_rcc.c 0x00000000   Number         0  stm32h7xx_hal_rcc.o ABSOLUTE
    ..\\Drivers\\STM32H7xx_HAL_Driver\\Src\\stm32h7xx_hal_rcc_ex.c 0x00000000   Number         0  stm32h7xx_hal_rcc_ex.o ABSOLUTE
    ..\\Drivers\\STM32H7xx_HAL_Driver\\Src\\stm32h7xx_hal_spi.c 0x00000000   Number         0  stm32h7xx_hal_spi.o ABSOLUTE
    ..\\Drivers\\STM32H7xx_HAL_Driver\\Src\\stm32h7xx_hal_spi_ex.c 0x00000000   Number         0  stm32h7xx_hal_spi_ex.o ABSOLUTE
    ..\\Drivers\\STM32H7xx_HAL_Driver\\Src\\stm32h7xx_hal_tim.c 0x00000000   Number         0  stm32h7xx_hal_tim.o ABSOLUTE
    ..\\Drivers\\STM32H7xx_HAL_Driver\\Src\\stm32h7xx_hal_tim_ex.c 0x00000000   Number         0  stm32h7xx_hal_tim_ex.o ABSOLUTE
    ..\\Drivers\\STM32H7xx_HAL_Driver\\Src\\stm32h7xx_hal_uart.c 0x00000000   Number         0  stm32h7xx_hal_uart.o ABSOLUTE
    ..\\Drivers\\STM32H7xx_HAL_Driver\\Src\\stm32h7xx_hal_uart_ex.c 0x00000000   Number         0  stm32h7xx_hal_uart_ex.o ABSOLUTE
    ..\\Modbus\\source\\mb.c                 0x00000000   Number         0  mb.o ABSOLUTE
    ..\\Modbus\\source\\mbcrc.c              0x00000000   Number         0  mbcrc.o ABSOLUTE
    ..\\Modbus\\source\\mbfunccoils.c        0x00000000   Number         0  mbfunccoils.o ABSOLUTE
    ..\\Modbus\\source\\mbfuncdisc.c         0x00000000   Number         0  mbfuncdisc.o ABSOLUTE
    ..\\Modbus\\source\\mbfuncholding.c      0x00000000   Number         0  mbfuncholding.o ABSOLUTE
    ..\\Modbus\\source\\mbfuncinput.c        0x00000000   Number         0  mbfuncinput.o ABSOLUTE
    ..\\Modbus\\source\\mbfuncother.c        0x00000000   Number         0  mbfuncother.o ABSOLUTE
    ..\\Modbus\\source\\mbrtu.c              0x00000000   Number         0  mbrtu.o ABSOLUTE
    ..\\Modbus\\source\\mbutils.c            0x00000000   Number         0  mbutils.o ABSOLUTE
    ..\\Modbus\\source\\port.c               0x00000000   Number         0  port.o ABSOLUTE
    ..\\Modbus\\source\\portevent.c          0x00000000   Number         0  portevent.o ABSOLUTE
    ..\\Modbus\\source\\portserial.c         0x00000000   Number         0  portserial.o ABSOLUTE
    ..\\Modbus\\source\\porttimer.c          0x00000000   Number         0  porttimer.o ABSOLUTE
    ..\\Modbus\\source\\user_mb_app.c        0x00000000   Number         0  user_mb_app.o ABSOLUTE
    ..\\User\\ads7828.c                      0x00000000   Number         0  ads7828.o ABSOLUTE
    ..\\User\\delay.c                        0x00000000   Number         0  delay.o ABSOLUTE
    ..\\User\\is25lp256.c                    0x00000000   Number         0  is25lp256.o ABSOLUTE
    ..\\User\\loop420ma.c                    0x00000000   Number         0  loop420ma.o ABSOLUTE
    ..\\User\\main.c                         0x00000000   Number         0  main.o ABSOLUTE
    ..\\User\\mbcustomfunctioncode.c         0x00000000   Number         0  mbcustomfunctioncode.o ABSOLUTE
    ..\\User\\spi_protocal.c                 0x00000000   Number         0  spi_protocal.o ABSOLUTE
    ..\\User\\stm32h7xx_hal_msp.c            0x00000000   Number         0  stm32h7xx_hal_msp.o ABSOLUTE
    ..\\User\\stm32h7xx_it.c                 0x00000000   Number         0  stm32h7xx_it.o ABSOLUTE
    ..\\User\\uart.c                         0x00000000   Number         0  uart.o ABSOLUTE
    cdrcmple.s                               0x00000000   Number         0  cdrcmple.o ABSOLUTE
    dc.s                                     0x00000000   Number         0  dc.o ABSOLUTE
    handlers.s                               0x00000000   Number         0  handlers.o ABSOLUTE
    init.s                                   0x00000000   Number         0  init.o ABSOLUTE
    RESET                                    0x08000000   Section      664  startup_stm32h743xx.o(RESET)
    .ARM.Collect$$$$00000000                 0x08000298   Section        0  entry.o(.ARM.Collect$$$$00000000)
    .ARM.Collect$$$$00000001                 0x08000298   Section        4  entry2.o(.ARM.Collect$$$$00000001)
    .ARM.Collect$$$$00000004                 0x0800029c   Section        4  entry5.o(.ARM.Collect$$$$00000004)
    .ARM.Collect$$$$00000008                 0x080002a0   Section        0  entry7b.o(.ARM.Collect$$$$00000008)
    .ARM.Collect$$$$0000000A                 0x080002a0   Section        0  entry8b.o(.ARM.Collect$$$$0000000A)
    .ARM.Collect$$$$0000000B                 0x080002a0   Section        8  entry9a.o(.ARM.Collect$$$$0000000B)
    .ARM.Collect$$$$0000000E                 0x080002a8   Section        4  entry12b.o(.ARM.Collect$$$$0000000E)
    .ARM.Collect$$$$0000000F                 0x080002ac   Section        0  entry10a.o(.ARM.Collect$$$$0000000F)
    .ARM.Collect$$$$00000011                 0x080002ac   Section        0  entry11a.o(.ARM.Collect$$$$00000011)
    .ARM.Collect$$$$00002712                 0x080002ac   Section        4  entry2.o(.ARM.Collect$$$$00002712)
    __lit__00000000                          0x080002ac   Data           4  entry2.o(.ARM.Collect$$$$00002712)
    .text                                    0x080002b0   Section       36  startup_stm32h743xx.o(.text)
    $v0                                      0x080002b0   Number         0  startup_stm32h743xx.o(.text)
    .text                                    0x080002d4   Section        0  uldiv.o(.text)
    .text                                    0x08000336   Section        0  memcpya.o(.text)
    .text                                    0x0800035a   Section        0  memseta.o(.text)
    .text                                    0x0800037e   Section        0  uidiv.o(.text)
    .text                                    0x080003aa   Section        0  llshl.o(.text)
    .text                                    0x080003c8   Section        0  llushr.o(.text)
    .text                                    0x080003e8   Section        0  iusefp.o(.text)
    .text                                    0x080003e8   Section        0  dadd.o(.text)
    .text                                    0x08000536   Section        0  dmul.o(.text)
    .text                                    0x0800061a   Section        0  ddiv.o(.text)
    .text                                    0x080006f8   Section        0  dfixul.o(.text)
    .text                                    0x08000728   Section       48  cdrcmple.o(.text)
    .text                                    0x08000758   Section       36  init.o(.text)
    .text                                    0x0800077c   Section        0  llsshr.o(.text)
    .text                                    0x080007a0   Section        0  depilogue.o(.text)
    i.BusFault_Handler                       0x0800085a   Section        0  stm32h7xx_it.o(i.BusFault_Handler)
    i.CPU_CACHE_Enable                       0x08000860   Section        0  main.o(i.CPU_CACHE_Enable)
    CPU_CACHE_Enable                         0x08000861   Thumb Code   174  main.o(i.CPU_CACHE_Enable)
    i.DMA1_Stream3_IRQHandler                0x08000918   Section        0  stm32h7xx_it.o(i.DMA1_Stream3_IRQHandler)
    i.DMA2_Stream2_IRQHandler                0x08000928   Section        0  stm32h7xx_it.o(i.DMA2_Stream2_IRQHandler)
    i.DMA_CalcBaseAndBitshift                0x08000938   Section        0  stm32h7xx_hal_dma.o(i.DMA_CalcBaseAndBitshift)
    DMA_CalcBaseAndBitshift                  0x08000939   Thumb Code   224  stm32h7xx_hal_dma.o(i.DMA_CalcBaseAndBitshift)
    i.DMA_CalcDMAMUXChannelBaseAndMask       0x08000a24   Section        0  stm32h7xx_hal_dma.o(i.DMA_CalcDMAMUXChannelBaseAndMask)
    DMA_CalcDMAMUXChannelBaseAndMask         0x08000a25   Thumb Code   178  stm32h7xx_hal_dma.o(i.DMA_CalcDMAMUXChannelBaseAndMask)
    i.DMA_CalcDMAMUXRequestGenBaseAndMask    0x08000ae8   Section        0  stm32h7xx_hal_dma.o(i.DMA_CalcDMAMUXRequestGenBaseAndMask)
    DMA_CalcDMAMUXRequestGenBaseAndMask      0x08000ae9   Thumb Code   140  stm32h7xx_hal_dma.o(i.DMA_CalcDMAMUXRequestGenBaseAndMask)
    i.DMA_CheckFifoParam                     0x08000b80   Section        0  stm32h7xx_hal_dma.o(i.DMA_CheckFifoParam)
    DMA_CheckFifoParam                       0x08000b81   Thumb Code   174  stm32h7xx_hal_dma.o(i.DMA_CheckFifoParam)
    i.DMA_SetConfig                          0x08000c30   Section        0  stm32h7xx_hal_dma.o(i.DMA_SetConfig)
    DMA_SetConfig                            0x08000c31   Thumb Code   614  stm32h7xx_hal_dma.o(i.DMA_SetConfig)
    i.DebugMon_Handler                       0x08000ea4   Section        0  stm32h7xx_it.o(i.DebugMon_Handler)
    i.ENTER_CRITICAL_SECTION                 0x08000ea6   Section        0  port.o(i.ENTER_CRITICAL_SECTION)
    i.EXIT_CRITICAL_SECTION                  0x08000eb0   Section        0  port.o(i.EXIT_CRITICAL_SECTION)
    i.EXTI15_10_IRQHandler                   0x08000eba   Section        0  stm32h7xx_it.o(i.EXTI15_10_IRQHandler)
    i.Error_Handler                          0x08000ebc   Section        0  main.o(i.Error_Handler)
    i.HAL_DMA_Abort                          0x08000ec0   Section        0  stm32h7xx_hal_dma.o(i.HAL_DMA_Abort)
    i.HAL_DMA_Abort_IT                       0x0800139c   Section        0  stm32h7xx_hal_dma.o(i.HAL_DMA_Abort_IT)
    i.HAL_DMA_GetError                       0x08001734   Section        0  stm32h7xx_hal_dma.o(i.HAL_DMA_GetError)
    i.HAL_DMA_IRQHandler                     0x0800173c   Section        0  stm32h7xx_hal_dma.o(i.HAL_DMA_IRQHandler)
    i.HAL_DMA_Init                           0x08002234   Section        0  stm32h7xx_hal_dma.o(i.HAL_DMA_Init)
    i.HAL_DMA_Start_IT                       0x08002754   Section        0  stm32h7xx_hal_dma.o(i.HAL_DMA_Start_IT)
    i.HAL_EnableCompensationCell             0x08002b34   Section        0  stm32h7xx_hal.o(i.HAL_EnableCompensationCell)
    i.HAL_GPIO_Init                          0x08002b48   Section        0  stm32h7xx_hal_gpio.o(i.HAL_GPIO_Init)
    i.HAL_GPIO_WritePin                      0x08002d44   Section        0  stm32h7xx_hal_gpio.o(i.HAL_GPIO_WritePin)
    i.HAL_GetREVID                           0x08002d50   Section        0  stm32h7xx_hal.o(i.HAL_GetREVID)
    i.HAL_GetTick                            0x08002d5c   Section        0  stm32h7xx_hal.o(i.HAL_GetTick)
    i.HAL_IncTick                            0x08002d68   Section        0  stm32h7xx_hal.o(i.HAL_IncTick)
    i.HAL_Init                               0x08002d80   Section        0  stm32h7xx_hal.o(i.HAL_Init)
    i.HAL_InitTick                           0x08002de0   Section        0  stm32h7xx_hal.o(i.HAL_InitTick)
    i.HAL_MPU_ConfigRegion                   0x08002e38   Section        0  stm32h7xx_hal_cortex.o(i.HAL_MPU_ConfigRegion)
    i.HAL_MPU_Disable                        0x08002e94   Section        0  stm32h7xx_hal_cortex.o(i.HAL_MPU_Disable)
    i.HAL_MPU_Enable                         0x08002eb4   Section        0  stm32h7xx_hal_cortex.o(i.HAL_MPU_Enable)
    i.HAL_MspInit                            0x08002edc   Section        0  stm32h7xx_hal.o(i.HAL_MspInit)
    i.HAL_NVIC_EnableIRQ                     0x08002ede   Section        0  stm32h7xx_hal_cortex.o(i.HAL_NVIC_EnableIRQ)
    i.HAL_NVIC_SetPriority                   0x08002f06   Section        0  stm32h7xx_hal_cortex.o(i.HAL_NVIC_SetPriority)
    i.HAL_NVIC_SetPriorityGrouping           0x08002f80   Section        0  stm32h7xx_hal_cortex.o(i.HAL_NVIC_SetPriorityGrouping)
    i.HAL_PWREx_EnableUSBVoltageDetector     0x08002fa8   Section        0  stm32h7xx_hal_pwr_ex.o(i.HAL_PWREx_EnableUSBVoltageDetector)
    i.HAL_RCCEx_GetD3PCLK1Freq               0x08002fbc   Section        0  stm32h7xx_hal_rcc_ex.o(i.HAL_RCCEx_GetD3PCLK1Freq)
    i.HAL_RCCEx_GetPLL2ClockFreq             0x08002fe0   Section        0  stm32h7xx_hal_rcc_ex.o(i.HAL_RCCEx_GetPLL2ClockFreq)
    i.HAL_RCCEx_GetPLL3ClockFreq             0x08003210   Section        0  stm32h7xx_hal_rcc_ex.o(i.HAL_RCCEx_GetPLL3ClockFreq)
    i.HAL_RCCEx_PeriphCLKConfig              0x08003440   Section        0  stm32h7xx_hal_rcc_ex.o(i.HAL_RCCEx_PeriphCLKConfig)
    i.HAL_RCC_ClockConfig                    0x080041a8   Section        0  stm32h7xx_hal_rcc.o(i.HAL_RCC_ClockConfig)
    i.HAL_RCC_GetHCLKFreq                    0x080044c8   Section        0  stm32h7xx_hal_rcc.o(i.HAL_RCC_GetHCLKFreq)
    i.HAL_RCC_GetPCLK1Freq                   0x08004514   Section        0  stm32h7xx_hal_rcc.o(i.HAL_RCC_GetPCLK1Freq)
    i.HAL_RCC_GetPCLK2Freq                   0x08004538   Section        0  stm32h7xx_hal_rcc.o(i.HAL_RCC_GetPCLK2Freq)
    i.HAL_RCC_GetSysClockFreq                0x0800455c   Section        0  stm32h7xx_hal_rcc.o(i.HAL_RCC_GetSysClockFreq)
    i.HAL_RCC_OscConfig                      0x08004788   Section        0  stm32h7xx_hal_rcc.o(i.HAL_RCC_OscConfig)
    i.HAL_SPI_ErrorCallback                  0x08004fe0   Section        0  spi_protocal.o(i.HAL_SPI_ErrorCallback)
    i.HAL_SPI_IRQHandler                     0x08004ffc   Section        0  stm32h7xx_hal_spi.o(i.HAL_SPI_IRQHandler)
    i.HAL_SPI_Init                           0x08005288   Section        0  stm32h7xx_hal_spi.o(i.HAL_SPI_Init)
    i.HAL_SPI_MspInit                        0x0800553c   Section        0  stm32h7xx_hal_msp.o(i.HAL_SPI_MspInit)
    i.HAL_SPI_Receive_DMA                    0x08005848   Section        0  stm32h7xx_hal_spi.o(i.HAL_SPI_Receive_DMA)
    i.HAL_SPI_RxCpltCallback                 0x08005a2c   Section        0  spi_protocal.o(i.HAL_SPI_RxCpltCallback)
    i.HAL_SPI_RxHalfCpltCallback             0x08005a38   Section        0  stm32h7xx_hal_spi.o(i.HAL_SPI_RxHalfCpltCallback)
    i.HAL_SPI_SuspendCallback                0x08005a3a   Section        0  stm32h7xx_hal_spi.o(i.HAL_SPI_SuspendCallback)
    i.HAL_SPI_TxCpltCallback                 0x08005a3c   Section        0  stm32h7xx_hal_spi.o(i.HAL_SPI_TxCpltCallback)
    i.HAL_SPI_TxRxCpltCallback               0x08005a3e   Section        0  stm32h7xx_hal_spi.o(i.HAL_SPI_TxRxCpltCallback)
    i.HAL_SYSTICK_Config                     0x08005a40   Section        0  stm32h7xx_hal_cortex.o(i.HAL_SYSTICK_Config)
    i.HAL_TIMEx_Break2Callback               0x08005a74   Section        0  stm32h7xx_hal_tim_ex.o(i.HAL_TIMEx_Break2Callback)
    i.HAL_TIMEx_BreakCallback                0x08005a76   Section        0  stm32h7xx_hal_tim_ex.o(i.HAL_TIMEx_BreakCallback)
    i.HAL_TIMEx_CommutCallback               0x08005a78   Section        0  stm32h7xx_hal_tim_ex.o(i.HAL_TIMEx_CommutCallback)
    i.HAL_TIM_Base_Init                      0x08005a7a   Section        0  stm32h7xx_hal_tim.o(i.HAL_TIM_Base_Init)
    i.HAL_TIM_Base_MspInit                   0x08005ae8   Section        0  stm32h7xx_hal_tim.o(i.HAL_TIM_Base_MspInit)
    i.HAL_TIM_Base_Start_IT                  0x08005aec   Section        0  stm32h7xx_hal_tim.o(i.HAL_TIM_Base_Start_IT)
    i.HAL_TIM_Base_Stop_IT                   0x08005ba0   Section        0  stm32h7xx_hal_tim.o(i.HAL_TIM_Base_Stop_IT)
    i.HAL_TIM_IC_CaptureCallback             0x08005bde   Section        0  stm32h7xx_hal_tim.o(i.HAL_TIM_IC_CaptureCallback)
    i.HAL_TIM_IRQHandler                     0x08005be0   Section        0  stm32h7xx_hal_tim.o(i.HAL_TIM_IRQHandler)
    i.HAL_TIM_OC_DelayElapsedCallback        0x08005d78   Section        0  stm32h7xx_hal_tim.o(i.HAL_TIM_OC_DelayElapsedCallback)
    i.HAL_TIM_PWM_PulseFinishedCallback      0x08005d7a   Section        0  stm32h7xx_hal_tim.o(i.HAL_TIM_PWM_PulseFinishedCallback)
    i.HAL_TIM_PeriodElapsedCallback          0x08005d7c   Section        0  main.o(i.HAL_TIM_PeriodElapsedCallback)
    i.HAL_TIM_TriggerCallback                0x08005d7e   Section        0  stm32h7xx_hal_tim.o(i.HAL_TIM_TriggerCallback)
    i.HAL_UARTEx_RxEventCallback             0x08005d80   Section        0  stm32h7xx_hal_uart.o(i.HAL_UARTEx_RxEventCallback)
    i.HAL_UARTEx_RxFifoFullCallback          0x08005d82   Section        0  stm32h7xx_hal_uart_ex.o(i.HAL_UARTEx_RxFifoFullCallback)
    i.HAL_UARTEx_TxFifoEmptyCallback         0x08005d84   Section        0  stm32h7xx_hal_uart_ex.o(i.HAL_UARTEx_TxFifoEmptyCallback)
    i.HAL_UARTEx_WakeupCallback              0x08005d86   Section        0  stm32h7xx_hal_uart_ex.o(i.HAL_UARTEx_WakeupCallback)
    i.HAL_UART_ErrorCallback                 0x08005d88   Section        0  stm32h7xx_hal_uart.o(i.HAL_UART_ErrorCallback)
    i.HAL_UART_IRQHandler                    0x08005d8c   Section        0  stm32h7xx_hal_uart.o(i.HAL_UART_IRQHandler)
    i.HAL_UART_Init                          0x08006220   Section        0  stm32h7xx_hal_uart.o(i.HAL_UART_Init)
    i.HAL_UART_MspInit                       0x08006298   Section        0  stm32h7xx_hal_msp.o(i.HAL_UART_MspInit)
    i.HAL_UART_Receive                       0x08006344   Section        0  stm32h7xx_hal_uart.o(i.HAL_UART_Receive)
    i.HAL_UART_Receive_IT                    0x08006458   Section        0  stm32h7xx_hal_uart.o(i.HAL_UART_Receive_IT)
    i.HAL_UART_RxCpltCallback                0x080064b4   Section        0  uart.o(i.HAL_UART_RxCpltCallback)
    i.HAL_UART_Transmit                      0x08006500   Section        0  stm32h7xx_hal_uart.o(i.HAL_UART_Transmit)
    i.HAL_UART_Transmit_IT                   0x080065c4   Section        0  stm32h7xx_hal_uart.o(i.HAL_UART_Transmit_IT)
    i.HAL_UART_TxCpltCallback                0x08006670   Section        0  portserial.o(i.HAL_UART_TxCpltCallback)
    i.HardFault_Handler                      0x0800667c   Section        0  stm32h7xx_it.o(i.HardFault_Handler)
    i.MB_TxCpltCallback                      0x08006680   Section        0  portserial.o(i.MB_TxCpltCallback)
    i.MPU_Config                             0x08006694   Section        0  main.o(i.MPU_Config)
    MPU_Config                               0x08006695   Thumb Code    78  main.o(i.MPU_Config)
    i.MX_USART1_UART_Init                    0x080066e4   Section        0  uart.o(i.MX_USART1_UART_Init)
    i.MemManage_Handler                      0x08006744   Section        0  stm32h7xx_it.o(i.MemManage_Handler)
    i.NMI_Handler                            0x08006748   Section        0  stm32h7xx_it.o(i.NMI_Handler)
    i.PendSV_Handler                         0x0800674a   Section        0  stm32h7xx_it.o(i.PendSV_Handler)
    i.RCCEx_PLL2_Config                      0x0800674c   Section        0  stm32h7xx_hal_rcc_ex.o(i.RCCEx_PLL2_Config)
    RCCEx_PLL2_Config                        0x0800674d   Thumb Code   350  stm32h7xx_hal_rcc_ex.o(i.RCCEx_PLL2_Config)
    i.RCCEx_PLL3_Config                      0x080068b0   Section        0  stm32h7xx_hal_rcc_ex.o(i.RCCEx_PLL3_Config)
    RCCEx_PLL3_Config                        0x080068b1   Thumb Code   350  stm32h7xx_hal_rcc_ex.o(i.RCCEx_PLL3_Config)
    i.SPI1_IRQHandler                        0x08006a14   Section        0  stm32h7xx_it.o(i.SPI1_IRQHandler)
    i.SPI1_Init                              0x08006a24   Section        0  spi_protocal.o(i.SPI1_Init)
    i.SPI2_IRQHandler                        0x08006a70   Section        0  stm32h7xx_it.o(i.SPI2_IRQHandler)
    i.SPI_CloseTransfer                      0x08006a80   Section        0  stm32h7xx_hal_spi.o(i.SPI_CloseTransfer)
    SPI_CloseTransfer                        0x08006a81   Thumb Code   252  stm32h7xx_hal_spi.o(i.SPI_CloseTransfer)
    i.SPI_DMAAbortOnError                    0x08006b7c   Section        0  stm32h7xx_hal_spi.o(i.SPI_DMAAbortOnError)
    SPI_DMAAbortOnError                      0x08006b7d   Thumb Code    28  stm32h7xx_hal_spi.o(i.SPI_DMAAbortOnError)
    i.SPI_DMAError                           0x08006b98   Section        0  stm32h7xx_hal_spi.o(i.SPI_DMAError)
    SPI_DMAError                             0x08006b99   Thumb Code    48  stm32h7xx_hal_spi.o(i.SPI_DMAError)
    i.SPI_DMAHalfReceiveCplt                 0x08006bc8   Section        0  stm32h7xx_hal_spi.o(i.SPI_DMAHalfReceiveCplt)
    SPI_DMAHalfReceiveCplt                   0x08006bc9   Thumb Code    14  stm32h7xx_hal_spi.o(i.SPI_DMAHalfReceiveCplt)
    i.SPI_DMAReceiveCplt                     0x08006bd6   Section        0  stm32h7xx_hal_spi.o(i.SPI_DMAReceiveCplt)
    SPI_DMAReceiveCplt                       0x08006bd7   Thumb Code    46  stm32h7xx_hal_spi.o(i.SPI_DMAReceiveCplt)
    i.SPI_GetPacketSize                      0x08006c04   Section        0  stm32h7xx_hal_spi.o(i.SPI_GetPacketSize)
    SPI_GetPacketSize                        0x08006c05   Thumb Code    26  stm32h7xx_hal_spi.o(i.SPI_GetPacketSize)
    i.SVC_Handler                            0x08006c1e   Section        0  stm32h7xx_it.o(i.SVC_Handler)
    i.SysTick_Handler                        0x08006c20   Section        0  stm32h7xx_it.o(i.SysTick_Handler)
    i.SystemInit                             0x08006c28   Section        0  system_stm32h7xx.o(i.SystemInit)
    i.TIM3_IRQHandler                        0x08006d24   Section        0  stm32h7xx_it.o(i.TIM3_IRQHandler)
    i.TIM7_IRQHandler                        0x08006d34   Section        0  porttimer.o(i.TIM7_IRQHandler)
    i.TIM_Base_SetConfig                     0x08006d58   Section        0  stm32h7xx_hal_tim.o(i.TIM_Base_SetConfig)
    i.UART_AdvFeatureConfig                  0x08006e34   Section        0  stm32h7xx_hal_uart.o(i.UART_AdvFeatureConfig)
    i.UART_CheckIdleState                    0x08006f2c   Section        0  stm32h7xx_hal_uart.o(i.UART_CheckIdleState)
    i.UART_DMAAbortOnError                   0x08007016   Section        0  stm32h7xx_hal_uart.o(i.UART_DMAAbortOnError)
    UART_DMAAbortOnError                     0x08007017   Thumb Code    24  stm32h7xx_hal_uart.o(i.UART_DMAAbortOnError)
    i.UART_EndRxTransfer                     0x08007030   Section        0  stm32h7xx_hal_uart.o(i.UART_EndRxTransfer)
    UART_EndRxTransfer                       0x08007031   Thumb Code   104  stm32h7xx_hal_uart.o(i.UART_EndRxTransfer)
    i.UART_EndTransmit_IT                    0x0800709c   Section        0  stm32h7xx_hal_uart.o(i.UART_EndTransmit_IT)
    UART_EndTransmit_IT                      0x0800709d   Thumb Code    48  stm32h7xx_hal_uart.o(i.UART_EndTransmit_IT)
    i.UART_RxISR_16BIT                       0x080070cc   Section        0  stm32h7xx_hal_uart.o(i.UART_RxISR_16BIT)
    UART_RxISR_16BIT                         0x080070cd   Thumb Code   256  stm32h7xx_hal_uart.o(i.UART_RxISR_16BIT)
    i.UART_RxISR_16BIT_FIFOEN                0x080071d0   Section        0  stm32h7xx_hal_uart.o(i.UART_RxISR_16BIT_FIFOEN)
    UART_RxISR_16BIT_FIFOEN                  0x080071d1   Thumb Code   494  stm32h7xx_hal_uart.o(i.UART_RxISR_16BIT_FIFOEN)
    i.UART_RxISR_8BIT                        0x080073cc   Section        0  stm32h7xx_hal_uart.o(i.UART_RxISR_8BIT)
    UART_RxISR_8BIT                          0x080073cd   Thumb Code   254  stm32h7xx_hal_uart.o(i.UART_RxISR_8BIT)
    i.UART_RxISR_8BIT_FIFOEN                 0x080074d0   Section        0  stm32h7xx_hal_uart.o(i.UART_RxISR_8BIT_FIFOEN)
    UART_RxISR_8BIT_FIFOEN                   0x080074d1   Thumb Code   492  stm32h7xx_hal_uart.o(i.UART_RxISR_8BIT_FIFOEN)
    i.UART_SetConfig                         0x080076c8   Section        0  stm32h7xx_hal_uart.o(i.UART_SetConfig)
    i.UART_Start_Receive_IT                  0x08007c54   Section        0  stm32h7xx_hal_uart.o(i.UART_Start_Receive_IT)
    i.UART_TxISR_16BIT                       0x08007db0   Section        0  stm32h7xx_hal_uart.o(i.UART_TxISR_16BIT)
    UART_TxISR_16BIT                         0x08007db1   Thumb Code    98  stm32h7xx_hal_uart.o(i.UART_TxISR_16BIT)
    i.UART_TxISR_16BIT_FIFOEN                0x08007e12   Section        0  stm32h7xx_hal_uart.o(i.UART_TxISR_16BIT_FIFOEN)
    UART_TxISR_16BIT_FIFOEN                  0x08007e13   Thumb Code   130  stm32h7xx_hal_uart.o(i.UART_TxISR_16BIT_FIFOEN)
    i.UART_TxISR_8BIT                        0x08007e94   Section        0  stm32h7xx_hal_uart.o(i.UART_TxISR_8BIT)
    UART_TxISR_8BIT                          0x08007e95   Thumb Code    92  stm32h7xx_hal_uart.o(i.UART_TxISR_8BIT)
    i.UART_TxISR_8BIT_FIFOEN                 0x08007ef0   Section        0  stm32h7xx_hal_uart.o(i.UART_TxISR_8BIT_FIFOEN)
    UART_TxISR_8BIT_FIFOEN                   0x08007ef1   Thumb Code   126  stm32h7xx_hal_uart.o(i.UART_TxISR_8BIT_FIFOEN)
    i.UART_WaitOnFlagUntilTimeout            0x08007f6e   Section        0  stm32h7xx_hal_uart.o(i.UART_WaitOnFlagUntilTimeout)
    i.USART1_IRQHandler                      0x0800801c   Section        0  uart.o(i.USART1_IRQHandler)
    i.USART6_IRQHandler                      0x08008054   Section        0  portserial.o(i.USART6_IRQHandler)
    i.UsageFault_Handler                     0x0800808c   Section        0  stm32h7xx_it.o(i.UsageFault_Handler)
    i.__0printf                              0x08008090   Section        0  printfa.o(i.__0printf)
    i.__NVIC_GetPriorityGrouping             0x080080b0   Section        0  stm32h7xx_hal_cortex.o(i.__NVIC_GetPriorityGrouping)
    __NVIC_GetPriorityGrouping               0x080080b1   Thumb Code    10  stm32h7xx_hal_cortex.o(i.__NVIC_GetPriorityGrouping)
    i.__NVIC_SetPriority                     0x080080c0   Section        0  stm32h7xx_hal_cortex.o(i.__NVIC_SetPriority)
    __NVIC_SetPriority                       0x080080c1   Thumb Code    32  stm32h7xx_hal_cortex.o(i.__NVIC_SetPriority)
    i.__scatterload_copy                     0x080080e8   Section       14  handlers.o(i.__scatterload_copy)
    i.__scatterload_null                     0x080080f6   Section        2  handlers.o(i.__scatterload_null)
    i.__scatterload_zeroinit                 0x080080f8   Section       14  handlers.o(i.__scatterload_zeroinit)
    i._fp_digits                             0x08008108   Section        0  printfa.o(i._fp_digits)
    _fp_digits                               0x08008109   Thumb Code   366  printfa.o(i._fp_digits)
    i._printf_core                           0x0800828c   Section        0  printfa.o(i._printf_core)
    _printf_core                             0x0800828d   Thumb Code  1704  printfa.o(i._printf_core)
    i._printf_post_padding                   0x08008940   Section        0  printfa.o(i._printf_post_padding)
    _printf_post_padding                     0x08008941   Thumb Code    36  printfa.o(i._printf_post_padding)
    i._printf_pre_padding                    0x08008964   Section        0  printfa.o(i._printf_pre_padding)
    _printf_pre_padding                      0x08008965   Thumb Code    46  printfa.o(i._printf_pre_padding)
    i.delay_init                             0x08008994   Section        0  delay.o(i.delay_init)
    i.eMBEnable                              0x080089a0   Section        0  mb.o(i.eMBEnable)
    i.eMBFuncReadCoils                       0x080089c8   Section        0  mbfunccoils.o(i.eMBFuncReadCoils)
    i.eMBFuncReadDiscreteInputs              0x08008a76   Section        0  mbfuncdisc.o(i.eMBFuncReadDiscreteInputs)
    i.eMBFuncReadHoldingRegister             0x08008b22   Section        0  mbfuncholding.o(i.eMBFuncReadHoldingRegister)
    i.eMBFuncReadInputRegister               0x08008bb0   Section        0  mbfuncinput.o(i.eMBFuncReadInputRegister)
    i.eMBFuncReadSpectrum                    0x08008c3c   Section        0  mbcustomfunctioncode.o(i.eMBFuncReadSpectrum)
    i.eMBFuncReadWriteMultipleHoldingRegister 0x08008ca2   Section        0  mbfuncholding.o(i.eMBFuncReadWriteMultipleHoldingRegister)
    i.eMBFuncReportSlaveID                   0x08008d78   Section        0  mbfuncother.o(i.eMBFuncReportSlaveID)
    i.eMBFuncWriteCoil                       0x08008da0   Section        0  mbfunccoils.o(i.eMBFuncWriteCoil)
    i.eMBFuncWriteHoldingRegister            0x08008e10   Section        0  mbfuncholding.o(i.eMBFuncWriteHoldingRegister)
    i.eMBFuncWriteMultipleCoils              0x08008e52   Section        0  mbfunccoils.o(i.eMBFuncWriteMultipleCoils)
    i.eMBFuncWriteMultipleHoldingRegister    0x08008ee2   Section        0  mbfuncholding.o(i.eMBFuncWriteMultipleHoldingRegister)
    i.eMBInit                                0x08008f50   Section        0  mb.o(i.eMBInit)
    i.eMBPoll                                0x08009030   Section        0  mb.o(i.eMBPoll)
    i.eMBRTUInit                             0x0800915c   Section        0  mbrtu.o(i.eMBRTUInit)
    i.eMBRTUReceive                          0x080091b4   Section        0  mbrtu.o(i.eMBRTUReceive)
    i.eMBRTUSend                             0x08009204   Section        0  mbrtu.o(i.eMBRTUSend)
    i.eMBRTUStart                            0x08009294   Section        0  mbrtu.o(i.eMBRTUStart)
    i.eMBRTUStop                             0x080092b8   Section        0  mbrtu.o(i.eMBRTUStop)
    i.eMBRegCoilsCB                          0x080092d0   Section        0  user_mb_app.o(i.eMBRegCoilsCB)
    i.eMBRegDiscreteCB                       0x08009404   Section        0  user_mb_app.o(i.eMBRegDiscreteCB)
    i.eMBRegHoldingCB                        0x080094cc   Section        0  user_mb_app.o(i.eMBRegHoldingCB)
    i.eMBRegInputCB                          0x08009580   Section        0  user_mb_app.o(i.eMBRegInputCB)
    i.fputc                                  0x080095f0   Section        0  uart.o(i.fputc)
    i.main                                   0x08009608   Section        0  main.o(i.main)
    i.prveMBError2Exception                  0x08009678   Section        0  mbutils.o(i.prveMBError2Exception)
    i.prvvTIMERExpiredISR                    0x0800969c   Section        0  porttimer.o(i.prvvTIMERExpiredISR)
    i.prvvUARTRxISR                          0x080096ac   Section        0  portserial.o(i.prvvUARTRxISR)
    i.prvvUARTTxReadyISR                     0x080096bc   Section        0  portserial.o(i.prvvUARTTxReadyISR)
    i.rs485_tx_set                           0x080096cc   Section        0  portserial.o(i.rs485_tx_set)
    i.spectrum_get_data_buffer               0x080096e4   Section        0  spi_protocal.o(i.spectrum_get_data_buffer)
    i.spi_get_receive_buffer                 0x080096ec   Section        0  spi_protocal.o(i.spi_get_receive_buffer)
    i.spi_poll_receive                       0x080096f4   Section        0  spi_protocal.o(i.spi_poll_receive)
    i.spi_start_receive_data                 0x08009728   Section        0  spi_protocal.o(i.spi_start_receive_data)
    i.sys_stm32_clock_init                   0x08009798   Section        0  main.o(i.sys_stm32_clock_init)
    sys_stm32_clock_init                     0x08009799   Thumb Code   292  main.o(i.sys_stm32_clock_init)
    i.usMBCRC16                              0x080098c8   Section        0  mbcrc.o(i.usMBCRC16)
    i.vMBPortSerialEnable                    0x08009900   Section        0  portserial.o(i.vMBPortSerialEnable)
    i.vMBPortTimersDisable                   0x08009980   Section        0  porttimer.o(i.vMBPortTimersDisable)
    i.vMBPortTimersEnable                    0x08009998   Section        0  porttimer.o(i.vMBPortTimersEnable)
    i.xMBPortEventGet                        0x080099b0   Section        0  portevent.o(i.xMBPortEventGet)
    i.xMBPortEventInit                       0x080099d4   Section        0  portevent.o(i.xMBPortEventInit)
    i.xMBPortEventPost                       0x080099e4   Section        0  portevent.o(i.xMBPortEventPost)
    i.xMBPortSerialGetByte                   0x080099fc   Section        0  portserial.o(i.xMBPortSerialGetByte)
    i.xMBPortSerialInit                      0x08009a18   Section        0  portserial.o(i.xMBPortSerialInit)
    i.xMBPortSerialPutByte                   0x08009bd0   Section        0  portserial.o(i.xMBPortSerialPutByte)
    i.xMBPortTimersInit                      0x08009be4   Section        0  porttimer.o(i.xMBPortTimersInit)
    i.xMBRTUReceiveFSM                       0x08009c54   Section        0  mbrtu.o(i.xMBRTUReceiveFSM)
    i.xMBRTUTimerT35Expired                  0x08009cdc   Section        0  mbrtu.o(i.xMBRTUTimerT35Expired)
    i.xMBRTUTransmitFSM                      0x08009d1c   Section        0  mbrtu.o(i.xMBRTUTransmitFSM)
    i.xMBUtilGetBits                         0x08009d88   Section        0  mbutils.o(i.xMBUtilGetBits)
    i.xMBUtilSetBits                         0x08009db2   Section        0  mbutils.o(i.xMBUtilSetBits)
    .constdata                               0x08009e12   Section       16  system_stm32h7xx.o(.constdata)
    .constdata                               0x08009e22   Section       24  stm32h7xx_hal_uart.o(.constdata)
    .constdata                               0x08009e3a   Section        8  stm32h7xx_hal_dma.o(.constdata)
    flagBitshiftOffset                       0x08009e3a   Data           8  stm32h7xx_hal_dma.o(.constdata)
    .constdata                               0x08009e42   Section      512  mbcrc.o(.constdata)
    aucCRCHi                                 0x08009e42   Data         256  mbcrc.o(.constdata)
    aucCRCLo                                 0x08009f42   Data         256  mbcrc.o(.constdata)
    .data                                    0x20000000   Section        8  system_stm32h7xx.o(.data)
    .data                                    0x20000008   Section        9  stm32h7xx_hal.o(.data)
    .data                                    0x20000014   Section        4  delay.o(.data)
    g_fac_us                                 0x20000014   Data           4  delay.o(.data)
    .data                                    0x20000018   Section        4  uart.o(.data)
    .data                                    0x2000001c   Section        4  spi_protocal.o(.data)
    spectrum_receive_flag                    0x2000001c   Data           4  spi_protocal.o(.data)
    .data                                    0x20000020   Section      181  mb.o(.data)
    ucMBAddress                              0x20000020   Data           1  mb.o(.data)
    eMBCurrentMode                           0x20000021   Data           1  mb.o(.data)
    eMBState                                 0x20000022   Data           1  mb.o(.data)
    peMBFrameSendCur                         0x20000024   Data           4  mb.o(.data)
    pvMBFrameStartCur                        0x20000028   Data           4  mb.o(.data)
    pvMBFrameStopCur                         0x2000002c   Data           4  mb.o(.data)
    peMBFrameReceiveCur                      0x20000030   Data           4  mb.o(.data)
    pvMBFrameCloseCur                        0x20000034   Data           4  mb.o(.data)
    xFuncHandlers                            0x2000004c   Data         128  mb.o(.data)
    ucMBFrame                                0x200000cc   Data           4  mb.o(.data)
    ucRcvAddress                             0x200000d0   Data           1  mb.o(.data)
    ucFunctionCode                           0x200000d1   Data           1  mb.o(.data)
    usLength                                 0x200000d2   Data           2  mb.o(.data)
    eException                               0x200000d4   Data           1  mb.o(.data)
    .data                                    0x200000d6   Section        2  mbfuncother.o(.data)
    usMBSlaveIDLen                           0x200000d6   Data           2  mbfuncother.o(.data)
    .data                                    0x200000d8   Section       12  mbrtu.o(.data)
    eSndState                                0x200000d8   Data           1  mbrtu.o(.data)
    eRcvState                                0x200000d9   Data           1  mbrtu.o(.data)
    pucSndBufferCur                          0x200000dc   Data           4  mbrtu.o(.data)
    usSndBufferCount                         0x200000e0   Data           2  mbrtu.o(.data)
    usRcvBufferPos                           0x200000e2   Data           2  mbrtu.o(.data)
    .data                                    0x200000e4   Section        2  portevent.o(.data)
    eQueuedEvent                             0x200000e4   Data           1  portevent.o(.data)
    xEventInQueue                            0x200000e5   Data           1  portevent.o(.data)
    .data                                    0x200000e6   Section       18  user_mb_app.o(.data)
    .data                                    0x200000f8   Section        4  stdout.o(.data)
    .bss                                     0x200000fc   Section       76  main.o(.bss)
    .bss                                     0x20000148   Section      120  stm32h7xx_hal_msp.o(.bss)
    hdma_rx                                  0x20000148   Data         120  stm32h7xx_hal_msp.o(.bss)
    .bss                                     0x200001c0   Section      404  uart.o(.bss)
    .bss                                     0x20000354   Section    21640  spi_protocal.o(.bss)
    .bss                                     0x200057dc   Section       32  mbfuncother.o(.bss)
    ucMBSlaveID                              0x200057dc   Data          32  mbfuncother.o(.bss)
    .bss                                     0x200057fc   Section     5632  mbrtu.o(.bss)
    .bss                                     0x20006dfc   Section      148  portserial.o(.bss)
    .bss                                     0x20006e90   Section       76  porttimer.o(.bss)
    TIM7_Handler                             0x20006e90   Data          76  porttimer.o(.bss)
    .bss                                     0x20006edc   Section      400  user_mb_app.o(.bss)
    STACK                                    0x20007070   Section     1024  startup_stm32h743xx.o(STACK)
    .ARM.__AT_0x38000000                     0x38000000   Section    22096  spi_protocal.o(.ARM.__AT_0x38000000)

    Global Symbols

    Symbol Name                              Value     Ov Type        Size  Object(Section)

    BuildAttributes$$THM_ISAv4$E$P$D$K$B$S$7EM$VFPv5_D16$PE$PLD8$A:L22UL41UL21$X:L11$S22US41US21$IEEE1$IW$USESV6$~STKCKD$USESV7$~SHL$OSPACE$ROPI$EBA8$MICROLIB$REQ8$PRES8$EABIv2 0x00000000   Number         0  anon$$obj.o ABSOLUTE
    __ARM_use_no_argv                        0x00000000   Number         0  main.o ABSOLUTE
    _printf_a                                0x00000000   Number         0  stubs.o ABSOLUTE
    _printf_c                                0x00000000   Number         0  stubs.o ABSOLUTE
    _printf_charcount                        0x00000000   Number         0  stubs.o ABSOLUTE
    _printf_d                                0x00000000   Number         0  stubs.o ABSOLUTE
    _printf_e                                0x00000000   Number         0  stubs.o ABSOLUTE
    _printf_f                                0x00000000   Number         0  stubs.o ABSOLUTE
    _printf_flags                            0x00000000   Number         0  stubs.o ABSOLUTE
    _printf_fp_dec                           0x00000000   Number         0  stubs.o ABSOLUTE
    _printf_fp_hex                           0x00000000   Number         0  stubs.o ABSOLUTE
    _printf_g                                0x00000000   Number         0  stubs.o ABSOLUTE
    _printf_i                                0x00000000   Number         0  stubs.o ABSOLUTE
    _printf_int_dec                          0x00000000   Number         0  stubs.o ABSOLUTE
    _printf_l                                0x00000000   Number         0  stubs.o ABSOLUTE
    _printf_lc                               0x00000000   Number         0  stubs.o ABSOLUTE
    _printf_ll                               0x00000000   Number         0  stubs.o ABSOLUTE
    _printf_lld                              0x00000000   Number         0  stubs.o ABSOLUTE
    _printf_lli                              0x00000000   Number         0  stubs.o ABSOLUTE
    _printf_llo                              0x00000000   Number         0  stubs.o ABSOLUTE
    _printf_llu                              0x00000000   Number         0  stubs.o ABSOLUTE
    _printf_llx                              0x00000000   Number         0  stubs.o ABSOLUTE
    _printf_longlong_dec                     0x00000000   Number         0  stubs.o ABSOLUTE
    _printf_longlong_hex                     0x00000000   Number         0  stubs.o ABSOLUTE
    _printf_longlong_oct                     0x00000000   Number         0  stubs.o ABSOLUTE
    _printf_ls                               0x00000000   Number         0  stubs.o ABSOLUTE
    _printf_mbtowc                           0x00000000   Number         0  stubs.o ABSOLUTE
    _printf_n                                0x00000000   Number         0  stubs.o ABSOLUTE
    _printf_o                                0x00000000   Number         0  stubs.o ABSOLUTE
    _printf_p                                0x00000000   Number         0  stubs.o ABSOLUTE
    _printf_percent                          0x00000000   Number         0  stubs.o ABSOLUTE
    _printf_pre_padding                      0x00000000   Number         0  stubs.o ABSOLUTE
    _printf_return_value                     0x00000000   Number         0  stubs.o ABSOLUTE
    _printf_s                                0x00000000   Number         0  stubs.o ABSOLUTE
    _printf_sizespec                         0x00000000   Number         0  stubs.o ABSOLUTE
    _printf_str                              0x00000000   Number         0  stubs.o ABSOLUTE
    _printf_truncate_signed                  0x00000000   Number         0  stubs.o ABSOLUTE
    _printf_truncate_unsigned                0x00000000   Number         0  stubs.o ABSOLUTE
    _printf_u                                0x00000000   Number         0  stubs.o ABSOLUTE
    _printf_wc                               0x00000000   Number         0  stubs.o ABSOLUTE
    _printf_wctomb                           0x00000000   Number         0  stubs.o ABSOLUTE
    _printf_widthprec                        0x00000000   Number         0  stubs.o ABSOLUTE
    _printf_x                                0x00000000   Number         0  stubs.o ABSOLUTE
    __arm_fini_                               - Undefined Weak Reference
    __cpp_initialize__aeabi_                  - Undefined Weak Reference
    __cxa_finalize                            - Undefined Weak Reference
    __decompress                              - Undefined Weak Reference
    _clock_init                               - Undefined Weak Reference
    _microlib_exit                            - Undefined Weak Reference
    __Vectors_Size                           0x00000298   Number         0  startup_stm32h743xx.o ABSOLUTE
    __Vectors                                0x08000000   Data           4  startup_stm32h743xx.o(RESET)
    __Vectors_End                            0x08000298   Data           0  startup_stm32h743xx.o(RESET)
    __main                                   0x08000299   Thumb Code     0  entry.o(.ARM.Collect$$$$00000000)
    _main_stk                                0x08000299   Thumb Code     0  entry2.o(.ARM.Collect$$$$00000001)
    _main_scatterload                        0x0800029d   Thumb Code     0  entry5.o(.ARM.Collect$$$$00000004)
    __main_after_scatterload                 0x080002a1   Thumb Code     0  entry5.o(.ARM.Collect$$$$00000004)
    _main_clock                              0x080002a1   Thumb Code     0  entry7b.o(.ARM.Collect$$$$00000008)
    _main_cpp_init                           0x080002a1   Thumb Code     0  entry8b.o(.ARM.Collect$$$$0000000A)
    _main_init                               0x080002a1   Thumb Code     0  entry9a.o(.ARM.Collect$$$$0000000B)
    __rt_lib_shutdown_fini                   0x080002a9   Thumb Code     0  entry12b.o(.ARM.Collect$$$$0000000E)
    __rt_final_cpp                           0x080002ad   Thumb Code     0  entry10a.o(.ARM.Collect$$$$0000000F)
    __rt_final_exit                          0x080002ad   Thumb Code     0  entry11a.o(.ARM.Collect$$$$00000011)
    Reset_Handler                            0x080002b1   Thumb Code     8  startup_stm32h743xx.o(.text)
    ADC3_IRQHandler                          0x080002cb   Thumb Code     0  startup_stm32h743xx.o(.text)
    ADC_IRQHandler                           0x080002cb   Thumb Code     0  startup_stm32h743xx.o(.text)
    BDMA_Channel0_IRQHandler                 0x080002cb   Thumb Code     0  startup_stm32h743xx.o(.text)
    BDMA_Channel1_IRQHandler                 0x080002cb   Thumb Code     0  startup_stm32h743xx.o(.text)
    BDMA_Channel2_IRQHandler                 0x080002cb   Thumb Code     0  startup_stm32h743xx.o(.text)
    BDMA_Channel3_IRQHandler                 0x080002cb   Thumb Code     0  startup_stm32h743xx.o(.text)
    BDMA_Channel4_IRQHandler                 0x080002cb   Thumb Code     0  startup_stm32h743xx.o(.text)
    BDMA_Channel5_IRQHandler                 0x080002cb   Thumb Code     0  startup_stm32h743xx.o(.text)
    BDMA_Channel6_IRQHandler                 0x080002cb   Thumb Code     0  startup_stm32h743xx.o(.text)
    BDMA_Channel7_IRQHandler                 0x080002cb   Thumb Code     0  startup_stm32h743xx.o(.text)
    CEC_IRQHandler                           0x080002cb   Thumb Code     0  startup_stm32h743xx.o(.text)
    COMP1_IRQHandler                         0x080002cb   Thumb Code     0  startup_stm32h743xx.o(.text)
    CRS_IRQHandler                           0x080002cb   Thumb Code     0  startup_stm32h743xx.o(.text)
    DCMI_IRQHandler                          0x080002cb   Thumb Code     0  startup_stm32h743xx.o(.text)
    DFSDM1_FLT0_IRQHandler                   0x080002cb   Thumb Code     0  startup_stm32h743xx.o(.text)
    DFSDM1_FLT1_IRQHandler                   0x080002cb   Thumb Code     0  startup_stm32h743xx.o(.text)
    DFSDM1_FLT2_IRQHandler                   0x080002cb   Thumb Code     0  startup_stm32h743xx.o(.text)
    DFSDM1_FLT3_IRQHandler                   0x080002cb   Thumb Code     0  startup_stm32h743xx.o(.text)
    DMA1_Stream0_IRQHandler                  0x080002cb   Thumb Code     0  startup_stm32h743xx.o(.text)
    DMA1_Stream1_IRQHandler                  0x080002cb   Thumb Code     0  startup_stm32h743xx.o(.text)
    DMA1_Stream2_IRQHandler                  0x080002cb   Thumb Code     0  startup_stm32h743xx.o(.text)
    DMA1_Stream4_IRQHandler                  0x080002cb   Thumb Code     0  startup_stm32h743xx.o(.text)
    DMA1_Stream5_IRQHandler                  0x080002cb   Thumb Code     0  startup_stm32h743xx.o(.text)
    DMA1_Stream6_IRQHandler                  0x080002cb   Thumb Code     0  startup_stm32h743xx.o(.text)
    DMA1_Stream7_IRQHandler                  0x080002cb   Thumb Code     0  startup_stm32h743xx.o(.text)
    DMA2D_IRQHandler                         0x080002cb   Thumb Code     0  startup_stm32h743xx.o(.text)
    DMA2_Stream0_IRQHandler                  0x080002cb   Thumb Code     0  startup_stm32h743xx.o(.text)
    DMA2_Stream1_IRQHandler                  0x080002cb   Thumb Code     0  startup_stm32h743xx.o(.text)
    DMA2_Stream3_IRQHandler                  0x080002cb   Thumb Code     0  startup_stm32h743xx.o(.text)
    DMA2_Stream4_IRQHandler                  0x080002cb   Thumb Code     0  startup_stm32h743xx.o(.text)
    DMA2_Stream5_IRQHandler                  0x080002cb   Thumb Code     0  startup_stm32h743xx.o(.text)
    DMA2_Stream6_IRQHandler                  0x080002cb   Thumb Code     0  startup_stm32h743xx.o(.text)
    DMA2_Stream7_IRQHandler                  0x080002cb   Thumb Code     0  startup_stm32h743xx.o(.text)
    DMAMUX1_OVR_IRQHandler                   0x080002cb   Thumb Code     0  startup_stm32h743xx.o(.text)
    DMAMUX2_OVR_IRQHandler                   0x080002cb   Thumb Code     0  startup_stm32h743xx.o(.text)
    ECC_IRQHandler                           0x080002cb   Thumb Code     0  startup_stm32h743xx.o(.text)
    ETH_IRQHandler                           0x080002cb   Thumb Code     0  startup_stm32h743xx.o(.text)
    ETH_WKUP_IRQHandler                      0x080002cb   Thumb Code     0  startup_stm32h743xx.o(.text)
    EXTI0_IRQHandler                         0x080002cb   Thumb Code     0  startup_stm32h743xx.o(.text)
    EXTI1_IRQHandler                         0x080002cb   Thumb Code     0  startup_stm32h743xx.o(.text)
    EXTI2_IRQHandler                         0x080002cb   Thumb Code     0  startup_stm32h743xx.o(.text)
    EXTI3_IRQHandler                         0x080002cb   Thumb Code     0  startup_stm32h743xx.o(.text)
    EXTI4_IRQHandler                         0x080002cb   Thumb Code     0  startup_stm32h743xx.o(.text)
    EXTI9_5_IRQHandler                       0x080002cb   Thumb Code     0  startup_stm32h743xx.o(.text)
    FDCAN1_IT0_IRQHandler                    0x080002cb   Thumb Code     0  startup_stm32h743xx.o(.text)
    FDCAN1_IT1_IRQHandler                    0x080002cb   Thumb Code     0  startup_stm32h743xx.o(.text)
    FDCAN2_IT0_IRQHandler                    0x080002cb   Thumb Code     0  startup_stm32h743xx.o(.text)
    FDCAN2_IT1_IRQHandler                    0x080002cb   Thumb Code     0  startup_stm32h743xx.o(.text)
    FDCAN_CAL_IRQHandler                     0x080002cb   Thumb Code     0  startup_stm32h743xx.o(.text)
    FLASH_IRQHandler                         0x080002cb   Thumb Code     0  startup_stm32h743xx.o(.text)
    FMC_IRQHandler                           0x080002cb   Thumb Code     0  startup_stm32h743xx.o(.text)
    FPU_IRQHandler                           0x080002cb   Thumb Code     0  startup_stm32h743xx.o(.text)
    HRTIM1_FLT_IRQHandler                    0x080002cb   Thumb Code     0  startup_stm32h743xx.o(.text)
    HRTIM1_Master_IRQHandler                 0x080002cb   Thumb Code     0  startup_stm32h743xx.o(.text)
    HRTIM1_TIMA_IRQHandler                   0x080002cb   Thumb Code     0  startup_stm32h743xx.o(.text)
    HRTIM1_TIMB_IRQHandler                   0x080002cb   Thumb Code     0  startup_stm32h743xx.o(.text)
    HRTIM1_TIMC_IRQHandler                   0x080002cb   Thumb Code     0  startup_stm32h743xx.o(.text)
    HRTIM1_TIMD_IRQHandler                   0x080002cb   Thumb Code     0  startup_stm32h743xx.o(.text)
    HRTIM1_TIME_IRQHandler                   0x080002cb   Thumb Code     0  startup_stm32h743xx.o(.text)
    HSEM1_IRQHandler                         0x080002cb   Thumb Code     0  startup_stm32h743xx.o(.text)
    I2C1_ER_IRQHandler                       0x080002cb   Thumb Code     0  startup_stm32h743xx.o(.text)
    I2C1_EV_IRQHandler                       0x080002cb   Thumb Code     0  startup_stm32h743xx.o(.text)
    I2C2_ER_IRQHandler                       0x080002cb   Thumb Code     0  startup_stm32h743xx.o(.text)
    I2C2_EV_IRQHandler                       0x080002cb   Thumb Code     0  startup_stm32h743xx.o(.text)
    I2C3_ER_IRQHandler                       0x080002cb   Thumb Code     0  startup_stm32h743xx.o(.text)
    I2C3_EV_IRQHandler                       0x080002cb   Thumb Code     0  startup_stm32h743xx.o(.text)
    I2C4_ER_IRQHandler                       0x080002cb   Thumb Code     0  startup_stm32h743xx.o(.text)
    I2C4_EV_IRQHandler                       0x080002cb   Thumb Code     0  startup_stm32h743xx.o(.text)
    JPEG_IRQHandler                          0x080002cb   Thumb Code     0  startup_stm32h743xx.o(.text)
    LPTIM1_IRQHandler                        0x080002cb   Thumb Code     0  startup_stm32h743xx.o(.text)
    LPTIM2_IRQHandler                        0x080002cb   Thumb Code     0  startup_stm32h743xx.o(.text)
    LPTIM3_IRQHandler                        0x080002cb   Thumb Code     0  startup_stm32h743xx.o(.text)
    LPTIM4_IRQHandler                        0x080002cb   Thumb Code     0  startup_stm32h743xx.o(.text)
    LPTIM5_IRQHandler                        0x080002cb   Thumb Code     0  startup_stm32h743xx.o(.text)
    LPUART1_IRQHandler                       0x080002cb   Thumb Code     0  startup_stm32h743xx.o(.text)
    LTDC_ER_IRQHandler                       0x080002cb   Thumb Code     0  startup_stm32h743xx.o(.text)
    LTDC_IRQHandler                          0x080002cb   Thumb Code     0  startup_stm32h743xx.o(.text)
    MDIOS_IRQHandler                         0x080002cb   Thumb Code     0  startup_stm32h743xx.o(.text)
    MDIOS_WKUP_IRQHandler                    0x080002cb   Thumb Code     0  startup_stm32h743xx.o(.text)
    MDMA_IRQHandler                          0x080002cb   Thumb Code     0  startup_stm32h743xx.o(.text)
    OTG_FS_EP1_IN_IRQHandler                 0x080002cb   Thumb Code     0  startup_stm32h743xx.o(.text)
    OTG_FS_EP1_OUT_IRQHandler                0x080002cb   Thumb Code     0  startup_stm32h743xx.o(.text)
    OTG_FS_IRQHandler                        0x080002cb   Thumb Code     0  startup_stm32h743xx.o(.text)
    OTG_FS_WKUP_IRQHandler                   0x080002cb   Thumb Code     0  startup_stm32h743xx.o(.text)
    OTG_HS_EP1_IN_IRQHandler                 0x080002cb   Thumb Code     0  startup_stm32h743xx.o(.text)
    OTG_HS_EP1_OUT_IRQHandler                0x080002cb   Thumb Code     0  startup_stm32h743xx.o(.text)
    OTG_HS_IRQHandler                        0x080002cb   Thumb Code     0  startup_stm32h743xx.o(.text)
    OTG_HS_WKUP_IRQHandler                   0x080002cb   Thumb Code     0  startup_stm32h743xx.o(.text)
    PVD_AVD_IRQHandler                       0x080002cb   Thumb Code     0  startup_stm32h743xx.o(.text)
    QUADSPI_IRQHandler                       0x080002cb   Thumb Code     0  startup_stm32h743xx.o(.text)
    RCC_IRQHandler                           0x080002cb   Thumb Code     0  startup_stm32h743xx.o(.text)
    RNG_IRQHandler                           0x080002cb   Thumb Code     0  startup_stm32h743xx.o(.text)
    RTC_Alarm_IRQHandler                     0x080002cb   Thumb Code     0  startup_stm32h743xx.o(.text)
    RTC_WKUP_IRQHandler                      0x080002cb   Thumb Code     0  startup_stm32h743xx.o(.text)
    SAI1_IRQHandler                          0x080002cb   Thumb Code     0  startup_stm32h743xx.o(.text)
    SAI2_IRQHandler                          0x080002cb   Thumb Code     0  startup_stm32h743xx.o(.text)
    SAI3_IRQHandler                          0x080002cb   Thumb Code     0  startup_stm32h743xx.o(.text)
    SAI4_IRQHandler                          0x080002cb   Thumb Code     0  startup_stm32h743xx.o(.text)
    SDMMC1_IRQHandler                        0x080002cb   Thumb Code     0  startup_stm32h743xx.o(.text)
    SDMMC2_IRQHandler                        0x080002cb   Thumb Code     0  startup_stm32h743xx.o(.text)
    SPDIF_RX_IRQHandler                      0x080002cb   Thumb Code     0  startup_stm32h743xx.o(.text)
    SPI3_IRQHandler                          0x080002cb   Thumb Code     0  startup_stm32h743xx.o(.text)
    SPI4_IRQHandler                          0x080002cb   Thumb Code     0  startup_stm32h743xx.o(.text)
    SPI5_IRQHandler                          0x080002cb   Thumb Code     0  startup_stm32h743xx.o(.text)
    SPI6_IRQHandler                          0x080002cb   Thumb Code     0  startup_stm32h743xx.o(.text)
    SWPMI1_IRQHandler                        0x080002cb   Thumb Code     0  startup_stm32h743xx.o(.text)
    TAMP_STAMP_IRQHandler                    0x080002cb   Thumb Code     0  startup_stm32h743xx.o(.text)
    TIM15_IRQHandler                         0x080002cb   Thumb Code     0  startup_stm32h743xx.o(.text)
    TIM16_IRQHandler                         0x080002cb   Thumb Code     0  startup_stm32h743xx.o(.text)
    TIM17_IRQHandler                         0x080002cb   Thumb Code     0  startup_stm32h743xx.o(.text)
    TIM1_BRK_IRQHandler                      0x080002cb   Thumb Code     0  startup_stm32h743xx.o(.text)
    TIM1_CC_IRQHandler                       0x080002cb   Thumb Code     0  startup_stm32h743xx.o(.text)
    TIM1_TRG_COM_IRQHandler                  0x080002cb   Thumb Code     0  startup_stm32h743xx.o(.text)
    TIM1_UP_IRQHandler                       0x080002cb   Thumb Code     0  startup_stm32h743xx.o(.text)
    TIM2_IRQHandler                          0x080002cb   Thumb Code     0  startup_stm32h743xx.o(.text)
    TIM4_IRQHandler                          0x080002cb   Thumb Code     0  startup_stm32h743xx.o(.text)
    TIM5_IRQHandler                          0x080002cb   Thumb Code     0  startup_stm32h743xx.o(.text)
    TIM6_DAC_IRQHandler                      0x080002cb   Thumb Code     0  startup_stm32h743xx.o(.text)
    TIM8_BRK_TIM12_IRQHandler                0x080002cb   Thumb Code     0  startup_stm32h743xx.o(.text)
    TIM8_CC_IRQHandler                       0x080002cb   Thumb Code     0  startup_stm32h743xx.o(.text)
    TIM8_TRG_COM_TIM14_IRQHandler            0x080002cb   Thumb Code     0  startup_stm32h743xx.o(.text)
    TIM8_UP_TIM13_IRQHandler                 0x080002cb   Thumb Code     0  startup_stm32h743xx.o(.text)
    UART4_IRQHandler                         0x080002cb   Thumb Code     0  startup_stm32h743xx.o(.text)
    UART5_IRQHandler                         0x080002cb   Thumb Code     0  startup_stm32h743xx.o(.text)
    UART7_IRQHandler                         0x080002cb   Thumb Code     0  startup_stm32h743xx.o(.text)
    UART8_IRQHandler                         0x080002cb   Thumb Code     0  startup_stm32h743xx.o(.text)
    USART2_IRQHandler                        0x080002cb   Thumb Code     0  startup_stm32h743xx.o(.text)
    USART3_IRQHandler                        0x080002cb   Thumb Code     0  startup_stm32h743xx.o(.text)
    WAKEUP_PIN_IRQHandler                    0x080002cb   Thumb Code     0  startup_stm32h743xx.o(.text)
    WWDG_IRQHandler                          0x080002cb   Thumb Code     0  startup_stm32h743xx.o(.text)
    __aeabi_uldivmod                         0x080002d5   Thumb Code    98  uldiv.o(.text)
    __aeabi_memcpy                           0x08000337   Thumb Code    36  memcpya.o(.text)
    __aeabi_memcpy4                          0x08000337   Thumb Code     0  memcpya.o(.text)
    __aeabi_memcpy8                          0x08000337   Thumb Code     0  memcpya.o(.text)
    __aeabi_memset                           0x0800035b   Thumb Code    14  memseta.o(.text)
    __aeabi_memset4                          0x0800035b   Thumb Code     0  memseta.o(.text)
    __aeabi_memset8                          0x0800035b   Thumb Code     0  memseta.o(.text)
    __aeabi_memclr                           0x08000369   Thumb Code     4  memseta.o(.text)
    __aeabi_memclr4                          0x08000369   Thumb Code     0  memseta.o(.text)
    __aeabi_memclr8                          0x08000369   Thumb Code     0  memseta.o(.text)
    _memset$wrapper                          0x0800036d   Thumb Code    18  memseta.o(.text)
    __aeabi_uidiv                            0x0800037f   Thumb Code     0  uidiv.o(.text)
    __aeabi_uidivmod                         0x0800037f   Thumb Code    44  uidiv.o(.text)
    __aeabi_llsl                             0x080003ab   Thumb Code    30  llshl.o(.text)
    _ll_shift_l                              0x080003ab   Thumb Code     0  llshl.o(.text)
    __aeabi_llsr                             0x080003c9   Thumb Code    32  llushr.o(.text)
    _ll_ushift_r                             0x080003c9   Thumb Code     0  llushr.o(.text)
    __I$use$fp                               0x080003e9   Thumb Code     0  iusefp.o(.text)
    __aeabi_dadd                             0x080003e9   Thumb Code   322  dadd.o(.text)
    __aeabi_dsub                             0x0800052b   Thumb Code     6  dadd.o(.text)
    __aeabi_drsub                            0x08000531   Thumb Code     6  dadd.o(.text)
    __aeabi_dmul                             0x08000537   Thumb Code   228  dmul.o(.text)
    __aeabi_ddiv                             0x0800061b   Thumb Code   222  ddiv.o(.text)
    __aeabi_d2ulz                            0x080006f9   Thumb Code    48  dfixul.o(.text)
    __aeabi_cdrcmple                         0x08000729   Thumb Code    48  cdrcmple.o(.text)
    __scatterload                            0x08000759   Thumb Code    28  init.o(.text)
    __scatterload_rt2                        0x08000759   Thumb Code     0  init.o(.text)
    __aeabi_lasr                             0x0800077d   Thumb Code    36  llsshr.o(.text)
    _ll_sshift_r                             0x0800077d   Thumb Code     0  llsshr.o(.text)
    _double_round                            0x080007a1   Thumb Code    30  depilogue.o(.text)
    _double_epilogue                         0x080007bf   Thumb Code   156  depilogue.o(.text)
    BusFault_Handler                         0x0800085b   Thumb Code     4  stm32h7xx_it.o(i.BusFault_Handler)
    DMA1_Stream3_IRQHandler                  0x08000919   Thumb Code    12  stm32h7xx_it.o(i.DMA1_Stream3_IRQHandler)
    DMA2_Stream2_IRQHandler                  0x08000929   Thumb Code    12  stm32h7xx_it.o(i.DMA2_Stream2_IRQHandler)
    DebugMon_Handler                         0x08000ea5   Thumb Code     2  stm32h7xx_it.o(i.DebugMon_Handler)
    ENTER_CRITICAL_SECTION                   0x08000ea7   Thumb Code    10  port.o(i.ENTER_CRITICAL_SECTION)
    EXIT_CRITICAL_SECTION                    0x08000eb1   Thumb Code    10  port.o(i.EXIT_CRITICAL_SECTION)
    EXTI15_10_IRQHandler                     0x08000ebb   Thumb Code     2  stm32h7xx_it.o(i.EXTI15_10_IRQHandler)
    Error_Handler                            0x08000ebd   Thumb Code     4  main.o(i.Error_Handler)
    HAL_DMA_Abort                            0x08000ec1   Thumb Code  1236  stm32h7xx_hal_dma.o(i.HAL_DMA_Abort)
    HAL_DMA_Abort_IT                         0x0800139d   Thumb Code   906  stm32h7xx_hal_dma.o(i.HAL_DMA_Abort_IT)
    HAL_DMA_GetError                         0x08001735   Thumb Code     6  stm32h7xx_hal_dma.o(i.HAL_DMA_GetError)
    HAL_DMA_IRQHandler                       0x0800173d   Thumb Code  2798  stm32h7xx_hal_dma.o(i.HAL_DMA_IRQHandler)
    HAL_DMA_Init                             0x08002235   Thumb Code  1304  stm32h7xx_hal_dma.o(i.HAL_DMA_Init)
    HAL_DMA_Start_IT                         0x08002755   Thumb Code   980  stm32h7xx_hal_dma.o(i.HAL_DMA_Start_IT)
    HAL_EnableCompensationCell               0x08002b35   Thumb Code    14  stm32h7xx_hal.o(i.HAL_EnableCompensationCell)
    HAL_GPIO_Init                            0x08002b49   Thumb Code   456  stm32h7xx_hal_gpio.o(i.HAL_GPIO_Init)
    HAL_GPIO_WritePin                        0x08002d45   Thumb Code    12  stm32h7xx_hal_gpio.o(i.HAL_GPIO_WritePin)
    HAL_GetREVID                             0x08002d51   Thumb Code     8  stm32h7xx_hal.o(i.HAL_GetREVID)
    HAL_GetTick                              0x08002d5d   Thumb Code     6  stm32h7xx_hal.o(i.HAL_GetTick)
    HAL_IncTick                              0x08002d69   Thumb Code    16  stm32h7xx_hal.o(i.HAL_IncTick)
    HAL_Init                                 0x08002d81   Thumb Code    80  stm32h7xx_hal.o(i.HAL_Init)
    HAL_InitTick                             0x08002de1   Thumb Code    74  stm32h7xx_hal.o(i.HAL_InitTick)
    HAL_MPU_ConfigRegion                     0x08002e39   Thumb Code    86  stm32h7xx_hal_cortex.o(i.HAL_MPU_ConfigRegion)
    HAL_MPU_Disable                          0x08002e95   Thumb Code    26  stm32h7xx_hal_cortex.o(i.HAL_MPU_Disable)
    HAL_MPU_Enable                           0x08002eb5   Thumb Code    34  stm32h7xx_hal_cortex.o(i.HAL_MPU_Enable)
    HAL_MspInit                              0x08002edd   Thumb Code     2  stm32h7xx_hal.o(i.HAL_MspInit)
    HAL_NVIC_EnableIRQ                       0x08002edf   Thumb Code    40  stm32h7xx_hal_cortex.o(i.HAL_NVIC_EnableIRQ)
    HAL_NVIC_SetPriority                     0x08002f07   Thumb Code   122  stm32h7xx_hal_cortex.o(i.HAL_NVIC_SetPriority)
    HAL_NVIC_SetPriorityGrouping             0x08002f81   Thumb Code    32  stm32h7xx_hal_cortex.o(i.HAL_NVIC_SetPriorityGrouping)
    HAL_PWREx_EnableUSBVoltageDetector       0x08002fa9   Thumb Code    14  stm32h7xx_hal_pwr_ex.o(i.HAL_PWREx_EnableUSBVoltageDetector)
    HAL_RCCEx_GetD3PCLK1Freq                 0x08002fbd   Thumb Code    26  stm32h7xx_hal_rcc_ex.o(i.HAL_RCCEx_GetD3PCLK1Freq)
    HAL_RCCEx_GetPLL2ClockFreq               0x08002fe1   Thumb Code   536  stm32h7xx_hal_rcc_ex.o(i.HAL_RCCEx_GetPLL2ClockFreq)
    HAL_RCCEx_GetPLL3ClockFreq               0x08003211   Thumb Code   536  stm32h7xx_hal_rcc_ex.o(i.HAL_RCCEx_GetPLL3ClockFreq)
    HAL_RCCEx_PeriphCLKConfig                0x08003441   Thumb Code  3432  stm32h7xx_hal_rcc_ex.o(i.HAL_RCCEx_PeriphCLKConfig)
    HAL_RCC_ClockConfig                      0x080041a9   Thumb Code   774  stm32h7xx_hal_rcc.o(i.HAL_RCC_ClockConfig)
    HAL_RCC_GetHCLKFreq                      0x080044c9   Thumb Code    60  stm32h7xx_hal_rcc.o(i.HAL_RCC_GetHCLKFreq)
    HAL_RCC_GetPCLK1Freq                     0x08004515   Thumb Code    26  stm32h7xx_hal_rcc.o(i.HAL_RCC_GetPCLK1Freq)
    HAL_RCC_GetPCLK2Freq                     0x08004539   Thumb Code    26  stm32h7xx_hal_rcc.o(i.HAL_RCC_GetPCLK2Freq)
    HAL_RCC_GetSysClockFreq                  0x0800455d   Thumb Code   524  stm32h7xx_hal_rcc.o(i.HAL_RCC_GetSysClockFreq)
    HAL_RCC_OscConfig                        0x08004789   Thumb Code  2130  stm32h7xx_hal_rcc.o(i.HAL_RCC_OscConfig)
    HAL_SPI_ErrorCallback                    0x08004fe1   Thumb Code    18  spi_protocal.o(i.HAL_SPI_ErrorCallback)
    HAL_SPI_IRQHandler                       0x08004ffd   Thumb Code   648  stm32h7xx_hal_spi.o(i.HAL_SPI_IRQHandler)
    HAL_SPI_Init                             0x08005289   Thumb Code   680  stm32h7xx_hal_spi.o(i.HAL_SPI_Init)
    HAL_SPI_MspInit                          0x0800553d   Thumb Code   738  stm32h7xx_hal_msp.o(i.HAL_SPI_MspInit)
    HAL_SPI_Receive_DMA                      0x08005849   Thumb Code   472  stm32h7xx_hal_spi.o(i.HAL_SPI_Receive_DMA)
    HAL_SPI_RxCpltCallback                   0x08005a2d   Thumb Code     8  spi_protocal.o(i.HAL_SPI_RxCpltCallback)
    HAL_SPI_RxHalfCpltCallback               0x08005a39   Thumb Code     2  stm32h7xx_hal_spi.o(i.HAL_SPI_RxHalfCpltCallback)
    HAL_SPI_SuspendCallback                  0x08005a3b   Thumb Code     2  stm32h7xx_hal_spi.o(i.HAL_SPI_SuspendCallback)
    HAL_SPI_TxCpltCallback                   0x08005a3d   Thumb Code     2  stm32h7xx_hal_spi.o(i.HAL_SPI_TxCpltCallback)
    HAL_SPI_TxRxCpltCallback                 0x08005a3f   Thumb Code     2  stm32h7xx_hal_spi.o(i.HAL_SPI_TxRxCpltCallback)
    HAL_SYSTICK_Config                       0x08005a41   Thumb Code    52  stm32h7xx_hal_cortex.o(i.HAL_SYSTICK_Config)
    HAL_TIMEx_Break2Callback                 0x08005a75   Thumb Code     2  stm32h7xx_hal_tim_ex.o(i.HAL_TIMEx_Break2Callback)
    HAL_TIMEx_BreakCallback                  0x08005a77   Thumb Code     2  stm32h7xx_hal_tim_ex.o(i.HAL_TIMEx_BreakCallback)
    HAL_TIMEx_CommutCallback                 0x08005a79   Thumb Code     2  stm32h7xx_hal_tim_ex.o(i.HAL_TIMEx_CommutCallback)
    HAL_TIM_Base_Init                        0x08005a7b   Thumb Code   110  stm32h7xx_hal_tim.o(i.HAL_TIM_Base_Init)
    HAL_TIM_Base_MspInit                     0x08005ae9   Thumb Code     2  stm32h7xx_hal_tim.o(i.HAL_TIM_Base_MspInit)
    HAL_TIM_Base_Start_IT                    0x08005aed   Thumb Code   146  stm32h7xx_hal_tim.o(i.HAL_TIM_Base_Start_IT)
    HAL_TIM_Base_Stop_IT                     0x08005ba1   Thumb Code    62  stm32h7xx_hal_tim.o(i.HAL_TIM_Base_Stop_IT)
    HAL_TIM_IC_CaptureCallback               0x08005bdf   Thumb Code     2  stm32h7xx_hal_tim.o(i.HAL_TIM_IC_CaptureCallback)
    HAL_TIM_IRQHandler                       0x08005be1   Thumb Code   408  stm32h7xx_hal_tim.o(i.HAL_TIM_IRQHandler)
    HAL_TIM_OC_DelayElapsedCallback          0x08005d79   Thumb Code     2  stm32h7xx_hal_tim.o(i.HAL_TIM_OC_DelayElapsedCallback)
    HAL_TIM_PWM_PulseFinishedCallback        0x08005d7b   Thumb Code     2  stm32h7xx_hal_tim.o(i.HAL_TIM_PWM_PulseFinishedCallback)
    HAL_TIM_PeriodElapsedCallback            0x08005d7d   Thumb Code     2  main.o(i.HAL_TIM_PeriodElapsedCallback)
    HAL_TIM_TriggerCallback                  0x08005d7f   Thumb Code     2  stm32h7xx_hal_tim.o(i.HAL_TIM_TriggerCallback)
    HAL_UARTEx_RxEventCallback               0x08005d81   Thumb Code     2  stm32h7xx_hal_uart.o(i.HAL_UARTEx_RxEventCallback)
    HAL_UARTEx_RxFifoFullCallback            0x08005d83   Thumb Code     2  stm32h7xx_hal_uart_ex.o(i.HAL_UARTEx_RxFifoFullCallback)
    HAL_UARTEx_TxFifoEmptyCallback           0x08005d85   Thumb Code     2  stm32h7xx_hal_uart_ex.o(i.HAL_UARTEx_TxFifoEmptyCallback)
    HAL_UARTEx_WakeupCallback                0x08005d87   Thumb Code     2  stm32h7xx_hal_uart_ex.o(i.HAL_UARTEx_WakeupCallback)
    HAL_UART_ErrorCallback                   0x08005d89   Thumb Code     2  stm32h7xx_hal_uart.o(i.HAL_UART_ErrorCallback)
    HAL_UART_IRQHandler                      0x08005d8d   Thumb Code  1172  stm32h7xx_hal_uart.o(i.HAL_UART_IRQHandler)
    HAL_UART_Init                            0x08006221   Thumb Code   120  stm32h7xx_hal_uart.o(i.HAL_UART_Init)
    HAL_UART_MspInit                         0x08006299   Thumb Code   158  stm32h7xx_hal_msp.o(i.HAL_UART_MspInit)
    HAL_UART_Receive                         0x08006345   Thumb Code   274  stm32h7xx_hal_uart.o(i.HAL_UART_Receive)
    HAL_UART_Receive_IT                      0x08006459   Thumb Code    88  stm32h7xx_hal_uart.o(i.HAL_UART_Receive_IT)
    HAL_UART_RxCpltCallback                  0x080064b5   Thumb Code    58  uart.o(i.HAL_UART_RxCpltCallback)
    HAL_UART_Transmit                        0x08006501   Thumb Code   194  stm32h7xx_hal_uart.o(i.HAL_UART_Transmit)
    HAL_UART_Transmit_IT                     0x080065c5   Thumb Code   156  stm32h7xx_hal_uart.o(i.HAL_UART_Transmit_IT)
    HAL_UART_TxCpltCallback                  0x08006671   Thumb Code    12  portserial.o(i.HAL_UART_TxCpltCallback)
    HardFault_Handler                        0x0800667d   Thumb Code     4  stm32h7xx_it.o(i.HardFault_Handler)
    MB_TxCpltCallback                        0x08006681   Thumb Code    16  portserial.o(i.MB_TxCpltCallback)
    MX_USART1_UART_Init                      0x080066e5   Thumb Code    82  uart.o(i.MX_USART1_UART_Init)
    MemManage_Handler                        0x08006745   Thumb Code     4  stm32h7xx_it.o(i.MemManage_Handler)
    NMI_Handler                              0x08006749   Thumb Code     2  stm32h7xx_it.o(i.NMI_Handler)
    PendSV_Handler                           0x0800674b   Thumb Code     2  stm32h7xx_it.o(i.PendSV_Handler)
    SPI1_IRQHandler                          0x08006a15   Thumb Code    10  stm32h7xx_it.o(i.SPI1_IRQHandler)
    SPI1_Init                                0x08006a25   Thumb Code    68  spi_protocal.o(i.SPI1_Init)
    SPI2_IRQHandler                          0x08006a71   Thumb Code    10  stm32h7xx_it.o(i.SPI2_IRQHandler)
    SVC_Handler                              0x08006c1f   Thumb Code     2  stm32h7xx_it.o(i.SVC_Handler)
    SysTick_Handler                          0x08006c21   Thumb Code     8  stm32h7xx_it.o(i.SysTick_Handler)
    SystemInit                               0x08006c29   Thumb Code   212  system_stm32h7xx.o(i.SystemInit)
    TIM3_IRQHandler                          0x08006d25   Thumb Code    10  stm32h7xx_it.o(i.TIM3_IRQHandler)
    TIM7_IRQHandler                          0x08006d35   Thumb Code    30  porttimer.o(i.TIM7_IRQHandler)
    TIM_Base_SetConfig                       0x08006d59   Thumb Code   186  stm32h7xx_hal_tim.o(i.TIM_Base_SetConfig)
    UART_AdvFeatureConfig                    0x08006e35   Thumb Code   248  stm32h7xx_hal_uart.o(i.UART_AdvFeatureConfig)
    UART_CheckIdleState                      0x08006f2d   Thumb Code   234  stm32h7xx_hal_uart.o(i.UART_CheckIdleState)
    UART_SetConfig                           0x080076c9   Thumb Code  1402  stm32h7xx_hal_uart.o(i.UART_SetConfig)
    UART_Start_Receive_IT                    0x08007c55   Thumb Code   332  stm32h7xx_hal_uart.o(i.UART_Start_Receive_IT)
    UART_WaitOnFlagUntilTimeout              0x08007f6f   Thumb Code   172  stm32h7xx_hal_uart.o(i.UART_WaitOnFlagUntilTimeout)
    USART1_IRQHandler                        0x0800801d   Thumb Code    44  uart.o(i.USART1_IRQHandler)
    USART6_IRQHandler                        0x08008055   Thumb Code    52  portserial.o(i.USART6_IRQHandler)
    UsageFault_Handler                       0x0800808d   Thumb Code     4  stm32h7xx_it.o(i.UsageFault_Handler)
    __0printf                                0x08008091   Thumb Code    22  printfa.o(i.__0printf)
    __1printf                                0x08008091   Thumb Code     0  printfa.o(i.__0printf)
    __2printf                                0x08008091   Thumb Code     0  printfa.o(i.__0printf)
    __c89printf                              0x08008091   Thumb Code     0  printfa.o(i.__0printf)
    printf                                   0x08008091   Thumb Code     0  printfa.o(i.__0printf)
    __scatterload_copy                       0x080080e9   Thumb Code    14  handlers.o(i.__scatterload_copy)
    __scatterload_null                       0x080080f7   Thumb Code     2  handlers.o(i.__scatterload_null)
    __scatterload_zeroinit                   0x080080f9   Thumb Code    14  handlers.o(i.__scatterload_zeroinit)
    delay_init                               0x08008995   Thumb Code     6  delay.o(i.delay_init)
    eMBEnable                                0x080089a1   Thumb Code    32  mb.o(i.eMBEnable)
    eMBFuncReadCoils                         0x080089c9   Thumb Code   174  mbfunccoils.o(i.eMBFuncReadCoils)
    eMBFuncReadDiscreteInputs                0x08008a77   Thumb Code   172  mbfuncdisc.o(i.eMBFuncReadDiscreteInputs)
    eMBFuncReadHoldingRegister               0x08008b23   Thumb Code   142  mbfuncholding.o(i.eMBFuncReadHoldingRegister)
    eMBFuncReadInputRegister                 0x08008bb1   Thumb Code   140  mbfuncinput.o(i.eMBFuncReadInputRegister)
    eMBFuncReadSpectrum                      0x08008c3d   Thumb Code   102  mbcustomfunctioncode.o(i.eMBFuncReadSpectrum)
    eMBFuncReadWriteMultipleHoldingRegister  0x08008ca3   Thumb Code   212  mbfuncholding.o(i.eMBFuncReadWriteMultipleHoldingRegister)
    eMBFuncReportSlaveID                     0x08008d79   Thumb Code    30  mbfuncother.o(i.eMBFuncReportSlaveID)
    eMBFuncWriteCoil                         0x08008da1   Thumb Code   112  mbfunccoils.o(i.eMBFuncWriteCoil)
    eMBFuncWriteHoldingRegister              0x08008e11   Thumb Code    66  mbfuncholding.o(i.eMBFuncWriteHoldingRegister)
    eMBFuncWriteMultipleCoils                0x08008e53   Thumb Code   144  mbfunccoils.o(i.eMBFuncWriteMultipleCoils)
    eMBFuncWriteMultipleHoldingRegister      0x08008ee3   Thumb Code   110  mbfuncholding.o(i.eMBFuncWriteMultipleHoldingRegister)
    eMBInit                                  0x08008f51   Thumb Code   150  mb.o(i.eMBInit)
    eMBPoll                                  0x08009031   Thumb Code   260  mb.o(i.eMBPoll)
    eMBRTUInit                               0x0800915d   Thumb Code    84  mbrtu.o(i.eMBRTUInit)
    eMBRTUReceive                            0x080091b5   Thumb Code    70  mbrtu.o(i.eMBRTUReceive)
    eMBRTUSend                               0x08009205   Thumb Code   124  mbrtu.o(i.eMBRTUSend)
    eMBRTUStart                              0x08009295   Thumb Code    30  mbrtu.o(i.eMBRTUStart)
    eMBRTUStop                               0x080092b9   Thumb Code    24  mbrtu.o(i.eMBRTUStop)
    eMBRegCoilsCB                            0x080092d1   Thumb Code   300  user_mb_app.o(i.eMBRegCoilsCB)
    eMBRegDiscreteCB                         0x08009405   Thumb Code   190  user_mb_app.o(i.eMBRegDiscreteCB)
    eMBRegHoldingCB                          0x080094cd   Thumb Code   172  user_mb_app.o(i.eMBRegHoldingCB)
    eMBRegInputCB                            0x08009581   Thumb Code   104  user_mb_app.o(i.eMBRegInputCB)
    fputc                                    0x080095f1   Thumb Code    20  uart.o(i.fputc)
    main                                     0x08009609   Thumb Code    94  main.o(i.main)
    prveMBError2Exception                    0x08009679   Thumb Code    34  mbutils.o(i.prveMBError2Exception)
    prvvTIMERExpiredISR                      0x0800969d   Thumb Code    10  porttimer.o(i.prvvTIMERExpiredISR)
    prvvUARTRxISR                            0x080096ad   Thumb Code    10  portserial.o(i.prvvUARTRxISR)
    prvvUARTTxReadyISR                       0x080096bd   Thumb Code    10  portserial.o(i.prvvUARTTxReadyISR)
    rs485_tx_set                             0x080096cd   Thumb Code    18  portserial.o(i.rs485_tx_set)
    spectrum_get_data_buffer                 0x080096e5   Thumb Code     4  spi_protocal.o(i.spectrum_get_data_buffer)
    spi_get_receive_buffer                   0x080096ed   Thumb Code     4  spi_protocal.o(i.spi_get_receive_buffer)
    spi_poll_receive                         0x080096f5   Thumb Code    38  spi_protocal.o(i.spi_poll_receive)
    spi_start_receive_data                   0x08009729   Thumb Code   100  spi_protocal.o(i.spi_start_receive_data)
    usMBCRC16                                0x080098c9   Thumb Code    48  mbcrc.o(i.usMBCRC16)
    vMBPortSerialEnable                      0x08009901   Thumb Code   124  portserial.o(i.vMBPortSerialEnable)
    vMBPortTimersDisable                     0x08009981   Thumb Code    20  porttimer.o(i.vMBPortTimersDisable)
    vMBPortTimersEnable                      0x08009999   Thumb Code    20  porttimer.o(i.vMBPortTimersEnable)
    xMBPortEventGet                          0x080099b1   Thumb Code    26  portevent.o(i.xMBPortEventGet)
    xMBPortEventInit                         0x080099d5   Thumb Code    10  portevent.o(i.xMBPortEventInit)
    xMBPortEventPost                         0x080099e5   Thumb Code    16  portevent.o(i.xMBPortEventPost)
    xMBPortSerialGetByte                     0x080099fd   Thumb Code    22  portserial.o(i.xMBPortSerialGetByte)
    xMBPortSerialInit                        0x08009a19   Thumb Code   414  portserial.o(i.xMBPortSerialInit)
    xMBPortSerialPutByte                     0x08009bd1   Thumb Code    16  portserial.o(i.xMBPortSerialPutByte)
    xMBPortTimersInit                        0x08009be5   Thumb Code    98  porttimer.o(i.xMBPortTimersInit)
    xMBRTUReceiveFSM                         0x08009c55   Thumb Code   124  mbrtu.o(i.xMBRTUReceiveFSM)
    xMBRTUTimerT35Expired                    0x08009cdd   Thumb Code    60  mbrtu.o(i.xMBRTUTimerT35Expired)
    xMBRTUTransmitFSM                        0x08009d1d   Thumb Code    94  mbrtu.o(i.xMBRTUTransmitFSM)
    xMBUtilGetBits                           0x08009d89   Thumb Code    42  mbutils.o(i.xMBUtilGetBits)
    xMBUtilSetBits                           0x08009db3   Thumb Code    96  mbutils.o(i.xMBUtilSetBits)
    D1CorePrescTable                         0x08009e12   Data          16  system_stm32h7xx.o(.constdata)
    UARTPrescTable                           0x08009e22   Data          24  stm32h7xx_hal_uart.o(.constdata)
    Region$$Table$$Base                      0x0800a044   Number         0  anon$$obj.o(Region$$Table)
    Region$$Table$$Limit                     0x0800a064   Number         0  anon$$obj.o(Region$$Table)
    SystemCoreClock                          0x20000000   Data           4  system_stm32h7xx.o(.data)
    SystemD2Clock                            0x20000004   Data           4  system_stm32h7xx.o(.data)
    uwTick                                   0x20000008   Data           4  stm32h7xx_hal.o(.data)
    uwTickPrio                               0x2000000c   Data           4  stm32h7xx_hal.o(.data)
    uwTickFreq                               0x20000010   Data           1  stm32h7xx_hal.o(.data)
    rx_index                                 0x20000018   Data           2  uart.o(.data)
    rx_byte                                  0x2000001a   Data           1  uart.o(.data)
    uart_debug_recv_flag                     0x2000001b   Data           1  uart.o(.data)
    pxMBFrameCBByteReceived                  0x20000038   Data           4  mb.o(.data)
    pxMBFrameCBTransmitterEmpty              0x2000003c   Data           4  mb.o(.data)
    pxMBPortCBTimerExpired                   0x20000040   Data           4  mb.o(.data)
    pxMBFrameCBReceiveFSMCur                 0x20000044   Data           4  mb.o(.data)
    pxMBFrameCBTransmitFSMCur                0x20000048   Data           4  mb.o(.data)
    usSDiscInStart                           0x200000e6   Data           2  user_mb_app.o(.data)
    ucSDiscInBuf                             0x200000e8   Data           2  user_mb_app.o(.data)
    usSCoilStart                             0x200000ea   Data           2  user_mb_app.o(.data)
    ucSCoilBuf                               0x200000ec   Data           8  user_mb_app.o(.data)
    usSRegInStart                            0x200000f4   Data           2  user_mb_app.o(.data)
    usSRegHoldStart                          0x200000f6   Data           2  user_mb_app.o(.data)
    __stdout                                 0x200000f8   Data           4  stdout.o(.data)
    TimHandle                                0x200000fc   Data          76  main.o(.bss)
    huart1                                   0x200001c0   Data         148  uart.o(.bss)
    rx_buf                                   0x20000254   Data         128  uart.o(.bss)
    process_buf                              0x200002d4   Data         128  uart.o(.bss)
    SpiHandle                                0x20000354   Data         136  spi_protocal.o(.bss)
    spectrum_buffer                          0x200003dc   Data       21504  spi_protocal.o(.bss)
    ucRTUBuf                                 0x200057fc   Data        5632  mbrtu.o(.bss)
    MB_Handle                                0x20006dfc   Data         148  portserial.o(.bss)
    usSRegInBuf                              0x20006edc   Data         200  user_mb_app.o(.bss)
    usSRegHoldBuf                            0x20006fa4   Data         200  user_mb_app.o(.bss)
    __initial_sp                             0x20007470   Data           0  startup_stm32h743xx.o(STACK)
    spi_recv_buffer                          0x38000000   Data       22096  spi_protocal.o(.ARM.__AT_0x38000000)



==============================================================================

Memory Map of the image

  Image Entry point : 0x08000299

  Load Region LR_IROM1 (Base: 0x08000000, Size: 0x0000a160, Max: 0x00200000, ABSOLUTE)

    Execution Region ER_IROM1 (Exec base: 0x08000000, Load base: 0x08000000, Size: 0x0000a064, Max: 0x00200000, ABSOLUTE)

    Exec Addr    Load Addr    Size         Type   Attr      Idx    E Section Name        Object

    0x08000000   0x08000000   0x00000298   Data   RO            3    RESET               startup_stm32h743xx.o
    0x08000298   0x08000298   0x00000000   Code   RO         5347  * .ARM.Collect$$$$00000000  mc_w.l(entry.o)
    0x08000298   0x08000298   0x00000004   Code   RO         5619    .ARM.Collect$$$$00000001  mc_w.l(entry2.o)
    0x0800029c   0x0800029c   0x00000004   Code   RO         5622    .ARM.Collect$$$$00000004  mc_w.l(entry5.o)
    0x080002a0   0x080002a0   0x00000000   Code   RO         5624    .ARM.Collect$$$$00000008  mc_w.l(entry7b.o)
    0x080002a0   0x080002a0   0x00000000   Code   RO         5626    .ARM.Collect$$$$0000000A  mc_w.l(entry8b.o)
    0x080002a0   0x080002a0   0x00000008   Code   RO         5627    .ARM.Collect$$$$0000000B  mc_w.l(entry9a.o)
    0x080002a8   0x080002a8   0x00000004   Code   RO         5634    .ARM.Collect$$$$0000000E  mc_w.l(entry12b.o)
    0x080002ac   0x080002ac   0x00000000   Code   RO         5629    .ARM.Collect$$$$0000000F  mc_w.l(entry10a.o)
    0x080002ac   0x080002ac   0x00000000   Code   RO         5631    .ARM.Collect$$$$00000011  mc_w.l(entry11a.o)
    0x080002ac   0x080002ac   0x00000004   Code   RO         5620    .ARM.Collect$$$$00002712  mc_w.l(entry2.o)
    0x080002b0   0x080002b0   0x00000024   Code   RO            4    .text               startup_stm32h743xx.o
    0x080002d4   0x080002d4   0x00000062   Code   RO         5350    .text               mc_w.l(uldiv.o)
    0x08000336   0x08000336   0x00000024   Code   RO         5352    .text               mc_w.l(memcpya.o)
    0x0800035a   0x0800035a   0x00000024   Code   RO         5354    .text               mc_w.l(memseta.o)
    0x0800037e   0x0800037e   0x0000002c   Code   RO         5636    .text               mc_w.l(uidiv.o)
    0x080003aa   0x080003aa   0x0000001e   Code   RO         5638    .text               mc_w.l(llshl.o)
    0x080003c8   0x080003c8   0x00000020   Code   RO         5640    .text               mc_w.l(llushr.o)
    0x080003e8   0x080003e8   0x00000000   Code   RO         5642    .text               mc_w.l(iusefp.o)
    0x080003e8   0x080003e8   0x0000014e   Code   RO         5643    .text               mf_w.l(dadd.o)
    0x08000536   0x08000536   0x000000e4   Code   RO         5645    .text               mf_w.l(dmul.o)
    0x0800061a   0x0800061a   0x000000de   Code   RO         5647    .text               mf_w.l(ddiv.o)
    0x080006f8   0x080006f8   0x00000030   Code   RO         5649    .text               mf_w.l(dfixul.o)
    0x08000728   0x08000728   0x00000030   Code   RO         5651    .text               mf_w.l(cdrcmple.o)
    0x08000758   0x08000758   0x00000024   Code   RO         5653    .text               mc_w.l(init.o)
    0x0800077c   0x0800077c   0x00000024   Code   RO         5655    .text               mc_w.l(llsshr.o)
    0x080007a0   0x080007a0   0x000000ba   Code   RO         5657    .text               mf_w.l(depilogue.o)
    0x0800085a   0x0800085a   0x00000004   Code   RO         4062    i.BusFault_Handler  stm32h7xx_it.o
    0x0800085e   0x0800085e   0x00000002   PAD
    0x08000860   0x08000860   0x000000b8   Code   RO         3910    i.CPU_CACHE_Enable  main.o
    0x08000918   0x08000918   0x00000010   Code   RO         4063    i.DMA1_Stream3_IRQHandler  stm32h7xx_it.o
    0x08000928   0x08000928   0x00000010   Code   RO         4064    i.DMA2_Stream2_IRQHandler  stm32h7xx_it.o
    0x08000938   0x08000938   0x000000ec   Code   RO         2934    i.DMA_CalcBaseAndBitshift  stm32h7xx_hal_dma.o
    0x08000a24   0x08000a24   0x000000c4   Code   RO         2935    i.DMA_CalcDMAMUXChannelBaseAndMask  stm32h7xx_hal_dma.o
    0x08000ae8   0x08000ae8   0x00000098   Code   RO         2936    i.DMA_CalcDMAMUXRequestGenBaseAndMask  stm32h7xx_hal_dma.o
    0x08000b80   0x08000b80   0x000000ae   Code   RO         2937    i.DMA_CheckFifoParam  stm32h7xx_hal_dma.o
    0x08000c2e   0x08000c2e   0x00000002   PAD
    0x08000c30   0x08000c30   0x00000274   Code   RO         2938    i.DMA_SetConfig     stm32h7xx_hal_dma.o
    0x08000ea4   0x08000ea4   0x00000002   Code   RO         4065    i.DebugMon_Handler  stm32h7xx_it.o
    0x08000ea6   0x08000ea6   0x0000000a   Code   RO         4967    i.ENTER_CRITICAL_SECTION  port.o
    0x08000eb0   0x08000eb0   0x0000000a   Code   RO         4968    i.EXIT_CRITICAL_SECTION  port.o
    0x08000eba   0x08000eba   0x00000002   Code   RO         4066    i.EXTI15_10_IRQHandler  stm32h7xx_it.o
    0x08000ebc   0x08000ebc   0x00000004   Code   RO         3911    i.Error_Handler     main.o
    0x08000ec0   0x08000ec0   0x000004dc   Code   RO         2939    i.HAL_DMA_Abort     stm32h7xx_hal_dma.o
    0x0800139c   0x0800139c   0x00000398   Code   RO         2940    i.HAL_DMA_Abort_IT  stm32h7xx_hal_dma.o
    0x08001734   0x08001734   0x00000006   Code   RO         2942    i.HAL_DMA_GetError  stm32h7xx_hal_dma.o
    0x0800173a   0x0800173a   0x00000002   PAD
    0x0800173c   0x0800173c   0x00000af8   Code   RO         2944    i.HAL_DMA_IRQHandler  stm32h7xx_hal_dma.o
    0x08002234   0x08002234   0x00000520   Code   RO         2945    i.HAL_DMA_Init      stm32h7xx_hal_dma.o
    0x08002754   0x08002754   0x000003e0   Code   RO         2949    i.HAL_DMA_Start_IT  stm32h7xx_hal_dma.o
    0x08002b34   0x08002b34   0x00000014   Code   RO          178    i.HAL_EnableCompensationCell  stm32h7xx_hal.o
    0x08002b48   0x08002b48   0x000001fc   Code   RO          641    i.HAL_GPIO_Init     stm32h7xx_hal_gpio.o
    0x08002d44   0x08002d44   0x0000000c   Code   RO          645    i.HAL_GPIO_WritePin  stm32h7xx_hal_gpio.o
    0x08002d50   0x08002d50   0x0000000c   Code   RO          182    i.HAL_GetREVID      stm32h7xx_hal.o
    0x08002d5c   0x08002d5c   0x0000000c   Code   RO          183    i.HAL_GetTick       stm32h7xx_hal.o
    0x08002d68   0x08002d68   0x00000018   Code   RO          189    i.HAL_IncTick       stm32h7xx_hal.o
    0x08002d80   0x08002d80   0x00000060   Code   RO          190    i.HAL_Init          stm32h7xx_hal.o
    0x08002de0   0x08002de0   0x00000058   Code   RO          191    i.HAL_InitTick      stm32h7xx_hal.o
    0x08002e38   0x08002e38   0x0000005c   Code   RO          481    i.HAL_MPU_ConfigRegion  stm32h7xx_hal_cortex.o
    0x08002e94   0x08002e94   0x00000020   Code   RO          482    i.HAL_MPU_Disable   stm32h7xx_hal_cortex.o
    0x08002eb4   0x08002eb4   0x00000028   Code   RO          484    i.HAL_MPU_Enable    stm32h7xx_hal_cortex.o
    0x08002edc   0x08002edc   0x00000002   Code   RO          193    i.HAL_MspInit       stm32h7xx_hal.o
    0x08002ede   0x08002ede   0x00000028   Code   RO          488    i.HAL_NVIC_EnableIRQ  stm32h7xx_hal_cortex.o
    0x08002f06   0x08002f06   0x0000007a   Code   RO          494    i.HAL_NVIC_SetPriority  stm32h7xx_hal_cortex.o
    0x08002f80   0x08002f80   0x00000028   Code   RO          495    i.HAL_NVIC_SetPriorityGrouping  stm32h7xx_hal_cortex.o
    0x08002fa8   0x08002fa8   0x00000014   Code   RO          846    i.HAL_PWREx_EnableUSBVoltageDetector  stm32h7xx_hal_pwr_ex.o
    0x08002fbc   0x08002fbc   0x00000024   Code   RO         1198    i.HAL_RCCEx_GetD3PCLK1Freq  stm32h7xx_hal_rcc_ex.o
    0x08002fe0   0x08002fe0   0x00000230   Code   RO         1200    i.HAL_RCCEx_GetPLL2ClockFreq  stm32h7xx_hal_rcc_ex.o
    0x08003210   0x08003210   0x00000230   Code   RO         1201    i.HAL_RCCEx_GetPLL3ClockFreq  stm32h7xx_hal_rcc_ex.o
    0x08003440   0x08003440   0x00000d68   Code   RO         1207    i.HAL_RCCEx_PeriphCLKConfig  stm32h7xx_hal_rcc_ex.o
    0x080041a8   0x080041a8   0x00000320   Code   RO         1083    i.HAL_RCC_ClockConfig  stm32h7xx_hal_rcc.o
    0x080044c8   0x080044c8   0x0000004c   Code   RO         1088    i.HAL_RCC_GetHCLKFreq  stm32h7xx_hal_rcc.o
    0x08004514   0x08004514   0x00000024   Code   RO         1090    i.HAL_RCC_GetPCLK1Freq  stm32h7xx_hal_rcc.o
    0x08004538   0x08004538   0x00000024   Code   RO         1091    i.HAL_RCC_GetPCLK2Freq  stm32h7xx_hal_rcc.o
    0x0800455c   0x0800455c   0x0000022c   Code   RO         1092    i.HAL_RCC_GetSysClockFreq  stm32h7xx_hal_rcc.o
    0x08004788   0x08004788   0x00000858   Code   RO         1095    i.HAL_RCC_OscConfig  stm32h7xx_hal_rcc.o
    0x08004fe0   0x08004fe0   0x0000001c   Code   RO         4328    i.HAL_SPI_ErrorCallback  spi_protocal.o
    0x08004ffc   0x08004ffc   0x0000028c   Code   RO         3060    i.HAL_SPI_IRQHandler  stm32h7xx_hal_spi.o
    0x08005288   0x08005288   0x000002b4   Code   RO         3061    i.HAL_SPI_Init      stm32h7xx_hal_spi.o
    0x0800553c   0x0800553c   0x0000030c   Code   RO         4009    i.HAL_SPI_MspInit   stm32h7xx_hal_msp.o
    0x08005848   0x08005848   0x000001e4   Code   RO         3065    i.HAL_SPI_Receive_DMA  stm32h7xx_hal_spi.o
    0x08005a2c   0x08005a2c   0x0000000c   Code   RO         4329    i.HAL_SPI_RxCpltCallback  spi_protocal.o
    0x08005a38   0x08005a38   0x00000002   Code   RO         3068    i.HAL_SPI_RxHalfCpltCallback  stm32h7xx_hal_spi.o
    0x08005a3a   0x08005a3a   0x00000002   Code   RO         3069    i.HAL_SPI_SuspendCallback  stm32h7xx_hal_spi.o
    0x08005a3c   0x08005a3c   0x00000002   Code   RO         3076    i.HAL_SPI_TxCpltCallback  stm32h7xx_hal_spi.o
    0x08005a3e   0x08005a3e   0x00000002   Code   RO         3078    i.HAL_SPI_TxRxCpltCallback  stm32h7xx_hal_spi.o
    0x08005a40   0x08005a40   0x00000034   Code   RO          499    i.HAL_SYSTICK_Config  stm32h7xx_hal_cortex.o
    0x08005a74   0x08005a74   0x00000002   Code   RO         2095    i.HAL_TIMEx_Break2Callback  stm32h7xx_hal_tim_ex.o
    0x08005a76   0x08005a76   0x00000002   Code   RO         2096    i.HAL_TIMEx_BreakCallback  stm32h7xx_hal_tim_ex.o
    0x08005a78   0x08005a78   0x00000002   Code   RO         2097    i.HAL_TIMEx_CommutCallback  stm32h7xx_hal_tim_ex.o
    0x08005a7a   0x08005a7a   0x0000006e   Code   RO         1370    i.HAL_TIM_Base_Init  stm32h7xx_hal_tim.o
    0x08005ae8   0x08005ae8   0x00000002   Code   RO         1372    i.HAL_TIM_Base_MspInit  stm32h7xx_hal_tim.o
    0x08005aea   0x08005aea   0x00000002   PAD
    0x08005aec   0x08005aec   0x000000b4   Code   RO         1375    i.HAL_TIM_Base_Start_IT  stm32h7xx_hal_tim.o
    0x08005ba0   0x08005ba0   0x0000003e   Code   RO         1378    i.HAL_TIM_Base_Stop_IT  stm32h7xx_hal_tim.o
    0x08005bde   0x08005bde   0x00000002   Code   RO         1404    i.HAL_TIM_IC_CaptureCallback  stm32h7xx_hal_tim.o
    0x08005be0   0x08005be0   0x00000198   Code   RO         1418    i.HAL_TIM_IRQHandler  stm32h7xx_hal_tim.o
    0x08005d78   0x08005d78   0x00000002   Code   RO         1421    i.HAL_TIM_OC_DelayElapsedCallback  stm32h7xx_hal_tim.o
    0x08005d7a   0x08005d7a   0x00000002   Code   RO         1448    i.HAL_TIM_PWM_PulseFinishedCallback  stm32h7xx_hal_tim.o
    0x08005d7c   0x08005d7c   0x00000002   Code   RO         3912    i.HAL_TIM_PeriodElapsedCallback  main.o
    0x08005d7e   0x08005d7e   0x00000002   Code   RO         1461    i.HAL_TIM_TriggerCallback  stm32h7xx_hal_tim.o
    0x08005d80   0x08005d80   0x00000002   Code   RO         2395    i.HAL_UARTEx_RxEventCallback  stm32h7xx_hal_uart.o
    0x08005d82   0x08005d82   0x00000002   Code   RO         2819    i.HAL_UARTEx_RxFifoFullCallback  stm32h7xx_hal_uart_ex.o
    0x08005d84   0x08005d84   0x00000002   Code   RO         2823    i.HAL_UARTEx_TxFifoEmptyCallback  stm32h7xx_hal_uart_ex.o
    0x08005d86   0x08005d86   0x00000002   Code   RO         2824    i.HAL_UARTEx_WakeupCallback  stm32h7xx_hal_uart_ex.o
    0x08005d88   0x08005d88   0x00000002   Code   RO         2411    i.HAL_UART_ErrorCallback  stm32h7xx_hal_uart.o
    0x08005d8a   0x08005d8a   0x00000002   PAD
    0x08005d8c   0x08005d8c   0x00000494   Code   RO         2414    i.HAL_UART_IRQHandler  stm32h7xx_hal_uart.o
    0x08006220   0x08006220   0x00000078   Code   RO         2415    i.HAL_UART_Init     stm32h7xx_hal_uart.o
    0x08006298   0x08006298   0x000000ac   Code   RO         4011    i.HAL_UART_MspInit  stm32h7xx_hal_msp.o
    0x08006344   0x08006344   0x00000112   Code   RO         2418    i.HAL_UART_Receive  stm32h7xx_hal_uart.o
    0x08006456   0x08006456   0x00000002   PAD
    0x08006458   0x08006458   0x0000005c   Code   RO         2420    i.HAL_UART_Receive_IT  stm32h7xx_hal_uart.o
    0x080064b4   0x080064b4   0x0000004c   Code   RO         4269    i.HAL_UART_RxCpltCallback  uart.o
    0x08006500   0x08006500   0x000000c2   Code   RO         2424    i.HAL_UART_Transmit  stm32h7xx_hal_uart.o
    0x080065c2   0x080065c2   0x00000002   PAD
    0x080065c4   0x080065c4   0x000000ac   Code   RO         2426    i.HAL_UART_Transmit_IT  stm32h7xx_hal_uart.o
    0x08006670   0x08006670   0x0000000c   Code   RO         5038    i.HAL_UART_TxCpltCallback  portserial.o
    0x0800667c   0x0800667c   0x00000004   Code   RO         4067    i.HardFault_Handler  stm32h7xx_it.o
    0x08006680   0x08006680   0x00000014   Code   RO         5040    i.MB_TxCpltCallback  portserial.o
    0x08006694   0x08006694   0x0000004e   Code   RO         3913    i.MPU_Config        main.o
    0x080066e2   0x080066e2   0x00000002   PAD
    0x080066e4   0x080066e4   0x00000060   Code   RO         4270    i.MX_USART1_UART_Init  uart.o
    0x08006744   0x08006744   0x00000004   Code   RO         4068    i.MemManage_Handler  stm32h7xx_it.o
    0x08006748   0x08006748   0x00000002   Code   RO         4069    i.NMI_Handler       stm32h7xx_it.o
    0x0800674a   0x0800674a   0x00000002   Code   RO         4070    i.PendSV_Handler    stm32h7xx_it.o
    0x0800674c   0x0800674c   0x00000164   Code   RO         1210    i.RCCEx_PLL2_Config  stm32h7xx_hal_rcc_ex.o
    0x080068b0   0x080068b0   0x00000164   Code   RO         1211    i.RCCEx_PLL3_Config  stm32h7xx_hal_rcc_ex.o
    0x08006a14   0x08006a14   0x00000010   Code   RO         4071    i.SPI1_IRQHandler   stm32h7xx_it.o
    0x08006a24   0x08006a24   0x0000004c   Code   RO         4330    i.SPI1_Init         spi_protocal.o
    0x08006a70   0x08006a70   0x00000010   Code   RO         4072    i.SPI2_IRQHandler   stm32h7xx_it.o
    0x08006a80   0x08006a80   0x000000fc   Code   RO         3081    i.SPI_CloseTransfer  stm32h7xx_hal_spi.o
    0x08006b7c   0x08006b7c   0x0000001c   Code   RO         3082    i.SPI_DMAAbortOnError  stm32h7xx_hal_spi.o
    0x08006b98   0x08006b98   0x00000030   Code   RO         3083    i.SPI_DMAError      stm32h7xx_hal_spi.o
    0x08006bc8   0x08006bc8   0x0000000e   Code   RO         3084    i.SPI_DMAHalfReceiveCplt  stm32h7xx_hal_spi.o
    0x08006bd6   0x08006bd6   0x0000002e   Code   RO         3087    i.SPI_DMAReceiveCplt  stm32h7xx_hal_spi.o
    0x08006c04   0x08006c04   0x0000001a   Code   RO         3092    i.SPI_GetPacketSize  stm32h7xx_hal_spi.o
    0x08006c1e   0x08006c1e   0x00000002   Code   RO         4073    i.SVC_Handler       stm32h7xx_it.o
    0x08006c20   0x08006c20   0x00000008   Code   RO         4074    i.SysTick_Handler   stm32h7xx_it.o
    0x08006c28   0x08006c28   0x000000fc   Code   RO           14    i.SystemInit        system_stm32h7xx.o
    0x08006d24   0x08006d24   0x00000010   Code   RO         4075    i.TIM3_IRQHandler   stm32h7xx_it.o
    0x08006d34   0x08006d34   0x00000024   Code   RO         5129    i.TIM7_IRQHandler   porttimer.o
    0x08006d58   0x08006d58   0x000000dc   Code   RO         1463    i.TIM_Base_SetConfig  stm32h7xx_hal_tim.o
    0x08006e34   0x08006e34   0x000000f8   Code   RO         2429    i.UART_AdvFeatureConfig  stm32h7xx_hal_uart.o
    0x08006f2c   0x08006f2c   0x000000ea   Code   RO         2430    i.UART_CheckIdleState  stm32h7xx_hal_uart.o
    0x08007016   0x08007016   0x00000018   Code   RO         2431    i.UART_DMAAbortOnError  stm32h7xx_hal_uart.o
    0x0800702e   0x0800702e   0x00000002   PAD
    0x08007030   0x08007030   0x0000006c   Code   RO         2441    i.UART_EndRxTransfer  stm32h7xx_hal_uart.o
    0x0800709c   0x0800709c   0x00000030   Code   RO         2442    i.UART_EndTransmit_IT  stm32h7xx_hal_uart.o
    0x080070cc   0x080070cc   0x00000104   Code   RO         2444    i.UART_RxISR_16BIT  stm32h7xx_hal_uart.o
    0x080071d0   0x080071d0   0x000001fc   Code   RO         2445    i.UART_RxISR_16BIT_FIFOEN  stm32h7xx_hal_uart.o
    0x080073cc   0x080073cc   0x00000104   Code   RO         2446    i.UART_RxISR_8BIT   stm32h7xx_hal_uart.o
    0x080074d0   0x080074d0   0x000001f8   Code   RO         2447    i.UART_RxISR_8BIT_FIFOEN  stm32h7xx_hal_uart.o
    0x080076c8   0x080076c8   0x0000058c   Code   RO         2448    i.UART_SetConfig    stm32h7xx_hal_uart.o
    0x08007c54   0x08007c54   0x0000015c   Code   RO         2450    i.UART_Start_Receive_IT  stm32h7xx_hal_uart.o
    0x08007db0   0x08007db0   0x00000062   Code   RO         2451    i.UART_TxISR_16BIT  stm32h7xx_hal_uart.o
    0x08007e12   0x08007e12   0x00000082   Code   RO         2452    i.UART_TxISR_16BIT_FIFOEN  stm32h7xx_hal_uart.o
    0x08007e94   0x08007e94   0x0000005c   Code   RO         2453    i.UART_TxISR_8BIT   stm32h7xx_hal_uart.o
    0x08007ef0   0x08007ef0   0x0000007e   Code   RO         2454    i.UART_TxISR_8BIT_FIFOEN  stm32h7xx_hal_uart.o
    0x08007f6e   0x08007f6e   0x000000ac   Code   RO         2455    i.UART_WaitOnFlagUntilTimeout  stm32h7xx_hal_uart.o
    0x0800801a   0x0800801a   0x00000002   PAD
    0x0800801c   0x0800801c   0x00000038   Code   RO         4271    i.USART1_IRQHandler  uart.o
    0x08008054   0x08008054   0x00000038   Code   RO         5041    i.USART6_IRQHandler  portserial.o
    0x0800808c   0x0800808c   0x00000004   Code   RO         4077    i.UsageFault_Handler  stm32h7xx_it.o
    0x08008090   0x08008090   0x00000020   Code   RO         5591    i.__0printf         mc_w.l(printfa.o)
    0x080080b0   0x080080b0   0x00000010   Code   RO          501    i.__NVIC_GetPriorityGrouping  stm32h7xx_hal_cortex.o
    0x080080c0   0x080080c0   0x00000028   Code   RO          502    i.__NVIC_SetPriority  stm32h7xx_hal_cortex.o
    0x080080e8   0x080080e8   0x0000000e   Code   RO         5661    i.__scatterload_copy  mc_w.l(handlers.o)
    0x080080f6   0x080080f6   0x00000002   Code   RO         5662    i.__scatterload_null  mc_w.l(handlers.o)
    0x080080f8   0x080080f8   0x0000000e   Code   RO         5663    i.__scatterload_zeroinit  mc_w.l(handlers.o)
    0x08008106   0x08008106   0x00000002   PAD
    0x08008108   0x08008108   0x00000184   Code   RO         5598    i._fp_digits        mc_w.l(printfa.o)
    0x0800828c   0x0800828c   0x000006b4   Code   RO         5599    i._printf_core      mc_w.l(printfa.o)
    0x08008940   0x08008940   0x00000024   Code   RO         5600    i._printf_post_padding  mc_w.l(printfa.o)
    0x08008964   0x08008964   0x0000002e   Code   RO         5601    i._printf_pre_padding  mc_w.l(printfa.o)
    0x08008992   0x08008992   0x00000002   PAD
    0x08008994   0x08008994   0x0000000c   Code   RO         4181    i.delay_init        delay.o
    0x080089a0   0x080089a0   0x00000028   Code   RO         4593    i.eMBEnable         mb.o
    0x080089c8   0x080089c8   0x000000ae   Code   RO         4696    i.eMBFuncReadCoils  mbfunccoils.o
    0x08008a76   0x08008a76   0x000000ac   Code   RO         4735    i.eMBFuncReadDiscreteInputs  mbfuncdisc.o
    0x08008b22   0x08008b22   0x0000008e   Code   RO         4759    i.eMBFuncReadHoldingRegister  mbfuncholding.o
    0x08008bb0   0x08008bb0   0x0000008c   Code   RO         4801    i.eMBFuncReadInputRegister  mbfuncinput.o
    0x08008c3c   0x08008c3c   0x00000066   Code   RO         4224    i.eMBFuncReadSpectrum  mbcustomfunctioncode.o
    0x08008ca2   0x08008ca2   0x000000d4   Code   RO         4760    i.eMBFuncReadWriteMultipleHoldingRegister  mbfuncholding.o
    0x08008d76   0x08008d76   0x00000002   PAD
    0x08008d78   0x08008d78   0x00000028   Code   RO         4825    i.eMBFuncReportSlaveID  mbfuncother.o
    0x08008da0   0x08008da0   0x00000070   Code   RO         4697    i.eMBFuncWriteCoil  mbfunccoils.o
    0x08008e10   0x08008e10   0x00000042   Code   RO         4761    i.eMBFuncWriteHoldingRegister  mbfuncholding.o
    0x08008e52   0x08008e52   0x00000090   Code   RO         4698    i.eMBFuncWriteMultipleCoils  mbfunccoils.o
    0x08008ee2   0x08008ee2   0x0000006e   Code   RO         4762    i.eMBFuncWriteMultipleHoldingRegister  mbfuncholding.o
    0x08008f50   0x08008f50   0x000000e0   Code   RO         4594    i.eMBInit           mb.o
    0x08009030   0x08009030   0x0000012c   Code   RO         4595    i.eMBPoll           mb.o
    0x0800915c   0x0800915c   0x00000058   Code   RO         4858    i.eMBRTUInit        mbrtu.o
    0x080091b4   0x080091b4   0x00000050   Code   RO         4859    i.eMBRTUReceive     mbrtu.o
    0x08009204   0x08009204   0x00000090   Code   RO         4860    i.eMBRTUSend        mbrtu.o
    0x08009294   0x08009294   0x00000024   Code   RO         4861    i.eMBRTUStart       mbrtu.o
    0x080092b8   0x080092b8   0x00000018   Code   RO         4862    i.eMBRTUStop        mbrtu.o
    0x080092d0   0x080092d0   0x00000134   Code   RO         5179    i.eMBRegCoilsCB     user_mb_app.o
    0x08009404   0x08009404   0x000000c8   Code   RO         5180    i.eMBRegDiscreteCB  user_mb_app.o
    0x080094cc   0x080094cc   0x000000b4   Code   RO         5181    i.eMBRegHoldingCB   user_mb_app.o
    0x08009580   0x08009580   0x00000070   Code   RO         5182    i.eMBRegInputCB     user_mb_app.o
    0x080095f0   0x080095f0   0x00000018   Code   RO         4273    i.fputc             uart.o
    0x08009608   0x08009608   0x00000070   Code   RO         3915    i.main              main.o
    0x08009678   0x08009678   0x00000022   Code   RO         4931    i.prveMBError2Exception  mbutils.o
    0x0800969a   0x0800969a   0x00000002   PAD
    0x0800969c   0x0800969c   0x00000010   Code   RO         5130    i.prvvTIMERExpiredISR  porttimer.o
    0x080096ac   0x080096ac   0x00000010   Code   RO         5042    i.prvvUARTRxISR     portserial.o
    0x080096bc   0x080096bc   0x00000010   Code   RO         5043    i.prvvUARTTxReadyISR  portserial.o
    0x080096cc   0x080096cc   0x00000018   Code   RO         5044    i.rs485_tx_set      portserial.o
    0x080096e4   0x080096e4   0x00000008   Code   RO         4331    i.spectrum_get_data_buffer  spi_protocal.o
    0x080096ec   0x080096ec   0x00000008   Code   RO         4332    i.spi_get_receive_buffer  spi_protocal.o
    0x080096f4   0x080096f4   0x00000034   Code   RO         4333    i.spi_poll_receive  spi_protocal.o
    0x08009728   0x08009728   0x00000070   Code   RO         4336    i.spi_start_receive_data  spi_protocal.o
    0x08009798   0x08009798   0x00000130   Code   RO         3916    i.sys_stm32_clock_init  main.o
    0x080098c8   0x080098c8   0x00000038   Code   RO         4670    i.usMBCRC16         mbcrc.o
    0x08009900   0x08009900   0x00000080   Code   RO         5045    i.vMBPortSerialEnable  portserial.o
    0x08009980   0x08009980   0x00000018   Code   RO         5131    i.vMBPortTimersDisable  porttimer.o
    0x08009998   0x08009998   0x00000018   Code   RO         5132    i.vMBPortTimersEnable  porttimer.o
    0x080099b0   0x080099b0   0x00000024   Code   RO         5000    i.xMBPortEventGet   portevent.o
    0x080099d4   0x080099d4   0x00000010   Code   RO         5001    i.xMBPortEventInit  portevent.o
    0x080099e4   0x080099e4   0x00000018   Code   RO         5002    i.xMBPortEventPost  portevent.o
    0x080099fc   0x080099fc   0x0000001c   Code   RO         5046    i.xMBPortSerialGetByte  portserial.o
    0x08009a18   0x08009a18   0x000001b8   Code   RO         5047    i.xMBPortSerialInit  portserial.o
    0x08009bd0   0x08009bd0   0x00000014   Code   RO         5048    i.xMBPortSerialPutByte  portserial.o
    0x08009be4   0x08009be4   0x00000070   Code   RO         5133    i.xMBPortTimersInit  porttimer.o
    0x08009c54   0x08009c54   0x00000088   Code   RO         4863    i.xMBRTUReceiveFSM  mbrtu.o
    0x08009cdc   0x08009cdc   0x00000040   Code   RO         4864    i.xMBRTUTimerT35Expired  mbrtu.o
    0x08009d1c   0x08009d1c   0x0000006c   Code   RO         4865    i.xMBRTUTransmitFSM  mbrtu.o
    0x08009d88   0x08009d88   0x0000002a   Code   RO         4932    i.xMBUtilGetBits    mbutils.o
    0x08009db2   0x08009db2   0x00000060   Code   RO         4933    i.xMBUtilSetBits    mbutils.o
    0x08009e12   0x08009e12   0x00000010   Data   RO           15    .constdata          system_stm32h7xx.o
    0x08009e22   0x08009e22   0x00000018   Data   RO         2456    .constdata          stm32h7xx_hal_uart.o
    0x08009e3a   0x08009e3a   0x00000008   Data   RO         2951    .constdata          stm32h7xx_hal_dma.o
    0x08009e42   0x08009e42   0x00000200   Data   RO         4671    .constdata          mbcrc.o
    0x0800a042   0x0800a042   0x00000002   PAD
    0x0800a044   0x0800a044   0x00000020   Data   RO         5659    Region$$Table       anon$$obj.o


    Execution Region RW_IRAM1 (Exec base: 0x20000000, Load base: 0x0800a064, Size: 0x00007470, Max: 0x00020000, ABSOLUTE)

    Exec Addr    Load Addr    Size         Type   Attr      Idx    E Section Name        Object

    0x20000000   0x0800a064   0x00000008   Data   RW           16    .data               system_stm32h7xx.o
    0x20000008   0x0800a06c   0x00000009   Data   RW          212    .data               stm32h7xx_hal.o
    0x20000011   0x0800a075   0x00000003   PAD
    0x20000014   0x0800a078   0x00000004   Data   RW         4184    .data               delay.o
    0x20000018   0x0800a07c   0x00000004   Data   RW         4276    .data               uart.o
    0x2000001c   0x0800a080   0x00000004   Data   RW         4339    .data               spi_protocal.o
    0x20000020   0x0800a084   0x000000b5   Data   RW         4597    .data               mb.o
    0x200000d5   0x0800a139   0x00000001   PAD
    0x200000d6   0x0800a13a   0x00000002   Data   RW         4828    .data               mbfuncother.o
    0x200000d8   0x0800a13c   0x0000000c   Data   RW         4867    .data               mbrtu.o
    0x200000e4   0x0800a148   0x00000002   Data   RW         5003    .data               portevent.o
    0x200000e6   0x0800a14a   0x00000012   Data   RW         5184    .data               user_mb_app.o
    0x200000f8   0x0800a15c   0x00000004   Data   RW         5635    .data               mc_w.l(stdout.o)
    0x200000fc        -       0x0000004c   Zero   RW         3917    .bss                main.o
    0x20000148        -       0x00000078   Zero   RW         4012    .bss                stm32h7xx_hal_msp.o
    0x200001c0        -       0x00000194   Zero   RW         4275    .bss                uart.o
    0x20000354        -       0x00005488   Zero   RW         4338    .bss                spi_protocal.o
    0x200057dc        -       0x00000020   Zero   RW         4827    .bss                mbfuncother.o
    0x200057fc        -       0x00001600   Zero   RW         4866    .bss                mbrtu.o
    0x20006dfc        -       0x00000094   Zero   RW         5049    .bss                portserial.o
    0x20006e90        -       0x0000004c   Zero   RW         5134    .bss                porttimer.o
    0x20006edc        -       0x00000190   Zero   RW         5183    .bss                user_mb_app.o
    0x2000706c   0x0800a160   0x00000004   PAD
    0x20007070        -       0x00000400   Zero   RW            1    STACK               startup_stm32h743xx.o



  Load Region LR$$.ARM.__AT_0x38000000 (Base: 0x38000000, Size: 0x00000000, Max: 0x00005650, ABSOLUTE)

    Execution Region ER$$.ARM.__AT_0x38000000 (Exec base: 0x38000000, Load base: 0x38000000, Size: 0x00005650, Max: 0x00005650, ABSOLUTE, UNINIT)

    Exec Addr    Load Addr    Size         Type   Attr      Idx    E Section Name        Object

    0x38000000        -       0x00005650   Zero   RW         4337    .ARM.__AT_0x38000000  spi_protocal.o


==============================================================================

Image component sizes


      Code (inc. data)   RO Data    RW Data    ZI Data      Debug   Object Name

        12          6          0          4          0        601   delay.o
       684         40          0          0         76      10612   main.o
       564        122          0        181          0       4651   mb.o
        56          8        512          0          0       1132   mbcrc.o
       102          0          0          0          0       1774   mbcustomfunctioncode.o
       430          0          0          0          0       3674   mbfunccoils.o
       172          0          0          0          0       1524   mbfuncdisc.o
       530          0          0          0          0       4895   mbfuncholding.o
       140          0          0          0          0       1475   mbfuncinput.o
        40         10          0          2         32       1255   mbfuncother.o
       680         70          0         12       5632       6011   mbrtu.o
       172          0          0          0          0       2494   mbutils.o
        20          0          0          0          0       6617   port.o
        76         24          0          2          0       2048   portevent.o
       760         66          0          0        148       7126   portserial.o
       212         34          0          0         76       3177   porttimer.o
       296         56          0          4      43736       5729   spi_protocal.o
        36          8        664          0       1024        932   startup_stm32h743xx.o
       254         54          0          9          0      23475   stm32h7xx_hal.o
       474         40          0          0          0      41401   stm32h7xx_hal_cortex.o
      8668        168          8          0          0      13553   stm32h7xx_hal_dma.o
       520         52          0          0          0       2044   stm32h7xx_hal_gpio.o
       952         56          0          0        120       2425   stm32h7xx_hal_msp.o
        20          6          0          0          0        549   stm32h7xx_hal_pwr_ex.o
      3640        114          0          0          0       6752   stm32h7xx_hal_rcc.o
      5300        108          0          0          0       7121   stm32h7xx_hal_rcc_ex.o
      2250         28          0          0          0       9653   stm32h7xx_hal_spi.o
       990         68          0          0          0       7049   stm32h7xx_hal_tim.o
         6          0          0          0          0       2104   stm32h7xx_hal_tim_ex.o
      6608        220         24          0          0      42218   stm32h7xx_hal_uart.o
         6          0          0          0          0       2129   stm32h7xx_hal_uart_ex.o
       114         26          0          0          0       6727   stm32h7xx_it.o
       252         40         16          8          0    1314650   system_stm32h7xx.o
       252         48          0          4        404       2826   uart.o
       800         34          0         18        400       4639   user_mb_app.o

    ----------------------------------------------------------------------
     36112       1506       1258        248      51652    1555042   Object Totals
         0          0         32          0          0          0   (incl. Generated)
        24          0          2          4          4          0   (incl. Padding)

    ----------------------------------------------------------------------

      Code (inc. data)   RO Data    RW Data    ZI Data      Debug   Library Member Name

         0          0          0          0          0          0   entry.o
         0          0          0          0          0          0   entry10a.o
         0          0          0          0          0          0   entry11a.o
         4          0          0          0          0          0   entry12b.o
         8          4          0          0          0          0   entry2.o
         4          0          0          0          0          0   entry5.o
         0          0          0          0          0          0   entry7b.o
         0          0          0          0          0          0   entry8b.o
         8          4          0          0          0          0   entry9a.o
        30          0          0          0          0          0   handlers.o
        36          8          0          0          0         68   init.o
         0          0          0          0          0          0   iusefp.o
        30          0          0          0          0         68   llshl.o
        36          0          0          0          0         68   llsshr.o
        32          0          0          0          0         68   llushr.o
        36          0          0          0          0         68   memcpya.o
        36          0          0          0          0        108   memseta.o
      2218         90          0          0          0        464   printfa.o
         0          0          0          4          0          0   stdout.o
        44          0          0          0          0         80   uidiv.o
        98          0          0          0          0         92   uldiv.o
        48          0          0          0          0         68   cdrcmple.o
       334          0          0          0          0        148   dadd.o
       222          0          0          0          0        100   ddiv.o
       186          0          0          0          0        176   depilogue.o
        48          0          0          0          0         68   dfixul.o
       228          0          0          0          0         96   dmul.o

    ----------------------------------------------------------------------
      3690        106          0          4          0       1740   Library Totals
         4          0          0          0          0          0   (incl. Padding)

    ----------------------------------------------------------------------

      Code (inc. data)   RO Data    RW Data    ZI Data      Debug   Library Name

      2620        106          0          4          0       1084   mc_w.l
      1066          0          0          0          0        656   mf_w.l

    ----------------------------------------------------------------------
      3690        106          0          4          0       1740   Library Totals

    ----------------------------------------------------------------------

==============================================================================


      Code (inc. data)   RO Data    RW Data    ZI Data      Debug   

     39802       1612       1258        252      51652    1538702   Grand Totals
     39802       1612       1258        252      51652    1538702   ELF Image Totals
     39802       1612       1258        252          0          0   ROM Totals

==============================================================================

    Total RO  Size (Code + RO Data)                41060 (  40.10kB)
    Total RW  Size (RW Data + ZI Data)             51904 (  50.69kB)
    Total ROM Size (Code + RO Data + RW Data)      41312 (  40.34kB)

==============================================================================

